{
  "contractName": "Asn1Decode",
  "abi": [
    {
      "constant": true,
      "inputs": [],
      "name": "LOCATION_VALID_NOT_AFTER",
      "outputs": [
        {
          "name": "",
          "type": "bytes"
        }
      ],
      "payable": false,
      "stateMutability": "view",
      "type": "function"
    },
    {
      "constant": true,
      "inputs": [],
      "name": "LOCATION_SERIAL_NUMBER",
      "outputs": [
        {
          "name": "",
          "type": "bytes"
        }
      ],
      "payable": false,
      "stateMutability": "view",
      "type": "function"
    },
    {
      "constant": true,
      "inputs": [],
      "name": "COMMON_NAME",
      "outputs": [
        {
          "name": "",
          "type": "bytes"
        }
      ],
      "payable": false,
      "stateMutability": "view",
      "type": "function"
    },
    {
      "constant": true,
      "inputs": [],
      "name": "LOCATION_VALID_NOT_BEFORE",
      "outputs": [
        {
          "name": "",
          "type": "bytes"
        }
      ],
      "payable": false,
      "stateMutability": "view",
      "type": "function"
    },
    {
      "constant": true,
      "inputs": [],
      "name": "LOCATION_PUB_KEY",
      "outputs": [
        {
          "name": "",
          "type": "bytes"
        }
      ],
      "payable": false,
      "stateMutability": "view",
      "type": "function"
    },
    {
      "constant": true,
      "inputs": [
        {
          "name": "der",
          "type": "bytes"
        }
      ],
      "name": "nodeRoot",
      "outputs": [
        {
          "components": [
            {
              "name": "ixs",
              "type": "uint256"
            },
            {
              "name": "ixf",
              "type": "uint256"
            },
            {
              "name": "ixl",
              "type": "uint256"
            }
          ],
          "name": "",
          "type": "tuple"
        }
      ],
      "payable": false,
      "stateMutability": "pure",
      "type": "function"
    },
    {
      "constant": true,
      "inputs": [
        {
          "name": "der",
          "type": "bytes"
        },
        {
          "components": [
            {
              "name": "ixs",
              "type": "uint256"
            },
            {
              "name": "ixf",
              "type": "uint256"
            },
            {
              "name": "ixl",
              "type": "uint256"
            }
          ],
          "name": "n",
          "type": "tuple"
        }
      ],
      "name": "nodeNext",
      "outputs": [
        {
          "components": [
            {
              "name": "ixs",
              "type": "uint256"
            },
            {
              "name": "ixf",
              "type": "uint256"
            },
            {
              "name": "ixl",
              "type": "uint256"
            }
          ],
          "name": "",
          "type": "tuple"
        }
      ],
      "payable": false,
      "stateMutability": "pure",
      "type": "function"
    },
    {
      "constant": true,
      "inputs": [
        {
          "name": "der",
          "type": "bytes"
        },
        {
          "components": [
            {
              "name": "ixs",
              "type": "uint256"
            },
            {
              "name": "ixf",
              "type": "uint256"
            },
            {
              "name": "ixl",
              "type": "uint256"
            }
          ],
          "name": "n",
          "type": "tuple"
        }
      ],
      "name": "nodeFirstChild",
      "outputs": [
        {
          "components": [
            {
              "name": "ixs",
              "type": "uint256"
            },
            {
              "name": "ixf",
              "type": "uint256"
            },
            {
              "name": "ixl",
              "type": "uint256"
            }
          ],
          "name": "",
          "type": "tuple"
        }
      ],
      "payable": false,
      "stateMutability": "pure",
      "type": "function"
    },
    {
      "constant": true,
      "inputs": [
        {
          "components": [
            {
              "name": "ixs",
              "type": "uint256"
            },
            {
              "name": "ixf",
              "type": "uint256"
            },
            {
              "name": "ixl",
              "type": "uint256"
            }
          ],
          "name": "i",
          "type": "tuple"
        },
        {
          "components": [
            {
              "name": "ixs",
              "type": "uint256"
            },
            {
              "name": "ixf",
              "type": "uint256"
            },
            {
              "name": "ixl",
              "type": "uint256"
            }
          ],
          "name": "j",
          "type": "tuple"
        }
      ],
      "name": "nodeIsChildOf",
      "outputs": [
        {
          "name": "",
          "type": "bool"
        }
      ],
      "payable": false,
      "stateMutability": "pure",
      "type": "function"
    },
    {
      "constant": true,
      "inputs": [
        {
          "name": "der",
          "type": "bytes"
        },
        {
          "name": "location",
          "type": "bytes"
        }
      ],
      "name": "nodeTraverse",
      "outputs": [
        {
          "components": [
            {
              "name": "ixs",
              "type": "uint256"
            },
            {
              "name": "ixf",
              "type": "uint256"
            },
            {
              "name": "ixl",
              "type": "uint256"
            }
          ],
          "name": "",
          "type": "tuple"
        }
      ],
      "payable": false,
      "stateMutability": "pure",
      "type": "function"
    },
    {
      "constant": true,
      "inputs": [
        {
          "name": "der",
          "type": "bytes"
        },
        {
          "components": [
            {
              "name": "ixs",
              "type": "uint256"
            },
            {
              "name": "ixf",
              "type": "uint256"
            },
            {
              "name": "ixl",
              "type": "uint256"
            }
          ],
          "name": "n",
          "type": "tuple"
        }
      ],
      "name": "getValue",
      "outputs": [
        {
          "name": "",
          "type": "bytes"
        }
      ],
      "payable": false,
      "stateMutability": "pure",
      "type": "function"
    },
    {
      "constant": true,
      "inputs": [
        {
          "name": "der",
          "type": "bytes"
        },
        {
          "components": [
            {
              "name": "ixs",
              "type": "uint256"
            },
            {
              "name": "ixf",
              "type": "uint256"
            },
            {
              "name": "ixl",
              "type": "uint256"
            }
          ],
          "name": "n",
          "type": "tuple"
        }
      ],
      "name": "getAll",
      "outputs": [
        {
          "name": "",
          "type": "bytes"
        }
      ],
      "payable": false,
      "stateMutability": "pure",
      "type": "function"
    },
    {
      "constant": true,
      "inputs": [
        {
          "name": "bitstr",
          "type": "bytes"
        }
      ],
      "name": "decodeBitstring",
      "outputs": [
        {
          "name": "",
          "type": "bytes"
        }
      ],
      "payable": false,
      "stateMutability": "pure",
      "type": "function"
    },
    {
      "constant": true,
      "inputs": [
        {
          "name": "encodedUint",
          "type": "bytes"
        }
      ],
      "name": "decodeUint",
      "outputs": [
        {
          "name": "",
          "type": "uint256"
        }
      ],
      "payable": false,
      "stateMutability": "pure",
      "type": "function"
    }
  ],
  "bytecode": "0x608060405234801561001057600080fd5b50611404806100206000396000f3006080604052600436106100d0576000357c0100000000000000000000000000000000000000000000000000000000900463ffffffff1680630ad12b30146100d55780631a06bbf8146101125780631d3578901461014f57806337aebd941461017a5780634a578ddb146101b757806358f63b45146101f45780635deb46281461021f5780635fdd22c71461025c5780636ff247011461028757806379b1fb6b146102c45780637dec8a3d146103015780638b6944911461032c57806397a431a514610357578063c1faef7a14610394575b600080fd5b3480156100e157600080fd5b506100fc60048036036100f791908101906110f7565b6103d1565b6040516101099190611290565b60405180910390f35b34801561011e57600080fd5b506101396004803603610134919081019061104a565b6104e2565b60405161014691906112b2565b60405180910390f35b34801561015b57600080fd5b506101646104fc565b604051610171919061126e565b60405180910390f35b34801561018657600080fd5b506101a1600480360361019c91908101906110f7565b610534565b6040516101ae9190611290565b60405180910390f35b3480156101c357600080fd5b506101de60048036036101d991908101906110f7565b610645565b6040516101eb91906112b2565b60405180910390f35b34801561020057600080fd5b50610209610737565b604051610216919061126e565b60405180910390f35b34801561022b57600080fd5b50610246600480360361024191908101906110f7565b61076f565b60405161025391906112b2565b60405180910390f35b34801561026857600080fd5b50610271610790565b60405161027e919061126e565b60405180910390f35b34801561029357600080fd5b506102ae60048036036102a9919081019061104a565b6107c9565b6040516102bb91906112cd565b60405180910390f35b3480156102d057600080fd5b506102eb60048036036102e6919081019061104a565b610886565b6040516102f89190611290565b60405180910390f35b34801561030d57600080fd5b50610316610a2f565b604051610323919061126e565b60405180910390f35b34801561033857600080fd5b50610341610a67565b60405161034e919061126e565b60405180910390f35b34801561036357600080fd5b5061037e6004803603610379919081019061114b565b610a9f565b60405161038b9190611253565b60405180910390f35b3480156103a057600080fd5b506103bb60048036036103b6919081019061108b565b610af0565b6040516103c891906112b2565b60405180910390f35b606060006060600084602001516001866040015101039250826040519080825280601f01601f19166020018201604052801561041c5781602001602082028038833980820191505090505b509150600090505b828110156104d657858186602001510181518110151561044057fe5b9060200101517f010000000000000000000000000000000000000000000000000000000000000090047f010000000000000000000000000000000000000000000000000000000000000002828281518110151561049957fe5b9060200101907effffffffffffffffffffffffffffffffffffffffffffffffffffffffffffff1916908160001a9053508080600101915050610424565b81935050505092915050565b6104ea610f5e565b6104f5826000610cad565b9050919050565b6040805190810160405280600581526020017e0204010100000000000000000000000000000000000000000000000000000081525081565b606060006060600084600001516001866040015101039250826040519080825280601f01601f19166020018201604052801561057f5781602001602082028038833980820191505090505b509150600090505b828110156106395785818660000151018151811015156105a357fe5b9060200101517f010000000000000000000000000000000000000000000000000000000000000090047f01000000000000000000000000000000000000000000000000000000000000000282828151811015156105fc57fe5b9060200101907effffffffffffffffffffffffffffffffffffffffffffffffffffffffffffff1916908160001a9053508080600101915050610587565b81935050505092915050565b61064d610f5e565b60207f01000000000000000000000000000000000000000000000000000000000000000260207f0100000000000000000000000000000000000000000000000000000000000000028484600001518151811015156106a757fe5b9060200101517f010000000000000000000000000000000000000000000000000000000000000090047f010000000000000000000000000000000000000000000000000000000000000002167effffffffffffffffffffffffffffffffffffffffffffffffffffffffffffff191614151561072157600080fd5b61072f838360200151610cad565b905092915050565b6040805190810160405280600381526020017e0201000000000000000000000000000000000000000000000000000000000081525081565b610777610f5e565b610788836001846040015101610cad565b905092915050565b6040805190810160405280600381526020017f550403000000000000000000000000000000000000000000000000000000000081525081565b6000806000809150600090505b83518160ff16101561087c576008829060020a029150838160ff168151811015156107fd57fe5b9060200101517f010000000000000000000000000000000000000000000000000000000000000090047f0100000000000000000000000000000000000000000000000000000000000000027f010000000000000000000000000000000000000000000000000000000000000090048217915080806001019150506107d6565b8192505050919050565b6060806000807f0100000000000000000000000000000000000000000000000000000000000000028460008151811015156108bd57fe5b9060200101517f010000000000000000000000000000000000000000000000000000000000000090047f0100000000000000000000000000000000000000000000000000000000000000027effffffffffffffffffffffffffffffffffffffffffffffffffffffffffffff191614151561093657600080fd5b60018451036040519080825280601f01601f19166020018201604052801561096d5781602001602082028038833980820191505090505b509150600090505b8151811015610a2557836001820181518110151561098f57fe5b9060200101517f010000000000000000000000000000000000000000000000000000000000000090047f01000000000000000000000000000000000000000000000000000000000000000282828151811015156109e857fe5b9060200101907effffffffffffffffffffffffffffffffffffffffffffffffffffffffffffff1916908160001a9053508080600101915050610975565b8192505050919050565b6040805190810160405280600481526020017e0204010000000000000000000000000000000000000000000000000000000081525081565b6040805190810160405280600381526020017e0206000000000000000000000000000000000000000000000000000000000081525081565b60008160000151836020015111158015610ac157508260400151826040015111155b80610ae857508260000151826020015111158015610ae757508160400151836040015111155b5b905092915050565b610af8610f5e565b610b00610f5e565b600080610b0c866104e2565b9250600091505b84518260ff161015610ca157600060028360ff16811515610b3057fe5b0660ff161415610be957600090505b848260ff16815181101515610b5057fe5b9060200101517f010000000000000000000000000000000000000000000000000000000000000090047f0100000000000000000000000000000000000000000000000000000000000000027f0100000000000000000000000000000000000000000000000000000000000000900460ff168160ff161015610be457610bd5868461076f565b92508080600101915050610b3f565b610c94565b600090505b848260ff16815181101515610bff57fe5b9060200101517f010000000000000000000000000000000000000000000000000000000000000090047f0100000000000000000000000000000000000000000000000000000000000000027f0100000000000000000000000000000000000000000000000000000000000000900460ff168160ff161015610c9357610c848684610645565b92508080600101915050610bee565b5b8180600101925050610b13565b82935050505092915050565b610cb5610f5e565b6000806000806000606060008960018a01815181101515610cd257fe5b9060200101517f010000000000000000000000000000000000000000000000000000000000000090047f0100000000000000000000000000000000000000000000000000000000000000027f01000000000000000000000000000000000000000000000000000000000000009004965060007f01000000000000000000000000000000000000000000000000000000000000000260807f0100000000000000000000000000000000000000000000000000000000000000028b60018c01815181101515610d9b57fe5b9060200101517f010000000000000000000000000000000000000000000000000000000000000090047f010000000000000000000000000000000000000000000000000000000000000002167effffffffffffffffffffffffffffffffffffffffffffffffffffffffffffff19161415610e25578695506002890194506001868601039350610f33565b607f87169250826040519080825280601f01601f191660200182016040528015610e5e5781602001602082028038833980820191505090505b509150600090505b82811015610f1757898160028b0101815181101515610e8157fe5b9060200101517f010000000000000000000000000000000000000000000000000000000000000090047f0100000000000000000000000000000000000000000000000000000000000000028282815181101515610eda57fe5b9060200101907effffffffffffffffffffffffffffffffffffffffffffffffffffffffffffff1916908160001a9053508080600101915050610e66565b610f20826107c9565b95508260028a0101945060018686010393505b6060604051908101604052808a81526020018681526020018581525097505050505050505092915050565b6060604051908101604052806000815260200160008152602001600081525090565b600082601f8301121515610f9357600080fd5b8135610fa6610fa182611315565b6112e8565b91508082526020830160208301858383011115610fc257600080fd5b610fcd838284611377565b50505092915050565b600060608284031215610fe857600080fd5b610ff260606112e8565b9050600061100284828501611036565b600083015250602061101684828501611036565b602083015250604061102a84828501611036565b60408301525092915050565b6000611042823561136d565b905092915050565b60006020828403121561105c57600080fd5b600082013567ffffffffffffffff81111561107657600080fd5b61108284828501610f80565b91505092915050565b6000806040838503121561109e57600080fd5b600083013567ffffffffffffffff8111156110b857600080fd5b6110c485828601610f80565b925050602083013567ffffffffffffffff8111156110e157600080fd5b6110ed85828601610f80565b9150509250929050565b6000806080838503121561110a57600080fd5b600083013567ffffffffffffffff81111561112457600080fd5b61113085828601610f80565b925050602061114185828601610fd6565b9150509250929050565b60008060c0838503121561115e57600080fd5b600061116c85828601610fd6565b925050606061117d85828601610fd6565b9150509250929050565b61119081611357565b82525050565b60006111a18261134c565b8084526111b5816020860160208601611386565b6111be816113b9565b602085010191505092915050565b60006111d782611341565b8084526111eb816020860160208601611386565b6111f4816113b9565b602085010191505092915050565b6060820160008201516112186000850182611244565b50602082015161122b6020850182611244565b50604082015161123e6040850182611244565b50505050565b61124d81611363565b82525050565b60006020820190506112686000830184611187565b92915050565b6000602082019050818103600083015261128881846111cc565b905092915050565b600060208201905081810360008301526112aa8184611196565b905092915050565b60006060820190506112c76000830184611202565b92915050565b60006020820190506112e26000830184611244565b92915050565b6000604051905081810181811067ffffffffffffffff8211171561130b57600080fd5b8060405250919050565b600067ffffffffffffffff82111561132c57600080fd5b601f19601f8301169050602081019050919050565b600081519050919050565b600081519050919050565b60008115159050919050565b6000819050919050565b6000819050919050565b82818337600083830152505050565b60005b838110156113a4578082015181840152602081019050611389565b838111156113b3576000848401525b50505050565b6000601f19601f83011690509190505600a265627a7a7230582098d6d77d116e08555123e54b0ece4089d4f7edd2aebaedbd85e2b7d84c7a2b086c6578706572696d656e74616cf50037",
  "source": "pragma solidity  ^0.4.25;\npragma experimental ABIEncoderV2;\n\ncontract Asn1Decode {\n  /*\n   * Points to a node in a der-encoded asn1 sturture (which is a bytes array)\n   */\n  struct NodePtr {\n    uint ixs; // first byte index\n    uint ixf; // first content byte index\n    uint ixl; // last content byte index\n  }\n  /*\n   * First step in traversing an asn1 structure\n   *\n   * @param der The der-encoded asn1 structure\n   * @return a NodePtr object pointing to the outermost node\n   */\n  function nodeRoot(bytes der) public pure returns (NodePtr) {\n  \treturn asn1_read_length(der, 0);\n  }\n\n  /*\n   * Get the next sibling node\n   *\n   * @param der The der-encoded asn1 structure\n   * @param n The current node\n   * @return a NodePtr object pointing to the next sibling node\n   */\n  function nodeNext(bytes der, NodePtr n) public pure returns (NodePtr) {\n  \treturn asn1_read_length(der, n.ixl+1);\n  }\n\n  /*\n   * Get the first child node of the current node\n   *\n   * @param der The der-encoded asn1 structure\n   * @param n The current node\n   * @return a NodePtr object pointing to the next sibling node\n   */\n  function nodeFirstChild(bytes der, NodePtr n) public pure returns (NodePtr) {\n    // Can only open constructed types\n  \trequire(der[n.ixs] & 0x20 == 0x20);\n  \treturn asn1_read_length(der, n.ixf);\n  }\n\n  /*\n   * Returs true if j is child of i or if i is child of j. Used for looping\n   * through children of a given node (either i or j).\n   *\n   * @param i Pointer to an asn1 node\n   * @param j Pointer to another asn1 node of the same asn1 structure\n   * @return weather i or j is the direct child of the other.\n   */\n  function nodeIsChildOf(NodePtr i, NodePtr j) public pure returns (bool) {\n  \treturn ( ((i.ixf <= j.ixs) && (j.ixl <= i.ixl)) ||\n             ((j.ixf <= i.ixs) && (i.ixl <= j.ixl)) );\n  }\n  /*\n   * @dev Traverses a der-encoded chunk of bytes by repeatedly using nodeNext and\n   * nodeFirstChild in an alternating fashion.\n   *\n   * @param der The der-encoded asn1 structure to traverse\n   * @param location The encoded traversal instructions\n   *    - every even-index byte performes a nodeNext() operation a number of\n          times equal to its value\n   *    - every odd-index byte performs a nodeFirstChild() operation a number of\n          times equal to its value\n   *    ex: \\x00\\x02\\x01 performs nodeRoot() then  (0 x nodeNext()) then\n          (2 x nodeFirstChild()) then (1 x nodeNext())\n   *\n   *  @return a NodePtr struct pointing to the index of the node traversed to\n   */\n   bytes constant public COMMON_NAME = \"\\x55\\x04\\x03\";\n   // shortcuts to commonly used X509 nodes\n   bytes constant public LOCATION_SERIAL_NUMBER = '\\x00\\x02\\x01';\n   bytes constant public LOCATION_VALID_NOT_BEFORE = '\\x00\\x02\\x04\\x01';\n   bytes constant public LOCATION_VALID_NOT_AFTER = '\\x00\\x02\\x04\\x01\\x01';\n   bytes constant public LOCATION_PUB_KEY = '\\x00\\x02\\x06';\n  function nodeTraverse(bytes der, bytes location) public pure returns (NodePtr) {\n    NodePtr memory i;\n    uint8 j;\n    uint8 k;\n\n    i = nodeRoot(der);\n    for (j=0; j<location.length; j++) {\n      if (j % 2 == 0) {\n        for (k=0; k<uint8(location[j]); k++) {\n          i = nodeNext(der, i);\n        }\n      } else {\n        for (k=0; k<uint8(location[j]); k++) {\n          i = nodeFirstChild(der, i);\n        }\n      }\n    }\n\n    return i;\n  }\n\n  // Get the value of the node\n  function getValue(bytes der, NodePtr n) public pure returns (bytes) {\n    uint valueLength = n.ixl + 1 - n.ixf;\n    bytes memory ret = new bytes(valueLength);                 // currently there cannot be dynamic arrays in memory. This will need to be changed next protocol update\n    for (uint i=0; i<valueLength; i++) {\n      ret[i] = der[n.ixf + i];\n    }\n  \treturn ret;\n  }\n\n  // Get the entire node\n  function getAll(bytes der, NodePtr n) public pure returns (bytes) {\n    uint valueLength = n.ixl + 1 - n.ixs;\n    bytes memory ret = new bytes(valueLength);                 // currently there cannot be dynamic arrays in memory. This will need to be changed next protocol update\n    for (uint i=0; i<valueLength; i++) {\n      ret[i] = der[n.ixs + i];\n    }\n  \treturn ret;\n  }\n\n  function decodeBitstring(bytes bitstr) public pure returns (bytes) {\n    // Only 00 padded bitstr can be converted to bytestr!\n  \trequire(bitstr[0] == 0x00);\n  \tbytes memory ret = new bytes(bitstr.length-1);\n    for (uint i=0; i<ret.length; i++) {\n      ret[i] = bitstr[i+1];\n    }\n  \treturn ret;\n  }\n\n  // Might need to be looked at / tested thoroughly\n  function decodeUint(bytes encodedUint) public pure returns (uint) {\n    uint i = 0;\n    for (uint8 j=0; j<encodedUint.length; j++) {\n      i <<= 8;\n  \ti |= uint(encodedUint[j]);\n    }\n  \treturn i;\n  }\n\n  // helper func\n  function asn1_read_length(bytes der, uint ix) private pure returns (NodePtr) {\n  \tuint first = uint(der[ix+1]);\n    uint length;\n    uint ix_first_content_byte;\n    uint ix_last_content_byte;\n  \tif ((der[ix+1] & 0x80) == 0) {\n  \t\tlength = first;\n  \t\tix_first_content_byte = ix+2;\n  \t\tix_last_content_byte = ix_first_content_byte + length -1;\n    } else {  // -------------------- not thoroughly tested!! ------------------\n      uint lengthbytesLength = first & 0x7F;\n      bytes memory lengthbytes = new bytes(lengthbytesLength);\n      for (uint i=0; i<lengthbytesLength; i++) {\n          lengthbytes[i] = der[ix+2 + i];\n      }\n  \t\tlength = decodeUint(lengthbytes);\n  \t\tix_first_content_byte = ix+2+lengthbytesLength;\n  \t\tix_last_content_byte = ix_first_content_byte + length -1;\n    } // -----------------------------------------------------------------------\n  \treturn NodePtr({ixs: ix, ixf: ix_first_content_byte, ixl: ix_last_content_byte});\n  }\n}\n",
  "sourcePath": "/home/jonah/x509-forest-of-trust/contracts/Asn1Decode.sol",
  "compiler": {
    "name": "solc",
    "version": "0.4.25+commit.59dbf8f1.Emscripten.clang"
  },
  "schemaVersion": "3.0.0-beta.1",
  "updatedAt": "2018-11-17T20:18:07.887Z"
}