{
  "contractName": "DateTime",
  "abi": [
    {
      "constant": true,
      "inputs": [
        {
          "name": "year",
          "type": "uint16"
        }
      ],
      "name": "isLeapYear",
      "outputs": [
        {
          "name": "",
          "type": "bool"
        }
      ],
      "payable": false,
      "stateMutability": "pure",
      "type": "function",
      "signature": "0xa6f0e577"
    },
    {
      "constant": true,
      "inputs": [
        {
          "name": "year",
          "type": "uint256"
        }
      ],
      "name": "leapYearsBefore",
      "outputs": [
        {
          "name": "",
          "type": "uint256"
        }
      ],
      "payable": false,
      "stateMutability": "pure",
      "type": "function",
      "signature": "0xb1999937"
    },
    {
      "constant": true,
      "inputs": [
        {
          "name": "month",
          "type": "uint8"
        },
        {
          "name": "year",
          "type": "uint16"
        }
      ],
      "name": "getDaysInMonth",
      "outputs": [
        {
          "name": "",
          "type": "uint8"
        }
      ],
      "payable": false,
      "stateMutability": "pure",
      "type": "function",
      "signature": "0xb238ad0e"
    },
    {
      "constant": true,
      "inputs": [
        {
          "name": "timestamp",
          "type": "uint256"
        }
      ],
      "name": "getYear",
      "outputs": [
        {
          "name": "",
          "type": "uint16"
        }
      ],
      "payable": false,
      "stateMutability": "pure",
      "type": "function",
      "signature": "0x92d66313"
    },
    {
      "constant": true,
      "inputs": [
        {
          "name": "timestamp",
          "type": "uint256"
        }
      ],
      "name": "getMonth",
      "outputs": [
        {
          "name": "",
          "type": "uint8"
        }
      ],
      "payable": false,
      "stateMutability": "pure",
      "type": "function",
      "signature": "0xa324ad24"
    },
    {
      "constant": true,
      "inputs": [
        {
          "name": "timestamp",
          "type": "uint256"
        }
      ],
      "name": "getDay",
      "outputs": [
        {
          "name": "",
          "type": "uint8"
        }
      ],
      "payable": false,
      "stateMutability": "pure",
      "type": "function",
      "signature": "0x65c72840"
    },
    {
      "constant": true,
      "inputs": [
        {
          "name": "timestamp",
          "type": "uint256"
        }
      ],
      "name": "getHour",
      "outputs": [
        {
          "name": "",
          "type": "uint8"
        }
      ],
      "payable": false,
      "stateMutability": "pure",
      "type": "function",
      "signature": "0x3e239e1a"
    },
    {
      "constant": true,
      "inputs": [
        {
          "name": "timestamp",
          "type": "uint256"
        }
      ],
      "name": "getMinute",
      "outputs": [
        {
          "name": "",
          "type": "uint8"
        }
      ],
      "payable": false,
      "stateMutability": "pure",
      "type": "function",
      "signature": "0xfa93f883"
    },
    {
      "constant": true,
      "inputs": [
        {
          "name": "timestamp",
          "type": "uint256"
        }
      ],
      "name": "getSecond",
      "outputs": [
        {
          "name": "",
          "type": "uint8"
        }
      ],
      "payable": false,
      "stateMutability": "pure",
      "type": "function",
      "signature": "0x8aa001fc"
    },
    {
      "constant": true,
      "inputs": [
        {
          "name": "timestamp",
          "type": "uint256"
        }
      ],
      "name": "getWeekday",
      "outputs": [
        {
          "name": "",
          "type": "uint8"
        }
      ],
      "payable": false,
      "stateMutability": "pure",
      "type": "function",
      "signature": "0x4ac1ad78"
    },
    {
      "constant": true,
      "inputs": [
        {
          "name": "year",
          "type": "uint16"
        },
        {
          "name": "month",
          "type": "uint8"
        },
        {
          "name": "day",
          "type": "uint8"
        },
        {
          "name": "hour",
          "type": "uint8"
        },
        {
          "name": "minute",
          "type": "uint8"
        }
      ],
      "name": "toTimestamp",
      "outputs": [
        {
          "name": "timestamp",
          "type": "uint256"
        }
      ],
      "payable": false,
      "stateMutability": "pure",
      "type": "function",
      "signature": "0x62ba9687"
    },
    {
      "constant": true,
      "inputs": [
        {
          "name": "year",
          "type": "uint16"
        },
        {
          "name": "month",
          "type": "uint8"
        },
        {
          "name": "day",
          "type": "uint8"
        },
        {
          "name": "hour",
          "type": "uint8"
        }
      ],
      "name": "toTimestamp",
      "outputs": [
        {
          "name": "timestamp",
          "type": "uint256"
        }
      ],
      "payable": false,
      "stateMutability": "pure",
      "type": "function",
      "signature": "0x7f791833"
    },
    {
      "constant": true,
      "inputs": [
        {
          "name": "year",
          "type": "uint16"
        },
        {
          "name": "month",
          "type": "uint8"
        },
        {
          "name": "day",
          "type": "uint8"
        }
      ],
      "name": "toTimestamp",
      "outputs": [
        {
          "name": "timestamp",
          "type": "uint256"
        }
      ],
      "payable": false,
      "stateMutability": "pure",
      "type": "function",
      "signature": "0x8c8d98a0"
    },
    {
      "constant": true,
      "inputs": [
        {
          "name": "year",
          "type": "uint16"
        },
        {
          "name": "month",
          "type": "uint8"
        },
        {
          "name": "day",
          "type": "uint8"
        },
        {
          "name": "hour",
          "type": "uint8"
        },
        {
          "name": "minute",
          "type": "uint8"
        },
        {
          "name": "second",
          "type": "uint8"
        }
      ],
      "name": "toTimestamp",
      "outputs": [
        {
          "name": "timestamp",
          "type": "uint256"
        }
      ],
      "payable": false,
      "stateMutability": "pure",
      "type": "function",
      "signature": "0x9054bdec"
    }
  ],
  "bytecode": "0x608060405234801561001057600080fd5b50610e58806100206000396000f3fe6080604052600436106100ca576000357c0100000000000000000000000000000000000000000000000000000000900480633e239e1a146100cf5780634ac1ad781461012457806362ba96871461017957806365c72840146102005780637f791833146102555780638aa001fc146102cf5780638c8d98a0146103245780639054bdec1461039157806392d6631314610425578063a324ad241461047c578063a6f0e577146104d1578063b199993714610528578063b238ad0e14610577578063fa93f883146105dd575b600080fd5b3480156100db57600080fd5b50610108600480360360208110156100f257600080fd5b8101908080359060200190929190505050610632565b604051808260ff1660ff16815260200191505060405180910390f35b34801561013057600080fd5b5061015d6004803603602081101561014757600080fd5b810190808035906020019092919050505061065f565b604051808260ff1660ff16815260200191505060405180910390f35b34801561018557600080fd5b506101ea600480360360a081101561019c57600080fd5b81019080803561ffff169060200190929190803560ff169060200190929190803560ff169060200190929190803560ff169060200190929190803560ff169060200190929190505050610686565b6040518082815260200191505060405180910390f35b34801561020c57600080fd5b506102396004803603602081101561022357600080fd5b81019080803590602001909291905050506106a2565b604051808260ff1660ff16815260200191505060405180910390f35b34801561026157600080fd5b506102b96004803603608081101561027857600080fd5b81019080803561ffff169060200190929190803560ff169060200190929190803560ff169060200190929190803560ff1690602001909291905050506106b8565b6040518082815260200191505060405180910390f35b3480156102db57600080fd5b50610308600480360360208110156102f257600080fd5b81019080803590602001909291905050506106d3565b604051808260ff1660ff16815260200191505060405180910390f35b34801561033057600080fd5b5061037b6004803603606081101561034757600080fd5b81019080803561ffff169060200190929190803560ff169060200190929190803560ff1690602001909291905050506106e9565b6040518082815260200191505060405180910390f35b34801561039d57600080fd5b5061040f600480360360c08110156103b457600080fd5b81019080803561ffff169060200190929190803560ff169060200190929190803560ff169060200190929190803560ff169060200190929190803560ff169060200190929190803560ff169060200190929190505050610704565b6040518082815260200191505060405180910390f35b34801561043157600080fd5b5061045e6004803603602081101561044857600080fd5b81019080803590602001909291905050506109ab565b604051808261ffff1661ffff16815260200191505060405180910390f35b34801561048857600080fd5b506104b56004803603602081101561049f57600080fd5b8101908080359060200190929190505050610a56565b604051808260ff1660ff16815260200191505060405180910390f35b3480156104dd57600080fd5b5061050e600480360360208110156104f457600080fd5b81019080803561ffff169060200190929190505050610a6c565b604051808215151515815260200191505060405180910390f35b34801561053457600080fd5b506105616004803603602081101561054b57600080fd5b8101908080359060200190929190505050610aed565b6040518082815260200191505060405180910390f35b34801561058357600080fd5b506105c16004803603604081101561059a57600080fd5b81019080803560ff169060200190929190803561ffff169060200190929190505050610b26565b604051808260ff1660ff16815260200191505060405180910390f35b3480156105e957600080fd5b506106166004803603602081101561060057600080fd5b8101908080359060200190929190505050610bf2565b604051808260ff1660ff16815260200191505060405180910390f35b60006018603c808481151561064357fe5b0481151561064d57fe5b0481151561065757fe5b069050919050565b600060076004620151808481151561067357fe5b040181151561067e57fe5b069050919050565b600061069786868686866000610704565b905095945050505050565b60006106ad82610c13565b604001519050919050565b60006106c985858585600080610704565b9050949350505050565b6000603c828115156106e157fe5b069050919050565b60006106fb8484846000806000610704565b90509392505050565b6000806107b290505b8761ffff168161ffff1610156107505761072681610a6c565b15610739576301e2850082019150610743565b6301e13380820191505b808060010191505061070d565b610758610db4565b601f816000600c8110151561076957fe5b602002019060ff16908160ff168152505061078389610a6c565b156107af57601d816001600c8110151561079957fe5b602002019060ff16908160ff16815250506107d2565b601c816001600c811015156107c057fe5b602002019060ff16908160ff16815250505b601f816002600c811015156107e357fe5b602002019060ff16908160ff1681525050601e816003600c8110151561080557fe5b602002019060ff16908160ff1681525050601f816004600c8110151561082757fe5b602002019060ff16908160ff1681525050601e816005600c8110151561084957fe5b602002019060ff16908160ff1681525050601f816006600c8110151561086b57fe5b602002019060ff16908160ff1681525050601f816007600c8110151561088d57fe5b602002019060ff16908160ff1681525050601e816008600c811015156108af57fe5b602002019060ff16908160ff1681525050601f816009600c811015156108d157fe5b602002019060ff16908160ff1681525050601e81600a600c811015156108f357fe5b602002019060ff16908160ff1681525050601f81600b600c8110151561091557fe5b602002019060ff16908160ff1681525050600191505b8760ff168261ffff16101561096d57806001830361ffff16600c8110151561094f57fe5b602002015160ff16620151800283019250818060010192505061092b565b6001870360ff166201518002830192508560ff16610e1002830192508460ff16603c02830192508360ff168301925082925050509695505050505050565b600080600090506000806301e13380858115156109c457fe5b046107b261ffff160191506109de6107b261ffff16610aed565b6109eb8361ffff16610aed565b039050806301e285000283019250806107b2830361ffff16036301e1338002830192505b84831115610a4b57610a2360018303610a6c565b15610a36576301e2850083039250610a40565b6301e13380830392505b600182039150610a0f565b819350505050919050565b6000610a6182610c13565b602001519050919050565b60008060048361ffff16811515610a7f57fe5b0661ffff16141515610a945760009050610ae8565b600060648361ffff16811515610aa657fe5b0661ffff16141515610abb5760019050610ae8565b60006101908361ffff16811515610ace57fe5b0661ffff16141515610ae35760009050610ae8565b600190505b919050565b600060018203915061019082811515610b0257fe5b04606483811515610b0f57fe5b04600484811515610b1c57fe5b0403019050919050565b600060018360ff161480610b3d575060038360ff16145b80610b4b575060058360ff16145b80610b59575060078360ff16145b80610b67575060088360ff16145b80610b755750600a8360ff16145b80610b835750600c8360ff16145b15610b9157601f9050610bec565b60048360ff161480610ba6575060068360ff16145b80610bb4575060098360ff16145b80610bc25750600b8360ff16145b15610bd057601e9050610bec565b610bd982610a6c565b15610be757601d9050610bec565b601c90505b92915050565b6000603c8083811515610c0157fe5b04811515610c0b57fe5b069050919050565b610c1b610dd8565b6000809050600080610c2c856109ab565b846000019061ffff16908161ffff1681525050610c4e6107b261ffff16610aed565b610c5f856000015161ffff16610aed565b039150816301e285000283019250816107b285600001510361ffff16036301e1338002830192506000600191505b600c8260ff16111515610ce557610ca8828660000151610b26565b60ff1662015180029050858482011115610cd35781856020019060ff16908160ff1681525050610ce5565b80840193508180600101925050610c8d565b600191505b610cfc85602001518660000151610b26565b60ff168260ff16111515610d4357858462015180011115610d2e5781856040019060ff16908160ff1681525050610d43565b62015180840193508180600101925050610cea565b610d4c86610632565b856060019060ff16908160ff1681525050610d6686610bf2565b856080019060ff16908160ff1681525050610d80866106d3565b8560a0019060ff16908160ff1681525050610d9a8661065f565b8560c0019060ff16908160ff168152505050505050919050565b61018060405190810160405280600c90602082028038833980820191505090505090565b60e060405190810160405280600061ffff168152602001600060ff168152602001600060ff168152602001600060ff168152602001600060ff168152602001600060ff168152602001600060ff168152509056fea165627a7a72305820d34d77fa63bde6ac9b5edf2ab86398f6ef755ca614427826df69c0ed4c6bfaa00029",
  "source": "pragma solidity ^0.5.1;\n\ncontract DateTime {\n        /*\n         *  Date and Time utilities for ethereum contracts\n         *\n         */\n        struct _DateTime {\n                uint16 year;\n                uint8 month;\n                uint8 day;\n                uint8 hour;\n                uint8 minute;\n                uint8 second;\n                uint8 weekday;\n        }\n\n        uint constant DAY_IN_SECONDS = 86400;\n        uint constant YEAR_IN_SECONDS = 31536000;\n        uint constant LEAP_YEAR_IN_SECONDS = 31622400;\n\n        uint constant HOUR_IN_SECONDS = 3600;\n        uint constant MINUTE_IN_SECONDS = 60;\n\n        uint16 constant ORIGIN_YEAR = 1970;\n\n        function isLeapYear(uint16 year) public pure returns (bool) {\n                if (year % 4 != 0) {\n                        return false;\n                }\n                if (year % 100 != 0) {\n                        return true;\n                }\n                if (year % 400 != 0) {\n                        return false;\n                }\n                return true;\n        }\n\n        function leapYearsBefore(uint year) public pure returns (uint) {\n                year -= 1;\n                return year / 4 - year / 100 + year / 400;\n        }\n\n        function getDaysInMonth(uint8 month, uint16 year) public pure returns (uint8) {\n                if (month == 1 || month == 3 || month == 5 || month == 7 || month == 8 || month == 10 || month == 12) {\n                        return 31;\n                }\n                else if (month == 4 || month == 6 || month == 9 || month == 11) {\n                        return 30;\n                }\n                else if (isLeapYear(year)) {\n                        return 29;\n                }\n                else {\n                        return 28;\n                }\n        }\n\n        function parseTimestamp(uint timestamp) internal pure returns (_DateTime memory dt) {\n                uint secondsAccountedFor = 0;\n                uint buf;\n                uint8 i;\n\n                // Year\n                dt.year = getYear(timestamp);\n                buf = leapYearsBefore(dt.year) - leapYearsBefore(ORIGIN_YEAR);\n\n                secondsAccountedFor += LEAP_YEAR_IN_SECONDS * buf;\n                secondsAccountedFor += YEAR_IN_SECONDS * (dt.year - ORIGIN_YEAR - buf);\n\n                // Month\n                uint secondsInMonth;\n                for (i = 1; i <= 12; i++) {\n                        secondsInMonth = DAY_IN_SECONDS * getDaysInMonth(i, dt.year);\n                        if (secondsInMonth + secondsAccountedFor > timestamp) {\n                                dt.month = i;\n                                break;\n                        }\n                        secondsAccountedFor += secondsInMonth;\n                }\n\n                // Day\n                for (i = 1; i <= getDaysInMonth(dt.month, dt.year); i++) {\n                        if (DAY_IN_SECONDS + secondsAccountedFor > timestamp) {\n                                dt.day = i;\n                                break;\n                        }\n                        secondsAccountedFor += DAY_IN_SECONDS;\n                }\n\n                // Hour\n                dt.hour = getHour(timestamp);\n\n                // Minute\n                dt.minute = getMinute(timestamp);\n\n                // Second\n                dt.second = getSecond(timestamp);\n\n                // Day of week.\n                dt.weekday = getWeekday(timestamp);\n        }\n\n        function getYear(uint timestamp) public pure returns (uint16) {\n                uint secondsAccountedFor = 0;\n                uint16 year;\n                uint numLeapYears;\n\n                // Year\n                year = uint16(ORIGIN_YEAR + timestamp / YEAR_IN_SECONDS);\n                numLeapYears = leapYearsBefore(year) - leapYearsBefore(ORIGIN_YEAR);\n\n                secondsAccountedFor += LEAP_YEAR_IN_SECONDS * numLeapYears;\n                secondsAccountedFor += YEAR_IN_SECONDS * (year - ORIGIN_YEAR - numLeapYears);\n\n                while (secondsAccountedFor > timestamp) {\n                        if (isLeapYear(uint16(year - 1))) {\n                                secondsAccountedFor -= LEAP_YEAR_IN_SECONDS;\n                        }\n                        else {\n                                secondsAccountedFor -= YEAR_IN_SECONDS;\n                        }\n                        year -= 1;\n                }\n                return year;\n        }\n\n        function getMonth(uint timestamp) public pure returns (uint8) {\n                return parseTimestamp(timestamp).month;\n        }\n\n        function getDay(uint timestamp) public pure returns (uint8) {\n                return parseTimestamp(timestamp).day;\n        }\n\n        function getHour(uint timestamp) public pure returns (uint8) {\n                return uint8((timestamp / 60 / 60) % 24);\n        }\n\n        function getMinute(uint timestamp) public pure returns (uint8) {\n                return uint8((timestamp / 60) % 60);\n        }\n\n        function getSecond(uint timestamp) public pure returns (uint8) {\n                return uint8(timestamp % 60);\n        }\n\n        function getWeekday(uint timestamp) public pure returns (uint8) {\n                return uint8((timestamp / DAY_IN_SECONDS + 4) % 7);\n        }\n\n        function toTimestamp(uint16 year, uint8 month, uint8 day) public pure returns (uint timestamp) {\n                return toTimestamp(year, month, day, 0, 0, 0);\n        }\n\n        function toTimestamp(uint16 year, uint8 month, uint8 day, uint8 hour) public pure returns (uint timestamp) {\n                return toTimestamp(year, month, day, hour, 0, 0);\n        }\n\n        function toTimestamp(uint16 year, uint8 month, uint8 day, uint8 hour, uint8 minute) public pure returns (uint timestamp) {\n                return toTimestamp(year, month, day, hour, minute, 0);\n        }\n\n        function toTimestamp(uint16 year, uint8 month, uint8 day, uint8 hour, uint8 minute, uint8 second) public pure returns (uint timestamp) {\n                uint16 i;\n\n                // Year\n                for (i = ORIGIN_YEAR; i < year; i++) {\n                        if (isLeapYear(i)) {\n                                timestamp += LEAP_YEAR_IN_SECONDS;\n                        }\n                        else {\n                                timestamp += YEAR_IN_SECONDS;\n                        }\n                }\n\n                // Month\n                uint8[12] memory monthDayCounts;\n                monthDayCounts[0] = 31;\n                if (isLeapYear(year)) {\n                        monthDayCounts[1] = 29;\n                }\n                else {\n                        monthDayCounts[1] = 28;\n                }\n                monthDayCounts[2] = 31;\n                monthDayCounts[3] = 30;\n                monthDayCounts[4] = 31;\n                monthDayCounts[5] = 30;\n                monthDayCounts[6] = 31;\n                monthDayCounts[7] = 31;\n                monthDayCounts[8] = 30;\n                monthDayCounts[9] = 31;\n                monthDayCounts[10] = 30;\n                monthDayCounts[11] = 31;\n\n                for (i = 1; i < month; i++) {\n                        timestamp += DAY_IN_SECONDS * monthDayCounts[i - 1];\n                }\n\n                // Day\n                timestamp += DAY_IN_SECONDS * (day - 1);\n\n                // Hour\n                timestamp += HOUR_IN_SECONDS * (hour);\n\n                // Minute\n                timestamp += MINUTE_IN_SECONDS * (minute);\n\n                // Second\n                timestamp += second;\n\n                return timestamp;\n        }\n}\n",
  "sourcePath": "ethereum-datetime/contracts/DateTime.sol",
  "compiler": {
    "name": "solc",
    "version": "0.5.1+commit.c8a2cb62.Emscripten.clang"
  },
  "schemaVersion": "3.0.0-beta.2",
  "updatedAt": "2018-12-12T21:04:42.161Z",
  "devdoc": {
    "methods": {}
  },
  "userdoc": {
    "methods": {}
  }
}