{
  "contractName": "ENSNamehash",
  "abi": [
    {
      "constant": true,
      "inputs": [
        {
          "name": "domain",
          "type": "bytes"
        }
      ],
      "name": "namehash",
      "outputs": [
        {
          "name": "",
          "type": "bytes32"
        }
      ],
      "payable": false,
      "stateMutability": "pure",
      "type": "function"
    }
  ],
  "bytecode": "0x6102d7610030600b82828239805160001a6073146000811461002057610022565bfe5b5030600052607381538281f3fe7300000000000000000000000000000000000000003014608060405260043610610052576000357c0100000000000000000000000000000000000000000000000000000000900480630e0fb92414610057575b600080fd5b6100ce6004803603602081101561006d57600080fd5b810190808035906020019064010000000081111561008a57600080fd5b82018360208201111561009c57600080fd5b803590602001918460018302840111640100000000831117156100be57600080fd5b90919293919293905050506100e4565b6040518082815260200191505060405180910390f35b600061013583838080601f016020809104026020016040519081016040528093929190818152602001838380828437600081840152601f19601f82011690508083019250505050505050600061013d565b905092915050565b600081835111151561015557600060010290506101ae565b600061016184846101b4565b90506101728460018386010161013d565b61017d858584610286565b6040516020018083815260200182815260200192505050604051602081830303815290604052805190602001209150505b92915050565b6000805b83518184011415801561026a5750602e7f010000000000000000000000000000000000000000000000000000000000000002848285018151811015156101fa57fe5b9060200101517f010000000000000000000000000000000000000000000000000000000000000090047f0100000000000000000000000000000000000000000000000000000000000000027effffffffffffffffffffffffffffffffffffffffffffffffffffffffffffff191614155b1561027c5780806001019150506101b8565b8091505092915050565b600083518284011115151561029a57600080fd5b81836020860101209050939250505056fea165627a7a72305820451a356dc86f432b085661c71f6902ea6c5f550cf0fed1c7c8ae2ed0a0df35b20029",
  "source": "pragma solidity ^0.5.1;\n\n/*\n * @dev Solidity implementation of the ENS namehash algorithm.\n *\n * Warning! Does not normalize or validate names before hashing.\n */\nlibrary ENSNamehash {\n\n  function namehash(bytes calldata domain) external pure returns (bytes32) {\n    return namehash(domain, 0);\n  }\n\n  function namehash(bytes memory domain, uint i) internal pure returns (bytes32) {\n    if (domain.length <= i)\n      return 0x0000000000000000000000000000000000000000000000000000000000000000;\n\n    uint len = LabelLength(domain, i);\n\n    return keccak256(abi.encodePacked(namehash(domain, i+len+1), keccak(domain, i, len)));\n  }\n\n  function LabelLength(bytes memory domain, uint i) private pure returns (uint) {\n    uint len;\n    while (i+len != domain.length && domain[i+len] != 0x2e) {\n      len++;\n    }\n    return len;\n  }\n\n  function keccak(bytes memory data, uint offset, uint len) private pure returns (bytes32 ret) {\n    require(offset + len <= data.length);\n    assembly {\n      ret := keccak256(add(add(data, 32), offset), len)\n    }\n  }\n}\n",
  "sourcePath": "ens-namehash/contracts/ENSNamehash.sol",
  "compiler": {
    "name": "solc",
    "version": "0.5.1+commit.c8a2cb62.Emscripten.clang"
  },
  "schemaVersion": "3.0.0-beta.2",
  "updatedAt": "2018-12-11T00:29:48.671Z",
  "devdoc": {
    "methods": {}
  },
  "userdoc": {
    "methods": {}
  }
}