{
  "contractName": "NameHash",
  "abi": [
    {
      "constant": true,
      "inputs": [
        {
          "name": "_node",
          "type": "string"
        }
      ],
      "name": "namehash",
      "outputs": [
        {
          "name": "_namehash",
          "type": "bytes32"
        }
      ],
      "payable": false,
      "stateMutability": "view",
      "type": "function",
      "signature": "0x09879962"
    }
  ],
  "bytecode": "0x6105df610030600b82828239805160001a6073146000811461002057610022565bfe5b5030600052607381538281f3007300000000000000000000000000000000000000003014608060405260043610610058576000357c0100000000000000000000000000000000000000000000000000000000900463ffffffff168063098799621461005d575b600080fd5b6100b7600480360381019080803590602001908201803590602001908080601f01602080910402602001604051908101604052809392919081815260200183838082843782019150505050505091929192905050506100d5565b60405180826000191660001916815260200191505060405180910390f35b60006100df610599565b60006100e9610599565b606060006100f6876102c3565b945060006001029350610108856102f1565b15156102b65761014c6040805190810160405280600181526020017f2e000000000000000000000000000000000000000000000000000000000000008152506102c3565b92506001610163848761030190919063ffffffff16565b0160405190808252806020026020018201604052801561019757816020015b60608152602001906001900390816101825790505b509150600090505b81518110156101eb576101c36101be848761037890919063ffffffff16565b610392565b82828151811015156101d157fe5b90602001906020020181905250808060010191505061019f565b600090505b81518110156102b55783826001838551030381518110151561020e57fe5b906020019060200201516040518082805190602001908083835b60208310151561024d5780518252602082019150602081019050602083039250610228565b6001836020036101000a03801982511681845116808217855250505050505090500191505060405180910390206040518083600019166000191681526020018260001916600019168152602001925050506040518091039020935080806001019150506101f0565b5b8395505050505050919050565b6102cb610599565b600060208301905060408051908101604052808451815260200182815250915050919050565b6000808260000151149050919050565b600080826000015161032585600001518660200151866000015187602001516103f4565b0190505b83600001518460200151018111151561037157818060010192505082600001516103698560200151830386600001510383866000015187602001516103f4565b019050610329565b5092915050565b610380610599565b61038b8383836104b0565b5092915050565b606080600083600001516040519080825280601f01601f1916602001820160405280156103ce5781602001602082028038833980820191505090505b5091506020820190506103ea818560200151866000015161054e565b8192505050919050565b6000806000806000888711151561049e576020871115156104555760018760200360080260020a031980875116888b038a018a96505b81838851161461044a5760018701965080600188031061042a578b8b0196505b5050508394506104a4565b8686209150879350600092505b8689038311151561049d57868420905080600019168260001916141561048a578394506104a4565b6001840193508280600101935050610462565b5b88880194505b50505050949350505050565b6104b8610599565b60006104d685600001518660200151866000015187602001516103f4565b90508460200151836020018181525050846020015181038360000181815250508460000151856020015101811415610518576000856000018181525050610543565b8360000151836000015101856000018181510391508181525050836000015181018560200181815250505b829150509392505050565b60005b6020821015156105765782518452602084019350602083019250602082039150610551565b6001826020036101000a0390508019835116818551168181178652505050505050565b6040805190810160405280600081526020016000815250905600a165627a7a723058200ff52686d47d84777dc8728336b1db6b32cd83c95e93e80cce4bae0d879414a50029",
  "source": "pragma solidity ^0.4.11;\n\nimport \"./lib/strings.sol\";\n\n\n/**\n * Namehash Solidity implementation.\n */\nlibrary NameHash\n {\n    using strings for *;\n\n\n    /**\n     * Native namehash algorighm implementation in Solidity.\n     * @param  _node The string over which the namehash algorithm will be applied.\n     * @return _namehash The result of namehash algorighm applied at _node.\n     */\n    function namehash(string _node) constant returns (bytes32 _namehash)\n    {\n        var node = _node.toSlice();\n        bytes32 namehash = 0x0000000000000000000000000000000000000000000000000000000000000000;\n        if(!node.empty())\n        {\n            var delim = \".\".toSlice();\n            var parts = new string[](node.count(delim) + 1);\n            for(uint i = 0; i < parts.length; i++)\n            {\n                parts[i] = node.split(delim).toString();\n            }\n\n            for(i = 0; i < parts.length; i++)\n            {\n                namehash = sha3(namehash, sha3(parts[parts.length - i - 1]));\n            }\n        }\n        return namehash;\n    }\n\n}\n",
  "sourcePath": "/home/jonah/ens-solidity-namehash/contracts/namehash.sol",
  "compiler": {
    "name": "solc",
    "version": "0.4.25+commit.59dbf8f1.Emscripten.clang"
  },
  "schemaVersion": "3.0.0-beta.1",
  "updatedAt": "2018-11-27T02:11:56.109Z"
}