{
  "contractName": "Pkcs1Sha256Verify",
  "abi": [
    {
      "constant": false,
      "inputs": [
        {
          "name": "hash",
          "type": "bytes32"
        },
        {
          "name": "s",
          "type": "bytes"
        },
        {
          "name": "e",
          "type": "bytes"
        },
        {
          "name": "m",
          "type": "bytes"
        }
      ],
      "name": "verify",
      "outputs": [
        {
          "name": "",
          "type": "uint256"
        }
      ],
      "payable": false,
      "stateMutability": "nonpayable",
      "type": "function"
    }
  ],
  "bytecode": "0x608060405261026060405190810160405280603060ff168152602001603160ff168152602001603060ff168152602001600d60ff168152602001600660ff168152602001600960ff168152602001606060ff168152602001608660ff168152602001604860ff168152602001600160ff168152602001606560ff168152602001600360ff168152602001600460ff168152602001600260ff168152602001600160ff168152602001600560ff168152602001600060ff168152602001600460ff168152602001602060ff1681525060009060136100dd9291906100f0565b503480156100ea57600080fd5b506101c7565b82805482825590600052602060002090601f016020900481019282156101865791602002820160005b8382111561015757835183826101000a81548160ff021916908360ff1602179055509260200192600101602081600001049283019260010302610119565b80156101845782816101000a81549060ff0219169055600101602081600001049283019260010302610157565b505b5090506101939190610197565b5090565b6101c491905b808211156101c057600081816101000a81549060ff02191690555060010161019d565b5090565b90565b61082b806101d66000396000f300608060405260043610610041576000357c0100000000000000000000000000000000000000000000000000000000900463ffffffff168063c658da5114610046575b600080fd5b34801561005257600080fd5b506101476004803603810190808035600019169060200190929190803590602001908201803590602001908080601f0160208091040260200160405190810160405280939291908181526020018383808284378201915050505050509192919290803590602001908201803590602001908080601f0160208091040260200160405190810160405280939291908181526020018383808284378201915050505050509192919290803590602001908201803590602001908080601f016020809104026020016040519081016040528093929190818152602001838380828437820191505050505050919291929050505061015d565b6040518082815260200191505060405180910390f35b60008060606000806060600080600b602060ff16600080549050010189511015151561018857600080fd5b6101938b8b8b6106e2565b95508551945088519350836040519080825280601f01601f1916602001820160405280156101d05781602001602082028038833980820191505090505b50925083602084018660208901600060056107d05a03f1915081600081146101f7576101f9565bfe5b506020600080549050600386030303905060007f01000000000000000000000000000000000000000000000000000000000000000283600081518110151561023d57fe5b9060200101517f010000000000000000000000000000000000000000000000000000000000000090047f0100000000000000000000000000000000000000000000000000000000000000027effffffffffffffffffffffffffffffffffffffffffffffffffffffffffffff1916141580610355575060017f0100000000000000000000000000000000000000000000000000000000000000028360018151811015156102e557fe5b9060200101517f010000000000000000000000000000000000000000000000000000000000000090047f0100000000000000000000000000000000000000000000000000000000000000027effffffffffffffffffffffffffffffffffffffffffffffffffffffffffffff191614155b1561036357600197506106d3565b600296505b8060020187101561042f5760ff7f01000000000000000000000000000000000000000000000000000000000000000283888151811015156103a557fe5b9060200101517f010000000000000000000000000000000000000000000000000000000000000090047f0100000000000000000000000000000000000000000000000000000000000000027effffffffffffffffffffffffffffffffffffffffffffffffffffffffffffff191614151561042257600297506106d3565b8680600101975050610368565b60007f010000000000000000000000000000000000000000000000000000000000000002838260020181518110151561046457fe5b9060200101517f010000000000000000000000000000000000000000000000000000000000000090047f0100000000000000000000000000000000000000000000000000000000000000027effffffffffffffffffffffffffffffffffffffffffffffffffffffffffffff19161415156104e157600397506106d3565b600096505b6000805490508710156105c65760008781548110151561050257fe5b90600052602060002090602091828204019190069054906101000a900460ff1660ff168388836003010181518110151561053857fe5b9060200101517f010000000000000000000000000000000000000000000000000000000000000090047f0100000000000000000000000000000000000000000000000000000000000000027f0100000000000000000000000000000000000000000000000000000000000000900460ff161415156105b957600497506106d3565b86806001019750506104e6565b600096505b602060ff168710156106ce578b876020811015156105e557fe5b1a7f0100000000000000000000000000000000000000000000000000000000000000027effffffffffffffffffffffffffffffffffffffffffffffffffffffffffffff1916838860008054905084600301010181518110151561064457fe5b9060200101517f010000000000000000000000000000000000000000000000000000000000000090047f0100000000000000000000000000000000000000000000000000000000000000027effffffffffffffffffffffffffffffffffffffffffffffffffffffffffffff19161415156106c157600597506106d3565b86806001019750506105cb565b600097505b50505050505050949350505050565b606060008060008060008060008060608a518c518e51606001010198508c5197508b5196508a519550886040519080825280601f01601f19166020018201604052801561073e5781602001602082028038833980820191505090505b50905060208d01945060208c01935060208b01925087602082015286604082015285606082015260208101915061077a60608301868f516107b4565b61078c8d516060840101858e516107b4565b6107a18c518e51606085010101848d516107b4565b8099505050505050505050509392505050565b60005b6020821015156107dc57825184526020840193506020830192506020820391506107b7565b6001826020036101000a03905080198351168185511681811786525050505050505600a165627a7a7230582062b5b1cfa90ee925a3f5702fa5b016c006a9ac05242b4d2de765fcc23e85d6a10029",
  "source": "pragma solidity  ^0.4.25;\n\ncontract Pkcs1Sha256Verify {\n\n  function verify(bytes32 hash, bytes s, bytes e, bytes m) public returns (uint) {\n    uint i;\n\n    require(m.length >= SHA256PREFIX.length+hash.length+11);\n\n    /// decipher\n    bytes memory input = join(s,e,m);\n    uint input_len = input.length;\n\n    uint decipherlen = m.length;\n    bytes memory decipher=new bytes(decipherlen);\n    bool success;\n      assembly {\n        success := call(sub(gas, 2000), 5, 0, add(input,0x20), input_len, add(decipher,0x20), decipherlen)\n        switch success case 0 { invalid }\n      }\n\n      /// 0x00 || 0x01 || PS || 0x00 || DigestInfo\n      /// PS is padding filled with 0xff\n      //  DigestInfo ::= SEQUENCE {\n      //     digestAlgorithm AlgorithmIdentifier,\n      //     digest OCTET STRING\n      //  }\n\n      uint paddingLen = decipherlen - 3 - SHA256PREFIX.length - 32;\n\n    if (decipher[0] != 0 || decipher[1] != 1) {\n        return 1;\n    }\n    for (i=2;i<2+paddingLen;i++) {\n        if (decipher[i] != 0xff) {\n            return 2;\n        }\n    }\n    if (decipher[2+paddingLen] != 0) {\n        return 3;\n    }\n    for (i=0;i<SHA256PREFIX.length;i++) {\n        if (uint8(decipher[3+paddingLen+i])!=SHA256PREFIX[i]) {\n            return 4;\n        }\n    }\n    for (i=0;i<hash.length;i++) {\n        if (decipher[3+paddingLen+SHA256PREFIX.length+i]!=hash[i]) {\n            return 5;\n        }\n    }\n\n    return 0;\n  }\n\n  function memcpy(uint dest, uint src, uint len) pure private {\n    // Copy word-length chunks while possible\n    for(; len >= 32; len -= 32) {\n      assembly {\n        mstore(dest, mload(src))\n      }\n      dest += 32;\n      src += 32;\n    }\n    // Copy remaining bytes\n    uint mask = 256 ** (32 - len) - 1;\n    assembly {\n      let srcpart := and(mload(src), not(mask))\n      let destpart := and(mload(dest), mask)\n      mstore(dest, or(destpart, srcpart))\n    }\n  }\n\n  uint8[] SHA256PREFIX = [\n      0x30, 0x31, 0x30, 0x0d, 0x06, 0x09, 0x60, 0x86, 0x48, 0x01, 0x65, 0x03, 0x04, 0x02, 0x01, 0x05, 0x00, 0x04, 0x20\n  ];\n\n  function join(bytes s, bytes e, bytes m) pure internal returns (bytes) {\n    uint input_len = 0x60+s.length+e.length+m.length;\n\n    uint s_len = s.length;\n    uint e_len = e.length;\n    uint m_len = m.length;\n    uint s_ptr;\n    uint e_ptr;\n    uint m_ptr;\n    uint input_ptr;\n\n    bytes memory input = new bytes(input_len);\n    assembly {\n      s_ptr := add(s,0x20)\n      e_ptr := add(e,0x20)\n      m_ptr := add(m,0x20)\n      mstore(add(input,0x20),s_len)\n      mstore(add(input,0x40),e_len)\n      mstore(add(input,0x60),m_len)\n      input_ptr := add(input,0x20)\n    }\n    memcpy(input_ptr+0x60,s_ptr,s.length);\n    memcpy(input_ptr+0x60+s.length,e_ptr,e.length);\n    memcpy(input_ptr+0x60+s.length+e.length,m_ptr,m.length);\n\n    return input;\n  }\n}\n",
  "sourcePath": "/home/jonah/x509-forest-of-trust/contracts/Pkcs1Sha256Verify.sol",
  "compiler": {
    "name": "solc",
    "version": "0.4.25+commit.59dbf8f1.Emscripten.clang"
  },
  "schemaVersion": "3.0.0-beta.1",
  "updatedAt": "2018-11-17T20:18:07.879Z"
}