{
  "contractName": "RsaSha256Algorithm",
  "abi": [
    {
      "constant": true,
      "inputs": [
        {
          "name": "key",
          "type": "bytes"
        },
        {
          "name": "data",
          "type": "bytes"
        },
        {
          "name": "sig",
          "type": "bytes"
        }
      ],
      "name": "verify",
      "outputs": [
        {
          "name": "",
          "type": "bool"
        }
      ],
      "payable": false,
      "stateMutability": "view",
      "type": "function"
    }
  ],
  "bytecode": "0x608060405234801561001057600080fd5b50610de8806100206000396000f3fe608060405234801561001057600080fd5b5060043610610047577c01000000000000000000000000000000000000000000000000000000006000350463de8f50a1811461004c575b600080fd5b6101606004803603606081101561006257600080fd5b81019060208101813564010000000081111561007d57600080fd5b82018360208201111561008f57600080fd5b803590602001918460018302840111640100000000831117156100b157600080fd5b9193909290916020810190356401000000008111156100cf57600080fd5b8201836020820111156100e157600080fd5b8035906020019184600183028401116401000000008311171561010357600080fd5b91939092909160208101903564010000000081111561012157600080fd5b82018360208201111561013357600080fd5b8035906020019184600183028401116401000000008311171561015557600080fd5b509092509050610174565b604080519115158252519081900360200190f35b60008060608060606101bb8b8b8080601f01602080910402602001604051908101604052809392919081815260200183838082843760009201919091525061028592505050565b8092508193505050610204828289898080601f0160208091040260200160405190810160405280939291908181526020018383808284376000920191909152506103c492505050565b909450925083801561027657508251610228908490601f190163ffffffff6103df16565b60028a8a6040518083838082843760405192019450602093509091505080830381855afa15801561025d573d6000803e3d6000fd5b5050506040513d602081101561027257600080fd5b5051145b9b9a5050505050505050505050565b606080600080606080610297876103fc565b92506102a9878463ffffffff61040f16565b92506102cb6102be888563ffffffff61040f16565b889063ffffffff6104c716565b805160209091012093507f3be606946d6f343b24d5ecdbd7e3370a5303ed54845f50f466a35f3bbeb46a45841461034c576040805160e560020a62461bcd02815260206004820152600b60248201527f496e76616c6964206b6579000000000000000000000000000000000000000000604482015290519081900360640190fd5b61035c878463ffffffff6104fa16565b925061036e878463ffffffff61051116565b9250610380878463ffffffff61040f16565b9250610392878463ffffffff6105c816565b91506103a4878463ffffffff6104fa16565b92506103b6878463ffffffff6105c816565b919550909350505050915091565b600060606103d38385876107b6565b91509150935093915050565b81516000906020830111156103f357600080fd5b50016020015190565b600061040982600061089c565b92915050565b60008261041b83610a41565b8151811061042557fe5b01602001517f200000000000000000000000000000000000000000000000000000000000000060f860020a918290049091028116146104ae576040805160e560020a62461bcd02815260206004820152601660248201527f4e6f74206120636f6e7374727563746564207479706500000000000000000000604482015290519081900360640190fd5b6104c0836104bb84610a50565b61089c565b9392505050565b60606104c06104d583610a50565b6104de84610a50565b6104e785610a6d565b869291900360010163ffffffff610a9416565b60006104c08361050984610a6d565b60010161089c565b60008261051d83610a41565b8151811061052757fe5b90602001015160f860020a900460f860020a027effffffffffffffffffffffffffffffffffffffffffffffffffffffffffffff1916600360f860020a021415156105bb576040805160e560020a62461bcd02815260206004820152601360248201527f4e6f7420747970652042495420535452494e4700000000000000000000000000604482015290519081900360640190fd5b6104c08361050984610a50565b6060826105d483610a41565b815181106105de57fe5b90602001015160f860020a900460f860020a027effffffffffffffffffffffffffffffffffffffffffffffffffffffffffffff1916600260f860020a02141515610672576040805160e560020a62461bcd02815260206004820152601060248201527f4e6f74207479706520494e544547455200000000000000000000000000000000604482015290519081900360640190fd5b8261067c83610a50565b8151811061068657fe5b60209101015160f860020a90819004027f8000000000000000000000000000000000000000000000000000000000000000161561070d576040805160e560020a62461bcd02815260206004820152600c60248201527f4e6f7420706f7369746976650000000000000000000000000000000000000000604482015290519081900360640190fd5b600061071883610a50565b61072184610a6d565b6001010390508361073184610a50565b8151811061073b57fe5b60209101015160f860020a90819004027fff0000000000000000000000000000000000000000000000000000000000000016151561079c5761079461077f84610a50565b8590600101600019840163ffffffff610a9416565b915050610409565b6107946107a884610a50565b85908363ffffffff610a9416565b600060606000835185518751606001010190506107d1610da4565b6107e1818363ffffffff610af716565b5086516107f590829063ffffffff610b2f16565b50855161080990829063ffffffff610b2f16565b50845161081d90829063ffffffff610b2f16565b5061082e818863ffffffff610b4916565b5061083f818763ffffffff610b4916565b50610850818663ffffffff610b4916565b5084516040519080825280601f01601f19166020018201604052801561087d576020820181803883390190505b50925084516020840183602084510160055afa93505050935093915050565b60008060008085856001018151811015156108b357fe5b60209101015160f860020a90819004027f800000000000000000000000000000000000000000000000000000000000000016151561093a5785856001018151811015156108fc57fe5b90602001015160f860020a900460f860020a0260f860020a900460ff1692508460020191506001838369ffffffffffffffffffff1601039050610a14565b6000868660010181518110151561094d57fe5b90602001015160f860020a900460f860020a02607f60f860020a021660f860020a900490508060ff166001141561099b57610991876002880163ffffffff610b6316565b60ff1693506109f5565b8060ff16600214156109c5576109ba876002880163ffffffff610b8316565b61ffff1693506109f5565b8060200360080260ff166109ea876002018360ff168a610ba49092919063ffffffff16565b60029190910a900493505b60ff16850160020191505060001969ffffffffffffffffffff82168301015b610a37858369ffffffffffffffffffff168369ffffffffffffffffffff16610bde565b9695505050505050565b69ffffffffffffffffffff1690565b6a0100000000000000000000900469ffffffffffffffffffff1690565b74010000000000000000000000000000000000000000900469ffffffffffffffffffff1690565b82516060908383011115610aa757600080fd5b6060826040519080825280601f01601f191660200182016040528015610ad4576020820181803883390190505b50905060208082019086860101610aec828287610c0d565b509095945050505050565b610aff610da4565b6020820615610b145760208206602003820191505b50602082018190526040805180845260008152909101905290565b610b37610da4565b6104c083846000015151846020610c4b565b610b51610da4565b6104c083846000015151848551610cc8565b8151600090600183011115610b7757600080fd5b50016001015160ff1690565b8151600090600283011115610b9757600080fd5b50016002015161ffff1690565b60006020821115610bb457600080fd5b83518383011115610bc457600080fd5b506020919092018101519190036101000a60001901191690565b74010000000000000000000000000000000000000000026a010000000000000000000091909102919091171790565b5b60208110610c2d578151835260209283019290910190601f1901610c0e565b905182516020929092036101000a6000190180199091169116179052565b610c53610da4565b84602001518483011115610c7b57610c7b85610c73876020015185610d70565b600202610d87565b60006001836101000a0390508260200360080284908060020a820491505093508551838682010185831982511617815281518588011115610cbc5784870182525b50959695505050505050565b610cd0610da4565b8251821115610cde57600080fd5b6020850151855151858401011115610d0457610d0485610c738760200151878601610d70565b600080865180518760208301019350808887011115610d235787860182525b505050602084015b60208410610d4a5780518252601f199093019260209182019101610d2b565b51815160001960208690036101000a019081169019919091161790525083949350505050565b600081831115610d81575081610409565b50919050565b8151610d938383610af7565b50610d9e8382610b49565b50505050565b6040805180820190915260608152600060208201529056fea165627a7a723058204a0ddb48ead5b8b6760f6c1cc1636f7a32a4d3520ac095d659acbb60f2d172530029",
  "source": "pragma solidity  ^0.5.2;\n\nimport \"./Algorithm.sol\";\nimport \"asn1-decode/contracts/Asn1Decode.sol\";\nimport \"solidity-bytes-utils/contracts/BytesUtils.sol\";\nimport \"./RSAVerify.sol\";\n\ncontract RsaSha256Algorithm is Algorithm {\n  using BytesUtils for bytes;\n  using Asn1Decode for bytes;\n  using NodePtr for uint;\n\n  function verify(bytes calldata key, bytes calldata data, bytes calldata sig)\n  external view returns (bool)\n  {\n    bool ok;\n    bytes memory result;\n    bytes memory m;\n    bytes memory e;\n\n    (m, e) = extractKeyComponents(key);\n\n    (ok, result) = RSAVerify.rsarecover(m, e, sig);\n\n    return ok && sha256(data) == result.readBytes32(result.length - 32);\n  }\n\n  /**\n   * @dev Extracts modulus and exponent (respectively) from a DER-encoded RSA public key\n   * @param key A DER-encoded RSA public key\n   */\n  function extractKeyComponents(bytes memory key)\n  private pure returns (bytes memory, bytes memory)\n  {\n    bytes32 oid;\n    uint node;\n    bytes memory modulus;\n    bytes memory exponent;\n\n    node = key.root();\n    node = key.firstChildOf(node);\n    // OID must be 1.2.840.113549.1.1.1 (rsaEncryption)\n    oid = keccak256(key.bytesAt(key.firstChildOf(node)));\n    require(oid == 0x3be606946d6f343b24d5ecdbd7e3370a5303ed54845f50f466a35f3bbeb46a45, \"Invalid key\");\n\n    node = key.nextSiblingOf(node);\n    node = key.rootOfBitStringAt(node);\n    node = key.firstChildOf(node);\n    modulus = key.uintBytesAt(node);\n    node = key.nextSiblingOf(node);\n    exponent = key.uintBytesAt(node);\n\n    return (modulus, exponent);\n  }\n}\n",
  "sourcePath": "/home/jonah/sig-verify-algs/contracts/RsaSha256Algorithm.sol",
  "compiler": {
    "name": "solc",
    "version": "0.5.2+commit.1df8f40c.Emscripten.clang"
  },
  "schemaVersion": "3.0.9",
  "updatedAt": "2019-06-18T04:45:53.080Z",
  "devdoc": {
    "methods": {}
  },
  "userdoc": {
    "methods": {}
  }
}