{
  "contractName": "X509ForestOfTrust",
  "abi": [
    {
      "constant": true,
      "inputs": [
        {
          "name": "",
          "type": "bytes32"
        }
      ],
      "name": "refs",
      "outputs": [
        {
          "name": "",
          "type": "bytes32"
        }
      ],
      "payable": false,
      "stateMutability": "view",
      "type": "function",
      "signature": "0x2761694a"
    },
    {
      "constant": true,
      "inputs": [
        {
          "name": "",
          "type": "bytes32"
        }
      ],
      "name": "certs",
      "outputs": [
        {
          "name": "owner",
          "type": "address"
        },
        {
          "name": "parentId",
          "type": "bytes32"
        },
        {
          "name": "pubKey",
          "type": "bytes"
        },
        {
          "name": "serialNumber",
          "type": "uint256"
        },
        {
          "name": "validNotAfter",
          "type": "uint256"
        },
        {
          "name": "cshx",
          "type": "bool"
        }
      ],
      "payable": false,
      "stateMutability": "view",
      "type": "function",
      "signature": "0x4063d812"
    },
    {
      "constant": false,
      "inputs": [
        {
          "name": "newOwner",
          "type": "address"
        }
      ],
      "name": "transferOwnership",
      "outputs": [],
      "payable": false,
      "stateMutability": "nonpayable",
      "type": "function",
      "signature": "0xf2fde38b"
    },
    {
      "constant": true,
      "inputs": [
        {
          "name": "",
          "type": "bytes32"
        },
        {
          "name": "",
          "type": "uint256"
        }
      ],
      "name": "certIdsFromCN",
      "outputs": [
        {
          "name": "",
          "type": "bytes32"
        }
      ],
      "payable": false,
      "stateMutability": "view",
      "type": "function",
      "signature": "0xfe11602d"
    },
    {
      "inputs": [
        {
          "name": "sha256WithRSAEncryption",
          "type": "address"
        },
        {
          "name": "_dateTime",
          "type": "address"
        }
      ],
      "payable": false,
      "stateMutability": "nonpayable",
      "type": "constructor",
      "signature": "constructor"
    },
    {
      "anonymous": false,
      "inputs": [
        {
          "indexed": false,
          "name": "",
          "type": "bytes32"
        }
      ],
      "name": "CertAdded",
      "type": "event",
      "signature": "0xa8bcd2c977618c00f7fed703adeb0977d9b57eb1f309214e668e87ca390c5137"
    },
    {
      "anonymous": false,
      "inputs": [
        {
          "indexed": false,
          "name": "",
          "type": "bytes32"
        }
      ],
      "name": "CertClaimed",
      "type": "event",
      "signature": "0x5c088381a25fb06fe5d3936d0346b98d68146eea6dd3801386069db26fbac84f"
    },
    {
      "anonymous": false,
      "inputs": [
        {
          "indexed": false,
          "name": "",
          "type": "bytes32"
        },
        {
          "indexed": false,
          "name": "",
          "type": "address"
        }
      ],
      "name": "AlgSet",
      "type": "event",
      "signature": "0x65146a769582c865299fe09a84142c84d0f1d4df1dbaaaf2301857e665beb2d7"
    },
    {
      "anonymous": false,
      "inputs": [
        {
          "indexed": false,
          "name": "",
          "type": "address"
        },
        {
          "indexed": false,
          "name": "",
          "type": "address"
        }
      ],
      "name": "ownershipTransferred",
      "type": "event",
      "signature": "0x7699c77f2404f9b6bbd003861bb4af8ae70b205e19e73d7ec7fe4590db59a6b7"
    },
    {
      "constant": false,
      "inputs": [
        {
          "name": "cert",
          "type": "bytes"
        },
        {
          "name": "cshx",
          "type": "bool"
        }
      ],
      "name": "addRootCert",
      "outputs": [],
      "payable": false,
      "stateMutability": "nonpayable",
      "type": "function",
      "signature": "0x0049c3f6"
    },
    {
      "constant": false,
      "inputs": [
        {
          "name": "cert",
          "type": "bytes"
        },
        {
          "name": "parentId",
          "type": "bytes32"
        },
        {
          "name": "cshx",
          "type": "bool"
        }
      ],
      "name": "addCert",
      "outputs": [],
      "payable": false,
      "stateMutability": "nonpayable",
      "type": "function",
      "signature": "0x37356fe2"
    },
    {
      "constant": true,
      "inputs": [],
      "name": "signThis",
      "outputs": [
        {
          "name": "",
          "type": "bytes"
        },
        {
          "name": "",
          "type": "uint256"
        }
      ],
      "payable": false,
      "stateMutability": "view",
      "type": "function",
      "signature": "0x7c0656fd"
    },
    {
      "constant": false,
      "inputs": [
        {
          "name": "certId",
          "type": "bytes32"
        },
        {
          "name": "signature",
          "type": "bytes"
        },
        {
          "name": "blockNumber",
          "type": "uint256"
        },
        {
          "name": "sigAlg",
          "type": "bytes32"
        }
      ],
      "name": "proveOwnership",
      "outputs": [
        {
          "name": "",
          "type": "bool"
        }
      ],
      "payable": false,
      "stateMutability": "nonpayable",
      "type": "function",
      "signature": "0xc55dc2cc"
    },
    {
      "constant": true,
      "inputs": [
        {
          "name": "certId",
          "type": "bytes32"
        }
      ],
      "name": "rootOf",
      "outputs": [
        {
          "name": "",
          "type": "bytes32"
        }
      ],
      "payable": false,
      "stateMutability": "view",
      "type": "function",
      "signature": "0x6d6f398e"
    },
    {
      "constant": true,
      "inputs": [
        {
          "name": "commonNameHash",
          "type": "bytes32"
        }
      ],
      "name": "certIdsFromCNLength",
      "outputs": [
        {
          "name": "",
          "type": "uint256"
        }
      ],
      "payable": false,
      "stateMutability": "view",
      "type": "function",
      "signature": "0xb226b8bd"
    },
    {
      "constant": true,
      "inputs": [
        {
          "name": "certId",
          "type": "bytes32"
        }
      ],
      "name": "owners",
      "outputs": [
        {
          "name": "",
          "type": "address"
        }
      ],
      "payable": false,
      "stateMutability": "view",
      "type": "function",
      "signature": "0xfb8ad6ff"
    },
    {
      "constant": false,
      "inputs": [
        {
          "name": "oid",
          "type": "bytes32"
        },
        {
          "name": "alg",
          "type": "address"
        }
      ],
      "name": "setAlg",
      "outputs": [],
      "payable": false,
      "stateMutability": "nonpayable",
      "type": "function",
      "signature": "0xdd9d2403"
    },
    {
      "constant": false,
      "inputs": [
        {
          "name": "_cshxOid",
          "type": "bytes32"
        }
      ],
      "name": "setCshxOid",
      "outputs": [],
      "payable": false,
      "stateMutability": "nonpayable",
      "type": "function",
      "signature": "0x0f0e595e"
    }
  ],
  "bytecode": "0x608060405234801561001057600080fd5b506040516040806135f38339810180604052604081101561003057600080fd5b810190808051906020019092919080519060200190929190505050336000806101000a81548173ffffffffffffffffffffffffffffffffffffffff021916908373ffffffffffffffffffffffffffffffffffffffff16021790555060007f2a864886f70d01010b00000000000000000000000000000000000000000000006001029050826005600083815260200190815260200160002060006101000a81548173ffffffffffffffffffffffffffffffffffffffff021916908373ffffffffffffffffffffffffffffffffffffffff16021790555081600160006101000a81548173ffffffffffffffffffffffffffffffffffffffff021916908373ffffffffffffffffffffffffffffffffffffffff1602179055507f551d130000000000000000000000000000000000000000000000000000000000600102600681905550505050613471806101826000396000f3fe6080604052600436106100be576000357c01000000000000000000000000000000000000000000000000000000009004806249c3f6146100c35780630f0e595e146101975780632761694a146101d257806337356fe2146102215780634063d812146102ff5780636d6f398e146104065780637c0656fd14610455578063b226b8bd146104ec578063c55dc2cc1461053b578063dd9d2403146105f7578063f2fde38b14610652578063fb8ad6ff146106a3578063fe11602d1461071e575b600080fd5b3480156100cf57600080fd5b50610195600480360360408110156100e657600080fd5b810190808035906020019064010000000081111561010357600080fd5b82018360208201111561011557600080fd5b8035906020019184600183028401116401000000008311171561013757600080fd5b91908080601f016020809104026020016040519081016040528093929190818152602001838380828437600081840152601f19601f820116905080830192505050505050509192919290803515159060200190929190505050610777565b005b3480156101a357600080fd5b506101d0600480360360208110156101ba57600080fd5b810190808035906020019092919050505061089d565b005b3480156101de57600080fd5b5061020b600480360360208110156101f557600080fd5b8101908080359060200190929190505050610902565b6040518082815260200191505060405180910390f35b34801561022d57600080fd5b506102fd6004803603606081101561024457600080fd5b810190808035906020019064010000000081111561026157600080fd5b82018360208201111561027357600080fd5b8035906020019184600183028401116401000000008311171561029557600080fd5b91908080601f016020809104026020016040519081016040528093929190818152602001838380828437600081840152601f19601f8201169050808301925050505050505091929192908035906020019092919080351515906020019092919050505061091a565b005b34801561030b57600080fd5b506103386004803603602081101561032257600080fd5b8101908080359060200190929190505050611293565b604051808773ffffffffffffffffffffffffffffffffffffffff1673ffffffffffffffffffffffffffffffffffffffff1681526020018681526020018060200185815260200184815260200183151515158152602001828103825286818151815260200191508051906020019080838360005b838110156103c65780820151818401526020810190506103ab565b50505050905090810190601f1680156103f35780820380516001836020036101000a031916815260200191505b5097505050505050505060405180910390f35b34801561041257600080fd5b5061043f6004803603602081101561042957600080fd5b8101908080359060200190929190505050611394565b6040518082815260200191505060405180910390f35b34801561046157600080fd5b5061046a6113dc565b6040518080602001838152602001828103825284818151815260200191508051906020019080838360005b838110156104b0578082015181840152602081019050610495565b50505050905090810190601f1680156104dd5780820380516001836020036101000a031916815260200191505b50935050505060405180910390f35b3480156104f857600080fd5b506105256004803603602081101561050f57600080fd5b8101908080359060200190929190505050611453565b6040518082815260200191505060405180910390f35b34801561054757600080fd5b506105dd6004803603608081101561055e57600080fd5b81019080803590602001909291908035906020019064010000000081111561058557600080fd5b82018360208201111561059757600080fd5b803590602001918460018302840111640100000000831117156105b957600080fd5b90919293919293908035906020019092919080359060200190929190505050611473565b604051808215151515815260200191505060405180910390f35b34801561060357600080fd5b506106506004803603604081101561061a57600080fd5b8101908080359060200190929190803573ffffffffffffffffffffffffffffffffffffffff1690602001909291905050506117a3565b005b34801561065e57600080fd5b506106a16004803603602081101561067557600080fd5b81019080803573ffffffffffffffffffffffffffffffffffffffff1690602001909291905050506118bf565b005b3480156106af57600080fd5b506106dc600480360360208110156106c657600080fd5b8101908080359060200190929190505050611a15565b604051808273ffffffffffffffffffffffffffffffffffffffff1673ffffffffffffffffffffffffffffffffffffffff16815260200191505060405180910390f35b34801561072a57600080fd5b506107616004803603604081101561074157600080fd5b810190808035906020019092919080359060200190929190505050611a55565b6040518082815260200191505060405180910390f35b600061078283611a85565b90506107978184611a9990919063ffffffff16565b90506107ac8184611a9990919063ffffffff16565b90506107c18184611bf690919063ffffffff16565b90506107d68184611bf690919063ffffffff16565b90506107eb8184611bf690919063ffffffff16565b90506108008184611bf690919063ffffffff16565b90506108158184611bf690919063ffffffff16565b905061082a8184611bf690919063ffffffff16565b905061083f8184611c1590919063ffffffff16565b600260006108568487611c5190919063ffffffff16565b8152602001908152602001600020600201908051906020019061087a9291906133a0565b50610898836108928386611c5190919063ffffffff16565b8461091a565b505050565b6000809054906101000a900473ffffffffffffffffffffffffffffffffffffffff1673ffffffffffffffffffffffffffffffffffffffff163373ffffffffffffffffffffffffffffffffffffffff161415156108f857600080fd5b8060068190555050565b60046020528060005260406000206000915090505481565b60008060008060008061092c89611a85565b9250610941838a611a9990919063ffffffff16565b9250610956838a611a9990919063ffffffff16565b915061096b828a611bf690919063ffffffff16565b9150610980828a611c8d90919063ffffffff16565b9450610995828a611bf690919063ffffffff16565b91506109aa828a611a9990919063ffffffff16565b91506109bf838a611bf690919063ffffffff16565b90506109d4818a611bf690919063ffffffff16565b9050600560006109ed848c611f4190919063ffffffff16565b815260200190815260200160002060009054906101000a900473ffffffffffffffffffffffffffffffffffffffff1673ffffffffffffffffffffffffffffffffffffffff1663de8f50a1600260008b8152602001908152602001600020600201610a60868d611c1590919063ffffffff16565b610a73858e611f7d90919063ffffffff16565b6040518463ffffffff167c010000000000000000000000000000000000000000000000000000000002815260040180806020018060200180602001848103845287818154600181600116156101000203166002900481526020019150805460018160011615610100020316600290048015610b2f5780601f10610b0457610100808354040283529160200191610b2f565b820191906000526020600020905b815481529060010190602001808311610b1257829003601f168201915b5050848103835286818151815260200191508051906020019080838360005b83811015610b69578082015181840152602081019050610b4e565b50505050905090810190601f168015610b965780820380516001836020036101000a031916815260200191505b50848103825285818151815260200191508051906020019080838360005b83811015610bcf578082015181840152602081019050610bb4565b50505050905090810190601f168015610bfc5780820380516001836020036101000a031916815260200191505b50965050505050505060206040518083038186803b158015610c1d57600080fd5b505afa158015610c31573d6000803e3d6000fd5b505050506040513d6020811015610c4757600080fd5b81019080805190602001909291905050501515610ccc576040517f08c379a00000000000000000000000000000000000000000000000000000000081526004018080602001828103825260168152602001807f5369676e617475726520646f65736e74206d617463680000000000000000000081525060200191505060405180910390fd5b610cdf838a611a9990919063ffffffff16565b9250610cf4838a611bf690919063ffffffff16565b9250610d09838a611bf690919063ffffffff16565b9250610d1e838a611bf690919063ffffffff16565b9250610d33838a611bf690919063ffffffff16565b9250610d48838a611a9990919063ffffffff16565b915042610d66610d61848c611f7d90919063ffffffff16565b611fb9565b11151515610ddc576040517f08c379a000000000000000000000000000000000000000000000000000000000815260040180806020018281038252600c8152602001807f496e76616c69642063657274000000000000000000000000000000000000000081525060200191505060405180910390fd5b610def828a611bf690919063ffffffff16565b9150610e0c610e07838b611f7d90919063ffffffff16565b611fb9565b9350834211151515610e86576040517f08c379a000000000000000000000000000000000000000000000000000000000815260040180806020018281038252600c8152602001807f496e76616c69642063657274000000000000000000000000000000000000000081525060200191505060405180910390fd5b610e99838a611bf690919063ffffffff16565b9250610eae838a611bf690919063ffffffff16565b9150610ec3828a611c5190919063ffffffff16565b95508786141515610f0c57610ee1828a611c1590919063ffffffff16565b600260008881526020019081526020016000206002019080519060200190610f0a9291906133a0565b505b610f1f838a611a9990919063ffffffff16565b91505b610f2c828461291d565b1561105f57610f44828a611a9990919063ffffffff16565b9050610f59818a611a9990919063ffffffff16565b90507f5504030000000000000000000000000000000000000000000000000000000000600102610f92828b611f4190919063ffffffff16565b141561104557610fab818a611bf690919063ffffffff16565b905060036000610fc4838c61298e90919063ffffffff16565b815260200190815260200160002086908060018154018082558091505090600182039060005260206000200160009091929091909150555061100f818a61298e90919063ffffffff16565b6004600061102e611029858e611f7d90919063ffffffff16565b6129ca565b81526020019081526020016000208190555061105f565b611058828a611bf690919063ffffffff16565b9150610f22565b876002600088815260200190815260200160002060010181905550846002600088815260200190815260200160002060030181905550836002600088815260200190815260200160002060040181905550856004600060028c6040518082805190602001908083835b6020831015156110ed57805182526020820191506020810190506020830392506110c8565b6001836020036101000a038019825116818451168082178552505050505050905001915050602060405180830381855afa15801561112f573d6000803e3d6000fd5b5050506040513d602081101561114457600080fd5b8101908080519060200190929190505050815260200190815260200160002081905550861561125157611180838a611bf690919063ffffffff16565b9250611195838a611bf690919063ffffffff16565b92506111aa838a611a9990919063ffffffff16565b92506111bf838a611a9990919063ffffffff16565b91505b6111cc828461291d565b15611250576111e4828a611a9990919063ffffffff16565b90506006546111fc828b611f4190919063ffffffff16565b14156112365760016002600088815260200190815260200160002060050160006101000a81548160ff021916908315150217905550611250565b611249828a611bf690919063ffffffff16565b91506111c2565b5b7fa8bcd2c977618c00f7fed703adeb0977d9b57eb1f309214e668e87ca390c5137866040518082815260200191505060405180910390a1505050505050505050565b60026020528060005260406000206000915090508060000160009054906101000a900473ffffffffffffffffffffffffffffffffffffffff1690806001015490806002018054600181600116156101000203166002900480601f01602080910402602001604051908101604052809291908181526020018280546001816001161561010002031660029004801561136b5780601f106113405761010080835404028352916020019161136b565b820191906000526020600020905b81548152906001019060200180831161134e57829003601f168201915b5050505050908060030154908060040154908060050160009054906101000a900460ff16905086565b60005b6002600083815260200190815260200160002060010154821415156113d45760026000838152602001908152602001600020600101549150611397565b819050919050565b60606000336001430340604051602001808373ffffffffffffffffffffffffffffffffffffffff1673ffffffffffffffffffffffffffffffffffffffff166c010000000000000000000000000281526014018281526020019250505060405160208183030381529060405260014303915091509091565b600060036000838152602001908152602001600020805490509050919050565b6000606061010084430310151561148957600080fd5b338440604051602001808373ffffffffffffffffffffffffffffffffffffffff1673ffffffffffffffffffffffffffffffffffffffff166c010000000000000000000000000281526014018281526020019250505060405160208183030381529060405290506005600084815260200190815260200160002060009054906101000a900473ffffffffffffffffffffffffffffffffffffffff1673ffffffffffffffffffffffffffffffffffffffff1663de8f50a1600260008a81526020019081526020016000206002018389896040518563ffffffff167c0100000000000000000000000000000000000000000000000000000000028152600401808060200180602001806020018481038452888181546001816001161561010002031660029004815260200191508054600181600116156101000203166002900480156116135780601f106115e857610100808354040283529160200191611613565b820191906000526020600020905b8154815290600101906020018083116115f657829003601f168201915b5050848103835287818151815260200191508051906020019080838360005b8381101561164d578082015181840152602081019050611632565b50505050905090810190601f16801561167a5780820380516001836020036101000a031916815260200191505b508481038252868682818152602001925080828437600081840152601f19601f82011690508083019250505097505050505050505060206040518083038186803b1580156116c757600080fd5b505afa1580156116db573d6000803e3d6000fd5b505050506040513d60208110156116f157600080fd5b8101908080519060200190929190505050151561170d57600080fd5b336002600089815260200190815260200160002060000160006101000a81548173ffffffffffffffffffffffffffffffffffffffff021916908373ffffffffffffffffffffffffffffffffffffffff1602179055507f5c088381a25fb06fe5d3936d0346b98d68146eea6dd3801386069db26fbac84f876040518082815260200191505060405180910390a15095945050505050565b6000809054906101000a900473ffffffffffffffffffffffffffffffffffffffff1673ffffffffffffffffffffffffffffffffffffffff163373ffffffffffffffffffffffffffffffffffffffff161415156117fe57600080fd5b806005600084815260200190815260200160002060006101000a81548173ffffffffffffffffffffffffffffffffffffffff021916908373ffffffffffffffffffffffffffffffffffffffff1602179055507f65146a769582c865299fe09a84142c84d0f1d4df1dbaaaf2301857e665beb2d78282604051808381526020018273ffffffffffffffffffffffffffffffffffffffff1673ffffffffffffffffffffffffffffffffffffffff1681526020019250505060405180910390a15050565b6000809054906101000a900473ffffffffffffffffffffffffffffffffffffffff1673ffffffffffffffffffffffffffffffffffffffff163373ffffffffffffffffffffffffffffffffffffffff1614151561191a57600080fd5b7f7699c77f2404f9b6bbd003861bb4af8ae70b205e19e73d7ec7fe4590db59a6b76000809054906101000a900473ffffffffffffffffffffffffffffffffffffffff1682604051808373ffffffffffffffffffffffffffffffffffffffff1673ffffffffffffffffffffffffffffffffffffffff1681526020018273ffffffffffffffffffffffffffffffffffffffff1673ffffffffffffffffffffffffffffffffffffffff1681526020019250505060405180910390a1806000806101000a81548173ffffffffffffffffffffffffffffffffffffffff021916908373ffffffffffffffffffffffffffffffffffffffff16021790555050565b60006002600083815260200190815260200160002060000160009054906101000a900473ffffffffffffffffffffffffffffffffffffffff169050919050565b600360205281600052604060002081815481101515611a7057fe5b90600052602060002001600091509150505481565b6000611a92826000612eae565b9050919050565b600060207f01000000000000000000000000000000000000000000000000000000000000000260207f01000000000000000000000000000000000000000000000000000000000000000284611aed856131ab565b815181101515611af957fe5b9060200101517f010000000000000000000000000000000000000000000000000000000000000090047f010000000000000000000000000000000000000000000000000000000000000002167effffffffffffffffffffffffffffffffffffffffffffffffffffffffffffff1916141515611bdc576040517f08c379a00000000000000000000000000000000000000000000000000000000081526004018080602001828103825260168152602001807f4e6f74206120636f6e737472756374656420747970650000000000000000000081525060200191505060405180910390fd5b611bee83611be9846131c1565b612eae565b905092915050565b6000611c0d836001611c07856131e3565b01612eae565b905092915050565b6060611c49611c23836131ab565b611c2c846131ab565b6001611c37866131e3565b0103856132059092919063ffffffff16565b905092915050565b6000611c85611c5f836131ab565b611c68846131ab565b6001611c73866131e3565b01038561327a9092919063ffffffff16565b905092915050565b600060027f01000000000000000000000000000000000000000000000000000000000000000283611cbd846131ab565b815181101515611cc957fe5b9060200101517f010000000000000000000000000000000000000000000000000000000000000090047f0100000000000000000000000000000000000000000000000000000000000000027effffffffffffffffffffffffffffffffffffffffffffffffffffffffffffff1916141515611dab576040517f08c379a00000000000000000000000000000000000000000000000000000000081526004018080602001828103825260108152602001807f4e6f74207479706520494e54454745520000000000000000000000000000000081525060200191505060405180910390fd5b60007f01000000000000000000000000000000000000000000000000000000000000000260807f01000000000000000000000000000000000000000000000000000000000000000284611dfd856131c1565b815181101515611e0957fe5b9060200101517f010000000000000000000000000000000000000000000000000000000000000090047f010000000000000000000000000000000000000000000000000000000000000002167effffffffffffffffffffffffffffffffffffffffffffffffffffffffffffff1916141515611eec576040517f08c379a000000000000000000000000000000000000000000000000000000000815260040180806020018281038252600c8152602001807f4e6f7420706f736974697665000000000000000000000000000000000000000081525060200191505060405180910390fd5b6000611ef7836131c1565b6001611f02856131e3565b0103905060088160200302611f2a611f19856131c1565b838761329f9092919063ffffffff16565b908060020a82049150506001900491505092915050565b6000611f75611f4f836131c1565b611f58846131c1565b6001611f63866131e3565b01038561329f9092919063ffffffff16565b905092915050565b6060611fb1611f8b836131c1565b611f94846131c1565b6001611f9f866131e3565b0103856132059092919063ffffffff16565b905092915050565b600080600080600080600080600d8951141561207357600560308a6000815181101515611fe257fe5b9060200101517f010000000000000000000000000000000000000000000000000000000000000090047f0100000000000000000000000000000000000000000000000000000000000000027f010000000000000000000000000000000000000000000000000000000000000090040360ff161015612066576107d08701965061206e565b61076c870196505b61218a565b606460308a600181518110151561208657fe5b9060200101517f010000000000000000000000000000000000000000000000000000000000000090047f0100000000000000000000000000000000000000000000000000000000000000027f01000000000000000000000000000000000000000000000000000000000000009004030260ff166103e860308b600081518110151561210d57fe5b9060200101517f010000000000000000000000000000000000000000000000000000000000000090047f0100000000000000000000000000000000000000000000000000000000000000027f010000000000000000000000000000000000000000000000000000000000000090040360ff16020187019650600290505b6030896001830160ff168151811015156121a057fe5b9060200101517f010000000000000000000000000000000000000000000000000000000000000090047f0100000000000000000000000000000000000000000000000000000000000000027f01000000000000000000000000000000000000000000000000000000000000009004600a60308c6000860160ff1681518110151561222657fe5b9060200101517f010000000000000000000000000000000000000000000000000000000000000090047f0100000000000000000000000000000000000000000000000000000000000000027f010000000000000000000000000000000000000000000000000000000000000090040302010360ff16870196506030896003830160ff168151811015156122b557fe5b9060200101517f010000000000000000000000000000000000000000000000000000000000000090047f0100000000000000000000000000000000000000000000000000000000000000027f01000000000000000000000000000000000000000000000000000000000000009004600a60308c6002860160ff1681518110151561233b57fe5b9060200101517f010000000000000000000000000000000000000000000000000000000000000090047f0100000000000000000000000000000000000000000000000000000000000000027f010000000000000000000000000000000000000000000000000000000000000090040302010395506030896005830160ff168151811015156123c557fe5b9060200101517f010000000000000000000000000000000000000000000000000000000000000090047f0100000000000000000000000000000000000000000000000000000000000000027f01000000000000000000000000000000000000000000000000000000000000009004600a60308c6004860160ff1681518110151561244b57fe5b9060200101517f010000000000000000000000000000000000000000000000000000000000000090047f0100000000000000000000000000000000000000000000000000000000000000027f0100000000000000000000000000000000000000000000000000000000000000900403020103850194506030896007830160ff168151811015156124d757fe5b9060200101517f010000000000000000000000000000000000000000000000000000000000000090047f0100000000000000000000000000000000000000000000000000000000000000027f01000000000000000000000000000000000000000000000000000000000000009004600a60308c6006860160ff1681518110151561255d57fe5b9060200101517f010000000000000000000000000000000000000000000000000000000000000090047f0100000000000000000000000000000000000000000000000000000000000000027f0100000000000000000000000000000000000000000000000000000000000000900403020103840193506030896009830160ff168151811015156125e957fe5b9060200101517f010000000000000000000000000000000000000000000000000000000000000090047f0100000000000000000000000000000000000000000000000000000000000000027f01000000000000000000000000000000000000000000000000000000000000009004600a60308c6008860160ff1681518110151561266f57fe5b9060200101517f010000000000000000000000000000000000000000000000000000000000000090047f0100000000000000000000000000000000000000000000000000000000000000027f010000000000000000000000000000000000000000000000000000000000000090040302010383019250603089600b830160ff168151811015156126fb57fe5b9060200101517f010000000000000000000000000000000000000000000000000000000000000090047f0100000000000000000000000000000000000000000000000000000000000000027f01000000000000000000000000000000000000000000000000000000000000009004600a60308c600a860160ff1681518110151561278157fe5b9060200101517f010000000000000000000000000000000000000000000000000000000000000090047f0100000000000000000000000000000000000000000000000000000000000000027f010000000000000000000000000000000000000000000000000000000000000090040302010382019150600160009054906101000a900473ffffffffffffffffffffffffffffffffffffffff1673ffffffffffffffffffffffffffffffffffffffff16639054bdec8888888888886040518763ffffffff167c0100000000000000000000000000000000000000000000000000000000028152600401808761ffff1661ffff1681526020018660ff1660ff1681526020018560ff1660ff1681526020018460ff1660ff1681526020018360ff1660ff1681526020018260ff1660ff168152602001965050505050505060206040518083038186803b1580156128d457600080fd5b505afa1580156128e8573d6000803e3d6000fd5b505050506040513d60208110156128fe57600080fd5b8101908080519060200190929190505050975050505050505050919050565b6000612928826131ab565b612931846131c1565b1115801561294f5750612943836131e3565b61294c836131e3565b11155b80612986575061295e836131ab565b612967836131c1565b111580156129855750612979826131e3565b612982846131e3565b11155b5b905092915050565b60006129c261299c836131c1565b6129a5846131c1565b60016129b0866131e3565b01038561327a9092919063ffffffff16565b905092915050565b600060777f0100000000000000000000000000000000000000000000000000000000000000028260008151811015156129ff57fe5b9060200101517f010000000000000000000000000000000000000000000000000000000000000090047f0100000000000000000000000000000000000000000000000000000000000000027effffffffffffffffffffffffffffffffffffffffffffffffffffffffffffff1916148015612b16575060777f010000000000000000000000000000000000000000000000000000000000000002826001815181101515612aa757fe5b9060200101517f010000000000000000000000000000000000000000000000000000000000000090047f0100000000000000000000000000000000000000000000000000000000000000027effffffffffffffffffffffffffffffffffffffffffffffffffffffffffffff1916145b8015612bbf575060777f010000000000000000000000000000000000000000000000000000000000000002826002815181101515612b5057fe5b9060200101517f010000000000000000000000000000000000000000000000000000000000000090047f0100000000000000000000000000000000000000000000000000000000000000027effffffffffffffffffffffffffffffffffffffffffffffffffffffffffffff1916145b8015612c685750602e7f010000000000000000000000000000000000000000000000000000000000000002826003815181101515612bf957fe5b9060200101517f010000000000000000000000000000000000000000000000000000000000000090047f0100000000000000000000000000000000000000000000000000000000000000027effffffffffffffffffffffffffffffffffffffffffffffffffffffffffffff1916145b15612d9957612c86600480845103846132059092919063ffffffff16565b73__ENSNamehash___________________________630e0fb92490916040518263ffffffff167c01000000000000000000000000000000000000000000000000000000000281526004018080602001828103825283818151815260200191508051906020019080838360005b83811015612d0d578082015181840152602081019050612cf2565b50505050905090810190601f168015612d3a5780820380516001836020036101000a031916815260200191505b509250505060206040518083038186803b158015612d5757600080fd5b505af4158015612d6b573d6000803e3d6000fd5b505050506040513d6020811015612d8157600080fd5b81019080805190602001909291905050509050612ea9565b8173__ENSNamehash___________________________630e0fb92490916040518263ffffffff167c01000000000000000000000000000000000000000000000000000000000281526004018080602001828103825283818151815260200191508051906020019080838360005b83811015612e21578082015181840152602081019050612e06565b50505050905090810190601f168015612e4e5780820380516001836020036101000a031916815260200191505b509250505060206040518083038186803b158015612e6b57600080fd5b505af4158015612e7f573d6000803e3d6000fd5b505050506040513d6020811015612e9557600080fd5b810190808051906020019092919050505090505b919050565b60008060008060007f01000000000000000000000000000000000000000000000000000000000000000260807f0100000000000000000000000000000000000000000000000000000000000000028760018801815181101515612f0d57fe5b9060200101517f010000000000000000000000000000000000000000000000000000000000000090047f010000000000000000000000000000000000000000000000000000000000000002167effffffffffffffffffffffffffffffffffffffffffffffffffffffffffffff19161415613024578560018601815181101515612f9257fe5b9060200101517f010000000000000000000000000000000000000000000000000000000000000090047f0100000000000000000000000000000000000000000000000000000000000000027f0100000000000000000000000000000000000000000000000000000000000000900460ff1692506002850191506001838369ffffffffffffffffffff160103905061317d565b6000607f7f010000000000000000000000000000000000000000000000000000000000000002876001880181518110151561305b57fe5b9060200101517f010000000000000000000000000000000000000000000000000000000000000090047f010000000000000000000000000000000000000000000000000000000000000002167f01000000000000000000000000000000000000000000000000000000000000009004905060018160ff1614156130f8576130ee60028701886132e290919063ffffffff16565b60ff16935061315c565b60028160ff1614156131255761311a600287018861330990919063ffffffff16565b61ffff16935061315b565b6008816020030260ff1661314a600288018360ff168a61329f9092919063ffffffff16565b908060020a82049150506001900493505b5b8060ff16600287010192506001848469ffffffffffffffffffff1601039150505b6131a0858369ffffffffffffffffffff168369ffffffffffffffffffff16613331565b935050505092915050565b60008169ffffffffffffffffffff169050919050565b6000605082908060020a820491505069ffffffffffffffffffff169050919050565b600060a082908060020a820491505069ffffffffffffffffffff169050919050565b606083518284011115151561321957600080fd5b6060826040519080825280601f01601f19166020018201604052801561324e5781602001600182028038833980820191505090505b509050600080602083019150856020880101905061326d828287613355565b8293505050509392505050565b600083518284011115151561328e57600080fd5b818360208601012090509392505050565b6000602082111515156132b157600080fd5b8351828401111515156132c357600080fd5b6001826020036101000a03198084602087010151169150509392505050565b6000825160018301111515156132f757600080fd5b60ff8260018501015116905092915050565b60008251600283011115151561331e57600080fd5b61ffff8260028501015116905092915050565b60006050839060020a028417935060a0829060020a02841793508390509392505050565b5b60208110151561337b5781518352602083019250602082019150602081039050613356565b60006001826020036101000a0390508019835116818551168181178652505050505050565b828054600181600116156101000203166002900490600052602060002090601f016020900481019282601f106133e157805160ff191683800117855561340f565b8280016001018555821561340f579182015b8281111561340e5782518255916020019190600101906133f3565b5b50905061341c9190613420565b5090565b61344291905b8082111561343e576000816000905550600101613426565b5090565b9056fea165627a7a723058208571d017f577d4edd7c08d176153ef21f226791d4992bcbdf5163dc19ba553fa0029",
  "source": "pragma solidity  ^0.5.1;\r\n\r\nimport \"./Ownable.sol\";\r\nimport \"asn1-decode/contracts/Asn1Decode.sol\";\r\n//import \"solidity-bytes-utils/contracts/BytesUtils.sol\";\r\nimport \"sig-verify-algs/contracts/Algorithm.sol\";\r\nimport \"ens-namehash/contracts/ENSNamehash.sol\";\r\nimport \"ethereum-datetime/contracts/DateTime.sol\";\r\n\r\n/*\r\n * @dev Stores validated X.509 certificate chains in parent pointer trees.\r\n * @dev The root of each tree is a CA root certificate\r\n */\r\ncontract X509ForestOfTrust is Ownable {\r\n  using Asn1Decode for bytes;\r\n  using BytesUtils for bytes;\r\n  using ENSNamehash for bytes;\r\n\r\n  constructor(address sha256WithRSAEncryption, address _dateTime) public {\r\n    bytes32 a = 0x2a864886f70d01010b0000000000000000000000000000000000000000000000;\r\n    algs[a] = Algorithm(sha256WithRSAEncryption);\r\n    dateTime = DateTime(_dateTime);\r\n    cshxOid = 0x551d130000000000000000000000000000000000000000000000000000000000; // change to actual oid of canSignHttpExchanges\r\n  }\r\n\r\n  DateTime dateTime;\r\n\r\n  struct Certificate {\r\n    address owner;\r\n    bytes32 parentId;\r\n    bytes pubKey;\r\n    uint serialNumber;\r\n    uint validNotAfter;\r\n    bool cshx; // canSignHttpExchanges\r\n  }\r\n  // certId => cert ; certId == keccak256(cert.pubKey)\r\n  mapping (bytes32 => Certificate) public certs;\r\n  // keccak256(commonName) => certId\r\n  mapping (bytes32 => bytes32[]) public certIdsFromCN;\r\n  // sha256Fingerprint => certId or ensNamehash(commonName) => keccak256(commonName)\r\n  mapping (bytes32 => bytes32) public refs;\r\n  // Signature verification contracts\r\n  mapping(bytes32 => Algorithm) private algs;\r\n  // OID of canSignHttpExchanges since spec may change\r\n  bytes32 private cshxOid;\r\n\r\n  event CertAdded(bytes32);\r\n  event CertClaimed(bytes32);\r\n  event AlgSet(bytes32, address);\r\n\r\n  /*\r\n   * @dev Add a self-signed X.509 certificate to the root of a new tree\r\n   * @param cert A DER-encoded self-signed X.509 certificate\r\n   * @param cshx Look for canSignHttpExchanges extension\r\n   */\r\n  function addRootCert(bytes memory cert, bool cshx)\r\n  public\r\n  {\r\n    uint node;\r\n    // Get pub key\r\n    node = cert.root();\r\n    node = cert.firstChildOf(node);\r\n    node = cert.firstChildOf(node);\r\n    node = cert.nextSiblingOf(node);\r\n    node = cert.nextSiblingOf(node);\r\n    node = cert.nextSiblingOf(node);\r\n    node = cert.nextSiblingOf(node);\r\n    node = cert.nextSiblingOf(node);\r\n    node = cert.nextSiblingOf(node);\r\n    // Set parent/self pub key\r\n    certs[cert.keccakOfAllBytesAt(node)].pubKey = cert.allBytesAt(node);\r\n    addCert(cert, cert.keccakOfAllBytesAt(node), cshx);\r\n  }\r\n\r\n  /*\r\n   * @dev Add a X.509 certificate to an existing tree/chain\r\n   * @param cert A DER-encoded X.509 certificate\r\n   * @param parentId The keccak256 hash of parent cert's public key\r\n   * @param cshx Look for canSignHttpExchanges extension\r\n   */\r\n  function addCert(bytes memory cert, bytes32 parentId, bool cshx)\r\n  public\r\n  {\r\n    bytes32 certId;\r\n    uint serialNumber;\r\n    uint validNotAfter;\r\n    uint node1;\r\n    uint node2;\r\n    uint node3;\r\n\r\n    node1 = cert.root();\r\n    node1 = cert.firstChildOf(node1);\r\n    node2 = cert.firstChildOf(node1);\r\n    node2 = cert.nextSiblingOf(node2);\r\n    // Extract serial number\r\n    serialNumber = cert.uintAt(node2);\r\n\r\n    node2 = cert.nextSiblingOf(node2);\r\n    node2 = cert.firstChildOf(node2);\r\n    node3 = cert.nextSiblingOf(node1);\r\n    node3 = cert.nextSiblingOf(node3);\r\n    // Verify signature\r\n    require( algs[cert.bytes32At(node2)].verify(certs[parentId].pubKey, cert.allBytesAt(node1), cert.bytesAt(node3)), \"Signature doesnt match\");\r\n\r\n    node1 = cert.firstChildOf(node1);\r\n    node1 = cert.nextSiblingOf(node1);\r\n    node1 = cert.nextSiblingOf(node1);\r\n    node1 = cert.nextSiblingOf(node1);\r\n    node1 = cert.nextSiblingOf(node1);\r\n\r\n    // Get timestamps\r\n    node2 = cert.firstChildOf(node1);\r\n    require(toTimestamp(cert.bytesAt(node2)) <= now, \"Invalid cert\");\r\n    node2 = cert.nextSiblingOf(node2);\r\n    validNotAfter = toTimestamp(cert.bytesAt(node2));\r\n    require(now <= validNotAfter, \"Invalid cert\");\r\n\r\n    node1 = cert.nextSiblingOf(node1);\r\n    node2 = cert.nextSiblingOf(node1);\r\n    // Get public key and calculate certId from it\r\n    certId = cert.keccakOfAllBytesAt(node2);\r\n    if (certId != parentId)\r\n      certs[certId].pubKey = cert.allBytesAt(node2);\r\n\r\n    // Get commonName and add references from it\r\n    node2 = cert.firstChildOf(node1);\r\n    while (Asn1Decode.isChildOf(node2, node1)) {\r\n      node3 = cert.firstChildOf(node2);\r\n      node3 = cert.firstChildOf(node3);\r\n      if ( cert.bytes32At(node3) == 0x5504030000000000000000000000000000000000000000000000000000000000 ) {\r\n        node3 = cert.nextSiblingOf(node3);\r\n        certIdsFromCN[cert.keccakOfBytesAt(node3)].push(certId);\r\n        refs[toEnsNamehash(cert.bytesAt(node3))] = cert.keccakOfBytesAt(node3);\r\n        break;\r\n      }\r\n      node2 = cert.nextSiblingOf(node2);\r\n    }\r\n\r\n    certs[certId].parentId = parentId;\r\n    certs[certId].serialNumber = serialNumber;\r\n    certs[certId].validNotAfter = validNotAfter;\r\n\r\n    // Add reference from sha256 fingerprint\r\n    refs[sha256(cert)] = certId;\r\n\r\n    if (cshx) {\r\n      node1 = cert.nextSiblingOf(node1);\r\n      node1 = cert.nextSiblingOf(node1);\r\n      node1 = cert.firstChildOf(node1);\r\n      node2 = cert.firstChildOf(node1);\r\n      while (Asn1Decode.isChildOf(node2, node1)) {\r\n        node3 = cert.firstChildOf(node2);\r\n        if ( cert.bytes32At(node3) == cshxOid ) {\r\n          certs[certId].cshx = true;\r\n          break;\r\n        }\r\n        node2 = cert.nextSiblingOf(node2);\r\n      }\r\n    }\r\n\r\n    // Fire event\r\n    emit CertAdded(certId);\r\n  }\r\n\r\n  /**\r\n   * @dev The return values of this function are used to proveOwnership() of a\r\n   *      certificate that exists in the certs mapping.\r\n   * @return Some unique bytes to be signed\r\n   * @return The block number used to create the first return value\r\n   */\r\n  function signThis()\r\n  external view returns (bytes memory, uint)\r\n  {\r\n    return ( abi.encodePacked(msg.sender, blockhash(block.number - 1)), block.number -1 );\r\n  }\r\n\r\n  /**\r\n   * @dev An account calls this method to prove ownership of a certificate.\r\n   *      If successful, certs[certId].owner will be set to caller's address.\r\n   * @param certId The keccak256 hash of target certificate's public key\r\n   * @param signature signThis()[0] signed with certificate's private key\r\n   * @param blockNumber The value of signThis()[1] (must be > block.number - 256)\r\n   * @param sigAlg The OID of the algorithm used to sign `signature`\r\n   */\r\n  function proveOwnership(bytes32 certId, bytes calldata signature, uint blockNumber, bytes32 sigAlg)\r\n  external returns (bool)\r\n  {\r\n    bytes memory message;\r\n    // Only accept proof if it's less than 256 blocks old\r\n    // This is the most time I can give since blockhash() can only return the 256 most recent\r\n    require( block.number - blockNumber < 256 );\r\n    // Verify signature, which proves ownership\r\n    message = abi.encodePacked(msg.sender, blockhash(blockNumber));\r\n    require( algs[sigAlg].verify(certs[certId].pubKey, message, signature) );\r\n\r\n    certs[certId].owner = msg.sender;\r\n\r\n    emit CertClaimed(certId);\r\n  }\r\n\r\n  function rootOf(bytes32 certId)\r\n  public view returns (bytes32)\r\n  {\r\n    while (certId != certs[certId].parentId) {\r\n      certId = certs[certId].parentId;\r\n    }\r\n    return certId;\r\n  }\r\n\r\n  function certIdsFromCNLength(bytes32 commonNameHash)\r\n  public view returns (uint)\r\n  {\r\n    return certIdsFromCN[commonNameHash].length;\r\n  }\r\n\r\n  function owners(bytes32 certId)\r\n  public view returns (address)\r\n  {\r\n    return certs[certId].owner;\r\n  }\r\n\r\n  function toTimestamp(bytes memory x509Time)\r\n  private view returns (uint)\r\n  {\r\n    uint16 yrs;  uint8 mnths;\r\n    uint8  dys;  uint8 hrs;\r\n    uint8  mins; uint8 secs;\r\n    uint8  offset;\r\n\r\n    if (x509Time.length == 13) {\r\n      if (uint8(x509Time[0])-48 < 5) yrs += 2000;\r\n      else yrs += 1900;\r\n    }\r\n    else {\r\n      yrs += (uint8(x509Time[0])-48) * 1000 + (uint8(x509Time[1])-48) * 100;\r\n      offset = 2;\r\n    }\r\n    yrs +=  (uint8(x509Time[offset+0])-48)*10 + uint8(x509Time[offset+1])-48;\r\n    mnths = (uint8(x509Time[offset+2])-48)*10 + uint8(x509Time[offset+3])-48;\r\n    dys +=  (uint8(x509Time[offset+4])-48)*10 + uint8(x509Time[offset+5])-48;\r\n    hrs +=  (uint8(x509Time[offset+6])-48)*10 + uint8(x509Time[offset+7])-48;\r\n    mins += (uint8(x509Time[offset+8])-48)*10 + uint8(x509Time[offset+9])-48;\r\n    secs += (uint8(x509Time[offset+10])-48)*10 + uint8(x509Time[offset+11])-48;\r\n\r\n    return dateTime.toTimestamp(yrs, mnths, dys, hrs, mins, secs);\r\n  }\r\n\r\n  function toEnsNamehash(bytes memory dn)\r\n  private pure returns (bytes32)\r\n  {\r\n    // if common name starts with 'www.'\r\n    if (dn[0] == 0x77 && dn[1] == 0x77 && dn[2] == 0x77 && dn[3] == 0x2e)\r\n      // omit 'www.'\r\n      return dn.substring(4, dn.length-4).namehash();\r\n\r\n    return dn.namehash();\r\n  }\r\n\r\n  function setAlg(bytes32 oid, address alg)\r\n  public onlyOwner\r\n  {\r\n    algs[oid] = Algorithm(alg);\r\n    emit AlgSet(oid, alg);\r\n  }\r\n\r\n  function setCshxOid(bytes32 _cshxOid)\r\n  public onlyOwner\r\n  {\r\n    cshxOid = _cshxOid;\r\n  }\r\n}\r\n",
  "sourcePath": "/home/jonah/x509-forest-of-trust/contracts/X509ForestOfTrust.sol",
  "compiler": {
    "name": "solc",
    "version": "0.5.1+commit.c8a2cb62.Emscripten.clang"
  },
  "schemaVersion": "3.0.0-beta.2",
  "updatedAt": "2018-12-12T21:04:42.185Z",
  "devdoc": {
    "methods": {
      "proveOwnership(bytes32,bytes,uint256,bytes32)": {
        "details": "An account calls this method to prove ownership of a certificate.\r     If successful, certs[certId].owner will be set to caller's address.\r",
        "params": {
          "blockNumber": "The value of signThis()[1] (must be > block.number - 256)\r",
          "certId": "The keccak256 hash of target certificate's public key\r",
          "sigAlg": "The OID of the algorithm used to sign `signature`\r",
          "signature": "signThis()[0] signed with certificate's private key\r"
        }
      },
      "signThis()": {
        "details": "The return values of this function are used to proveOwnership() of a\r     certificate that exists in the certs mapping.\r",
        "return": "Some unique bytes to be signed\rThe block number used to create the first return value\r"
      }
    }
  },
  "userdoc": {
    "methods": {}
  }
}