{
  "contractName": "X509ForestOfTrust",
  "abi": [
    {
      "constant": true,
      "inputs": [
        {
          "name": "",
          "type": "bytes32"
        }
      ],
      "name": "refs",
      "outputs": [
        {
          "name": "",
          "type": "bytes32"
        }
      ],
      "payable": false,
      "stateMutability": "view",
      "type": "function"
    },
    {
      "constant": true,
      "inputs": [
        {
          "name": "",
          "type": "bytes32"
        }
      ],
      "name": "certs",
      "outputs": [
        {
          "name": "owner",
          "type": "address"
        },
        {
          "name": "parentId",
          "type": "bytes32"
        },
        {
          "name": "pubKey",
          "type": "bytes"
        },
        {
          "name": "serialNumber",
          "type": "uint256"
        },
        {
          "name": "validNotAfter",
          "type": "uint256"
        },
        {
          "name": "cshx",
          "type": "bool"
        }
      ],
      "payable": false,
      "stateMutability": "view",
      "type": "function"
    },
    {
      "constant": false,
      "inputs": [
        {
          "name": "newOwner",
          "type": "address"
        }
      ],
      "name": "transferOwnership",
      "outputs": [],
      "payable": false,
      "stateMutability": "nonpayable",
      "type": "function"
    },
    {
      "constant": true,
      "inputs": [
        {
          "name": "",
          "type": "bytes32"
        },
        {
          "name": "",
          "type": "uint256"
        }
      ],
      "name": "certIdsFromCN",
      "outputs": [
        {
          "name": "",
          "type": "bytes32"
        }
      ],
      "payable": false,
      "stateMutability": "view",
      "type": "function"
    },
    {
      "inputs": [
        {
          "name": "sha256WithRSAEncryption",
          "type": "address"
        },
        {
          "name": "_dateTime",
          "type": "address"
        }
      ],
      "payable": false,
      "stateMutability": "nonpayable",
      "type": "constructor"
    },
    {
      "anonymous": false,
      "inputs": [
        {
          "indexed": false,
          "name": "",
          "type": "bytes32"
        }
      ],
      "name": "CertAdded",
      "type": "event"
    },
    {
      "anonymous": false,
      "inputs": [
        {
          "indexed": false,
          "name": "",
          "type": "bytes32"
        }
      ],
      "name": "CertClaimed",
      "type": "event"
    },
    {
      "anonymous": false,
      "inputs": [
        {
          "indexed": false,
          "name": "",
          "type": "bytes32"
        },
        {
          "indexed": false,
          "name": "",
          "type": "address"
        }
      ],
      "name": "AlgSet",
      "type": "event"
    },
    {
      "anonymous": false,
      "inputs": [
        {
          "indexed": false,
          "name": "",
          "type": "address"
        },
        {
          "indexed": false,
          "name": "",
          "type": "address"
        }
      ],
      "name": "ownershipTransferred",
      "type": "event"
    },
    {
      "constant": false,
      "inputs": [
        {
          "name": "cert",
          "type": "bytes"
        },
        {
          "name": "cshx",
          "type": "bool"
        }
      ],
      "name": "addRootCert",
      "outputs": [],
      "payable": false,
      "stateMutability": "nonpayable",
      "type": "function"
    },
    {
      "constant": false,
      "inputs": [
        {
          "name": "cert",
          "type": "bytes"
        },
        {
          "name": "parentId",
          "type": "bytes32"
        },
        {
          "name": "cshx",
          "type": "bool"
        }
      ],
      "name": "addCert",
      "outputs": [],
      "payable": false,
      "stateMutability": "nonpayable",
      "type": "function"
    },
    {
      "constant": true,
      "inputs": [],
      "name": "signThis",
      "outputs": [
        {
          "name": "",
          "type": "bytes32"
        },
        {
          "name": "",
          "type": "uint256"
        }
      ],
      "payable": false,
      "stateMutability": "view",
      "type": "function"
    },
    {
      "constant": false,
      "inputs": [
        {
          "name": "certId",
          "type": "bytes32"
        },
        {
          "name": "signature",
          "type": "bytes"
        },
        {
          "name": "blockNumber",
          "type": "uint256"
        },
        {
          "name": "sigAlg",
          "type": "bytes32"
        }
      ],
      "name": "proveOwnership",
      "outputs": [
        {
          "name": "",
          "type": "bool"
        }
      ],
      "payable": false,
      "stateMutability": "nonpayable",
      "type": "function"
    },
    {
      "constant": true,
      "inputs": [
        {
          "name": "certId",
          "type": "bytes32"
        }
      ],
      "name": "rootOf",
      "outputs": [
        {
          "name": "",
          "type": "bytes32"
        }
      ],
      "payable": false,
      "stateMutability": "view",
      "type": "function"
    },
    {
      "constant": true,
      "inputs": [
        {
          "name": "commonNameHash",
          "type": "bytes32"
        }
      ],
      "name": "certIdsLength",
      "outputs": [
        {
          "name": "",
          "type": "uint256"
        }
      ],
      "payable": false,
      "stateMutability": "view",
      "type": "function"
    },
    {
      "constant": false,
      "inputs": [
        {
          "name": "oid",
          "type": "bytes32"
        },
        {
          "name": "alg",
          "type": "address"
        }
      ],
      "name": "setAlg",
      "outputs": [],
      "payable": false,
      "stateMutability": "nonpayable",
      "type": "function"
    },
    {
      "constant": false,
      "inputs": [
        {
          "name": "_cshxOid",
          "type": "bytes32"
        }
      ],
      "name": "setCshxOidHash",
      "outputs": [],
      "payable": false,
      "stateMutability": "nonpayable",
      "type": "function"
    }
  ],
  "bytecode": "0x608060405234801561001057600080fd5b5060405160408061355b83398101806040528101908080519060200190929190805190602001909291905050506000336000806101000a81548173ffffffffffffffffffffffffffffffffffffffff021916908373ffffffffffffffffffffffffffffffffffffffff1602179055507f2a864886f70d01010b000000000000000000000000000000000000000000000060010290508260056000836000191660001916815260200190815260200160002060006101000a81548173ffffffffffffffffffffffffffffffffffffffff021916908373ffffffffffffffffffffffffffffffffffffffff16021790555081600160006101000a81548173ffffffffffffffffffffffffffffffffffffffff021916908373ffffffffffffffffffffffffffffffffffffffff1602179055507f551d130000000000000000000000000000000000000000000000000000000000600102600681600019169055505050506133db806101806000396000f3006080604052600436106100b9576000357c0100000000000000000000000000000000000000000000000000000000900463ffffffff16806249c3f6146100be5780632761694a1461013357806337356fe2146101805780634063d812146102035780636d6f398e146103085780637c0656fd14610355578063c55dc2cc1461038f578063d8b309f214610408578063dd9d240314610439578063f2fde38b1461048a578063fa2e034e146104cd578063fe11602d14610512575b600080fd5b3480156100ca57600080fd5b50610131600480360381019080803590602001908201803590602001908080601f0160208091040260200160405190810160405280939291908181526020018383808284378201915050505050509192919290803515159060200190929190505050610569565b005b34801561013f57600080fd5b506101626004803603810190808035600019169060200190929190505050610697565b60405180826000191660001916815260200191505060405180910390f35b34801561018c57600080fd5b50610201600480360381019080803590602001908201803590602001908080601f016020809104026020016040519081016040528093929190818152602001838380828437820191505050505050919291929080356000191690602001909291908035151590602001909291905050506106af565b005b34801561020f57600080fd5b5061023260048036038101908080356000191690602001909291905050506110aa565b604051808773ffffffffffffffffffffffffffffffffffffffff1673ffffffffffffffffffffffffffffffffffffffff16815260200186600019166000191681526020018060200185815260200184815260200183151515158152602001828103825286818151815260200191508051906020019080838360005b838110156102c85780820151818401526020810190506102ad565b50505050905090810190601f1680156102f55780820380516001836020036101000a031916815260200191505b5097505050505050505060405180910390f35b34801561031457600080fd5b5061033760048036038101908080356000191690602001909291905050506111ab565b60405180826000191660001916815260200191505060405180910390f35b34801561036157600080fd5b5061036a61120b565b6040518083600019166000191681526020018281526020019250505060405180910390f35b34801561039b57600080fd5b506103ee60048036038101908080356000191690602001909291908035906020019082018035906020019190919293919293908035906020019092919080356000191690602001909291905050506112eb565b604051808215151515815260200191505060405180910390f35b34801561041457600080fd5b5061043760048036038101908080356000191690602001909291905050506116bd565b005b34801561044557600080fd5b506104886004803603810190808035600019169060200190929190803573ffffffffffffffffffffffffffffffffffffffff169060200190929190505050611726565b005b34801561049657600080fd5b506104cb600480360381019080803573ffffffffffffffffffffffffffffffffffffffff169060200190929190505050611852565b005b3480156104d957600080fd5b506104fc60048036038101908080356000191690602001909291905050506119a8565b6040518082815260200191505060405180910390f35b34801561051e57600080fd5b5061054b6004803603810190808035600019169060200190929190803590602001909291905050506119d0565b60405180826000191660001916815260200191505060405180910390f35b600061057483611a00565b90506105898184611a1490919063ffffffff16565b905061059e8184611a1490919063ffffffff16565b90506105b38184611b7190919063ffffffff16565b90506105c88184611b7190919063ffffffff16565b90506105dd8184611b7190919063ffffffff16565b90506105f28184611b7190919063ffffffff16565b90506106078184611b7190919063ffffffff16565b905061061c8184611b7190919063ffffffff16565b90506106318184611b9090919063ffffffff16565b600260006106488487611bcc90919063ffffffff16565b60001916600019168152602001908152602001600020600201908051906020019061067492919061330a565b506106928361068c8386611bcc90919063ffffffff16565b846106af565b505050565b60046020528060005260406000206000915090505481565b6000806000806000806106c189611a00565b92506106d6838a611a1490919063ffffffff16565b92506106eb838a611a1490919063ffffffff16565b9150610700828a611b7190919063ffffffff16565b9150610715828a611c0890919063ffffffff16565b945061072a828a611b7190919063ffffffff16565b915061073f828a611a1490919063ffffffff16565b9150610754838a611b7190919063ffffffff16565b9050610769818a611b7190919063ffffffff16565b905060056000610782848c611ebb90919063ffffffff16565b6000191660001916815260200190815260200160002060009054906101000a900473ffffffffffffffffffffffffffffffffffffffff1673ffffffffffffffffffffffffffffffffffffffff1663de8f50a1600260008b60001916600019168152602001908152602001600020600201610805868d611b9090919063ffffffff16565b610818858e611ef790919063ffffffff16565b6040518463ffffffff167c0100000000000000000000000000000000000000000000000000000000028152600401808060200180602001806020018481038452878181546001816001161561010002031660029004815260200191508054600181600116156101000203166002900480156108d45780601f106108a9576101008083540402835291602001916108d4565b820191906000526020600020905b8154815290600101906020018083116108b757829003601f168201915b5050848103835286818151815260200191508051906020019080838360005b8381101561090e5780820151818401526020810190506108f3565b50505050905090810190601f16801561093b5780820380516001836020036101000a031916815260200191505b50848103825285818151815260200191508051906020019080838360005b83811015610974578082015181840152602081019050610959565b50505050905090810190601f1680156109a15780820380516001836020036101000a031916815260200191505b509650505050505050602060405180830381600087803b1580156109c457600080fd5b505af11580156109d8573d6000803e3d6000fd5b505050506040513d60208110156109ee57600080fd5b81019080805190602001909291905050501515610a73576040517f08c379a00000000000000000000000000000000000000000000000000000000081526004018080602001828103825260168152602001807f5369676e617475726520646f65736e74206d617463680000000000000000000081525060200191505060405180910390fd5b610a86838a611a1490919063ffffffff16565b9250610a9b838a611b7190919063ffffffff16565b9250610ab0838a611b7190919063ffffffff16565b9250610ac5838a611b7190919063ffffffff16565b9250610ada838a611b7190919063ffffffff16565b9250610aef838a611a1490919063ffffffff16565b915042610b0d610b08848c611ef790919063ffffffff16565b611f33565b11151515610b83576040517f08c379a000000000000000000000000000000000000000000000000000000000815260040180806020018281038252600c8152602001807f496e76616c69642063657274000000000000000000000000000000000000000081525060200191505060405180910390fd5b610b96828a611b7190919063ffffffff16565b9150610bb3610bae838b611ef790919063ffffffff16565b611f33565b9350834211151515610c2d576040517f08c379a000000000000000000000000000000000000000000000000000000000815260040180806020018281038252600c8152602001807f496e76616c69642063657274000000000000000000000000000000000000000081525060200191505060405180910390fd5b610c40838a611b7190919063ffffffff16565b9250610c55838a611b7190919063ffffffff16565b9150610c6a828a611bcc90919063ffffffff16565b955087600019168660001916141515610cc357610c90828a611b9090919063ffffffff16565b6002600088600019166000191681526020019081526020016000206002019080519060200190610cc192919061330a565b505b610cd6838a611a1490919063ffffffff16565b91505b610ce38284612894565b15610e3457610cfb828a611a1490919063ffffffff16565b9050610d10818a611a1490919063ffffffff16565b90507f5504030000000000000000000000000000000000000000000000000000000000600102610d49828b611ebb90919063ffffffff16565b600019161415610e1a57610d66818a611b7190919063ffffffff16565b905060036000610d7f838c61290590919063ffffffff16565b60001916600019168152602001908152602001600020869080600181540180825580915050906001820390600052602060002001600090919290919091509060001916905550610dd8818a61290590919063ffffffff16565b60046000610df7610df2858e611ef790919063ffffffff16565b612941565b600019166000191681526020019081526020016000208160001916905550610e34565b610e2d828a611b7190919063ffffffff16565b9150610cd9565b87600260008860001916600019168152602001908152602001600020600101816000191690555084600260008860001916600019168152602001908152602001600020600301819055508360026000886000191660001916815260200190815260200160002060040181905550856004600060028c6040518082805190602001908083835b602083101515610ede5780518252602082019150602081019050602083039250610eb9565b6001836020036101000a0380198251168184511680821785525050505050509050019150506020604051808303816000865af1158015610f22573d6000803e3d6000fd5b5050506040513d6020811015610f3757600080fd5b8101908080519060200190929190505050600019166000191681526020019081526020016000208160001916905550861561106057610f7f838a611b7190919063ffffffff16565b9250610f94838a611b7190919063ffffffff16565b9250610fa9838a611a1490919063ffffffff16565b9250610fbe838a611a1490919063ffffffff16565b91505b610fcb8284612894565b1561105f57610fe3828a611a1490919063ffffffff16565b905060065460001916610fff828b611ebb90919063ffffffff16565b60001916141561104557600160026000886000191660001916815260200190815260200160002060050160006101000a81548160ff02191690831515021790555061105f565b611058828a611b7190919063ffffffff16565b9150610fc1565b5b7fa8bcd2c977618c00f7fed703adeb0977d9b57eb1f309214e668e87ca390c51378660405180826000191660001916815260200191505060405180910390a1505050505050505050565b60026020528060005260406000206000915090508060000160009054906101000a900473ffffffffffffffffffffffffffffffffffffffff1690806001015490806002018054600181600116156101000203166002900480601f0160208091040260200160405190810160405280929190818152602001828054600181600116156101000203166002900480156111825780601f1061115757610100808354040283529160200191611182565b820191906000526020600020905b81548152906001019060200180831161116557829003601f168201915b5050505050908060030154908060040154908060050160009054906101000a900460ff16905086565b60005b60026000836000191660001916815260200190815260200160002060010154600019168260001916141515611203576002600083600019166000191681526020019081526020016000206001015491506111ae565b819050919050565b600080336001430340604051602001808373ffffffffffffffffffffffffffffffffffffffff1673ffffffffffffffffffffffffffffffffffffffff166c010000000000000000000000000281526014018260001916600019168152602001925050506040516020818303038152906040526040518082805190602001908083835b6020831015156112b2578051825260208201915060208101905060208303925061128d565b6001836020036101000a038019825116818451168082178552505050505050905001915050604051809103902060014303915091509091565b600060606116808443031115151561130257600080fd5b338440604051602001808373ffffffffffffffffffffffffffffffffffffffff1673ffffffffffffffffffffffffffffffffffffffff166c010000000000000000000000000281526014018260001916600019168152602001925050506040516020818303038152906040526040518082805190602001908083835b6020831015156113a3578051825260208201915060208101905060208303925061137e565b6001836020036101000a0380198251168184511680821785525050505050509050019150506040518091039020604051602001808260001916600019168152602001915050604051602081830303815290604052905060056000846000191660001916815260200190815260200160002060009054906101000a900473ffffffffffffffffffffffffffffffffffffffff1673ffffffffffffffffffffffffffffffffffffffff1663de8f50a1600260008a600019166000191681526020019081526020016000206002018389896040518563ffffffff167c01000000000000000000000000000000000000000000000000000000000281526004018080602001806020018060200184810384528881815460018160011615610100020316600290048152602001915080546001816001161561010002031660029004801561152d5780601f106115025761010080835404028352916020019161152d565b820191906000526020600020905b81548152906001019060200180831161151057829003601f168201915b5050848103835287818151815260200191508051906020019080838360005b8381101561156757808201518184015260208101905061154c565b50505050905090810190601f1680156115945780820380516001836020036101000a031916815260200191505b5084810382528686828181526020019250808284378201915050975050505050505050602060405180830381600087803b1580156115d157600080fd5b505af11580156115e5573d6000803e3d6000fd5b505050506040513d60208110156115fb57600080fd5b8101908080519060200190929190505050151561161757600080fd5b3360026000896000191660001916815260200190815260200160002060000160006101000a81548173ffffffffffffffffffffffffffffffffffffffff021916908373ffffffffffffffffffffffffffffffffffffffff1602179055507f5c088381a25fb06fe5d3936d0346b98d68146eea6dd3801386069db26fbac84f8760405180826000191660001916815260200191505060405180910390a15095945050505050565b6000809054906101000a900473ffffffffffffffffffffffffffffffffffffffff1673ffffffffffffffffffffffffffffffffffffffff163373ffffffffffffffffffffffffffffffffffffffff1614151561171857600080fd5b806006816000191690555050565b6000809054906101000a900473ffffffffffffffffffffffffffffffffffffffff1673ffffffffffffffffffffffffffffffffffffffff163373ffffffffffffffffffffffffffffffffffffffff1614151561178157600080fd5b8060056000846000191660001916815260200190815260200160002060006101000a81548173ffffffffffffffffffffffffffffffffffffffff021916908373ffffffffffffffffffffffffffffffffffffffff1602179055507f65146a769582c865299fe09a84142c84d0f1d4df1dbaaaf2301857e665beb2d782826040518083600019166000191681526020018273ffffffffffffffffffffffffffffffffffffffff1673ffffffffffffffffffffffffffffffffffffffff1681526020019250505060405180910390a15050565b6000809054906101000a900473ffffffffffffffffffffffffffffffffffffffff1673ffffffffffffffffffffffffffffffffffffffff163373ffffffffffffffffffffffffffffffffffffffff161415156118ad57600080fd5b7f7699c77f2404f9b6bbd003861bb4af8ae70b205e19e73d7ec7fe4590db59a6b76000809054906101000a900473ffffffffffffffffffffffffffffffffffffffff1682604051808373ffffffffffffffffffffffffffffffffffffffff1673ffffffffffffffffffffffffffffffffffffffff1681526020018273ffffffffffffffffffffffffffffffffffffffff1673ffffffffffffffffffffffffffffffffffffffff1681526020019250505060405180910390a1806000806101000a81548173ffffffffffffffffffffffffffffffffffffffff021916908373ffffffffffffffffffffffffffffffffffffffff16021790555050565b6000600360008360001916600019168152602001908152602001600020805490509050919050565b6003602052816000526040600020818154811015156119eb57fe5b90600052602060002001600091509150505481565b6000611a0d826000612e25565b9050919050565b600060207f01000000000000000000000000000000000000000000000000000000000000000260207f01000000000000000000000000000000000000000000000000000000000000000284611a688561311e565b815181101515611a7457fe5b9060200101517f010000000000000000000000000000000000000000000000000000000000000090047f010000000000000000000000000000000000000000000000000000000000000002167effffffffffffffffffffffffffffffffffffffffffffffffffffffffffffff1916141515611b57576040517f08c379a00000000000000000000000000000000000000000000000000000000081526004018080602001828103825260168152602001807f4e6f74206120636f6e737472756374656420747970650000000000000000000081525060200191505060405180910390fd5b611b6983611b6484613134565b612e25565b905092915050565b6000611b88836001611b8285613152565b01612e25565b905092915050565b6060611bc4611b9e8361311e565b611ba78461311e565b6001611bb286613152565b0103856131709092919063ffffffff16565b905092915050565b6000611c00611bda8361311e565b611be38461311e565b6001611bee86613152565b0103856131e49092919063ffffffff16565b905092915050565b60008060027f01000000000000000000000000000000000000000000000000000000000000000284611c398561311e565b815181101515611c4557fe5b9060200101517f010000000000000000000000000000000000000000000000000000000000000090047f0100000000000000000000000000000000000000000000000000000000000000027effffffffffffffffffffffffffffffffffffffffffffffffffffffffffffff1916141515611d27576040517f08c379a00000000000000000000000000000000000000000000000000000000081526004018080602001828103825260108152602001807f4e6f74207479706520494e54454745520000000000000000000000000000000081525060200191505060405180910390fd5b60007f01000000000000000000000000000000000000000000000000000000000000000260807f01000000000000000000000000000000000000000000000000000000000000000285611d7986613134565b815181101515611d8557fe5b9060200101517f010000000000000000000000000000000000000000000000000000000000000090047f010000000000000000000000000000000000000000000000000000000000000002167effffffffffffffffffffffffffffffffffffffffffffffffffffffffffffff1916141515611e68576040517f08c379a000000000000000000000000000000000000000000000000000000000815260040180806020018281038252600c8152602001807f4e6f7420706f736974697665000000000000000000000000000000000000000081525060200191505060405180910390fd5b611e7183613134565b6001611e7c85613152565b0103905060088160200302611ea4611e9385613134565b83876132099092919063ffffffff16565b600019169060020a90046001900491505092915050565b6000611eef611ec983613134565b611ed284613134565b6001611edd86613152565b0103856132099092919063ffffffff16565b905092915050565b6060611f2b611f0583613134565b611f0e84613134565b6001611f1986613152565b0103856131709092919063ffffffff16565b905092915050565b600080600080600080600080600d89511415611fee57600560308a6000815181101515611f5c57fe5b9060200101517f010000000000000000000000000000000000000000000000000000000000000090047f0100000000000000000000000000000000000000000000000000000000000000027f010000000000000000000000000000000000000000000000000000000000000090040361ffff161015611fe1576107d087019650611fe9565b61076c870196505b6120ff565b606460308a600181518110151561200157fe5b9060200101517f010000000000000000000000000000000000000000000000000000000000000090047f0100000000000000000000000000000000000000000000000000000000000000027f0100000000000000000000000000000000000000000000000000000000000000900403026103e860308b600081518110151561208557fe5b9060200101517f010000000000000000000000000000000000000000000000000000000000000090047f0100000000000000000000000000000000000000000000000000000000000000027f0100000000000000000000000000000000000000000000000000000000000000900403020187019650600290505b6030896001830160ff1681518110151561211557fe5b9060200101517f010000000000000000000000000000000000000000000000000000000000000090047f0100000000000000000000000000000000000000000000000000000000000000027f01000000000000000000000000000000000000000000000000000000000000009004600a60308c6000860160ff1681518110151561219b57fe5b9060200101517f010000000000000000000000000000000000000000000000000000000000000090047f0100000000000000000000000000000000000000000000000000000000000000027f010000000000000000000000000000000000000000000000000000000000000090040302010360ff16870196506030896003830160ff1681518110151561222a57fe5b9060200101517f010000000000000000000000000000000000000000000000000000000000000090047f0100000000000000000000000000000000000000000000000000000000000000027f01000000000000000000000000000000000000000000000000000000000000009004600a60308c6002860160ff168151811015156122b057fe5b9060200101517f010000000000000000000000000000000000000000000000000000000000000090047f0100000000000000000000000000000000000000000000000000000000000000027f010000000000000000000000000000000000000000000000000000000000000090040302010395506030896005830160ff1681518110151561233a57fe5b9060200101517f010000000000000000000000000000000000000000000000000000000000000090047f0100000000000000000000000000000000000000000000000000000000000000027f01000000000000000000000000000000000000000000000000000000000000009004600a60308c6004860160ff168151811015156123c057fe5b9060200101517f010000000000000000000000000000000000000000000000000000000000000090047f0100000000000000000000000000000000000000000000000000000000000000027f0100000000000000000000000000000000000000000000000000000000000000900403020103850194506030896007830160ff1681518110151561244c57fe5b9060200101517f010000000000000000000000000000000000000000000000000000000000000090047f0100000000000000000000000000000000000000000000000000000000000000027f01000000000000000000000000000000000000000000000000000000000000009004600a60308c6006860160ff168151811015156124d257fe5b9060200101517f010000000000000000000000000000000000000000000000000000000000000090047f0100000000000000000000000000000000000000000000000000000000000000027f0100000000000000000000000000000000000000000000000000000000000000900403020103840193506030896009830160ff1681518110151561255e57fe5b9060200101517f010000000000000000000000000000000000000000000000000000000000000090047f0100000000000000000000000000000000000000000000000000000000000000027f01000000000000000000000000000000000000000000000000000000000000009004600a60308c6008860160ff168151811015156125e457fe5b9060200101517f010000000000000000000000000000000000000000000000000000000000000090047f0100000000000000000000000000000000000000000000000000000000000000027f010000000000000000000000000000000000000000000000000000000000000090040302010383019250603089600b830160ff1681518110151561267057fe5b9060200101517f010000000000000000000000000000000000000000000000000000000000000090047f0100000000000000000000000000000000000000000000000000000000000000027f01000000000000000000000000000000000000000000000000000000000000009004600a60308c600a860160ff168151811015156126f657fe5b9060200101517f010000000000000000000000000000000000000000000000000000000000000090047f0100000000000000000000000000000000000000000000000000000000000000027f010000000000000000000000000000000000000000000000000000000000000090040302010382019150600160009054906101000a900473ffffffffffffffffffffffffffffffffffffffff1673ffffffffffffffffffffffffffffffffffffffff16639054bdec8888888888886040518763ffffffff167c0100000000000000000000000000000000000000000000000000000000028152600401808761ffff1661ffff1681526020018660ff1660ff1681526020018560ff1660ff1681526020018460ff1660ff1681526020018360ff1660ff1681526020018260ff1660ff1681526020019650505050505050602060405180830381600087803b15801561284b57600080fd5b505af115801561285f573d6000803e3d6000fd5b505050506040513d602081101561287557600080fd5b8101908080519060200190929190505050975050505050505050919050565b600061289f8261311e565b6128a884613134565b111580156128c657506128ba83613152565b6128c383613152565b11155b806128fd57506128d58361311e565b6128de83613134565b111580156128fc57506128f082613152565b6128f984613152565b11155b5b905092915050565b600061293961291383613134565b61291c84613134565b600161292786613152565b0103856131e49092919063ffffffff16565b905092915050565b600060777f01000000000000000000000000000000000000000000000000000000000000000282600081518110151561297657fe5b9060200101517f010000000000000000000000000000000000000000000000000000000000000090047f0100000000000000000000000000000000000000000000000000000000000000027effffffffffffffffffffffffffffffffffffffffffffffffffffffffffffff1916148015612a8d575060777f010000000000000000000000000000000000000000000000000000000000000002826001815181101515612a1e57fe5b9060200101517f010000000000000000000000000000000000000000000000000000000000000090047f0100000000000000000000000000000000000000000000000000000000000000027effffffffffffffffffffffffffffffffffffffffffffffffffffffffffffff1916145b8015612b36575060777f010000000000000000000000000000000000000000000000000000000000000002826002815181101515612ac757fe5b9060200101517f010000000000000000000000000000000000000000000000000000000000000090047f0100000000000000000000000000000000000000000000000000000000000000027effffffffffffffffffffffffffffffffffffffffffffffffffffffffffffff1916145b8015612bdf5750602e7f010000000000000000000000000000000000000000000000000000000000000002826003815181101515612b7057fe5b9060200101517f010000000000000000000000000000000000000000000000000000000000000090047f0100000000000000000000000000000000000000000000000000000000000000027effffffffffffffffffffffffffffffffffffffffffffffffffffffffffffff1916145b15612d1057612bfd600480845103846131709092919063ffffffff16565b73__NameHash______________________________630987996290916040518263ffffffff167c01000000000000000000000000000000000000000000000000000000000281526004018080602001828103825283818151815260200191508051906020019080838360005b83811015612c84578082015181840152602081019050612c69565b50505050905090810190601f168015612cb15780820380516001836020036101000a031916815260200191505b509250505060206040518083038186803b158015612cce57600080fd5b505af4158015612ce2573d6000803e3d6000fd5b505050506040513d6020811015612cf857600080fd5b81019080805190602001909291905050509050612e20565b8173__NameHash______________________________630987996290916040518263ffffffff167c01000000000000000000000000000000000000000000000000000000000281526004018080602001828103825283818151815260200191508051906020019080838360005b83811015612d98578082015181840152602081019050612d7d565b50505050905090810190601f168015612dc55780820380516001836020036101000a031916815260200191505b509250505060206040518083038186803b158015612de257600080fd5b505af4158015612df6573d6000803e3d6000fd5b505050506040513d6020811015612e0c57600080fd5b810190808051906020019092919050505090505b919050565b6000806000806000807f01000000000000000000000000000000000000000000000000000000000000000260807f0100000000000000000000000000000000000000000000000000000000000000028860018901815181101515612e8557fe5b9060200101517f010000000000000000000000000000000000000000000000000000000000000090047f010000000000000000000000000000000000000000000000000000000000000002167effffffffffffffffffffffffffffffffffffffffffffffffffffffffffffff19161415612f99578660018701815181101515612f0a57fe5b9060200101517f010000000000000000000000000000000000000000000000000000000000000090047f0100000000000000000000000000000000000000000000000000000000000000027f0100000000000000000000000000000000000000000000000000000000000000900493506002860192506001848469ffffffffffffffffffff16010391506130ef565b607f7f0100000000000000000000000000000000000000000000000000000000000000028760018801815181101515612fce57fe5b9060200101517f010000000000000000000000000000000000000000000000000000000000000090047f010000000000000000000000000000000000000000000000000000000000000002167f01000000000000000000000000000000000000000000000000000000000000009004905060018160ff16141561306b57613061600287018861324c90919063ffffffff16565b60ff1693506130cf565b60028160ff1614156130985761308d600287018861327390919063ffffffff16565b61ffff1693506130ce565b6008816020030260ff166130bd600288018360ff168a6132099092919063ffffffff16565b600019169060020a90046001900493505b5b8060ff16600287010192506001848469ffffffffffffffffffff16010391505b613112868469ffffffffffffffffffff168469ffffffffffffffffffff1661329b565b94505050505092915050565b60008169ffffffffffffffffffff169050919050565b60006050829060020a900469ffffffffffffffffffff169050919050565b600060a0829060020a900469ffffffffffffffffffff169050919050565b60608060008086518587011115151561318857600080fd5b846040519080825280601f01601f1916602001820160405280156131bb5781602001602082028038833980820191505090505b50925060208301915085602088010190506131d78282876132bf565b8293505050509392505050565b60008351828401111515156131f857600080fd5b818360208601012090509392505050565b60006020821115151561321b57600080fd5b83518284011115151561322d57600080fd5b6001826020036101000a03198084602087010151169150509392505050565b60008251600183011115151561326157600080fd5b60ff8260018501015116905092915050565b60008251600283011115151561328857600080fd5b61ffff8260028501015116905092915050565b60006050839060020a028417935060a0829060020a02841793508390509392505050565b60005b6020821015156132e757825184526020840193506020830192506020820391506132c2565b6001826020036101000a0390508019835116818551168181178652505050505050565b828054600181600116156101000203166002900490600052602060002090601f016020900481019282601f1061334b57805160ff1916838001178555613379565b82800160010185558215613379579182015b8281111561337857825182559160200191906001019061335d565b5b509050613386919061338a565b5090565b6133ac91905b808211156133a8576000816000905550600101613390565b5090565b905600a165627a7a7230582039a1977d7ff720aacbb5ceecb438ac829254e80e574ddf7cc4c653079529fa8f0029",
  "source": "pragma solidity  ^0.4.25;\r\n\r\nimport \"./Ownable.sol\";\r\nimport \"asn1-decode/contracts/Asn1Decode.sol\";\r\nimport \"@ensdomains/dnssec-oracle/contracts/BytesUtils.sol\";\r\nimport \"sig-verify-algs/contracts/Algorithm.sol\";\r\nimport \"ens-solidity-namehash/contracts/NameHash.sol\";\r\nimport \"ethereum-datetime/contracts/DateTime.sol\";\r\n\r\n/*\r\n * @dev Stores validated X.509 certificate chains in parent pointer trees.\r\n * @dev The root of each tree is a CA root certificate\r\n */\r\ncontract X509ForestOfTrust is Ownable {\r\n  using Asn1Decode for bytes;\r\n  using BytesUtils for bytes;\r\n  using NameHash for string;\r\n\r\n  constructor(address sha256WithRSAEncryption, address _dateTime) public {\r\n    bytes32 a = 0x2a864886f70d01010b0000000000000000000000000000000000000000000000;\r\n    algs[a] = Algorithm(sha256WithRSAEncryption);\r\n    dateTime = DateTime(_dateTime);\r\n    cshxOid = 0x551d130000000000000000000000000000000000000000000000000000000000; // change to actual oid of canSignHttpExchanges\r\n  }\r\n\r\n  DateTime dateTime;\r\n\r\n  struct Certificate {\r\n    address owner;\r\n    bytes32 parentId;\r\n    bytes pubKey;\r\n    uint serialNumber;\r\n    uint validNotAfter;\r\n    bool cshx; // canSignHttpExchanges\r\n  }\r\n  // certId => cert ; certId == keccak256(cert.pubKey)\r\n  mapping (bytes32 => Certificate) public certs;\r\n  // keccak256(commonName) => certId\r\n  mapping (bytes32 => bytes32[]) public certIdsFromCN;\r\n  // sha256Fingerprint => certId or ensNamehash(commonName) => keccak256(commonName)\r\n  mapping (bytes32 => bytes32) public refs;\r\n  // Signature verification contracts\r\n  mapping(bytes32 => Algorithm) private algs;\r\n  // OID of canSignHttpExchanges since spec may change\r\n  bytes32 private cshxOid;\r\n\r\n  event CertAdded(bytes32);\r\n  event CertClaimed(bytes32);\r\n  event AlgSet(bytes32, address);\r\n\r\n  /*\r\n   * @dev Add a self-signed X.509 certificate to the root of a new tree\r\n   * @param cert A DER-encoded self-signed X.509 certificate\r\n   * @param cshx Look for canSignHttpExchanges extension\r\n   */\r\n  function addRootCert(bytes memory cert, bool cshx)\r\n  public\r\n  {\r\n    uint node;\r\n    // Get pub key\r\n    node = cert.root();\r\n    node = cert.firstChildOf(node);\r\n    node = cert.firstChildOf(node);\r\n    node = cert.nextSiblingOf(node);\r\n    node = cert.nextSiblingOf(node);\r\n    node = cert.nextSiblingOf(node);\r\n    node = cert.nextSiblingOf(node);\r\n    node = cert.nextSiblingOf(node);\r\n    node = cert.nextSiblingOf(node);\r\n    // Set parent/self pub key\r\n    certs[cert.keccakOfAllBytesAt(node)].pubKey = cert.allBytesAt(node);\r\n    addCert(cert, cert.keccakOfAllBytesAt(node), cshx);\r\n  }\r\n\r\n  /*\r\n   * @dev Add a X.509 certificate to an existing tree/chain\r\n   * @param cert A DER-encoded X.509 certificate\r\n   * @param parentId The keccak256 hash of parent cert's public key\r\n   * @param cshx Look for canSignHttpExchanges extension\r\n   */\r\n  function addCert(bytes memory cert, bytes32 parentId, bool cshx)\r\n  public\r\n  {\r\n    bytes32 certId;\r\n    uint serialNumber;\r\n    uint validNotAfter;\r\n    uint node1;\r\n    uint node2;\r\n    uint node3;\r\n\r\n    node1 = cert.root();\r\n    node1 = cert.firstChildOf(node1);\r\n    node2 = cert.firstChildOf(node1);\r\n    node2 = cert.nextSiblingOf(node2);\r\n    // Extract serial number\r\n    serialNumber = cert.uintAt(node2);\r\n\r\n    node2 = cert.nextSiblingOf(node2);\r\n    node2 = cert.firstChildOf(node2);\r\n    node3 = cert.nextSiblingOf(node1);\r\n    node3 = cert.nextSiblingOf(node3);\r\n    // Verify signature\r\n    require( algs[cert.bytes32At(node2)].verify(certs[parentId].pubKey, cert.allBytesAt(node1), cert.bytesAt(node3)), \"Signature doesnt match\");\r\n\r\n    node1 = cert.firstChildOf(node1);\r\n    node1 = cert.nextSiblingOf(node1);\r\n    node1 = cert.nextSiblingOf(node1);\r\n    node1 = cert.nextSiblingOf(node1);\r\n    node1 = cert.nextSiblingOf(node1);\r\n\r\n    // Get timestamps\r\n    node2 = cert.firstChildOf(node1);\r\n    require(toTimestamp(cert.bytesAt(node2)) <= now, \"Invalid cert\");\r\n    node2 = cert.nextSiblingOf(node2);\r\n    validNotAfter = toTimestamp(cert.bytesAt(node2));\r\n    require(now <= validNotAfter, \"Invalid cert\");\r\n\r\n    node1 = cert.nextSiblingOf(node1);\r\n    node2 = cert.nextSiblingOf(node1);\r\n    // Get public key and calculate certId from it\r\n    certId = cert.keccakOfAllBytesAt(node2);\r\n    if (certId != parentId)\r\n      certs[certId].pubKey = cert.allBytesAt(node2);\r\n\r\n    // Get commonName and add references from it\r\n    node2 = cert.firstChildOf(node1);\r\n    while (Asn1Decode.isChildOf(node2, node1)) {\r\n      node3 = cert.firstChildOf(node2);\r\n      node3 = cert.firstChildOf(node3);\r\n      if ( cert.bytes32At(node3) == 0x5504030000000000000000000000000000000000000000000000000000000000 ) {\r\n        node3 = cert.nextSiblingOf(node3);\r\n        certIdsFromCN[cert.keccakOfBytesAt(node3)].push(certId);\r\n        refs[toEnsNamehash(cert.bytesAt(node3))] = cert.keccakOfBytesAt(node3);\r\n        break;\r\n      }\r\n      node2 = cert.nextSiblingOf(node2);\r\n    }\r\n\r\n    certs[certId].parentId = parentId;\r\n    certs[certId].serialNumber = serialNumber;\r\n    certs[certId].validNotAfter = validNotAfter;\r\n\r\n    // Add reference from sha256 fingerprint\r\n    refs[sha256(cert)] = certId;\r\n\r\n    if (cshx) {\r\n      node1 = cert.nextSiblingOf(node1);\r\n      node1 = cert.nextSiblingOf(node1);\r\n      node1 = cert.firstChildOf(node1);\r\n      node2 = cert.firstChildOf(node1);\r\n      while (Asn1Decode.isChildOf(node2, node1)) {\r\n        node3 = cert.firstChildOf(node2);\r\n        if ( cert.bytes32At(node3) == cshxOid ) {\r\n          certs[certId].cshx = true;\r\n          break;\r\n        }\r\n        node2 = cert.nextSiblingOf(node2);\r\n      }\r\n    }\r\n\r\n    // Fire event\r\n    emit CertAdded(certId);\r\n  }\r\n\r\n  /**\r\n   * @dev The return values of this function are used to proveOwnership() of a\r\n   * @dev certificate that exists in the certs mapping.\r\n   * @return A unique keccak256 hash to be signed\r\n   * @return The block number used in the hash\r\n   */\r\n  function signThis()\r\n  external view returns (bytes32, uint)\r\n  {\r\n    return ( keccak256(abi.encodePacked(msg.sender, blockhash(block.number - 1))), block.number -1 );\r\n  }\r\n\r\n  /**\r\n   * @dev An account calls this method to prove ownership of a certificate.\r\n   * @dev If successful, certs[certId].owner will be set to caller's address.\r\n   * @param certId The keccak256 hash of target certificate's public key\r\n   * @param signature signThis()[0] signed with certificate's private key\r\n   * @param blockNumber The value of signThis()[1] (must be >= block.number - 5760)\r\n   * @param sigAlg The OID of the algorithm used to sign `signature`\r\n   */\r\n  function proveOwnership(bytes32 certId, bytes signature, uint blockNumber, bytes32 sigAlg)\r\n  external returns (bool)\r\n  {\r\n    bytes memory message;\r\n    // Only accept proof if it's less than about one day old (at 15sec/block)\r\n    require( block.number - blockNumber <= 5760 );\r\n    // Verify signature, which proves ownership\r\n    message = abi.encodePacked(keccak256(abi.encodePacked(msg.sender, blockhash(blockNumber))));\r\n    require( algs[sigAlg].verify(certs[certId].pubKey, message, signature) );\r\n\r\n    certs[certId].owner = msg.sender;\r\n\r\n    emit CertClaimed(certId);\r\n  }\r\n\r\n  function rootOf(bytes32 certId)\r\n  public view returns (bytes32)\r\n  {\r\n    while (certId != certs[certId].parentId) {\r\n      certId = certs[certId].parentId;\r\n    }\r\n    return certId;\r\n  }\r\n\r\n  function certIdsLength(bytes32 commonNameHash)\r\n  public view returns (uint)\r\n  {\r\n    return certIdsFromCN[commonNameHash].length;\r\n  }\r\n\r\n  function toTimestamp(bytes memory x509Time)\r\n  private view returns (uint)\r\n  {\r\n    uint16 yrs;  uint8 mnths;\r\n    uint8  dys;  uint8 hrs;\r\n    uint8  mins; uint8 secs;\r\n    uint8  offset;\r\n\r\n    if (x509Time.length == 13) {\r\n      if (uint16(x509Time[0])-48 < 5) yrs += 2000;\r\n      else yrs += 1900;\r\n    }\r\n    else {\r\n      yrs += (uint16(x509Time[0])-48) * 1000 + (uint16(x509Time[1])-48) * 100;\r\n      offset = 2;\r\n    }\r\n    yrs +=  (uint8(x509Time[offset+0])-48)*10 + uint8(x509Time[offset+1])-48;\r\n    mnths = (uint8(x509Time[offset+2])-48)*10 + uint8(x509Time[offset+3])-48;\r\n    dys +=  (uint8(x509Time[offset+4])-48)*10 + uint8(x509Time[offset+5])-48;\r\n    hrs +=  (uint8(x509Time[offset+6])-48)*10 + uint8(x509Time[offset+7])-48;\r\n    mins += (uint8(x509Time[offset+8])-48)*10 + uint8(x509Time[offset+9])-48;\r\n    secs += (uint8(x509Time[offset+10])-48)*10 + uint8(x509Time[offset+11])-48;\r\n\r\n    return dateTime.toTimestamp(yrs, mnths, dys, hrs, mins, secs);\r\n  }\r\n\r\n  function toEnsNamehash(bytes memory dn)\r\n  private view returns (bytes32)\r\n  {\r\n    // if common name starts with 'www.'\r\n    if (dn[0] == 0x77 && dn[1] == 0x77 && dn[2] == 0x77 && dn[3] == 0x2e)\r\n      // omit 'www.'\r\n      return string(dn.substring(4, dn.length-4)).namehash();\r\n\r\n    return string(dn).namehash();\r\n  }\r\n\r\n  function setAlg(bytes32 oid, address alg)\r\n  public onlyOwner\r\n  {\r\n    algs[oid] = Algorithm(alg);\r\n    emit AlgSet(oid, alg);\r\n  }\r\n\r\n  function setCshxOidHash(bytes32 _cshxOid)\r\n  public onlyOwner\r\n  {\r\n    cshxOid = _cshxOid;\r\n  }\r\n}\r\n",
  "sourcePath": "/home/jonah/x509-forest-of-trust/contracts/X509ForestOfTrust.sol",
  "compiler": {
    "name": "solc",
    "version": "0.4.25+commit.59dbf8f1.Emscripten.clang"
  },
  "schemaVersion": "3.0.0-beta.1",
  "updatedAt": "2018-11-29T04:53:23.285Z"
}