{
  "contractName": "X509InTreeForestOfTrust",
  "abi": [
    {
      "inputs": [
        {
          "name": "decoderAddr",
          "type": "address"
        },
        {
          "name": "verifierAddr",
          "type": "address"
        }
      ],
      "payable": false,
      "stateMutability": "nonpayable",
      "type": "constructor"
    },
    {
      "anonymous": false,
      "inputs": [
        {
          "indexed": false,
          "name": "certificateId",
          "type": "bytes32"
        }
      ],
      "name": "certificateAdded",
      "type": "event"
    },
    {
      "anonymous": false,
      "inputs": [
        {
          "indexed": false,
          "name": "certificateId",
          "type": "bytes32"
        }
      ],
      "name": "certificateClaimed",
      "type": "event"
    },
    {
      "constant": false,
      "inputs": [
        {
          "name": "tbsCertificate",
          "type": "bytes"
        },
        {
          "name": "signature",
          "type": "bytes"
        },
        {
          "name": "signersPubKey",
          "type": "bytes"
        }
      ],
      "name": "addCertificate",
      "outputs": [
        {
          "name": "",
          "type": "bool"
        }
      ],
      "payable": false,
      "stateMutability": "nonpayable",
      "type": "function"
    },
    {
      "constant": false,
      "inputs": [
        {
          "name": "certificateId",
          "type": "bytes32"
        },
        {
          "name": "keyLocation",
          "type": "bytes"
        }
      ],
      "name": "addReference",
      "outputs": [],
      "payable": false,
      "stateMutability": "nonpayable",
      "type": "function"
    },
    {
      "constant": true,
      "inputs": [],
      "name": "signThis",
      "outputs": [
        {
          "name": "",
          "type": "bytes32"
        },
        {
          "name": "",
          "type": "uint256"
        }
      ],
      "payable": false,
      "stateMutability": "view",
      "type": "function"
    },
    {
      "constant": false,
      "inputs": [
        {
          "name": "certificateId",
          "type": "bytes32"
        },
        {
          "name": "signature",
          "type": "bytes"
        },
        {
          "name": "blockNumber",
          "type": "uint256"
        }
      ],
      "name": "proveOwnership",
      "outputs": [
        {
          "name": "",
          "type": "bool"
        }
      ],
      "payable": false,
      "stateMutability": "nonpayable",
      "type": "function"
    },
    {
      "constant": true,
      "inputs": [
        {
          "name": "certificateId",
          "type": "bytes32"
        }
      ],
      "name": "certificate",
      "outputs": [
        {
          "components": [
            {
              "name": "owner",
              "type": "address"
            },
            {
              "name": "ens",
              "type": "bytes32"
            },
            {
              "name": "revokedBy",
              "type": "bytes32"
            },
            {
              "name": "parent",
              "type": "bytes32"
            },
            {
              "name": "tbsCertificate",
              "type": "bytes"
            },
            {
              "name": "signature",
              "type": "bytes"
            },
            {
              "name": "validNotBefore",
              "type": "uint256"
            },
            {
              "name": "validNotAfter",
              "type": "uint256"
            }
          ],
          "name": "",
          "type": "tuple"
        }
      ],
      "payable": false,
      "stateMutability": "view",
      "type": "function"
    },
    {
      "constant": true,
      "inputs": [
        {
          "name": "certificateId",
          "type": "bytes32"
        }
      ],
      "name": "tbsCertificate",
      "outputs": [
        {
          "name": "",
          "type": "bytes"
        }
      ],
      "payable": false,
      "stateMutability": "view",
      "type": "function"
    },
    {
      "constant": true,
      "inputs": [
        {
          "name": "referenceHash",
          "type": "bytes32"
        }
      ],
      "name": "certificateId",
      "outputs": [
        {
          "name": "",
          "type": "bytes32[]"
        }
      ],
      "payable": false,
      "stateMutability": "view",
      "type": "function"
    }
  ],
  "bytecode": "0x60806040523480156200001157600080fd5b5060405160408062003e4c8339810180604052620000339190810190620000d2565b816000806101000a81548173ffffffffffffffffffffffffffffffffffffffff021916908373ffffffffffffffffffffffffffffffffffffffff16021790555080600160006101000a81548173ffffffffffffffffffffffffffffffffffffffff021916908373ffffffffffffffffffffffffffffffffffffffff160217905550505062000133565b6000620000ca825162000113565b905092915050565b60008060408385031215620000e657600080fd5b6000620000f685828601620000bc565b92505060206200010985828601620000bc565b9150509250929050565b600073ffffffffffffffffffffffffffffffffffffffff82169050919050565b613d0980620001436000396000f300608060405260043610610083576000357c0100000000000000000000000000000000000000000000000000000000900463ffffffff168063681b5a761461008857806370475f4a146100b15780637c0656fd146100ee57806380ad8ff61461011a578063920bdd5614610157578063bd141da914610194578063f077b55c146101d1575b600080fd5b34801561009457600080fd5b506100af60048036036100aa9190810190613436565b61020e565b005b3480156100bd57600080fd5b506100d860048036036100d39190810190613378565b6104a2565b6040516100e591906139d8565b60405180910390f35b3480156100fa57600080fd5b50610103610562565b6040516101119291906139af565b60405180910390f35b34801561012657600080fd5b50610141600480360361013c919081019061350c565b6105d6565b60405161014e91906138c3565b60405180910390f35b34801561016357600080fd5b5061017e60048036036101799190810190613378565b611b80565b60405161018b9190613aff565b60405180910390f35b3480156101a057600080fd5b506101bb60048036036101b69190810190613378565b611d9b565b6040516101c891906138a1565b60405180910390f35b3480156101dd57600080fd5b506101f860048036036101f391908101906133ca565b611e12565b60405161020591906138c3565b60405180910390f35b610216613011565b60606000809054906101000a900473ffffffffffffffffffffffffffffffffffffffff1673ffffffffffffffffffffffffffffffffffffffff1663c1faef7a600260008760001916600019168152602001908152602001600020600401856040518363ffffffff167c01000000000000000000000000000000000000000000000000000000000281526004016102ad929190613a98565b606060405180830381600087803b1580156102c757600080fd5b505af11580156102db573d6000803e3d6000fd5b505050506040513d601f19601f820116820180604052506102ff91908101906135a3565b91506000809054906101000a900473ffffffffffffffffffffffffffffffffffffffff1673ffffffffffffffffffffffffffffffffffffffff16630ad12b30600260008760001916600019168152602001908152602001600020600401846040518363ffffffff167c0100000000000000000000000000000000000000000000000000000000028152600401610396929190613acf565b600060405180830381600087803b1580156103b057600080fd5b505af11580156103c4573d6000803e3d6000fd5b505050506040513d6000823e3d601f19601f820116820180604052506103ed91908101906134cb565b905060036000826040518082805190602001908083835b6020831015156104295780518252602082019150602081019050602083039250610404565b6001836020036101000a03801982511681845116808217855250505050505090500191505060405180910390206000191660001916815260200190815260200160002084908060018154018082558091505090600182039060005260206000200160009091929091909150906000191690555050505050565b60606002600083600019166000191681526020019081526020016000206004018054600181600116156101000203166002900480601f0160208091040260200160405190810160405280929190818152602001828054600181600116156101000203166002900480156105565780601f1061052b57610100808354040283529160200191610556565b820191906000526020600020905b81548152906001019060200180831161053957829003601f168201915b50505050509050919050565b600080336001430340604051808373ffffffffffffffffffffffffffffffffffffffff1673ffffffffffffffffffffffffffffffffffffffff166c01000000000000000000000000028152601401826000191660001916815260200192505050604051809103902060014303915091509091565b600080600060608060606105e8613011565b6105f0613011565b6105f8613011565b6106018a61231b565b80955081965050506000600160009054906101000a900473ffffffffffffffffffffffffffffffffffffffff1673ffffffffffffffffffffffffffffffffffffffff1663c658da5160028f6040518082805190602001908083835b602083101515610681578051825260208201915060208101905060208303925061065c565b6001836020036101000a0380198251168184511680821785525050505050509050019150506020604051808303816000865af11580156106c5573d6000803e3d6000fd5b5050506040513d601f19601f820116820180604052506106e891908101906133a1565b8e888a6040518563ffffffff167c01000000000000000000000000000000000000000000000000000000000281526004016107269493929190613955565b602060405180830381600087803b15801561074057600080fd5b505af1158015610754573d6000803e3d6000fd5b505050506040513d601f19601f8201168201806040525061077891908101906135cc565b14151561078457600080fd5b6000809054906101000a900473ffffffffffffffffffffffffffffffffffffffff1673ffffffffffffffffffffffffffffffffffffffff1663c1faef7a8d6000809054906101000a900473ffffffffffffffffffffffffffffffffffffffff1673ffffffffffffffffffffffffffffffffffffffff166358f63b456040518163ffffffff167c0100000000000000000000000000000000000000000000000000000000028152600401600060405180830381600087803b15801561084757600080fd5b505af115801561085b573d6000803e3d6000fd5b505050506040513d6000823e3d601f19601f82011682018060405250610884919081019061348a565b6040518363ffffffff167c01000000000000000000000000000000000000000000000000000000000281526004016108bd9291906139fa565b606060405180830381600087803b1580156108d757600080fd5b505af11580156108eb573d6000803e3d6000fd5b505050506040513d601f19601f8201168201806040525061090f91908101906135a3565b92506000809054906101000a900473ffffffffffffffffffffffffffffffffffffffff1673ffffffffffffffffffffffffffffffffffffffff16636ff247016000809054906101000a900473ffffffffffffffffffffffffffffffffffffffff1673ffffffffffffffffffffffffffffffffffffffff16630ad12b308f876040518363ffffffff167c01000000000000000000000000000000000000000000000000000000000281526004016109c6929190613a31565b600060405180830381600087803b1580156109e057600080fd5b505af11580156109f4573d6000803e3d6000fd5b505050506040513d6000823e3d601f19601f82011682018060405250610a1d91908101906134cb565b6040518263ffffffff167c0100000000000000000000000000000000000000000000000000000000028152600401610a5591906139d8565b602060405180830381600087803b158015610a6f57600080fd5b505af1158015610a83573d6000803e3d6000fd5b505050506040513d601f19601f82011682018060405250610aa791908101906135cc565b60010296506000809054906101000a900473ffffffffffffffffffffffffffffffffffffffff1673ffffffffffffffffffffffffffffffffffffffff16635deb46288d856040518363ffffffff167c0100000000000000000000000000000000000000000000000000000000028152600401610b24929190613a31565b606060405180830381600087803b158015610b3e57600080fd5b505af1158015610b52573d6000803e3d6000fd5b505050506040513d601f19601f82011682018060405250610b7691908101906135a3565b92506000809054906101000a900473ffffffffffffffffffffffffffffffffffffffff1673ffffffffffffffffffffffffffffffffffffffff16635deb46288d856040518363ffffffff167c0100000000000000000000000000000000000000000000000000000000028152600401610bf0929190613a31565b606060405180830381600087803b158015610c0a57600080fd5b505af1158015610c1e573d6000803e3d6000fd5b505050506040513d601f19601f82011682018060405250610c4291908101906135a3565b92506000809054906101000a900473ffffffffffffffffffffffffffffffffffffffff1673ffffffffffffffffffffffffffffffffffffffff16635deb46288d856040518363ffffffff167c0100000000000000000000000000000000000000000000000000000000028152600401610cbc929190613a31565b606060405180830381600087803b158015610cd657600080fd5b505af1158015610cea573d6000803e3d6000fd5b505050506040513d601f19601f82011682018060405250610d0e91908101906135a3565b92506000809054906101000a900473ffffffffffffffffffffffffffffffffffffffff1673ffffffffffffffffffffffffffffffffffffffff16634a578ddb8d856040518363ffffffff167c0100000000000000000000000000000000000000000000000000000000028152600401610d88929190613a31565b606060405180830381600087803b158015610da257600080fd5b505af1158015610db6573d6000803e3d6000fd5b505050506040513d601f19601f82011682018060405250610dda91908101906135a3565b91506000809054906101000a900473ffffffffffffffffffffffffffffffffffffffff1673ffffffffffffffffffffffffffffffffffffffff16635deb46288d846040518363ffffffff167c0100000000000000000000000000000000000000000000000000000000028152600401610e54929190613a31565b606060405180830381600087803b158015610e6e57600080fd5b505af1158015610e82573d6000803e3d6000fd5b505050506040513d601f19601f82011682018060405250610ea691908101906135a3565b91506000809054906101000a900473ffffffffffffffffffffffffffffffffffffffff1673ffffffffffffffffffffffffffffffffffffffff16635deb46288d856040518363ffffffff167c0100000000000000000000000000000000000000000000000000000000028152600401610f20929190613a31565b606060405180830381600087803b158015610f3a57600080fd5b505af1158015610f4e573d6000803e3d6000fd5b505050506040513d601f19601f82011682018060405250610f7291908101906135a3565b92506000809054906101000a900473ffffffffffffffffffffffffffffffffffffffff1673ffffffffffffffffffffffffffffffffffffffff16634a578ddb8d856040518363ffffffff167c0100000000000000000000000000000000000000000000000000000000028152600401610fec929190613a31565b606060405180830381600087803b15801561100657600080fd5b505af115801561101a573d6000803e3d6000fd5b505050506040513d601f19601f8201168201806040525061103e91908101906135a3565b91505b6000809054906101000a900473ffffffffffffffffffffffffffffffffffffffff1673ffffffffffffffffffffffffffffffffffffffff166397a431a583856040518363ffffffff167c01000000000000000000000000000000000000000000000000000000000281526004016110b9929190613b21565b602060405180830381600087803b1580156110d357600080fd5b505af11580156110e7573d6000803e3d6000fd5b505050506040513d601f19601f8201168201806040525061110b919081019061334f565b1561177e576000809054906101000a900473ffffffffffffffffffffffffffffffffffffffff1673ffffffffffffffffffffffffffffffffffffffff16634a578ddb8d846040518363ffffffff167c0100000000000000000000000000000000000000000000000000000000028152600401611188929190613a31565b606060405180830381600087803b1580156111a257600080fd5b505af11580156111b6573d6000803e3d6000fd5b505050506040513d601f19601f820116820180604052506111da91908101906135a3565b90506000809054906101000a900473ffffffffffffffffffffffffffffffffffffffff1673ffffffffffffffffffffffffffffffffffffffff16634a578ddb8d836040518363ffffffff167c0100000000000000000000000000000000000000000000000000000000028152600401611254929190613a31565b606060405180830381600087803b15801561126e57600080fd5b505af1158015611282573d6000803e3d6000fd5b505050506040513d601f19601f820116820180604052506112a691908101906135a3565b90506000809054906101000a900473ffffffffffffffffffffffffffffffffffffffff1673ffffffffffffffffffffffffffffffffffffffff16635fdd22c76040518163ffffffff167c0100000000000000000000000000000000000000000000000000000000028152600401600060405180830381600087803b15801561132d57600080fd5b505af1158015611341573d6000803e3d6000fd5b505050506040513d6000823e3d601f19601f8201168201806040525061136a919081019061348a565b6040518082805190602001908083835b60208310151561139f578051825260208201915060208101905060208303925061137a565b6001836020036101000a0380198251168184511680821785525050505050509050019150506040518091039020600019166000809054906101000a900473ffffffffffffffffffffffffffffffffffffffff1673ffffffffffffffffffffffffffffffffffffffff16630ad12b308e846040518363ffffffff167c0100000000000000000000000000000000000000000000000000000000028152600401611448929190613a31565b600060405180830381600087803b15801561146257600080fd5b505af1158015611476573d6000803e3d6000fd5b505050506040513d6000823e3d601f19601f8201168201806040525061149f91908101906134cb565b6040518082805190602001908083835b6020831015156114d457805182526020820191506020810190506020830392506114af565b6001836020036101000a03801982511681845116808217855250505050505090500191505060405180910390206000191614156116ad576000809054906101000a900473ffffffffffffffffffffffffffffffffffffffff1673ffffffffffffffffffffffffffffffffffffffff16635deb46288d836040518363ffffffff167c0100000000000000000000000000000000000000000000000000000000028152600401611583929190613a31565b606060405180830381600087803b15801561159d57600080fd5b505af11580156115b1573d6000803e3d6000fd5b505050506040513d601f19601f820116820180604052506115d591908101906135a3565b90506000809054906101000a900473ffffffffffffffffffffffffffffffffffffffff1673ffffffffffffffffffffffffffffffffffffffff16630ad12b308d836040518363ffffffff167c010000000000000000000000000000000000000000000000000000000002815260040161164f929190613a31565b600060405180830381600087803b15801561166957600080fd5b505af115801561167d573d6000803e3d6000fd5b505050506040513d6000823e3d601f19601f820116820180604052506116a691908101906134cb565b955061177e565b6000809054906101000a900473ffffffffffffffffffffffffffffffffffffffff1673ffffffffffffffffffffffffffffffffffffffff16635deb46288d846040518363ffffffff167c0100000000000000000000000000000000000000000000000000000000028152600401611725929190613a31565b606060405180830381600087803b15801561173f57600080fd5b505af1158015611753573d6000803e3d6000fd5b505050506040513d601f19601f8201168201806040525061177791908101906135a3565b9150611041565b6000809054906101000a900473ffffffffffffffffffffffffffffffffffffffff1673ffffffffffffffffffffffffffffffffffffffff16635deb46288d856040518363ffffffff167c01000000000000000000000000000000000000000000000000000000000281526004016117f6929190613a31565b606060405180830381600087803b15801561181057600080fd5b505af1158015611824573d6000803e3d6000fd5b505050506040513d601f19601f8201168201806040525061184891908101906135a3565b92506000809054906101000a900473ffffffffffffffffffffffffffffffffffffffff1673ffffffffffffffffffffffffffffffffffffffff166337aebd948d856040518363ffffffff167c01000000000000000000000000000000000000000000000000000000000281526004016118c2929190613a31565b600060405180830381600087803b1580156118dc57600080fd5b505af11580156118f0573d6000803e3d6000fd5b505050506040513d6000823e3d601f19601f8201168201806040525061191991908101906134cb565b6040518082805190602001908083835b60208310151561194e5780518252602082019150602081019050602083039250611929565b6001836020036101000a038019825116818451168082178552505050505050905001915050604051809103902097506000600102600260008a6000191660001916815260200190815260200160002060020154600019161415156119b157600080fd5b896040518082805190602001908083835b6020831015156119e757805182526020820191506020810190506020830392506119c2565b6001836020036101000a0380198251168184511680821785525050505050509050019150506040518091039020600260008a6000191660001916815260200190815260200160002060030181600019169055508b600260008a600019166000191681526020019081526020016000206004019080519060200190611a6c929190613033565b508a600260008a600019166000191681526020019081526020016000206005019080519060200190611a9f929190613033565b50600487908060018154018082558091505090600182039060005260206000200160009091929091909150906000191690555060036000886040518082600019166000191681526020019150506040518091039020600019166000191681526020019081526020016000208890806001815401808255809150509060018203906000526020600020016000909192909190915090600019169055507fd6d7e20a0bee3b6ddcc1fae90b01b71cecaf554f871c94db75715448ca65638f88604051611b6991906138de565b60405180910390a150505050505050509392505050565b611b886130b3565b60026000836000191660001916815260200190815260200160002061010060405190810160405290816000820160009054906101000a900473ffffffffffffffffffffffffffffffffffffffff1673ffffffffffffffffffffffffffffffffffffffff1673ffffffffffffffffffffffffffffffffffffffff168152602001600182015460001916600019168152602001600282015460001916600019168152602001600382015460001916600019168152602001600482018054600181600116156101000203166002900480601f016020809104026020016040519081016040528092919081815260200182805460018160011615610100020316600290048015611cd55780601f10611caa57610100808354040283529160200191611cd5565b820191906000526020600020905b815481529060010190602001808311611cb857829003601f168201915b50505050508152602001600582018054600181600116156101000203166002900480601f016020809104026020016040519081016040528092919081815260200182805460018160011615610100020316600290048015611d775780601f10611d4c57610100808354040283529160200191611d77565b820191906000526020600020905b815481529060010190602001808311611d5a57829003601f168201915b50505050508152602001600682015481526020016007820154815250509050919050565b6060600360008360001916600019168152602001908152602001600020805480602002602001604051908101604052809291908181526020018280548015611e0657602002820191906000526020600020905b81546000191681526020019060010190808311611dee575b50505050509050919050565b6000806060806060611e22613011565b61168087430311151515611e3557600080fd5b338740604051808373ffffffffffffffffffffffffffffffffffffffff1673ffffffffffffffffffffffffffffffffffffffff166c01000000000000000000000000028152601401826000191660001916815260200192505050604051809103902094506000809054906101000a900473ffffffffffffffffffffffffffffffffffffffff1673ffffffffffffffffffffffffffffffffffffffff1663c1faef7a600260008d600019166000191681526020019081526020016000206004016000809054906101000a900473ffffffffffffffffffffffffffffffffffffffff1673ffffffffffffffffffffffffffffffffffffffff16638b6944916040518163ffffffff167c0100000000000000000000000000000000000000000000000000000000028152600401600060405180830381600087803b158015611f7957600080fd5b505af1158015611f8d573d6000803e3d6000fd5b505050506040513d6000823e3d601f19601f82011682018060405250611fb6919081019061348a565b6040518363ffffffff167c0100000000000000000000000000000000000000000000000000000000028152600401611fef929190613a61565b606060405180830381600087803b15801561200957600080fd5b505af115801561201d573d6000803e3d6000fd5b505050506040513d601f19601f8201168201806040525061204191908101906135a3565b90506000809054906101000a900473ffffffffffffffffffffffffffffffffffffffff1673ffffffffffffffffffffffffffffffffffffffff166337aebd94600260008d60001916600019168152602001908152602001600020600401836040518363ffffffff167c01000000000000000000000000000000000000000000000000000000000281526004016120d8929190613acf565b600060405180830381600087803b1580156120f257600080fd5b505af1158015612106573d6000803e3d6000fd5b505050506040513d6000823e3d601f19601f8201168201806040525061212f91908101906134cb565b935061213a8461231b565b80935081945050506000600160009054906101000a900473ffffffffffffffffffffffffffffffffffffffff1673ffffffffffffffffffffffffffffffffffffffff1663c658da516002886040518082600019166000191681526020019150506020604051808303816000865af11580156121b9573d6000803e3d6000fd5b5050506040513d601f19601f820116820180604052506121dc91908101906133a1565b8c8c87896040518663ffffffff167c010000000000000000000000000000000000000000000000000000000002815260040161221c9594939291906138f9565b602060405180830381600087803b15801561223657600080fd5b505af115801561224a573d6000803e3d6000fd5b505050506040513d601f19601f8201168201806040525061226e91908101906135cc565b14151561227a57600080fd5b33600260008c6000191660001916815260200190815260200160002060000160006101000a81548173ffffffffffffffffffffffffffffffffffffffff021916908373ffffffffffffffffffffffffffffffffffffffff1602179055507fe7be01c6988833cf5825634a8d397df5771a6d7b050b815857608127782d4a3d8a60405161230691906138de565b60405180910390a15050505050949350505050565b606080606080606080606061232e613011565b6000806000809054906101000a900473ffffffffffffffffffffffffffffffffffffffff1673ffffffffffffffffffffffffffffffffffffffff16631a06bbf88c6040518263ffffffff167c01000000000000000000000000000000000000000000000000000000000281526004016123a791906139d8565b606060405180830381600087803b1580156123c157600080fd5b505af11580156123d5573d6000803e3d6000fd5b505050506040513d601f19601f820116820180604052506123f991908101906135a3565b92506000809054906101000a900473ffffffffffffffffffffffffffffffffffffffff1673ffffffffffffffffffffffffffffffffffffffff16634a578ddb8c856040518363ffffffff167c0100000000000000000000000000000000000000000000000000000000028152600401612473929190613a31565b606060405180830381600087803b15801561248d57600080fd5b505af11580156124a1573d6000803e3d6000fd5b505050506040513d601f19601f820116820180604052506124c591908101906135a3565b92506000809054906101000a900473ffffffffffffffffffffffffffffffffffffffff1673ffffffffffffffffffffffffffffffffffffffff16635deb46288c856040518363ffffffff167c010000000000000000000000000000000000000000000000000000000002815260040161253f929190613a31565b606060405180830381600087803b15801561255957600080fd5b505af115801561256d573d6000803e3d6000fd5b505050506040513d601f19601f8201168201806040525061259191908101906135a3565b92506000809054906101000a900473ffffffffffffffffffffffffffffffffffffffff1673ffffffffffffffffffffffffffffffffffffffff16630ad12b308c856040518363ffffffff167c010000000000000000000000000000000000000000000000000000000002815260040161260b929190613a31565b600060405180830381600087803b15801561262557600080fd5b505af1158015612639573d6000803e3d6000fd5b505050506040513d6000823e3d601f19601f8201168201806040525061266291908101906134cb565b9350600091505b600184510382101561271c57836001830181518110151561268657fe5b9060200101517f010000000000000000000000000000000000000000000000000000000000000090047f01000000000000000000000000000000000000000000000000000000000000000284838151811015156126df57fe5b9060200101907effffffffffffffffffffffffffffffffffffffffffffffffffffffffffffff1916908160001a9053508180600101925050612669565b6000809054906101000a900473ffffffffffffffffffffffffffffffffffffffff1673ffffffffffffffffffffffffffffffffffffffff16631a06bbf8856040518263ffffffff167c010000000000000000000000000000000000000000000000000000000002815260040161279291906139d8565b606060405180830381600087803b1580156127ac57600080fd5b505af11580156127c0573d6000803e3d6000fd5b505050506040513d601f19601f820116820180604052506127e491908101906135a3565b92506000809054906101000a900473ffffffffffffffffffffffffffffffffffffffff1673ffffffffffffffffffffffffffffffffffffffff16634a578ddb85856040518363ffffffff167c010000000000000000000000000000000000000000000000000000000002815260040161285e929190613a31565b606060405180830381600087803b15801561287857600080fd5b505af115801561288c573d6000803e3d6000fd5b505050506040513d601f19601f820116820180604052506128b091908101906135a3565b92506000809054906101000a900473ffffffffffffffffffffffffffffffffffffffff1673ffffffffffffffffffffffffffffffffffffffff16630ad12b3085856040518363ffffffff167c010000000000000000000000000000000000000000000000000000000002815260040161292a929190613a31565b600060405180830381600087803b15801561294457600080fd5b505af1158015612958573d6000803e3d6000fd5b505050506040513d6000823e3d601f19601f8201168201806040525061298191908101906134cb565b955060007f01000000000000000000000000000000000000000000000000000000000000000260807f0100000000000000000000000000000000000000000000000000000000000000028760008151811015156129da57fe5b9060200101517f010000000000000000000000000000000000000000000000000000000000000090047f010000000000000000000000000000000000000000000000000000000000000002167effffffffffffffffffffffffffffffffffffffffffffffffffffffffffffff1916141515612a5457600080fd5b60007f010000000000000000000000000000000000000000000000000000000000000002866000815181101515612a8757fe5b9060200101517f010000000000000000000000000000000000000000000000000000000000000090047f0100000000000000000000000000000000000000000000000000000000000000027effffffffffffffffffffffffffffffffffffffffffffffffffffffffffffff19161415612bee5760018651036040519080825280601f01601f191660200182016040528015612b315781602001602082028038833980820191505090505b509750600090505b8751811015612be9578560018201815181101515612b5357fe5b9060200101517f010000000000000000000000000000000000000000000000000000000000000090047f0100000000000000000000000000000000000000000000000000000000000000028882815181101515612bac57fe5b9060200101907effffffffffffffffffffffffffffffffffffffffffffffffffffffffffffff1916908160001a9053508080600101915050612b39565b612bf2565b8597505b6000809054906101000a900473ffffffffffffffffffffffffffffffffffffffff1673ffffffffffffffffffffffffffffffffffffffff16635deb462885856040518363ffffffff167c0100000000000000000000000000000000000000000000000000000000028152600401612c6a929190613a31565b606060405180830381600087803b158015612c8457600080fd5b505af1158015612c98573d6000803e3d6000fd5b505050506040513d601f19601f82011682018060405250612cbc91908101906135a3565b92506000809054906101000a900473ffffffffffffffffffffffffffffffffffffffff1673ffffffffffffffffffffffffffffffffffffffff16630ad12b3085856040518363ffffffff167c0100000000000000000000000000000000000000000000000000000000028152600401612d36929190613a31565b600060405180830381600087803b158015612d5057600080fd5b505af1158015612d64573d6000803e3d6000fd5b505050506040513d6000823e3d601f19601f82011682018060405250612d8d91908101906134cb565b945060007f01000000000000000000000000000000000000000000000000000000000000000260807f010000000000000000000000000000000000000000000000000000000000000002866000815181101515612de657fe5b9060200101517f010000000000000000000000000000000000000000000000000000000000000090047f010000000000000000000000000000000000000000000000000000000000000002167effffffffffffffffffffffffffffffffffffffffffffffffffffffffffffff1916141515612e6057600080fd5b60007f010000000000000000000000000000000000000000000000000000000000000002856000815181101515612e9357fe5b9060200101517f010000000000000000000000000000000000000000000000000000000000000090047f0100000000000000000000000000000000000000000000000000000000000000027effffffffffffffffffffffffffffffffffffffffffffffffffffffffffffff19161415612ffa5760018551036040519080825280601f01601f191660200182016040528015612f3d5781602001602082028038833980820191505090505b509650600090505b8651811015612ff5578460018201815181101515612f5f57fe5b9060200101517f010000000000000000000000000000000000000000000000000000000000000090047f0100000000000000000000000000000000000000000000000000000000000000028782815181101515612fb857fe5b9060200101907effffffffffffffffffffffffffffffffffffffffffffffffffffffffffffff1916908160001a9053508080600101915050612f45565b612ffe565b8496505b8787995099505050505050505050915091565b6060604051908101604052806000815260200160008152602001600081525090565b828054600181600116156101000203166002900490600052602060002090601f016020900481019282601f1061307457805160ff19168380011785556130a2565b828001600101855582156130a2579182015b828111156130a1578251825591602001919060010190613086565b5b5090506130af9190613118565b5090565b61010060405190810160405280600073ffffffffffffffffffffffffffffffffffffffff168152602001600080191681526020016000801916815260200160008019168152602001606081526020016060815260200160008152602001600081525090565b61313a91905b8082111561313657600081600090555060010161311e565b5090565b90565b60006131498251613c5c565b905092915050565b600061315d8235613c68565b905092915050565b60006131718251613c68565b905092915050565b60008083601f840112151561318d57600080fd5b8235905067ffffffffffffffff8111156131a657600080fd5b6020830191508360018202830111156131be57600080fd5b9250929050565b600082601f83011215156131d857600080fd5b81516131eb6131e682613b77565b613b4a565b9150808252602083016020830185838301111561320757600080fd5b613212838284613c8b565b50505092915050565b600082601f830112151561322e57600080fd5b813561324161323c82613ba3565b613b4a565b9150808252602083016020830185838301111561325d57600080fd5b613268838284613c7c565b50505092915050565b600082601f830112151561328457600080fd5b815161329761329282613ba3565b613b4a565b915080825260208301602083018583830111156132b357600080fd5b6132be838284613c8b565b50505092915050565b6000606082840312156132d957600080fd5b6132e36060613b4a565b905060006132f38482850161333b565b60008301525060206133078482850161333b565b602083015250604061331b8482850161333b565b60408301525092915050565b60006133338235613c72565b905092915050565b60006133478251613c72565b905092915050565b60006020828403121561336157600080fd5b600061336f8482850161313d565b91505092915050565b60006020828403121561338a57600080fd5b600061339884828501613151565b91505092915050565b6000602082840312156133b357600080fd5b60006133c184828501613165565b91505092915050565b600080600080606085870312156133e057600080fd5b60006133ee87828801613151565b945050602085013567ffffffffffffffff81111561340b57600080fd5b61341787828801613179565b9350935050604061342a87828801613327565b91505092959194509250565b6000806040838503121561344957600080fd5b600061345785828601613151565b925050602083013567ffffffffffffffff81111561347457600080fd5b6134808582860161321b565b9150509250929050565b60006020828403121561349c57600080fd5b600082015167ffffffffffffffff8111156134b657600080fd5b6134c2848285016131c5565b91505092915050565b6000602082840312156134dd57600080fd5b600082015167ffffffffffffffff8111156134f757600080fd5b61350384828501613271565b91505092915050565b60008060006060848603121561352157600080fd5b600084013567ffffffffffffffff81111561353b57600080fd5b6135478682870161321b565b935050602084013567ffffffffffffffff81111561356457600080fd5b6135708682870161321b565b925050604084013567ffffffffffffffff81111561358d57600080fd5b6135998682870161321b565b9150509250925092565b6000606082840312156135b557600080fd5b60006135c3848285016132c7565b91505092915050565b6000602082840312156135de57600080fd5b60006135ec8482850161333b565b91505092915050565b6135fe81613c1c565b82525050565b600061360f82613bee565b80845260208401935061362183613bcf565b60005b828110156136535761363786835161366e565b61364082613c0f565b9150602086019550600181019050613624565b50849250505092915050565b61366881613c3c565b82525050565b61367781613c48565b82525050565b6000828452602084019350613693838584613c7c565b61369c83613cbe565b840190509392505050565b60006136b282613c04565b8084526136c6816020860160208601613c8b565b6136cf81613cbe565b602085010191505092915050565b60006136e882613bf9565b8084526136fc816020860160208601613c8b565b61370581613cbe565b602085010191505092915050565b600081546001811660008114613730576001811461375057613791565b607f600283041680865260ff198316602087015260408601935050613791565b6002820480865260208601955061376685613bdc565b60005b8281101561378857815481890152600182019150602081019050613769565b80880195505050505b505092915050565b6000610100830160008301516137b260008601826135f5565b5060208301516137c5602086018261366e565b5060408301516137d8604086018261366e565b5060608301516137eb606086018261366e565b506080830151848203608086015261380382826136dd565b91505060a083015184820360a086015261381d82826136dd565b91505060c083015161383260c0860182613892565b5060e083015161384560e0860182613892565b508091505092915050565b6060820160008201516138666000850182613892565b5060208201516138796020850182613892565b50604082015161388c6040850182613892565b50505050565b61389b81613c52565b82525050565b600060208201905081810360008301526138bb8184613604565b905092915050565b60006020820190506138d8600083018461365f565b92915050565b60006020820190506138f3600083018461366e565b92915050565b600060808201905061390e600083018861366e565b818103602083015261392181868861367d565b9050818103604083015261393581856136a7565b9050818103606083015261394981846136a7565b90509695505050505050565b600060808201905061396a600083018761366e565b818103602083015261397c81866136a7565b9050818103604083015261399081856136a7565b905081810360608301526139a481846136a7565b905095945050505050565b60006040820190506139c4600083018561366e565b6139d16020830184613892565b9392505050565b600060208201905081810360008301526139f281846136a7565b905092915050565b60006040820190508181036000830152613a1481856136a7565b90508181036020830152613a2881846136dd565b90509392505050565b60006080820190508181036000830152613a4b81856136a7565b9050613a5a6020830184613850565b9392505050565b60006040820190508181036000830152613a7b8185613713565b90508181036020830152613a8f81846136dd565b90509392505050565b60006040820190508181036000830152613ab28185613713565b90508181036020830152613ac681846136a7565b90509392505050565b60006080820190508181036000830152613ae98185613713565b9050613af86020830184613850565b9392505050565b60006020820190508181036000830152613b198184613799565b905092915050565b600060c082019050613b366000830185613850565b613b436060830184613850565b9392505050565b6000604051905081810181811067ffffffffffffffff82111715613b6d57600080fd5b8060405250919050565b600067ffffffffffffffff821115613b8e57600080fd5b601f19601f8301169050602081019050919050565b600067ffffffffffffffff821115613bba57600080fd5b601f19601f8301169050602081019050919050565b6000602082019050919050565b60008160005260206000209050919050565b600081519050919050565b600081519050919050565b600081519050919050565b6000602082019050919050565b600073ffffffffffffffffffffffffffffffffffffffff82169050919050565b60008115159050919050565b6000819050919050565b6000819050919050565b60008115159050919050565b6000819050919050565b6000819050919050565b82818337600083830152505050565b60005b83811015613ca9578082015181840152602081019050613c8e565b83811115613cb8576000848401525b50505050565b6000601f19601f83011690509190505600a265627a7a72305820105ace1574a384f5ae80ee53d1e83338dd85cbbad1628663171b0d6f786b5b2f6c6578706572696d656e74616cf50037",
  "source": "pragma solidity  ^0.4.25;\r\npragma experimental ABIEncoderV2;\r\n\r\nimport \"asn1-decode/contracts/Asn1Decode.sol\";\r\nimport \"pkcs1-sha256-verify/contracts/Pkcs1Sha256Verify.sol\";\r\n\r\ncontract X509InTreeForestOfTrust {\r\n  constructor(address decoderAddr, address verifierAddr) {\r\n    decoder = Asn1Decode(decoderAddr);\r\n    verifier = Pkcs1Sha256Verify(verifierAddr);\r\n  }\r\n\r\n  Asn1Decode decoder;\r\n  Pkcs1Sha256Verify verifier;\r\n\r\n  struct Certificate {\r\n    address owner;\r\n    bytes32 ens;\r\n    bytes32 revokedBy;\r\n    bytes32 parent;\r\n    bytes tbsCertificate;\r\n    bytes signature;\r\n    uint validNotBefore;\r\n    uint validNotAfter;\r\n  }\r\n  mapping (bytes32 => Certificate) private certificates;\r\n  mapping (bytes32 => bytes32[]) private certificateIdsReference;\r\n  bytes32[] private serialNumbers;\r\n\r\n  event certificateAdded(bytes32 certificateId);\r\n  event certificateClaimed(bytes32 certificateId);\r\n\r\n\r\n  /* TODO add function to set certificate\r\n  function rovokeCertificate(bytes certificateRevocation, bytes signature, bytes32 authorityCertificateId)\r\n  /*\r\n   * NOTICE: This function is currently unfinished. Needs to extract\r\n   * validNotBefore and validNotAfter and initialize the certificate with those\r\n   * values too!! (shouldn't take much work).\r\n   *\r\n   * Adds a X509 certificate to the certificates mapping, which is indexed on\r\n   * certificateId (the keccak256 hash of its public key). Anyone can call this\r\n   * method so long as they have the funds to cover the transaction. The\r\n   * certificate must be signed and valid (but not nessisarily by any existing\r\n   * certificates in the mapping). Certificates may be self-signed. The idea is\r\n   * to pulicise a verified chain of trust on the blockchain that can be\r\n   * referenced by other contracts.\r\n   *\r\n   * @param tbsCertificate The entire tbsCertificate node of the der-encoded\r\n   *        X509 certificate.\r\n   * @param signature The signed sha256 hash of (DER-encoded) tbsCertificate (signed with\r\n   *        signersPubKey param). Should be found in same X509 cert as tbsCertificate\r\n   * @param signersPubKey The DER-encoded node of the public key used to sign\r\n   *        the signature param.\r\n   */\r\n  function addCertificate(bytes tbsCertificate, bytes signature, bytes signersPubKey) public returns (bool){\r\n    bytes32 certificateId;\r\n    bytes32 serialNumber;\r\n    string memory commonName;\r\n    bytes memory modulus;\r\n    bytes memory exponent;\r\n    Asn1Decode.NodePtr memory i;\r\n    Asn1Decode.NodePtr memory j;\r\n    Asn1Decode.NodePtr memory k;\r\n\r\n    // Extract modulus and exponent from signersPubKey\r\n    (modulus, exponent) = extractRsaPubKeyComponents(signersPubKey);\r\n\r\n    // Verify signature\r\n    require( verifier.verify(sha256(tbsCertificate), signature, exponent, modulus) == 0 );\r\n\r\n    // Extract serial number from tbsCertificate\r\n    i = decoder.nodeTraverse(tbsCertificate, decoder.LOCATION_SERIAL_NUMBER());\r\n    serialNumber = bytes32(decoder.decodeUint(decoder.getValue(tbsCertificate, i)));\r\n\r\n    i = decoder.nodeNext(tbsCertificate, i);\r\n    i = decoder.nodeNext(tbsCertificate, i);\r\n    i = decoder.nodeNext(tbsCertificate, i);\r\n    j = decoder.nodeFirstChild(tbsCertificate, i);\r\n    // get validNotBefore\r\n    j = decoder.nodeNext(tbsCertificate, j);\r\n    // get validNotAfter\r\n\r\n    i = decoder.nodeNext(tbsCertificate, i);\r\n    j = decoder.nodeFirstChild(tbsCertificate, i);\r\n    while (decoder.nodeIsChildOf(j, i)) {\r\n      k = decoder.nodeFirstChild(tbsCertificate, j);\r\n      k = decoder.nodeFirstChild(tbsCertificate, k);\r\n      if ( keccak256(decoder.getValue(tbsCertificate, k)) == keccak256(decoder.COMMON_NAME()) ) {\r\n        k = decoder.nodeNext(tbsCertificate, k);\r\n        commonName = string(decoder.getValue(tbsCertificate, k)); // Make sure this translates from bytes to string correctly\r\n        break;\r\n      }\r\n      j = decoder.nodeNext(tbsCertificate, j);\r\n    }\r\n\r\n    i = decoder.nodeNext(tbsCertificate, i);\r\n    // Extract public key and calculate certificateId from it\r\n    certificateId = keccak256(decoder.getAll(tbsCertificate, i));\r\n\r\n    // Revoked certificates may not be written over\r\n    require( certificates[certificateId].revokedBy == 0 );\r\n\r\n    // Add certificate to certificates mapping\r\n    certificates[certificateId].parent = keccak256(signersPubKey);\r\n    certificates[certificateId].tbsCertificate = tbsCertificate;\r\n    certificates[certificateId].signature = signature;\r\n\r\n    // Add serial number to serialNumbers array and certificateIdsReference mapping\r\n    serialNumbers.push(serialNumber);\r\n    certificateIdsReference[keccak256(serialNumber)].push(certificateId);\r\n\r\n    // Fire event\r\n    certificateAdded(certificateId);\r\n  }\r\n\r\n  /*\r\n   * Adds a reference to certificateIdsReference mapping. Reference must go to a\r\n   * certificateId of an existing certificate. The reference (the key) is from\r\n   * the keccak256 hash of the node at keyLocation of certificates[certificateId]\r\n   * to certificateId.\r\n   *\r\n   * @param certifiacateId The certificateId to which we are adding a reference.\r\n   *        (must be the certificateId of a certificate in certificates mapping)\r\n   * @param keyLocation The traversal instructions for the desired node from which\r\n   *        the reference key is derived. Same encoding as \"location\" param in\r\n   *        nodeTraverse() function.\r\n   */\r\n  function addReference(bytes32 certificateId, bytes keyLocation) public {\r\n    Asn1Decode.NodePtr memory i;\r\n    bytes memory v;\r\n\r\n    i = decoder.nodeTraverse(certificates[certificateId].tbsCertificate, keyLocation);\r\n    v = decoder.getValue(certificates[certificateId].tbsCertificate, i);\r\n    certificateIdsReference[keccak256(v)].push(certificateId);\r\n  }\r\n\r\n  /**\r\n   * The return values of this function are used to proveOwnership() of a\r\n   * certificate that exists in the certificates mapping.\r\n\r\n   * @return A unique keccak256 hash to be signed\r\n   * @return The block number used in the hash\r\n   */\r\n  function signThis() public view returns (bytes32, uint) {\r\n    return ( keccak256(msg.sender, block.blockhash(block.number - 1)), block.number -1 );\r\n  }\r\n\r\n  /**\r\n   * An eth account calls this method to prove ownership of a certificate in\r\n   * certificates mapping. If successful, certificates[certificateId].owner will\r\n   * be set to the caller's address. To change owner of a cert, this method must\r\n   *  be called from the new desired owner address.\r\n   *\r\n   * @param certificateId The keccak256 hash of target certificate's public key\r\n   * @param signature The PKS1 RSA signature of the first return value of signThis()\r\n   * @param blockNumber The second return value of signThis() (must be >= block.number - 5760)\r\n   */\r\n  function proveOwnership(bytes32 certificateId, bytes signature, uint blockNumber) external returns (bool){\r\n    bytes32 message;\r\n    bytes memory pubKey;\r\n    bytes memory modulus;\r\n    bytes memory exponent;\r\n    Asn1Decode.NodePtr memory i;\r\n\r\n    // Only accept proof if it's less than about one day old (at 15sec/block)\r\n    require( block.number - blockNumber <= 5760 );\r\n\r\n    // Verify signature, which proves ownership\r\n    message = keccak256(msg.sender, block.blockhash(blockNumber));\r\n    i = decoder.nodeTraverse(certificates[certificateId].tbsCertificate, decoder.LOCATION_PUB_KEY());\r\n    pubKey = decoder.getAll(certificates[certificateId].tbsCertificate, i);\r\n    (modulus, exponent) = extractRsaPubKeyComponents(pubKey);\r\n    require( verifier.verify(sha256(message), signature, exponent, modulus) == 0 );\r\n\r\n    certificates[certificateId].owner = msg.sender;\r\n\r\n    certificateClaimed(certificateId);\r\n  }\r\n\r\n  /**\r\n   * Extracts modulus and exponent (respectively) from a DER-encoded RSA public key\r\n   *\r\n   * Helper function\r\n   */\r\n  function extractRsaPubKeyComponents(bytes key) private view returns (bytes, bytes) {\r\n    bytes memory modulus;\r\n    bytes memory exponent;\r\n    bytes memory encodedModulus;\r\n    bytes memory encodedExponent;\r\n    bytes memory encodedBytes;\r\n    Asn1Decode.NodePtr memory i;\r\n\r\n    i = decoder.nodeRoot(key);\r\n    i = decoder.nodeFirstChild(key, i);\r\n    i = decoder.nodeNext(key, i);\r\n    // Decode bitstring\r\n    encodedBytes = decoder.getValue(key, i);\r\n    for (uint j=0; j<encodedBytes.length-1; j++) {\r\n      encodedBytes[j] = encodedBytes[j+1];\r\n    }\r\n    i = decoder.nodeRoot(encodedBytes);\r\n    i = decoder.nodeFirstChild(encodedBytes, i);\r\n    encodedModulus = decoder.getValue(encodedBytes, i);\r\n    // modulus must be positive\r\n    require( encodedModulus[0] & 0x80 == 0 );\r\n    // remove leading zero byte from der encoding of modulus if present\r\n    if (encodedModulus[0] == 0) {\r\n       modulus = new bytes(encodedModulus.length - 1);\r\n       for (uint index=0; index<modulus.length; index++) {\r\n           modulus[index] = encodedModulus[index+1];\r\n       }\r\n    } else {\r\n       modulus = encodedModulus;\r\n    }\r\n    i = decoder.nodeNext(encodedBytes, i);\r\n    encodedExponent = decoder.getValue(encodedBytes, i);\r\n    // exponent must be positive\r\n    require( encodedExponent[0] & 0x80 == 0 );\r\n    // remove leading zero byte from der encoding of exponent if present\r\n    if (encodedExponent[0] == 0) {\r\n       exponent = new bytes(encodedExponent.length - 1);\r\n       for (index=0; index<exponent.length; index++) {\r\n           exponent[index] = encodedExponent[index+1];\r\n       }\r\n    } else {\r\n       exponent = encodedExponent;\r\n    }\r\n\r\n    return (modulus, exponent);\r\n  }\r\n\r\n  function ensNameHash(bytes memory name) private pure returns (bytes32) {\r\n    bytes memory prefix;\r\n    bytes memory rest;\r\n    bytes32 zeroBytes;\r\n    uint8 i;\r\n    uint8 j;\r\n\r\n    // base case\r\n    if (name.length == 0) { return 0x0000000000000000000000000000000000000000000000000000000000000000; }\r\n\r\n    // Find index of delimiter\r\n    while(name[i] != \".\" && i < name.length) {\r\n      i++;\r\n    }\r\n\r\n    prefix = new bytes(i);\r\n    if (i >= name.length) {\r\n      rest = new bytes(0);\r\n    } else {\r\n      rest = new bytes(name.length-1 - i);\r\n    }\r\n\r\n    for(j=0; j<i; j++) {\r\n      prefix[j] = name[j];\r\n    }\r\n    if (i < name.length) {\r\n      for(j=0; j<name.length-1 - i; j++) {\r\n        rest[j] = name[i+1 + j];\r\n      }\r\n    }\r\n\r\n    return keccak256(ensNameHash(rest), keccak256(prefix));\r\n  }\r\n\r\n  /* not finished, hasnt been tested at all. most likely does not work in current state\r\n  function decodeTime(bytes x509Time) internal pure returns (uint) {\r\n    uint time;\r\n    uint i;\r\n    uint256[12] memory daysInMonth = [31, 28, 31, 30, 31, 30, 31, 31, 30, 31, 30, 31];\r\n    uint offset = 0;\r\n\r\n    // years\r\n    if (x509Time.length == 13) {\r\n      if (uint(x509Time[0]) < 5) {\r\n        time += 2000;\r\n      } else {\r\n        time += 1900;\r\n      }\r\n    } else {\r\n      time += uint(x509Time[0]) * 1000 + uint(x509Time[1]) * 100;\r\n      offset = 2;\r\n    }\r\n    time += uint(x509Time[offset+0]) * 10 + uint(x509Time[offset+1]);\r\n    // The year must be >= 1972 for the following calculations to work\r\n    require( time >= 1972 );\r\n    if (time % 4 == 0) daysInMonth[1]++;\r\n    time -= 1970; // minus unix epoch year\r\n    // months\r\n    time *= 12;\r\n    time += uint(x509Time[offset+2]) * 10 + uint(x509Time[offset+3]);\r\n    //days\r\n    time = 365 + 366 + ( (time/12-2)/4 * 366 + (((time/12-2) - (time/12-2)/4)) * 365 );\r\n    for (i=0; i<uint(x509Time[offset+2])*10 + uint(x509Time[offset+3]); i++) { // for the number of months since January\r\n      time += daysInMonth[i];\r\n    }\r\n    time += uint(x509Time[offset+4])*10 + uint(x509Time[offset+5]);\r\n    // hours\r\n    time *= 24;\r\n    time += uint(x509Time[offset+6])*10 + uint(x509Time[offset+7]);\r\n    // Minutes\r\n    time *= 60;\r\n    time += uint(x509Time[offset+8])*10 + uint(x509Time[offset+9]);\r\n    // Seconds\r\n    time *= 60;\r\n    time += uint(x509Time[offset+10])*10 + uint(x509Time[offset+11]);\r\n\r\n    ...return time in seconds since unix epoch\r\n\r\n  }\r\n  */\r\n  function certificate(bytes32 certificateId) public view returns (Certificate) {\r\n    return certificates[certificateId];\r\n  }\r\n\r\n  // For testing. Also, make sure the new web3 can handle structs (unlike the old)\r\n  function tbsCertificate(bytes32 certificateId) public view returns (bytes) {\r\n    return certificates[certificateId].tbsCertificate;\r\n  }\r\n\r\n  function certificateId(bytes32 referenceHash) public view returns (bytes32[]) {\r\n    return certificateIdsReference[referenceHash];\r\n  }\r\n}\r\n",
  "sourcePath": "/home/jonah/x509-forest-of-trust/contracts/X509InTreeForestOfTrust.sol",
  "compiler": {
    "name": "solc",
    "version": "0.4.25+commit.59dbf8f1.Emscripten.clang"
  },
  "schemaVersion": "3.0.0-beta.1",
  "updatedAt": "2018-11-17T21:14:02.120Z"
}