{
  "contractName": "X509ForestOfTrust",
  "abi": [
    {
      "constant": true,
      "inputs": [
        {
          "name": "",
          "type": "bytes32"
        },
        {
          "name": "",
          "type": "uint256"
        }
      ],
      "name": "toCertIds",
      "outputs": [
        {
          "name": "",
          "type": "bytes32"
        }
      ],
      "payable": false,
      "stateMutability": "view",
      "type": "function"
    },
    {
      "constant": true,
      "inputs": [
        {
          "name": "",
          "type": "bytes32"
        }
      ],
      "name": "toCertId",
      "outputs": [
        {
          "name": "",
          "type": "bytes32"
        }
      ],
      "payable": false,
      "stateMutability": "view",
      "type": "function"
    },
    {
      "constant": true,
      "inputs": [
        {
          "name": "",
          "type": "bytes32"
        }
      ],
      "name": "certs",
      "outputs": [
        {
          "name": "owner",
          "type": "address"
        },
        {
          "name": "parentId",
          "type": "bytes32"
        },
        {
          "name": "pubKey",
          "type": "bytes"
        },
        {
          "name": "serialNumber",
          "type": "uint256"
        },
        {
          "name": "validNotAfter",
          "type": "uint256"
        },
        {
          "name": "cshx",
          "type": "bool"
        }
      ],
      "payable": false,
      "stateMutability": "view",
      "type": "function"
    },
    {
      "constant": false,
      "inputs": [
        {
          "name": "newOwner",
          "type": "address"
        }
      ],
      "name": "transferOwnership",
      "outputs": [],
      "payable": false,
      "stateMutability": "nonpayable",
      "type": "function"
    },
    {
      "inputs": [
        {
          "name": "sha256WithRSAEncryption",
          "type": "address"
        },
        {
          "name": "_dateTime",
          "type": "address"
        }
      ],
      "payable": false,
      "stateMutability": "nonpayable",
      "type": "constructor"
    },
    {
      "anonymous": false,
      "inputs": [
        {
          "indexed": false,
          "name": "",
          "type": "bytes32"
        }
      ],
      "name": "CertAdded",
      "type": "event"
    },
    {
      "anonymous": false,
      "inputs": [
        {
          "indexed": false,
          "name": "",
          "type": "bytes32"
        }
      ],
      "name": "CertClaimed",
      "type": "event"
    },
    {
      "anonymous": false,
      "inputs": [
        {
          "indexed": false,
          "name": "",
          "type": "bytes32"
        },
        {
          "indexed": false,
          "name": "",
          "type": "address"
        }
      ],
      "name": "AlgSet",
      "type": "event"
    },
    {
      "anonymous": false,
      "inputs": [
        {
          "indexed": false,
          "name": "",
          "type": "address"
        },
        {
          "indexed": false,
          "name": "",
          "type": "address"
        }
      ],
      "name": "ownershipTransferred",
      "type": "event"
    },
    {
      "constant": false,
      "inputs": [
        {
          "name": "cert",
          "type": "bytes"
        },
        {
          "name": "cshx",
          "type": "bool"
        }
      ],
      "name": "addRootCert",
      "outputs": [],
      "payable": false,
      "stateMutability": "nonpayable",
      "type": "function"
    },
    {
      "constant": false,
      "inputs": [
        {
          "name": "cert",
          "type": "bytes"
        },
        {
          "name": "parentId",
          "type": "bytes32"
        },
        {
          "name": "cshx",
          "type": "bool"
        }
      ],
      "name": "addCert",
      "outputs": [],
      "payable": false,
      "stateMutability": "nonpayable",
      "type": "function"
    },
    {
      "constant": true,
      "inputs": [],
      "name": "signThis",
      "outputs": [
        {
          "name": "",
          "type": "bytes"
        },
        {
          "name": "",
          "type": "uint256"
        }
      ],
      "payable": false,
      "stateMutability": "view",
      "type": "function"
    },
    {
      "constant": false,
      "inputs": [
        {
          "name": "certId",
          "type": "bytes32"
        },
        {
          "name": "signature",
          "type": "bytes"
        },
        {
          "name": "blockNumber",
          "type": "uint256"
        },
        {
          "name": "sigAlg",
          "type": "bytes32"
        }
      ],
      "name": "proveOwnership",
      "outputs": [
        {
          "name": "",
          "type": "bool"
        }
      ],
      "payable": false,
      "stateMutability": "nonpayable",
      "type": "function"
    },
    {
      "constant": true,
      "inputs": [
        {
          "name": "certId",
          "type": "bytes32"
        }
      ],
      "name": "rootOf",
      "outputs": [
        {
          "name": "",
          "type": "bytes32"
        }
      ],
      "payable": false,
      "stateMutability": "view",
      "type": "function"
    },
    {
      "constant": true,
      "inputs": [
        {
          "name": "certId",
          "type": "bytes32"
        }
      ],
      "name": "ownerOf",
      "outputs": [
        {
          "name": "",
          "type": "address"
        }
      ],
      "payable": false,
      "stateMutability": "view",
      "type": "function"
    },
    {
      "constant": true,
      "inputs": [
        {
          "name": "commonNameHash",
          "type": "bytes32"
        }
      ],
      "name": "toCertIdsLength",
      "outputs": [
        {
          "name": "",
          "type": "uint256"
        }
      ],
      "payable": false,
      "stateMutability": "view",
      "type": "function"
    },
    {
      "constant": false,
      "inputs": [
        {
          "name": "oid",
          "type": "bytes32"
        },
        {
          "name": "alg",
          "type": "address"
        }
      ],
      "name": "setAlg",
      "outputs": [],
      "payable": false,
      "stateMutability": "nonpayable",
      "type": "function"
    },
    {
      "constant": false,
      "inputs": [
        {
          "name": "_cshxOid",
          "type": "bytes32"
        }
      ],
      "name": "setCshxOid",
      "outputs": [],
      "payable": false,
      "stateMutability": "nonpayable",
      "type": "function"
    }
  ],
  "bytecode": "0x608060405234801561001057600080fd5b506040516040806124fd8339810180604052604081101561003057600080fd5b50805160209182015160008054600160a060020a0319908116331782557f2a864886f70d01010b000000000000000000000000000000000000000000000090915260059093527fd023811d84a5288e262cce8c09a69deafbfe5a0d34229f30bf1a47a2479509e88054600160a060020a039384169085161790556001805492909116919092161790557f551d130000000000000000000000000000000000000000000000000000000000600655612411806100ec6000396000f3fe608060405234801561001057600080fd5b50600436106100eb576000357c0100000000000000000000000000000000000000000000000000000000900480636d6f398e116100a9578063bd29dec011610083578063bd29dec014610461578063c55dc2cc1461047e578063dd9d24031461050f578063f2fde38b1461053b576100eb565b80636d6f398e146103845780637c0656fd146103a15780637dd5641114610428576100eb565b806249c3f6146100f05780630196d78d1461019a5780630f0e595e146101cf5780631c9168f3146101ec57806337356fe2146102095780634063d812146102b6575b600080fd5b6101986004803603604081101561010657600080fd5b81019060208101813564010000000081111561012157600080fd5b82018360208201111561013357600080fd5b8035906020019184600183028401116401000000008311171561015557600080fd5b91908080601f0160208091040260200160405190810160405280939291908181526020018383808284376000920191909152509295505050503515159050610561565b005b6101bd600480360360408110156101b057600080fd5b5080359060200135610666565b60408051918252519081900360200190f35b610198600480360360208110156101e557600080fd5b5035610696565b6101bd6004803603602081101561020257600080fd5b50356106b2565b6101986004803603606081101561021f57600080fd5b81019060208101813564010000000081111561023a57600080fd5b82018360208201111561024c57600080fd5b8035906020019184600183028401116401000000008311171561026e57600080fd5b91908080601f016020809104026020016040519081016040528093929190818152602001838380828437600092019190915250929550508235935050506020013515156106c4565b6102d3600480360360208110156102cc57600080fd5b5035610fb8565b6040518087600160a060020a0316600160a060020a031681526020018681526020018060200185815260200184815260200183151515158152602001828103825286818151815260200191508051906020019080838360005b8381101561034457818101518382015260200161032c565b50505050905090810190601f1680156103715780820380516001836020036101000a031916815260200191505b5097505050505050505060405180910390f35b6101bd6004803603602081101561039a57600080fd5b5035611085565b6103a96110c1565b6040518080602001838152602001828103825284818151815260200191508051906020019080838360005b838110156103ec5781810151838201526020016103d4565b50505050905090810190601f1680156104195780820380516001836020036101000a031916815260200191505b50935050505060405180910390f35b6104456004803603602081101561043e57600080fd5b50356110ff565b60408051600160a060020a039092168252519081900360200190f35b6101bd6004803603602081101561047757600080fd5b503561111a565b6104fb6004803603608081101561049457600080fd5b813591908101906040810160208201356401000000008111156104b657600080fd5b8201836020820111156104c857600080fd5b803590602001918460018302840111640100000000831117156104ea57600080fd5b91935091508035906020013561112c565b604080519115158252519081900360200190f35b6101986004803603604081101561052557600080fd5b5080359060200135600160a060020a03166113a3565b6101986004803603602081101561055157600080fd5b5035600160a060020a031661142f565b600061056c836114bd565b905061057e838263ffffffff6114d016565b9050610590838263ffffffff6114d016565b90506105a2838263ffffffff61158816565b90506105b4838263ffffffff61158816565b90506105c6838263ffffffff61158816565b90506105d8838263ffffffff61158816565b90506105ea838263ffffffff61158816565b90506105fc838263ffffffff61158816565b905061060e838263ffffffff61159f16565b60026000610622868563ffffffff6115d216565b8152602001908152602001600020600201908051906020019061064692919061234a565b506106618361065b818463ffffffff6115d216565b846106c4565b505050565b60036020528160005260406000208181548110151561068157fe5b90600052602060002001600091509150505481565b600054600160a060020a031633146106ad57600080fd5b600655565b60046020526000908152604090205481565b60008060008060008060006106d88a6114bd565b94506106ea8a8663ffffffff6114d016565b94506106fc8a8663ffffffff6114d016565b935061070e8a8563ffffffff61158816565b93506107208a8563ffffffff61160516565b95506107328a8563ffffffff61158816565b93506107448a8563ffffffff6114d016565b93506107568a8663ffffffff61158816565b92506107688a8463ffffffff61158816565b92506005600061077e8c8763ffffffff61177d16565b815260208082019290925260409081016000908120548c8252600293849052919020600160a060020a039091169163de8f50a191016107c38d8963ffffffff61159f16565b6107d38e8863ffffffff6117b016565b6040517c010000000000000000000000000000000000000000000000000000000063ffffffff8616028152606060048201908152845460026000196101006001841615020190911604606483018190529091829160248201916044810191608490910190889080156108865780601f1061085b57610100808354040283529160200191610886565b820191906000526020600020905b81548152906001019060200180831161086957829003601f168201915b5050848103835286518152865160209182019188019080838360005b838110156108ba5781810151838201526020016108a2565b50505050905090810190601f1680156108e75780820380516001836020036101000a031916815260200191505b50848103825285518152855160209182019187019080838360005b8381101561091a578181015183820152602001610902565b50505050905090810190601f1680156109475780820380516001836020036101000a031916815260200191505b50965050505050505060206040518083038186803b15801561096857600080fd5b505afa15801561097c573d6000803e3d6000fd5b505050506040513d602081101561099257600080fd5b505115156109ea576040805160e560020a62461bcd02815260206004820152601660248201527f5369676e617475726520646f65736e74206d6174636800000000000000000000604482015290519081900360640190fd5b6109fa8a8663ffffffff6114d016565b9450610a0c8a8663ffffffff61158816565b9450610a1e8a8663ffffffff61158816565b9450610a308a8663ffffffff61158816565b9450610a428a8663ffffffff61158816565b9450610a548a8663ffffffff6114d016565b935042610a6f610a6a8c8763ffffffff6117b016565b6117c7565b1115610ac5576040805160e560020a62461bcd02815260206004820152600c60248201527f496e76616c696420636572740000000000000000000000000000000000000000604482015290519081900360640190fd5b610ad58a8563ffffffff61158816565b9350610aea610a6a8b8663ffffffff6117b016565b905042811015610b44576040805160e560020a62461bcd02815260206004820152600c60248201527f496e76616c696420636572740000000000000000000000000000000000000000604482015290519081900360640190fd5b610b548a8663ffffffff61158816565b9450610b668a8663ffffffff61158816565b9350610b788a8563ffffffff6115d216565b9650888714610bb657610b918a8563ffffffff61159f16565b60008881526002602081815260409092208351610bb4949190920192019061234a565b505b610bc68a8663ffffffff6114d016565b93505b610bd38486611be6565b15610ca257610be88a8563ffffffff6114d016565b9250610bfa8a8463ffffffff6114d016565b9250610c0c8a8463ffffffff61177d16565b7f55040300000000000000000000000000000000000000000000000000000000001415610c8b57610c438a8463ffffffff61158816565b925060036000610c61610c5c8d8763ffffffff6117b016565b611c54565b81526020808201929092526040016000908120805460018101825590825291902001879055610ca2565b610c9b8a8563ffffffff61158816565b9350610bc9565b886002600089815260200190815260200160002060010181905550856002600089815260200190815260200160002060030181905550806002600089815260200190815260200160002060040181905550866004600060028d6040518082805190602001908083835b60208310610d2a5780518252601f199092019160209182019101610d0b565b51815160209384036101000a60001901801990921691161790526040519190930194509192505080830381855afa158015610d69573d6000803e3d6000fd5b5050506040513d6020811015610d7e57600080fd5b50518152602081019190915260400160002055610da18a8663ffffffff61158816565b9450610db38a8663ffffffff61158816565b9450610dc58a8663ffffffff6114d016565b9450610dd78a8663ffffffff6114d016565b93505b610de48486611be6565b15610f7957610df98a8563ffffffff6114d016565b9250878015610e185750600654610e168b8563ffffffff61177d16565b145b15610e40576000878152600260205260408120600501805460ff191660011790559750610f62565b610e508a8463ffffffff61177d16565b7f551d1100000000000000000000000000000000000000000000000000000000001415610f6257610e878a8463ffffffff61158816565b9250610e998a8463ffffffff611f5816565b9250610eab8a8463ffffffff6114d016565b90505b610eb88184611be6565b15610f5657610ed0610c5c8b8363ffffffff6117b016565b6000818152600360205260409020549092501580610f185750600082815260036020526040902080548891906000198101908110610f0a57fe5b906000526020600020015414155b15610f3f576000828152600360209081526040822080546001810182559083529120018790555b610f4f8a8263ffffffff61158816565b9050610eae565b871515610f6257610f79565b610f728a8563ffffffff61158816565b9350610dda565b6040805188815290517fa8bcd2c977618c00f7fed703adeb0977d9b57eb1f309214e668e87ca390c51379181900360200190a150505050505050505050565b600260208181526000928352604092839020805460018083015483860180548851601f60001995831615610100029590950190911697909704928301869004860287018601909752818652600160a060020a0390921695919492938301828280156110645780601f1061103957610100808354040283529160200191611064565b820191906000526020600020905b81548152906001019060200180831161104757829003601f168201915b50505050600383015460048401546005909401549293909290915060ff1686565b60005b60008281526002602052604090206001015482146110b9576000918252600260205260409091206001015490611088565b50805b919050565b604080516c01000000000000000000000000330260208201526000194301804060348084019190915283518084039091018152605490920190925291565b600090815260026020526040902054600160a060020a031690565b60009081526003602052604090205490565b60006060610100438590031061114157600080fd5b50604080516c01000000000000000000000000330260208083019190915285406034808401919091528351808403909101815260548301808552600087815260058452858120548c82526002948590529590207fde8f50a100000000000000000000000000000000000000000000000000000000909152606060588501908152908301805460001960018216156101000201169390930460b885018190529194600160a060020a03169363de8f50a1939286928c928c9282916078810191609882019160d80190899080156112575780601f1061122c57610100808354040283529160200191611257565b820191906000526020600020905b81548152906001019060200180831161123a57829003601f168201915b5050848103835287518152875160209182019189019080838360005b8381101561128b578181015183820152602001611273565b50505050905090810190601f1680156112b85780820380516001836020036101000a031916815260200191505b508481038252858152602001868680828437600081840152601f19601f82011690508083019250505097505050505050505060206040518083038186803b15801561130257600080fd5b505afa158015611316573d6000803e3d6000fd5b505050506040513d602081101561132c57600080fd5b5051151561133957600080fd5b600087815260026020908152604091829020805473ffffffffffffffffffffffffffffffffffffffff191633179055815189815291517f5c088381a25fb06fe5d3936d0346b98d68146eea6dd3801386069db26fbac84f9281900390910190a15095945050505050565b600054600160a060020a031633146113ba57600080fd5b600082815260056020908152604091829020805473ffffffffffffffffffffffffffffffffffffffff1916600160a060020a03851690811790915582518581529182015281517f65146a769582c865299fe09a84142c84d0f1d4df1dbaaaf2301857e665beb2d7929181900390910190a15050565b600054600160a060020a0316331461144657600080fd5b60005460408051600160a060020a039283168152918316602083015280517f7699c77f2404f9b6bbd003861bb4af8ae70b205e19e73d7ec7fe4590db59a6b79281900390910190a16000805473ffffffffffffffffffffffffffffffffffffffff1916600160a060020a0392909216919091179055565b60006114ca826000611fea565b92915050565b6000826114dc8361218f565b815181106114e657fe5b01602001517f200000000000000000000000000000000000000000000000000000000000000060f860020a9182900490910281161461156f576040805160e560020a62461bcd02815260206004820152601660248201527f4e6f74206120636f6e7374727563746564207479706500000000000000000000604482015290519081900360640190fd5b6115818361157c8461219e565b611fea565b9392505050565b600061158183611597846121bb565b600101611fea565b60606115816115ad8361218f565b6115b68461218f565b6115bf856121bb565b869291900360010163ffffffff6121e216565b60006115816115e08361218f565b6115e98461218f565b6115f2856121bb565b869291900360010163ffffffff61224516565b6000826116118361218f565b8151811061161b57fe5b90602001015160f860020a900460f860020a02600160f860020a031916600260f860020a02141515611697576040805160e560020a62461bcd02815260206004820152601060248201527f4e6f74207479706520494e544547455200000000000000000000000000000000604482015290519081900360640190fd5b826116a18361219e565b815181106116ab57fe5b60209101015160f860020a90819004027f80000000000000000000000000000000000000000000000000000000000000001615611732576040805160e560020a62461bcd02815260206004820152600c60248201527f4e6f7420706f7369746976650000000000000000000000000000000000000000604482015290519081900360640190fd5b600061173d8361219e565b611746846121bb565b6001010390508060200360080261176d61175f8561219e565b86908463ffffffff61226216565b60029190910a9004949350505050565b600061158161178b8361219e565b6117948461219e565b61179d856121bb565b869291900360010163ffffffff61226216565b60606115816117be8361219e565b6115b68461219e565b6000806000806000806000808851600d141561182d57600560308a60008151811015156117f057fe5b90602001015160f860020a900460f860020a0260f860020a90040360ff161015611820576107d087019650611828565b61076c870196505b61189c565b603089600181518110151561183e57fe5b90602001015160f860020a900460f860020a0260f860020a90040360640260ff1660308a600081518110151561187057fe5b90602001015160f860020a900460f860020a0260f860020a90040360ff166103e8020187019650600290505b6030898260010160ff168151811015156118b257fe5b90602001015160f860020a900460f860020a0260f860020a900460308b8460000160ff168151811015156118e257fe5b90602001015160f860020a900460f860020a0260f860020a900403600a02010360ff16870196506030898260030160ff1681518110151561191f57fe5b90602001015160f860020a900460f860020a0260f860020a900460308b8460020160ff1681518110151561194f57fe5b90602001015160f860020a900460f860020a0260f860020a900403600a02010395506030898260050160ff1681518110151561198757fe5b90602001015160f860020a900460f860020a0260f860020a900460308b8460040160ff168151811015156119b757fe5b90602001015160f860020a900460f860020a0260f860020a900403600a020103850194506030898260070160ff168151811015156119f157fe5b90602001015160f860020a900460f860020a0260f860020a900460308b8460060160ff16815181101515611a2157fe5b90602001015160f860020a900460f860020a0260f860020a900403600a020103840193506030898260090160ff16815181101515611a5b57fe5b90602001015160f860020a900460f860020a0260f860020a900460308b8460080160ff16815181101515611a8b57fe5b90602001015160f860020a900460f860020a0260f860020a900403600a0201038301925060308982600b0160ff16815181101515611ac557fe5b90602001015160f860020a900460f860020a0260f860020a900460308b84600a0160ff16815181101515611af557fe5b60209101810151600154604080517f9054bdec00000000000000000000000000000000000000000000000000000000815261ffff8f16600482015260ff8e811660248301528d811660448301528c811660648301528b8116608483015260f860020a9485900485029490940495909503600a0295909501959095039690960195861660a48301529151600160a060020a0390931692639054bdec9260c480840193919291829003018186803b158015611bad57600080fd5b505afa158015611bc1573d6000803e3d6000fd5b505050506040513d6020811015611bd757600080fd5b50519998505050505050505050565b6000611bf18261218f565b611bfa8461219e565b11158015611c185750611c0c836121bb565b611c15836121bb565b11155b806115815750611c278361218f565b611c308361219e565b111580156115815750611c42826121bb565b611c4b846121bb565b11159392505050565b6000816000815181101515611c6557fe5b90602001015160f860020a900460f860020a02600160f860020a031916607760f860020a02148015611cc85750816001815181101515611ca157fe5b90602001015160f860020a900460f860020a02600160f860020a031916607760f860020a02145b8015611d055750816002815181101515611cde57fe5b90602001015160f860020a900460f860020a02600160f860020a031916607760f860020a02145b8015611d425750816003815181101515611d1b57fe5b90602001015160f860020a900460f860020a02600160f860020a031916602e60f860020a02145b15611e5e578151611d619083906004906003190163ffffffff6121e216565b6040517f0e0fb92400000000000000000000000000000000000000000000000000000000815260206004820181815283516024840152835173__ENSNamehash___________________________94630e0fb92494909383926044909201919085019080838360005b83811015611de1578181015183820152602001611dc9565b50505050905090810190601f168015611e0e5780820380516001836020036101000a031916815260200191505b509250505060206040518083038186803b158015611e2b57600080fd5b505af4158015611e3f573d6000803e3d6000fd5b505050506040513d6020811015611e5557600080fd5b505190506110bc565b6040517f0e0fb92400000000000000000000000000000000000000000000000000000000815260206004820181815284516024840152845173__ENSNamehash___________________________93630e0fb9249387939283926044019185019080838360005b83811015611edc578181015183820152602001611ec4565b50505050905090810190601f168015611f095780820380516001836020036101000a031916815260200191505b509250505060206040518083038186803b158015611f2657600080fd5b505af4158015611f3a573d6000803e3d6000fd5b505050506040513d6020811015611f5057600080fd5b505192915050565b600082611f648361218f565b81518110611f6e57fe5b90602001015160f860020a900460f860020a02600160f860020a031916600460f860020a0214151561156f576040805160e560020a62461bcd02815260206004820152601560248201527f4e6f742074797065204f4354455420535452494e470000000000000000000000604482015290519081900360640190fd5b600080600080858560010181518110151561200157fe5b60209101015160f860020a90819004027f800000000000000000000000000000000000000000000000000000000000000016151561208857858560010181518110151561204a57fe5b90602001015160f860020a900460f860020a0260f860020a900460ff1692508460020191506001838369ffffffffffffffffffff1601039050612162565b6000868660010181518110151561209b57fe5b90602001015160f860020a900460f860020a02607f60f860020a021660f860020a900490508060ff16600114156120e9576120df876002880163ffffffff61229c16565b60ff169350612143565b8060ff166002141561211357612108876002880163ffffffff6122bc16565b61ffff169350612143565b8060200360080260ff16612138876002018360ff168a6122629092919063ffffffff16565b60029190910a900493505b60ff16850160020191505060001969ffffffffffffffffffff82168301015b612185858369ffffffffffffffffffff168369ffffffffffffffffffff166122dd565b9695505050505050565b69ffffffffffffffffffff1690565b6a0100000000000000000000900469ffffffffffffffffffff1690565b74010000000000000000000000000000000000000000900469ffffffffffffffffffff1690565b825160609083830111156121f557600080fd5b6060826040519080825280601f01601f191660200182016040528015612222576020820181803883390190505b5090506020808201908686010161223a82828761230c565b509095945050505050565b8251600090838301111561225857600080fd5b5091016020012090565b6000602082111561227257600080fd5b8351838301111561228257600080fd5b506020919092018101519190036101000a60001901191690565b81516000906001830111156122b057600080fd5b50016001015160ff1690565b81516000906002830111156122d057600080fd5b50016002015161ffff1690565b74010000000000000000000000000000000000000000026a010000000000000000000091909102919091171790565b5b6020811061232c578151835260209283019290910190601f190161230d565b905182516020929092036101000a6000190180199091169116179052565b828054600181600116156101000203166002900490600052602060002090601f016020900481019282601f1061238b57805160ff19168380011785556123b8565b828001600101855582156123b8579182015b828111156123b857825182559160200191906001019061239d565b506123c49291506123c8565b5090565b6123e291905b808211156123c457600081556001016123ce565b9056fea165627a7a72305820c3c81d625db910545efd6ff5076cbc3daf4e35bce2762d06664094bfd98a9cb60029",
  "source": "pragma solidity  ^0.5.2;\r\n\r\nimport \"./Ownable.sol\";\r\nimport \"asn1-decode/contracts/Asn1Decode.sol\";\r\n//import \"solidity-bytes-utils/contracts/BytesUtils.sol\";\r\nimport \"sig-verify-algs/contracts/Algorithm.sol\";\r\nimport \"ens-namehash/contracts/ENSNamehash.sol\";\r\nimport \"ethereum-datetime/contracts/DateTime.sol\";\r\n\r\n/*\r\n * @dev Stores validated X.509 certificate chains in parent pointer trees.\r\n * @dev The root of each tree is a CA root certificate\r\n */\r\ncontract X509ForestOfTrust is Ownable {\r\n  using Asn1Decode for bytes;\r\n  using BytesUtils for bytes;\r\n  using ENSNamehash for bytes;\r\n\r\n  constructor(address sha256WithRSAEncryption, address _dateTime) public {\r\n    bytes32 oid = 0x2a864886f70d01010b0000000000000000000000000000000000000000000000;\r\n    algs[oid] = Algorithm(sha256WithRSAEncryption);\r\n    dateTime = DateTime(_dateTime);\r\n    cshxOid = 0x551d130000000000000000000000000000000000000000000000000000000000; // change to actual oid of canSignHttpExchanges\r\n  }\r\n\r\n  DateTime dateTime;\r\n\r\n  struct Certificate {\r\n    address owner;\r\n    bytes32 parentId;\r\n    bytes pubKey;\r\n    uint serialNumber;\r\n    uint validNotAfter;\r\n    bool cshx; // canSignHttpExchanges\r\n  }\r\n  // certId => cert  (certId is keccak256(cert.pubKey))\r\n  mapping (bytes32 => Certificate) public certs;\r\n  // ensNamehash(commonName) => certId  OR  ensNamehash(subjectAltName) => certId\r\n  mapping (bytes32 => bytes32[]) public toCertIds;\r\n  // sha256Fingerprint => certId\r\n  mapping (bytes32 => bytes32) public toCertId;\r\n  // Signature verification contracts\r\n  mapping(bytes32 => Algorithm) private algs;\r\n  // OID of canSignHttpExchanges since spec may change\r\n  bytes32 private cshxOid;\r\n\r\n  event CertAdded(bytes32);\r\n  event CertClaimed(bytes32);\r\n  event AlgSet(bytes32, address);\r\n\r\n  /*\r\n   * @dev Add a self-signed X.509 certificate to the root of a new tree\r\n   * @param cert A DER-encoded self-signed X.509 certificate\r\n   * @param cshx Look for canSignHttpExchanges extension\r\n   */\r\n  function addRootCert(bytes memory cert, bool cshx)\r\n  public\r\n  {\r\n    uint node;\r\n    // Get pub key\r\n    node = cert.root();\r\n    node = cert.firstChildOf(node);\r\n    node = cert.firstChildOf(node);\r\n    node = cert.nextSiblingOf(node);\r\n    node = cert.nextSiblingOf(node);\r\n    node = cert.nextSiblingOf(node);\r\n    node = cert.nextSiblingOf(node);\r\n    node = cert.nextSiblingOf(node);\r\n    node = cert.nextSiblingOf(node);\r\n    // Set parent/self pub key\r\n    certs[cert.keccakOfAllBytesAt(node)].pubKey = cert.allBytesAt(node);\r\n    addCert(cert, cert.keccakOfAllBytesAt(node), cshx);\r\n  }\r\n\r\n  /*\r\n   * @dev Add a X.509 certificate to an existing tree/chain\r\n   * @param cert A DER-encoded X.509 certificate\r\n   * @param parentId The keccak256 hash of parent cert's public key\r\n   * @param cshx Look for canSignHttpExchanges extension\r\n   */\r\n  function addCert(bytes memory cert, bytes32 parentId, bool cshx)\r\n  public\r\n  {\r\n    bytes32 certId;\r\n    uint serialNumber;\r\n    uint node1;\r\n    uint node2;\r\n    uint node3;\r\n    bytes32 tempB;\r\n    uint tempU;\r\n\r\n    node1 = cert.root();\r\n    node1 = cert.firstChildOf(node1);\r\n    node2 = cert.firstChildOf(node1);\r\n    node2 = cert.nextSiblingOf(node2);\r\n    // Extract serial number\r\n    serialNumber = cert.uintAt(node2);\r\n\r\n    node2 = cert.nextSiblingOf(node2);\r\n    node2 = cert.firstChildOf(node2);\r\n    node3 = cert.nextSiblingOf(node1);\r\n    node3 = cert.nextSiblingOf(node3);\r\n    // Verify signature\r\n    require( algs[cert.bytes32At(node2)].verify(certs[parentId].pubKey, cert.allBytesAt(node1), cert.bytesAt(node3)), \"Signature doesnt match\");\r\n\r\n    node1 = cert.firstChildOf(node1);\r\n    node1 = cert.nextSiblingOf(node1);\r\n    node1 = cert.nextSiblingOf(node1);\r\n    node1 = cert.nextSiblingOf(node1);\r\n    node1 = cert.nextSiblingOf(node1);\r\n\r\n    node2 = cert.firstChildOf(node1);\r\n    // Check validNotBefore\r\n    require(toTimestamp(cert.bytesAt(node2)) <= now, \"Invalid cert\");\r\n    node2 = cert.nextSiblingOf(node2);\r\n    // Check validNotAfter\r\n    tempU = toTimestamp(cert.bytesAt(node2));\r\n    require(now <= tempU, \"Invalid cert\");\r\n\r\n    node1 = cert.nextSiblingOf(node1);\r\n    node2 = cert.nextSiblingOf(node1);\r\n    // Get public key and calculate certId from it\r\n    certId = cert.keccakOfAllBytesAt(node2);\r\n    if (certId != parentId)\r\n      certs[certId].pubKey = cert.allBytesAt(node2);\r\n\r\n    // Get commonName and add references from it\r\n    node2 = cert.firstChildOf(node1);\r\n    while (Asn1Decode.isChildOf(node2, node1)) {\r\n      node3 = cert.firstChildOf(node2);\r\n      node3 = cert.firstChildOf(node3);\r\n      if ( cert.bytes32At(node3) == 0x5504030000000000000000000000000000000000000000000000000000000000 ) {\r\n        node3 = cert.nextSiblingOf(node3);\r\n        toCertIds[toEnsNamehash(cert.bytesAt(node3))].push(certId);\r\n        break;\r\n      }\r\n      node2 = cert.nextSiblingOf(node2);\r\n    }\r\n\r\n    certs[certId].parentId = parentId;\r\n    certs[certId].serialNumber = serialNumber;\r\n    certs[certId].validNotAfter = tempU;\r\n\r\n    // Add reference from sha256 fingerprint\r\n    toCertId[sha256(cert)] = certId;\r\n\r\n    node1 = cert.nextSiblingOf(node1);\r\n    node1 = cert.nextSiblingOf(node1);\r\n    node1 = cert.firstChildOf(node1);\r\n    node2 = cert.firstChildOf(node1);\r\n    while (Asn1Decode.isChildOf(node2, node1)) {\r\n      node3 = cert.firstChildOf(node2);\r\n      if (cshx && cert.bytes32At(node3) == cshxOid) {\r\n        certs[certId].cshx = true;\r\n        cshx = false;\r\n      }\r\n      // Subject Alternative Name\r\n      else if (cert.bytes32At(node3) == 0x551d110000000000000000000000000000000000000000000000000000000000 ) {\r\n        node3 = cert.nextSiblingOf(node3);\r\n        node3 = cert.rootOfOctetStringAt(node3);\r\n        tempU = cert.firstChildOf(node3);\r\n        while (Asn1Decode.isChildOf(tempU, node3)) {\r\n          tempB = toEnsNamehash(cert.bytesAt(tempU));\r\n          if (toCertIds[tempB].length == 0 || toCertIds[tempB][toCertIds[tempB].length-1] != certId)\r\n            toCertIds[tempB].push(certId);\r\n          tempU = cert.nextSiblingOf(tempU);\r\n        }\r\n        if (!cshx) break;\r\n      }\r\n      node2 = cert.nextSiblingOf(node2);\r\n    }\r\n\r\n    // Fire event\r\n    emit CertAdded(certId);\r\n  }\r\n\r\n  /**\r\n   * @dev The return values of this function are used to proveOwnership() of a\r\n   *      certificate that exists in the certs mapping.\r\n   * @return Some unique bytes to be signed\r\n   * @return The block number used to create the first return value\r\n   */\r\n  function signThis()\r\n  external view returns (bytes memory, uint)\r\n  {\r\n    return ( abi.encodePacked(msg.sender, blockhash(block.number - 1)), block.number -1 );\r\n  }\r\n\r\n  /**\r\n   * @dev An account calls this method to prove ownership of a certificate.\r\n   *      If successful, certs[certId].owner will be set to caller's address.\r\n   * @param certId The keccak256 hash of target certificate's public key\r\n   * @param signature signThis()[0] signed with certificate's private key\r\n   * @param blockNumber The value of signThis()[1] (must be > block.number - 256)\r\n   * @param sigAlg The OID of the algorithm used to sign `signature`\r\n   */\r\n  function proveOwnership(bytes32 certId, bytes calldata signature, uint blockNumber, bytes32 sigAlg)\r\n  external returns (bool)\r\n  {\r\n    bytes memory message;\r\n    // Only accept proof if it's less than 256 blocks old\r\n    // This is the most time I can give since blockhash() can only return the 256 most recent\r\n    require( block.number - blockNumber < 256 );\r\n    // Verify signature, which proves ownership\r\n    message = abi.encodePacked(msg.sender, blockhash(blockNumber));\r\n    require( algs[sigAlg].verify(certs[certId].pubKey, message, signature) );\r\n\r\n    certs[certId].owner = msg.sender;\r\n\r\n    emit CertClaimed(certId);\r\n  }\r\n\r\n  function rootOf(bytes32 certId)\r\n  public view returns (bytes32)\r\n  {\r\n    while (certId != certs[certId].parentId) {\r\n      certId = certs[certId].parentId;\r\n    }\r\n    return certId;\r\n  }\r\n\r\n  function ownerOf(bytes32 certId)\r\n  public view returns (address)\r\n  {\r\n    return certs[certId].owner;\r\n  }\r\n\r\n  function toCertIdsLength(bytes32 commonNameHash)\r\n  public view returns (uint)\r\n  {\r\n    return toCertIds[commonNameHash].length;\r\n  }\r\n\r\n  function toTimestamp(bytes memory x509Time)\r\n  private view returns (uint)\r\n  {\r\n    uint16 yrs;  uint8 mnths;\r\n    uint8  dys;  uint8 hrs;\r\n    uint8  mins; uint8 secs;\r\n    uint8  offset;\r\n\r\n    if (x509Time.length == 13) {\r\n      if (uint8(x509Time[0])-48 < 5) yrs += 2000;\r\n      else yrs += 1900;\r\n    }\r\n    else {\r\n      yrs += (uint8(x509Time[0])-48) * 1000 + (uint8(x509Time[1])-48) * 100;\r\n      offset = 2;\r\n    }\r\n    yrs +=  (uint8(x509Time[offset+0])-48)*10 + uint8(x509Time[offset+1])-48;\r\n    mnths = (uint8(x509Time[offset+2])-48)*10 + uint8(x509Time[offset+3])-48;\r\n    dys +=  (uint8(x509Time[offset+4])-48)*10 + uint8(x509Time[offset+5])-48;\r\n    hrs +=  (uint8(x509Time[offset+6])-48)*10 + uint8(x509Time[offset+7])-48;\r\n    mins += (uint8(x509Time[offset+8])-48)*10 + uint8(x509Time[offset+9])-48;\r\n    secs += (uint8(x509Time[offset+10])-48)*10 + uint8(x509Time[offset+11])-48;\r\n\r\n    return dateTime.toTimestamp(yrs, mnths, dys, hrs, mins, secs);\r\n  }\r\n\r\n  function toEnsNamehash(bytes memory dn)\r\n  private pure returns (bytes32)\r\n  {\r\n    // if common name starts with 'www.'\r\n    if (dn[0] == 0x77 && dn[1] == 0x77 && dn[2] == 0x77 && dn[3] == 0x2e)\r\n      // omit 'www.'\r\n      return dn.substring(4, dn.length-4).namehash();\r\n\r\n    return dn.namehash();\r\n  }\r\n\r\n  function setAlg(bytes32 oid, address alg)\r\n  public onlyOwner\r\n  {\r\n    algs[oid] = Algorithm(alg);\r\n    emit AlgSet(oid, alg);\r\n  }\r\n\r\n  function setCshxOid(bytes32 _cshxOid)\r\n  public onlyOwner\r\n  {\r\n    cshxOid = _cshxOid;\r\n  }\r\n}\r\n",
  "sourcePath": "/home/jonah/x509-forest-of-trust/contracts/X509ForestOfTrust.sol",
  "compiler": {
    "name": "solc",
    "version": "0.5.2+commit.1df8f40c.Emscripten.clang"
  },
  "schemaVersion": "3.0.1",
  "updatedAt": "2019-01-31T00:02:57.950Z",
  "devdoc": {
    "methods": {
      "proveOwnership(bytes32,bytes,uint256,bytes32)": {
        "details": "An account calls this method to prove ownership of a certificate.\r     If successful, certs[certId].owner will be set to caller's address.\r",
        "params": {
          "blockNumber": "The value of signThis()[1] (must be > block.number - 256)\r",
          "certId": "The keccak256 hash of target certificate's public key\r",
          "sigAlg": "The OID of the algorithm used to sign `signature`\r",
          "signature": "signThis()[0] signed with certificate's private key\r"
        }
      },
      "signThis()": {
        "details": "The return values of this function are used to proveOwnership() of a\r     certificate that exists in the certs mapping.\r",
        "return": "Some unique bytes to be signed\rThe block number used to create the first return value\r"
      }
    }
  },
  "userdoc": {
    "methods": {}
  }
}