{
  "contractName": "X509InTreeForestOfTrust",
  "abi": [
    {
      "constant": true,
      "inputs": [],
      "name": "LOCATION_VALID_NOT_AFTER",
      "outputs": [
        {
          "name": "",
          "type": "bytes"
        }
      ],
      "payable": false,
      "stateMutability": "view",
      "type": "function"
    },
    {
      "constant": true,
      "inputs": [],
      "name": "LOCATION_SERIAL_NUMBER",
      "outputs": [
        {
          "name": "",
          "type": "bytes"
        }
      ],
      "payable": false,
      "stateMutability": "view",
      "type": "function"
    },
    {
      "constant": true,
      "inputs": [],
      "name": "COMMON_NAME",
      "outputs": [
        {
          "name": "",
          "type": "bytes"
        }
      ],
      "payable": false,
      "stateMutability": "view",
      "type": "function"
    },
    {
      "constant": true,
      "inputs": [],
      "name": "LOCATION_VALID_NOT_BEFORE",
      "outputs": [
        {
          "name": "",
          "type": "bytes"
        }
      ],
      "payable": false,
      "stateMutability": "view",
      "type": "function"
    },
    {
      "constant": true,
      "inputs": [],
      "name": "LOCATION_PUB_KEY",
      "outputs": [
        {
          "name": "",
          "type": "bytes"
        }
      ],
      "payable": false,
      "stateMutability": "view",
      "type": "function"
    },
    {
      "anonymous": false,
      "inputs": [
        {
          "indexed": false,
          "name": "certId",
          "type": "bytes32"
        },
        {
          "indexed": false,
          "name": "sn",
          "type": "bytes32"
        }
      ],
      "name": "CertificateAdded",
      "type": "event"
    },
    {
      "anonymous": false,
      "inputs": [
        {
          "indexed": false,
          "name": "certId",
          "type": "bytes32"
        }
      ],
      "name": "CertificateClaimed",
      "type": "event"
    },
    {
      "constant": false,
      "inputs": [
        {
          "name": "tbsCertificate",
          "type": "bytes"
        },
        {
          "name": "signature",
          "type": "bytes"
        },
        {
          "name": "signersPubKey",
          "type": "bytes"
        },
        {
          "name": "verifier",
          "type": "address"
        }
      ],
      "name": "addCertificate",
      "outputs": [
        {
          "name": "",
          "type": "bool"
        }
      ],
      "payable": false,
      "stateMutability": "nonpayable",
      "type": "function"
    },
    {
      "constant": true,
      "inputs": [],
      "name": "signThis",
      "outputs": [
        {
          "name": "",
          "type": "bytes32"
        },
        {
          "name": "",
          "type": "uint256"
        }
      ],
      "payable": false,
      "stateMutability": "view",
      "type": "function"
    },
    {
      "constant": false,
      "inputs": [
        {
          "name": "certId",
          "type": "bytes32"
        },
        {
          "name": "signature",
          "type": "bytes"
        },
        {
          "name": "blockNumber",
          "type": "uint256"
        }
      ],
      "name": "proveOwnership",
      "outputs": [
        {
          "name": "",
          "type": "bool"
        }
      ],
      "payable": false,
      "stateMutability": "nonpayable",
      "type": "function"
    },
    {
      "constant": true,
      "inputs": [
        {
          "name": "certId",
          "type": "bytes32"
        }
      ],
      "name": "tbsCertificate",
      "outputs": [
        {
          "name": "",
          "type": "bytes"
        }
      ],
      "payable": false,
      "stateMutability": "view",
      "type": "function"
    },
    {
      "constant": true,
      "inputs": [
        {
          "name": "referenceHash",
          "type": "bytes32"
        }
      ],
      "name": "certId",
      "outputs": [
        {
          "name": "",
          "type": "bytes32[]"
        }
      ],
      "payable": false,
      "stateMutability": "view",
      "type": "function"
    }
  ],
  "bytecode": "0x608060405234801561001057600080fd5b50612bb4806100206000396000f3006080604052600436106100a4576000357c0100000000000000000000000000000000000000000000000000000000900463ffffffff1680631d357890146100a957806351c74a9e1461013957806358f63b45146102665780635fdd22c7146102f657806370475f4a1461038657806376575742146104305780637c0656fd146104b65780637dec8a3d146104f05780638b69449114610580578063f077b55c14610610575b600080fd5b3480156100b557600080fd5b506100be61067b565b6040518080602001828103825283818151815260200191508051906020019080838360005b838110156100fe5780820151818401526020810190506100e3565b50505050905090810190601f16801561012b5780820380516001836020036101000a031916815260200191505b509250505060405180910390f35b34801561014557600080fd5b5061024c600480360381019080803590602001908201803590602001908080601f0160208091040260200160405190810160405280939291908181526020018383808284378201915050505050509192919290803590602001908201803590602001908080601f0160208091040260200160405190810160405280939291908181526020018383808284378201915050505050509192919290803590602001908201803590602001908080601f0160208091040260200160405190810160405280939291908181526020018383808284378201915050505050509192919290803573ffffffffffffffffffffffffffffffffffffffff1690602001909291905050506106b3565b604051808215151515815260200191505060405180910390f35b34801561027257600080fd5b5061027b61241b565b6040518080602001828103825283818151815260200191508051906020019080838360005b838110156102bb5780820151818401526020810190506102a0565b50505050905090810190601f1680156102e85780820380516001836020036101000a031916815260200191505b509250505060405180910390f35b34801561030257600080fd5b5061030b612453565b6040518080602001828103825283818151815260200191508051906020019080838360005b8381101561034b578082015181840152602081019050610330565b50505050905090810190601f1680156103785780820380516001836020036101000a031916815260200191505b509250505060405180910390f35b34801561039257600080fd5b506103b5600480360381019080803560001916906020019092919050505061248c565b6040518080602001828103825283818151815260200191508051906020019080838360005b838110156103f55780820151818401526020810190506103da565b50505050905090810190601f1680156104225780820380516001836020036101000a031916815260200191505b509250505060405180910390f35b34801561043c57600080fd5b5061045f600480360381019080803560001916906020019092919050505061254b565b6040518080602001828103825283818151815260200191508051906020019060200280838360005b838110156104a2578082015181840152602081019050610487565b505050509050019250505060405180910390f35b3480156104c257600080fd5b506104cb6125c2565b6040518083600019166000191681526020018281526020019250505060405180910390f35b3480156104fc57600080fd5b506105056126a2565b6040518080602001828103825283818151815260200191508051906020019080838360005b8381101561054557808201518184015260208101905061052a565b50505050905090810190601f1680156105725780820380516001836020036101000a031916815260200191505b509250505060405180910390f35b34801561058c57600080fd5b506105956126da565b6040518080602001828103825283818151815260200191508051906020019080838360005b838110156105d55780820151818401526020810190506105ba565b50505050905090810190601f1680156106025780820380516001836020036101000a031916815260200191505b509250505060405180910390f35b34801561061c57600080fd5b50610661600480360381019080803560001916906020019092919080359060200190820180359060200191909192939192939080359060200190929190505050612712565b604051808215151515815260200191505060405180910390f35b6040805190810160405280600581526020017e0204010100000000000000000000000000000000000000000000000000000081525081565b6000806000606060008060008773ffffffffffffffffffffffffffffffffffffffff1663de8f50a18a8d8d6040518463ffffffff167c010000000000000000000000000000000000000000000000000000000002815260040180806020018060200180602001848103845287818151815260200191508051906020019080838360005b83811015610751578082015181840152602081019050610736565b50505050905090810190601f16801561077e5780820380516001836020036101000a031916815260200191505b50848103835286818151815260200191508051906020019080838360005b838110156107b757808201518184015260208101905061079c565b50505050905090810190601f1680156107e45780820380516001836020036101000a031916815260200191505b50848103825285818151815260200191508051906020019080838360005b8381101561081d578082015181840152602081019050610802565b50505050905090810190601f16801561084a5780820380516001836020036101000a031916815260200191505b509650505050505050602060405180830381600087803b15801561086d57600080fd5b505af1158015610881573d6000803e3d6000fd5b505050506040513d602081101561089757600080fd5b810190808051906020019092919050505015156108b357600080fd5b73__Asn1Decode____________________________633f65f7558c6040805190810160405280600381526020017e020100000000000000000000000000000000000000000000000000000000008152506040518363ffffffff167c0100000000000000000000000000000000000000000000000000000000028152600401808060200180602001838103835285818151815260200191508051906020019080838360005b83811015610972578082015181840152602081019050610957565b50505050905090810190601f16801561099f5780820380516001836020036101000a031916815260200191505b50838103825284818151815260200191508051906020019080838360005b838110156109d85780820151818401526020810190506109bd565b50505050905090810190601f168015610a055780820380516001836020036101000a031916815260200191505b5094505050505060206040518083038186803b158015610a2457600080fd5b505af4158015610a38573d6000803e3d6000fd5b505050506040513d6020811015610a4e57600080fd5b8101908080519060200190929190505050925073__Asn1Decode____________________________636ff247018473__Asn1Decode____________________________635361618090918f6040518363ffffffff167c01000000000000000000000000000000000000000000000000000000000281526004018083815260200180602001828103825283818151815260200191508051906020019080838360005b83811015610b0a578082015181840152602081019050610aef565b50505050905090810190601f168015610b375780820380516001836020036101000a031916815260200191505b50935050505060006040518083038186803b158015610b5557600080fd5b505af4158015610b69573d6000803e3d6000fd5b505050506040513d6000823e3d601f19601f820116820180604052506020811015610b9357600080fd5b810190808051640100000000811115610bab57600080fd5b82810190506020810184811115610bc157600080fd5b8151856001820283011164010000000082111715610bde57600080fd5b50509291905050506040518263ffffffff167c01000000000000000000000000000000000000000000000000000000000281526004018080602001828103825283818151815260200191508051906020019080838360005b83811015610c51578082015181840152602081019050610c36565b50505050905090810190601f168015610c7e5780820380516001836020036101000a031916815260200191505b509250505060206040518083038186803b158015610c9b57600080fd5b505af4158015610caf573d6000803e3d6000fd5b505050506040513d6020811015610cc557600080fd5b810190808051906020019092919050505060010294508273__Asn1Decode____________________________63bc3b643f90918d6040518363ffffffff167c01000000000000000000000000000000000000000000000000000000000281526004018083815260200180602001828103825283818151815260200191508051906020019080838360005b83811015610d6a578082015181840152602081019050610d4f565b50505050905090810190601f168015610d975780820380516001836020036101000a031916815260200191505b50935050505060206040518083038186803b158015610db557600080fd5b505af4158015610dc9573d6000803e3d6000fd5b505050506040513d6020811015610ddf57600080fd5b810190808051906020019092919050505092508273__Asn1Decode____________________________63bc3b643f90918d6040518363ffffffff167c01000000000000000000000000000000000000000000000000000000000281526004018083815260200180602001828103825283818151815260200191508051906020019080838360005b83811015610e81578082015181840152602081019050610e66565b50505050905090810190601f168015610eae5780820380516001836020036101000a031916815260200191505b50935050505060206040518083038186803b158015610ecc57600080fd5b505af4158015610ee0573d6000803e3d6000fd5b505050506040513d6020811015610ef657600080fd5b810190808051906020019092919050505092508273__Asn1Decode____________________________63bc3b643f90918d6040518363ffffffff167c01000000000000000000000000000000000000000000000000000000000281526004018083815260200180602001828103825283818151815260200191508051906020019080838360005b83811015610f98578082015181840152602081019050610f7d565b50505050905090810190601f168015610fc55780820380516001836020036101000a031916815260200191505b50935050505060206040518083038186803b158015610fe357600080fd5b505af4158015610ff7573d6000803e3d6000fd5b505050506040513d602081101561100d57600080fd5b810190808051906020019092919050505092508273__Asn1Decode____________________________63e383daf990918d6040518363ffffffff167c01000000000000000000000000000000000000000000000000000000000281526004018083815260200180602001828103825283818151815260200191508051906020019080838360005b838110156110af578082015181840152602081019050611094565b50505050905090810190601f1680156110dc5780820380516001836020036101000a031916815260200191505b50935050505060206040518083038186803b1580156110fa57600080fd5b505af415801561110e573d6000803e3d6000fd5b505050506040513d602081101561112457600080fd5b810190808051906020019092919050505091508173__Asn1Decode____________________________63bc3b643f90918d6040518363ffffffff167c01000000000000000000000000000000000000000000000000000000000281526004018083815260200180602001828103825283818151815260200191508051906020019080838360005b838110156111c65780820151818401526020810190506111ab565b50505050905090810190601f1680156111f35780820380516001836020036101000a031916815260200191505b50935050505060206040518083038186803b15801561121157600080fd5b505af4158015611225573d6000803e3d6000fd5b505050506040513d602081101561123b57600080fd5b810190808051906020019092919050505091508273__Asn1Decode____________________________63bc3b643f90918d6040518363ffffffff167c01000000000000000000000000000000000000000000000000000000000281526004018083815260200180602001828103825283818151815260200191508051906020019080838360005b838110156112dd5780820151818401526020810190506112c2565b50505050905090810190601f16801561130a5780820380516001836020036101000a031916815260200191505b50935050505060206040518083038186803b15801561132857600080fd5b505af415801561133c573d6000803e3d6000fd5b505050506040513d602081101561135257600080fd5b810190808051906020019092919050505092508273__Asn1Decode____________________________63e383daf990918d6040518363ffffffff167c01000000000000000000000000000000000000000000000000000000000281526004018083815260200180602001828103825283818151815260200191508051906020019080838360005b838110156113f45780820151818401526020810190506113d9565b50505050905090810190601f1680156114215780820380516001836020036101000a031916815260200191505b50935050505060206040518083038186803b15801561143f57600080fd5b505af4158015611453573d6000803e3d6000fd5b505050506040513d602081101561146957600080fd5b810190808051906020019092919050505091505b8173__Asn1Decode____________________________63d24654089091856040518363ffffffff167c0100000000000000000000000000000000000000000000000000000000028152600401808381526020018281526020019250505060206040518083038186803b1580156114f257600080fd5b505af4158015611506573d6000803e3d6000fd5b505050506040513d602081101561151c57600080fd5b810190808051906020019092919050505015611d78578173__Asn1Decode____________________________63e383daf990918d6040518363ffffffff167c01000000000000000000000000000000000000000000000000000000000281526004018083815260200180602001828103825283818151815260200191508051906020019080838360005b838110156115c15780820151818401526020810190506115a6565b50505050905090810190601f1680156115ee5780820380516001836020036101000a031916815260200191505b50935050505060206040518083038186803b15801561160c57600080fd5b505af4158015611620573d6000803e3d6000fd5b505050506040513d602081101561163657600080fd5b810190808051906020019092919050505090508073__Asn1Decode____________________________63e383daf990918d6040518363ffffffff167c01000000000000000000000000000000000000000000000000000000000281526004018083815260200180602001828103825283818151815260200191508051906020019080838360005b838110156116d85780820151818401526020810190506116bd565b50505050905090810190601f1680156117055780820380516001836020036101000a031916815260200191505b50935050505060206040518083038186803b15801561172357600080fd5b505af4158015611737573d6000803e3d6000fd5b505050506040513d602081101561174d57600080fd5b810190808051906020019092919050505090506040805190810160405280600381526020017f55040300000000000000000000000000000000000000000000000000000000008152506040518082805190602001908083835b6020831015156117cb57805182526020820191506020810190506020830392506117a6565b6001836020036101000a0380198251168184511680821785525050505050509050019150506040518091039020600019168173__Asn1Decode____________________________635361618090918e6040518363ffffffff167c01000000000000000000000000000000000000000000000000000000000281526004018083815260200180602001828103825283818151815260200191508051906020019080838360005b8381101561188b578082015181840152602081019050611870565b50505050905090810190601f1680156118b85780820380516001836020036101000a031916815260200191505b50935050505060006040518083038186803b1580156118d657600080fd5b505af41580156118ea573d6000803e3d6000fd5b505050506040513d6000823e3d601f19601f82011682018060405250602081101561191457600080fd5b81019080805164010000000081111561192c57600080fd5b8281019050602081018481111561194257600080fd5b815185600182028301116401000000008211171561195f57600080fd5b50509291905050506040518082805190602001908083835b60208310151561199c5780518252602082019150602081019050602083039250611977565b6001836020036101000a0380198251168184511680821785525050505050509050019150506040518091039020600019161415611c5c578073__Asn1Decode____________________________63bc3b643f90918d6040518363ffffffff167c01000000000000000000000000000000000000000000000000000000000281526004018083815260200180602001828103825283818151815260200191508051906020019080838360005b83811015611a62578082015181840152602081019050611a47565b50505050905090810190601f168015611a8f5780820380516001836020036101000a031916815260200191505b50935050505060206040518083038186803b158015611aad57600080fd5b505af4158015611ac1573d6000803e3d6000fd5b505050506040513d6020811015611ad757600080fd5b810190808051906020019092919050505090508073__Asn1Decode____________________________635361618090918d6040518363ffffffff167c01000000000000000000000000000000000000000000000000000000000281526004018083815260200180602001828103825283818151815260200191508051906020019080838360005b83811015611b79578082015181840152602081019050611b5e565b50505050905090810190601f168015611ba65780820380516001836020036101000a031916815260200191505b50935050505060006040518083038186803b158015611bc457600080fd5b505af4158015611bd8573d6000803e3d6000fd5b505050506040513d6000823e3d601f19601f820116820180604052506020811015611c0257600080fd5b810190808051640100000000811115611c1a57600080fd5b82810190506020810184811115611c3057600080fd5b8151856001820283011164010000000082111715611c4d57600080fd5b50509291905050509350611d78565b8173__Asn1Decode____________________________63bc3b643f90918d6040518363ffffffff167c01000000000000000000000000000000000000000000000000000000000281526004018083815260200180602001828103825283818151815260200191508051906020019080838360005b83811015611ceb578082015181840152602081019050611cd0565b50505050905090810190601f168015611d185780820380516001836020036101000a031916815260200191505b50935050505060206040518083038186803b158015611d3657600080fd5b505af4158015611d4a573d6000803e3d6000fd5b505050506040513d6020811015611d6057600080fd5b8101908080519060200190929190505050915061147d565b8273__Asn1Decode____________________________63bc3b643f90918d6040518363ffffffff167c01000000000000000000000000000000000000000000000000000000000281526004018083815260200180602001828103825283818151815260200191508051906020019080838360005b83811015611e07578082015181840152602081019050611dec565b50505050905090810190601f168015611e345780820380516001836020036101000a031916815260200191505b50935050505060206040518083038186803b158015611e5257600080fd5b505af4158015611e66573d6000803e3d6000fd5b505050506040513d6020811015611e7c57600080fd5b810190808051906020019092919050505092508273__Asn1Decode____________________________632b2e939c90918d6040518363ffffffff167c01000000000000000000000000000000000000000000000000000000000281526004018083815260200180602001828103825283818151815260200191508051906020019080838360005b83811015611f1e578082015181840152602081019050611f03565b50505050905090810190601f168015611f4b5780820380516001836020036101000a031916815260200191505b50935050505060006040518083038186803b158015611f6957600080fd5b505af4158015611f7d573d6000803e3d6000fd5b505050506040513d6000823e3d601f19601f820116820180604052506020811015611fa757600080fd5b810190808051640100000000811115611fbf57600080fd5b82810190506020810184811115611fd557600080fd5b8151856001820283011164010000000082111715611ff257600080fd5b50509291905050506040518082805190602001908083835b60208310151561202f578051825260208201915060208101905060208303925061200a565b6001836020036101000a0380198251168184511680821785525050505050509050019150506040518091039020955060006001026000808860001916600019168152602001908152602001600020600301546000191614151561209157600080fd5b8273__Asn1Decode____________________________632b2e939c90918d6040518363ffffffff167c01000000000000000000000000000000000000000000000000000000000281526004018083815260200180602001828103825283818151815260200191508051906020019080838360005b83811015612120578082015181840152602081019050612105565b50505050905090810190601f16801561214d5780820380516001836020036101000a031916815260200191505b50935050505060006040518083038186803b15801561216b57600080fd5b505af415801561217f573d6000803e3d6000fd5b505050506040513d6000823e3d601f19601f8201168201806040525060208110156121a957600080fd5b8101908080516401000000008111156121c157600080fd5b828101905060208101848111156121d757600080fd5b81518560018202830111640100000000821117156121f457600080fd5b50509291905050506000808860001916600019168152602001908152602001600020600501908051906020019061222c929190612ae3565b5087600080886000191660001916815260200190815260200160002060000160006101000a81548173ffffffffffffffffffffffffffffffffffffffff021916908373ffffffffffffffffffffffffffffffffffffffff160217905550886040518082805190602001908083835b6020831015156122bf578051825260208201915060208101905060208303925061229a565b6001836020036101000a03801982511681845116808217855250505050505090500191505060405180910390206000808860001916600019168152602001908152602001600020600401816000191690555060016000856040518082805190602001908083835b60208310151561234b5780518252602082019150602081019050602083039250612326565b6001836020036101000a0380198251168184511680821785525050505050509050019150506040518091039020600019166000191681526020019081526020016000208690806001815401808255809150509060018203906000526020600020016000909192909190915090600019169055507f4c2de5bcbdabc93b4db327ecaa4e6cc37be7c4259409e632f97a145e53f04064868660405180836000191660001916815260200182600019166000191681526020019250505060405180910390a1505050505050949350505050565b6040805190810160405280600381526020017e0201000000000000000000000000000000000000000000000000000000000081525081565b6040805190810160405280600381526020017f550403000000000000000000000000000000000000000000000000000000000081525081565b606060008083600019166000191681526020019081526020016000206006018054600181600116156101000203166002900480601f01602080910402602001604051908101604052809291908181526020018280546001816001161561010002031660029004801561253f5780601f106125145761010080835404028352916020019161253f565b820191906000526020600020905b81548152906001019060200180831161252257829003601f168201915b50505050509050919050565b60606001600083600019166000191681526020019081526020016000208054806020026020016040519081016040528092919081815260200182805480156125b657602002820191906000526020600020905b8154600019168152602001906001019080831161259e575b50505050509050919050565b600080336001430340604051602001808373ffffffffffffffffffffffffffffffffffffffff1673ffffffffffffffffffffffffffffffffffffffff166c010000000000000000000000000281526014018260001916600019168152602001925050506040516020818303038152906040526040518082805190602001908083835b6020831015156126695780518252602082019150602081019050602083039250612644565b6001836020036101000a038019825116818451168082178552505050505050905001915050604051809103902060014303915091509091565b6040805190810160405280600481526020017e0204010000000000000000000000000000000000000000000000000000000081525081565b6040805190810160405280600381526020017e0206000000000000000000000000000000000000000000000000000000000081525081565b600060606116808343031115151561272957600080fd5b338340604051602001808373ffffffffffffffffffffffffffffffffffffffff1673ffffffffffffffffffffffffffffffffffffffff166c010000000000000000000000000281526014018260001916600019168152602001925050506040516020818303038152906040526040518082805190602001908083835b6020831015156127ca57805182526020820191506020810190506020830392506127a5565b6001836020036101000a03801982511681845116808217855250505050505090500191505060405180910390206040516020018082600019166000191681526020019150506040516020818303038152906040529050600080876000191660001916815260200190815260200160002060000160009054906101000a900473ffffffffffffffffffffffffffffffffffffffff1673ffffffffffffffffffffffffffffffffffffffff1663de8f50a160008089600019166000191681526020019081526020016000206005018388886040518563ffffffff167c0100000000000000000000000000000000000000000000000000000000028152600401808060200180602001806020018481038452888181546001816001161561010002031660029004815260200191508054600181600116156101000203166002900480156129555780601f1061292a57610100808354040283529160200191612955565b820191906000526020600020905b81548152906001019060200180831161293857829003601f168201915b5050848103835287818151815260200191508051906020019080838360005b8381101561298f578082015181840152602081019050612974565b50505050905090810190601f1680156129bc5780820380516001836020036101000a031916815260200191505b5084810382528686828181526020019250808284378201915050975050505050505050602060405180830381600087803b1580156129f957600080fd5b505af1158015612a0d573d6000803e3d6000fd5b505050506040513d6020811015612a2357600080fd5b81019080805190602001909291905050501515612a3f57600080fd5b33600080886000191660001916815260200190815260200160002060010160006101000a81548173ffffffffffffffffffffffffffffffffffffffff021916908373ffffffffffffffffffffffffffffffffffffffff1602179055507f496b4978082948af9da31de5b56f44a896deab3b3b475866adbcd240a7cd731d8660405180826000191660001916815260200191505060405180910390a150949350505050565b828054600181600116156101000203166002900490600052602060002090601f016020900481019282601f10612b2457805160ff1916838001178555612b52565b82800160010185558215612b52579182015b82811115612b51578251825591602001919060010190612b36565b5b509050612b5f9190612b63565b5090565b612b8591905b80821115612b81576000816000905550600101612b69565b5090565b905600a165627a7a72305820646eee7a45514bd5abb30ae5b60ebe341cdb07112f6e064285838776df3474180029",
  "source": "pragma solidity  ^0.4.25;\r\n\r\nimport \"asn1-decode/contracts/Asn1Decode.sol\";\r\nimport \"sig-verify-algs/contracts/Algorithm.sol\";\r\n\r\ncontract X509InTreeForestOfTrust {\r\n  using Asn1Decode for uint;\r\n\r\n  struct Certificate {\r\n    address verifiedBy;\r\n    address owner;\r\n    bytes32 ens;\r\n    bytes32 revokedBy;\r\n    bytes32 parent;\r\n    bytes pubKey;\r\n    bytes tbsCertificate;\r\n    bytes signature;\r\n    uint validNotBefore;\r\n    uint validNotAfter;\r\n    bool canSignHttpExchanges;\r\n  }\r\n  mapping (bytes32 => Certificate) private certs;\r\n  mapping (bytes32 => bytes32[]) private certIds;\r\n\r\n  event CertificateAdded(bytes32 certId, bytes32 sn);\r\n  event CertificateClaimed(bytes32 certId);\r\n\r\n  bytes constant public COMMON_NAME = \"\\x55\\x04\\x03\";\r\n  // shortcuts to commonly used X509 nodes\r\n  bytes constant public LOCATION_SERIAL_NUMBER = '\\x00\\x02\\x01';\r\n  bytes constant public LOCATION_PUB_KEY = '\\x00\\x02\\x06';\r\n  bytes constant public LOCATION_VALID_NOT_BEFORE = '\\x00\\x02\\x04\\x01';\r\n  bytes constant public LOCATION_VALID_NOT_AFTER = '\\x00\\x02\\x04\\x01\\x01';\r\n\r\n\r\n  /* TODO add function to set certificate\r\n  function rovokeCertificate(bytes certificateRevocation, bytes signature, bytes32 authorityCertificateId)\r\n  /*\r\n   * NOTICE: This function is currently unfinished. Needs to extract\r\n   * validNotBefore and validNotAfter and initialize the certificate with those\r\n   * values too!! (shouldn't take much work).\r\n   *\r\n   * Adds a X509 certificate to the certs mapping, which is indexed on\r\n   * certId (the keccak256 hash of its public key). Anyone can call this\r\n   * method so long as they have the funds to cover the transaction. The\r\n   * certificate must be signed and valid (but not nessisarily by any existing\r\n   * certs in the mapping). Certificates may be self-signed. The idea is\r\n   * to pulicise a verified chain of trust on the blockchain that can be\r\n   * referenced by other contracts.\r\n   *\r\n   * @param tbsCertificate The entire tbsCertificate node of the der-encoded\r\n   *        X509 certificate.\r\n   * @param signature The signed sha256 hash of (DER-encoded) tbsCertificate (signed with\r\n   *        signersPubKey param). Should be found in same X509 cert as tbsCertificate\r\n   * @param signersPubKey The DER-encoded node of the public key used to sign\r\n   *        the signature param.\r\n   */\r\n  function addCertificate(bytes tbsCertificate, bytes signature, bytes signersPubKey, address verifier) public returns (bool){\r\n    bytes32 certId;\r\n    bytes32 serialNumber;\r\n    bytes memory commonName;\r\n    uint node1;\r\n    uint node2;\r\n    uint node3;\r\n\r\n    // Verify signature\r\n    require( Algorithm(verifier).verify(signersPubKey, tbsCertificate, signature) );\r\n\r\n    // Extract serial number from tbsCertificate\r\n    node1 = Asn1Decode.traverse(tbsCertificate, LOCATION_SERIAL_NUMBER);\r\n    serialNumber = bytes32(Asn1Decode.decodeUint(node1.getValue(tbsCertificate)));\r\n\r\n    node1 = node1.next(tbsCertificate);\r\n    node1 = node1.next(tbsCertificate);\r\n    node1 = node1.next(tbsCertificate);\r\n    node2 = node1.firstChild(tbsCertificate);\r\n    // get validNotBefore\r\n    node2 = node2.next(tbsCertificate);\r\n    // get validNotAfter\r\n\r\n    node1 = node1.next(tbsCertificate);\r\n    node2 = node1.firstChild(tbsCertificate);\r\n    while (node2.isChildOf(node1)) {\r\n      node3 = node2.firstChild(tbsCertificate);\r\n      node3 = node3.firstChild(tbsCertificate);\r\n      if ( keccak256(node3.getValue(tbsCertificate)) == keccak256(COMMON_NAME) ) {\r\n        node3 = node3.next(tbsCertificate);\r\n        commonName = node3.getValue(tbsCertificate); // Make sure this translates from bytes to string correctly\r\n        break;\r\n      }\r\n      node2 = node2.next(tbsCertificate);\r\n    }\r\n\r\n    node1 = node1.next(tbsCertificate);\r\n    // Extract public key and calculate certId from it\r\n    certId = keccak256(node1.getAll(tbsCertificate));\r\n\r\n    // Revoked certs may not be written over\r\n    require( certs[certId].revokedBy == 0 );\r\n\r\n    // Add certificate to certs mapping\r\n    certs[certId].pubKey = node1.getAll(tbsCertificate);\r\n    certs[certId].verifiedBy = verifier;\r\n    certs[certId].parent = keccak256(signersPubKey);\r\n\r\n    // Add common name to certIds mapping\r\n    certIds[keccak256(commonName)].push(certId);\r\n\r\n    // Fire event\r\n    emit CertificateAdded(certId, serialNumber);\r\n  }\r\n\r\n  /*\r\n   * Adds a reference to certIds mapping. Reference must go to a\r\n   * certId of an existing certificate. The reference (the key) is from\r\n   * the keccak256 hash of the node at keyLocation of certs[certId]\r\n   * to certId.\r\n   *\r\n   * @param certifiacateId The certId to which we are adding a reference.\r\n   *        (must be the certId of a certificate in certs mapping)\r\n   * @param keyLocation The traversal instructions for the desired node from which\r\n   *        the reference key is derived. Same encoding as \"location\" param in\r\n   *        traverse() function.\r\n   */\r\n  /* function addReference(bytes32 certId, bytes keyLocation) public {\r\n    uint node;\r\n    bytes memory v;\r\n\r\n    node = Asn1Decode.traverse(certs[certId].tbsCertificate, keyLocation);\r\n    v = node.getValue(certs[certId].tbsCertificate);\r\n    certIds[keccak256(v)].push(certId);\r\n  } */\r\n\r\n  /**\r\n   * The return values of this function are used to proveOwnership() of a\r\n   * certificate that exists in the certs mapping.\r\n\r\n   * @return A unique keccak256 hash to be signed\r\n   * @return The block number used in the hash\r\n   */\r\n  function signThis() external view returns (bytes32, uint) {\r\n    return ( keccak256(abi.encodePacked(msg.sender, blockhash(block.number - 1))), block.number -1 );\r\n  }\r\n\r\n  /**\r\n   * An eth account calls this method to prove ownership of a certificate in\r\n   * certs mapping. If successful, certs[certId].owner will\r\n   * be set to the caller's address. To change owner of a cert, this method must\r\n   *  be called from the new desired owner address.\r\n   *\r\n   * @param certId The keccak256 hash of target certificate's public key\r\n   * @param signature The RSA signature of the first return value of signThis()\r\n   * @param blockNumber The second return value of signThis() (must be >= block.number - 5760)\r\n   */\r\n  function proveOwnership(bytes32 certId, bytes signature, uint blockNumber) external returns (bool){\r\n    bytes memory message;\r\n\r\n    // Only accept proof if it's less than about one day old (at 15sec/block)\r\n    require( block.number - blockNumber <= 5760 );\r\n\r\n    // Verify signature, which proves ownership\r\n    message = abi.encodePacked(keccak256(abi.encodePacked(msg.sender, blockhash(blockNumber))));\r\n    require( Algorithm(certs[certId].verifiedBy).verify(certs[certId].pubKey, message, signature) );\r\n\r\n    certs[certId].owner = msg.sender;\r\n\r\n    emit CertificateClaimed(certId);\r\n  }\r\n\r\n  function ensNameHash(bytes memory name) private pure returns (bytes32) {\r\n    bytes memory prefix;\r\n    bytes memory rest;\r\n    uint8 i;\r\n    uint8 j;\r\n\r\n    // base case\r\n    if (name.length == 0) { return 0x0000000000000000000000000000000000000000000000000000000000000000; }\r\n\r\n    // Find index of delimiter\r\n    while(name[i] != \".\" && i < name.length) {\r\n      i++;\r\n    }\r\n\r\n    prefix = new bytes(i);\r\n    if (i >= name.length) {\r\n      rest = new bytes(0);\r\n    } else {\r\n      rest = new bytes(name.length-1 - i);\r\n    }\r\n\r\n    for(j=0; j<i; j++) {\r\n      prefix[j] = name[j];\r\n    }\r\n    if (i < name.length) {\r\n      for(j=0; j<name.length-1 - i; j++) {\r\n        rest[j] = name[i+1 + j];\r\n      }\r\n    }\r\n\r\n    return keccak256(abi.encodePacked(ensNameHash(rest), keccak256(prefix)));\r\n  }\r\n\r\n  /* not finished, hasnt been tested at all. most likely does not work in current state\r\n  function decodeTime(bytes x509Time) internal pure returns (uint) {\r\n    uint time;\r\n    uint i;\r\n    uint256[12] memory daysInMonth = [31, 28, 31, 30, 31, 30, 31, 31, 30, 31, 30, 31];\r\n    uint offset = 0;\r\n\r\n    // years\r\n    if (x509Time.length == 13) {\r\n      if (uint(x509Time[0]) < 5) {\r\n        time += 2000;\r\n      } else {\r\n        time += 1900;\r\n      }\r\n    } else {\r\n      time += uint(x509Time[0]) * 1000 + uint(x509Time[1]) * 100;\r\n      offset = 2;\r\n    }\r\n    time += uint(x509Time[offset+0]) * 10 + uint(x509Time[offset+1]);\r\n    // The year must be >= 1972 for the following calculations to work\r\n    require( time >= 1972 );\r\n    if (time % 4 == 0) daysInMonth[1]++;\r\n    time -= 1970; // minus unix epoch year\r\n    // months\r\n    time *= 12;\r\n    time += uint(x509Time[offset+2]) * 10 + uint(x509Time[offset+3]);\r\n    //days\r\n    time = 365 + 366 + ( (time/12-2)/4 * 366 + (((time/12-2) - (time/12-2)/4)) * 365 );\r\n    for (i=0; i<uint(x509Time[offset+2])*10 + uint(x509Time[offset+3]); i++) { // for the number of months since January\r\n      time += daysInMonth[i];\r\n    }\r\n    time += uint(x509Time[offset+4])*10 + uint(x509Time[offset+5]);\r\n    // hours\r\n    time *= 24;\r\n    time += uint(x509Time[offset+6])*10 + uint(x509Time[offset+7]);\r\n    // Minutes\r\n    time *= 60;\r\n    time += uint(x509Time[offset+8])*10 + uint(x509Time[offset+9]);\r\n    // Seconds\r\n    time *= 60;\r\n    time += uint(x509Time[offset+10])*10 + uint(x509Time[offset+11]);\r\n\r\n    ...return time in seconds since unix epoch\r\n\r\n  }\r\n  */\r\n  /* function certificate(bytes32 certId) public view returns (Certificate) {\r\n    return certs[certId];\r\n  } */\r\n\r\n  // For testing. Also, make sure the new web3 can handle structs (unlike the old)\r\n  function tbsCertificate(bytes32 certId) public view returns (bytes) {\r\n    return certs[certId].tbsCertificate;\r\n  }\r\n\r\n  function certId(bytes32 referenceHash) public view returns (bytes32[]) {\r\n    return certIds[referenceHash];\r\n  }\r\n}\r\n",
  "sourcePath": "/home/jonah/x509-forest-of-trust/contracts/X509InTreeForestOfTrust.sol",
  "compiler": {
    "name": "solc",
    "version": "0.4.25+commit.59dbf8f1.Emscripten.clang"
  },
  "schemaVersion": "3.0.0-beta.1",
  "updatedAt": "2018-11-21T23:57:37.961Z"
}