{
  "contractName": "X509InTreeForestOfTrust",
  "abi": [
    {
      "constant": false,
      "inputs": [
        {
          "name": "_owner",
          "type": "address"
        }
      ],
      "name": "setOwner",
      "outputs": [],
      "payable": false,
      "stateMutability": "nonpayable",
      "type": "function"
    },
    {
      "constant": true,
      "inputs": [
        {
          "name": "",
          "type": "bytes32"
        }
      ],
      "name": "refs",
      "outputs": [
        {
          "name": "",
          "type": "bytes32"
        }
      ],
      "payable": false,
      "stateMutability": "view",
      "type": "function"
    },
    {
      "constant": true,
      "inputs": [
        {
          "name": "",
          "type": "bytes32"
        }
      ],
      "name": "certs",
      "outputs": [
        {
          "name": "owner",
          "type": "address"
        },
        {
          "name": "parentId",
          "type": "bytes32"
        },
        {
          "name": "pubKey",
          "type": "bytes"
        },
        {
          "name": "serialNumber",
          "type": "uint256"
        },
        {
          "name": "validNotAfter",
          "type": "uint256"
        },
        {
          "name": "canSignHttpExchanges",
          "type": "bool"
        }
      ],
      "payable": false,
      "stateMutability": "view",
      "type": "function"
    },
    {
      "constant": true,
      "inputs": [
        {
          "name": "",
          "type": "bytes32"
        },
        {
          "name": "",
          "type": "uint256"
        }
      ],
      "name": "certIdsFromCN",
      "outputs": [
        {
          "name": "",
          "type": "bytes32"
        }
      ],
      "payable": false,
      "stateMutability": "view",
      "type": "function"
    },
    {
      "inputs": [
        {
          "name": "sha256WithRSAEncryption",
          "type": "address"
        },
        {
          "name": "_dateTime",
          "type": "address"
        }
      ],
      "payable": false,
      "stateMutability": "nonpayable",
      "type": "constructor"
    },
    {
      "anonymous": false,
      "inputs": [
        {
          "indexed": false,
          "name": "",
          "type": "bytes32"
        }
      ],
      "name": "CertAdded",
      "type": "event"
    },
    {
      "anonymous": false,
      "inputs": [
        {
          "indexed": false,
          "name": "",
          "type": "bytes32"
        }
      ],
      "name": "CertClaimed",
      "type": "event"
    },
    {
      "anonymous": false,
      "inputs": [
        {
          "indexed": false,
          "name": "",
          "type": "bytes32"
        },
        {
          "indexed": false,
          "name": "",
          "type": "address"
        }
      ],
      "name": "AlgSet",
      "type": "event"
    },
    {
      "anonymous": false,
      "inputs": [
        {
          "indexed": false,
          "name": "",
          "type": "address"
        }
      ],
      "name": "OwnerSet",
      "type": "event"
    },
    {
      "constant": false,
      "inputs": [
        {
          "name": "cert",
          "type": "bytes"
        },
        {
          "name": "canSignHttpExchanges",
          "type": "bool"
        }
      ],
      "name": "addRootCert",
      "outputs": [],
      "payable": false,
      "stateMutability": "nonpayable",
      "type": "function"
    },
    {
      "constant": false,
      "inputs": [
        {
          "name": "cert",
          "type": "bytes"
        },
        {
          "name": "parentId",
          "type": "bytes32"
        },
        {
          "name": "canSignHttpExchanges",
          "type": "bool"
        }
      ],
      "name": "addCert",
      "outputs": [],
      "payable": false,
      "stateMutability": "nonpayable",
      "type": "function"
    },
    {
      "constant": true,
      "inputs": [],
      "name": "signThis",
      "outputs": [
        {
          "name": "",
          "type": "bytes32"
        },
        {
          "name": "",
          "type": "uint256"
        }
      ],
      "payable": false,
      "stateMutability": "view",
      "type": "function"
    },
    {
      "constant": false,
      "inputs": [
        {
          "name": "certId",
          "type": "bytes32"
        },
        {
          "name": "signature",
          "type": "bytes"
        },
        {
          "name": "blockNumber",
          "type": "uint256"
        },
        {
          "name": "sigAlg",
          "type": "bytes32"
        }
      ],
      "name": "proveOwnership",
      "outputs": [
        {
          "name": "",
          "type": "bool"
        }
      ],
      "payable": false,
      "stateMutability": "nonpayable",
      "type": "function"
    },
    {
      "constant": false,
      "inputs": [
        {
          "name": "oid",
          "type": "bytes32"
        },
        {
          "name": "alg",
          "type": "address"
        }
      ],
      "name": "setAlg",
      "outputs": [],
      "payable": false,
      "stateMutability": "nonpayable",
      "type": "function"
    },
    {
      "constant": false,
      "inputs": [
        {
          "name": "_cshxOidHash",
          "type": "bytes32"
        }
      ],
      "name": "setCshxOidHash",
      "outputs": [],
      "payable": false,
      "stateMutability": "nonpayable",
      "type": "function"
    }
  ],
  "bytecode": "0x608060405234801561001057600080fd5b506040516040806133aa83398101806040528101908080519060200190929190805190602001909291905050506000336000806101000a81548173ffffffffffffffffffffffffffffffffffffffff021916908373ffffffffffffffffffffffffffffffffffffffff1602179055507f2a864886f70d01010b000000000000000000000000000000000000000000000060010290508260056000836000191660001916815260200190815260200160002060006101000a81548173ffffffffffffffffffffffffffffffffffffffff021916908373ffffffffffffffffffffffffffffffffffffffff16021790555081600160006101000a81548173ffffffffffffffffffffffffffffffffffffffff021916908373ffffffffffffffffffffffffffffffffffffffff1602179055507f551d1300000000000000000000000000000000000000000000000000000000006001026006816000191690555050505061322a806101806000396000f3006080604052600436106100a3576000357c0100000000000000000000000000000000000000000000000000000000900463ffffffff16806249c3f6146100a857806313af40351461011d5780632761694a1461016057806337356fe2146101ad5780634063d812146102305780637c0656fd14610335578063c55dc2cc1461036f578063d8b309f2146103e8578063dd9d240314610419578063fe11602d1461046a575b600080fd5b3480156100b457600080fd5b5061011b600480360381019080803590602001908201803590602001908080601f01602080910402602001604051908101604052809392919081815260200183838082843782019150505050505091929192908035151590602001909291905050506104c1565b005b34801561012957600080fd5b5061015e600480360381019080803573ffffffffffffffffffffffffffffffffffffffff1690602001909291905050506105ef565b005b34801561016c57600080fd5b5061018f60048036038101908080356000191690602001909291905050506106f0565b60405180826000191660001916815260200191505060405180910390f35b3480156101b957600080fd5b5061022e600480360381019080803590602001908201803590602001908080601f01602080910402602001604051908101604052809392919081815260200183838082843782019150505050505091929192908035600019169060200190929190803515159060200190929190505050610708565b005b34801561023c57600080fd5b5061025f6004803603810190808035600019169060200190929190505050611103565b604051808773ffffffffffffffffffffffffffffffffffffffff1673ffffffffffffffffffffffffffffffffffffffff16815260200186600019166000191681526020018060200185815260200184815260200183151515158152602001828103825286818151815260200191508051906020019080838360005b838110156102f55780820151818401526020810190506102da565b50505050905090810190601f1680156103225780820380516001836020036101000a031916815260200191505b5097505050505050505060405180910390f35b34801561034157600080fd5b5061034a611204565b6040518083600019166000191681526020018281526020019250505060405180910390f35b34801561037b57600080fd5b506103ce60048036038101908080356000191690602001909291908035906020019082018035906020019190919293919293908035906020019092919080356000191690602001909291905050506112e4565b604051808215151515815260200191505060405180910390f35b3480156103f457600080fd5b5061041760048036038101908080356000191690602001909291905050506116b6565b005b34801561042557600080fd5b506104686004803603810190808035600019169060200190929190803573ffffffffffffffffffffffffffffffffffffffff16906020019092919050505061171f565b005b34801561047657600080fd5b506104a360048036038101908080356000191690602001909291908035906020019092919050505061184b565b60405180826000191660001916815260200191505060405180910390f35b60006104cc8361187b565b90506104e1818461188f90919063ffffffff16565b90506104f6818461188f90919063ffffffff16565b905061050b81846119ec90919063ffffffff16565b905061052081846119ec90919063ffffffff16565b905061053581846119ec90919063ffffffff16565b905061054a81846119ec90919063ffffffff16565b905061055f81846119ec90919063ffffffff16565b905061057481846119ec90919063ffffffff16565b90506105898184611a0b90919063ffffffff16565b600260006105a08487611a4790919063ffffffff16565b6000191660001916815260200190815260200160002060020190805190602001906105cc929190613159565b506105ea836105e48386611a4790919063ffffffff16565b84610708565b505050565b6000809054906101000a900473ffffffffffffffffffffffffffffffffffffffff1673ffffffffffffffffffffffffffffffffffffffff163373ffffffffffffffffffffffffffffffffffffffff1614151561064a57600080fd5b806000806101000a81548173ffffffffffffffffffffffffffffffffffffffff021916908373ffffffffffffffffffffffffffffffffffffffff1602179055507f50146d0e3c60aa1d17a70635b05494f864e86144a2201275021014fbf08bafe281604051808273ffffffffffffffffffffffffffffffffffffffff1673ffffffffffffffffffffffffffffffffffffffff16815260200191505060405180910390a150565b60046020528060005260406000206000915090505481565b60008060008060008061071a8961187b565b925061072f838a61188f90919063ffffffff16565b9250610744838a61188f90919063ffffffff16565b9150610759828a6119ec90919063ffffffff16565b915061076e828a611a8390919063ffffffff16565b9450610783828a6119ec90919063ffffffff16565b9150610798828a61188f90919063ffffffff16565b91506107ad838a6119ec90919063ffffffff16565b90506107c2818a6119ec90919063ffffffff16565b9050600560006107db848c611cfc90919063ffffffff16565b6000191660001916815260200190815260200160002060009054906101000a900473ffffffffffffffffffffffffffffffffffffffff1673ffffffffffffffffffffffffffffffffffffffff1663de8f50a1600260008b6000191660001916815260200190815260200160002060020161085e868d611a0b90919063ffffffff16565b610871858e611d3890919063ffffffff16565b6040518463ffffffff167c01000000000000000000000000000000000000000000000000000000000281526004018080602001806020018060200184810384528781815460018160011615610100020316600290048152602001915080546001816001161561010002031660029004801561092d5780601f106109025761010080835404028352916020019161092d565b820191906000526020600020905b81548152906001019060200180831161091057829003601f168201915b5050848103835286818151815260200191508051906020019080838360005b8381101561096757808201518184015260208101905061094c565b50505050905090810190601f1680156109945780820380516001836020036101000a031916815260200191505b50848103825285818151815260200191508051906020019080838360005b838110156109cd5780820151818401526020810190506109b2565b50505050905090810190601f1680156109fa5780820380516001836020036101000a031916815260200191505b509650505050505050602060405180830381600087803b158015610a1d57600080fd5b505af1158015610a31573d6000803e3d6000fd5b505050506040513d6020811015610a4757600080fd5b81019080805190602001909291905050501515610acc576040517f08c379a00000000000000000000000000000000000000000000000000000000081526004018080602001828103825260168152602001807f5369676e617475726520646f65736e74206d617463680000000000000000000081525060200191505060405180910390fd5b610adf838a61188f90919063ffffffff16565b9250610af4838a6119ec90919063ffffffff16565b9250610b09838a6119ec90919063ffffffff16565b9250610b1e838a6119ec90919063ffffffff16565b9250610b33838a6119ec90919063ffffffff16565b9250610b48838a61188f90919063ffffffff16565b915042610b66610b61848c611d3890919063ffffffff16565b611d74565b11151515610bdc576040517f08c379a000000000000000000000000000000000000000000000000000000000815260040180806020018281038252600c8152602001807f496e76616c69642063657274000000000000000000000000000000000000000081525060200191505060405180910390fd5b610bef828a6119ec90919063ffffffff16565b9150610c0c610c07838b611d3890919063ffffffff16565b611d74565b9350834211151515610c86576040517f08c379a000000000000000000000000000000000000000000000000000000000815260040180806020018281038252600c8152602001807f496e76616c69642063657274000000000000000000000000000000000000000081525060200191505060405180910390fd5b610c99838a6119ec90919063ffffffff16565b9250610cae838a6119ec90919063ffffffff16565b9150610cc3828a611a4790919063ffffffff16565b955087600019168660001916141515610d1c57610ce9828a611a0b90919063ffffffff16565b6002600088600019166000191681526020019081526020016000206002019080519060200190610d1a929190613159565b505b610d2f838a61188f90919063ffffffff16565b91505b610d3c82846126d5565b15610e8d57610d54828a61188f90919063ffffffff16565b9050610d69818a61188f90919063ffffffff16565b90507f5504030000000000000000000000000000000000000000000000000000000000600102610da2828b611cfc90919063ffffffff16565b600019161415610e7357610dbf818a6119ec90919063ffffffff16565b905060036000610dd8838c61274690919063ffffffff16565b60001916600019168152602001908152602001600020869080600181540180825580915050906001820390600052602060002001600090919290919091509060001916905550610e31818a61274690919063ffffffff16565b60046000610e50610e4b858e611d3890919063ffffffff16565b612782565b600019166000191681526020019081526020016000208160001916905550610e8d565b610e86828a6119ec90919063ffffffff16565b9150610d32565b87600260008860001916600019168152602001908152602001600020600101816000191690555084600260008860001916600019168152602001908152602001600020600301819055508360026000886000191660001916815260200190815260200160002060040181905550856004600060028c6040518082805190602001908083835b602083101515610f375780518252602082019150602081019050602083039250610f12565b6001836020036101000a0380198251168184511680821785525050505050509050019150506020604051808303816000865af1158015610f7b573d6000803e3d6000fd5b5050506040513d6020811015610f9057600080fd5b810190808051906020019092919050505060001916600019168152602001908152602001600020816000191690555086156110b957610fd8838a6119ec90919063ffffffff16565b9250610fed838a6119ec90919063ffffffff16565b9250611002838a61188f90919063ffffffff16565b9250611017838a61188f90919063ffffffff16565b91505b61102482846126d5565b156110b85761103c828a61188f90919063ffffffff16565b905060065460001916611058828b611cfc90919063ffffffff16565b60001916141561109e57600160026000886000191660001916815260200190815260200160002060050160006101000a81548160ff0219169083151502179055506110b8565b6110b1828a6119ec90919063ffffffff16565b915061101a565b5b7fa8bcd2c977618c00f7fed703adeb0977d9b57eb1f309214e668e87ca390c51378660405180826000191660001916815260200191505060405180910390a1505050505050505050565b60026020528060005260406000206000915090508060000160009054906101000a900473ffffffffffffffffffffffffffffffffffffffff1690806001015490806002018054600181600116156101000203166002900480601f0160208091040260200160405190810160405280929190818152602001828054600181600116156101000203166002900480156111db5780601f106111b0576101008083540402835291602001916111db565b820191906000526020600020905b8154815290600101906020018083116111be57829003601f168201915b5050505050908060030154908060040154908060050160009054906101000a900460ff16905086565b600080336001430340604051602001808373ffffffffffffffffffffffffffffffffffffffff1673ffffffffffffffffffffffffffffffffffffffff166c010000000000000000000000000281526014018260001916600019168152602001925050506040516020818303038152906040526040518082805190602001908083835b6020831015156112ab5780518252602082019150602081019050602083039250611286565b6001836020036101000a038019825116818451168082178552505050505050905001915050604051809103902060014303915091509091565b60006060611680844303111515156112fb57600080fd5b338440604051602001808373ffffffffffffffffffffffffffffffffffffffff1673ffffffffffffffffffffffffffffffffffffffff166c010000000000000000000000000281526014018260001916600019168152602001925050506040516020818303038152906040526040518082805190602001908083835b60208310151561139c5780518252602082019150602081019050602083039250611377565b6001836020036101000a0380198251168184511680821785525050505050509050019150506040518091039020604051602001808260001916600019168152602001915050604051602081830303815290604052905060056000846000191660001916815260200190815260200160002060009054906101000a900473ffffffffffffffffffffffffffffffffffffffff1673ffffffffffffffffffffffffffffffffffffffff1663de8f50a1600260008a600019166000191681526020019081526020016000206002018389896040518563ffffffff167c0100000000000000000000000000000000000000000000000000000000028152600401808060200180602001806020018481038452888181546001816001161561010002031660029004815260200191508054600181600116156101000203166002900480156115265780601f106114fb57610100808354040283529160200191611526565b820191906000526020600020905b81548152906001019060200180831161150957829003601f168201915b5050848103835287818151815260200191508051906020019080838360005b83811015611560578082015181840152602081019050611545565b50505050905090810190601f16801561158d5780820380516001836020036101000a031916815260200191505b5084810382528686828181526020019250808284378201915050975050505050505050602060405180830381600087803b1580156115ca57600080fd5b505af11580156115de573d6000803e3d6000fd5b505050506040513d60208110156115f457600080fd5b8101908080519060200190929190505050151561161057600080fd5b3360026000896000191660001916815260200190815260200160002060000160006101000a81548173ffffffffffffffffffffffffffffffffffffffff021916908373ffffffffffffffffffffffffffffffffffffffff1602179055507f5c088381a25fb06fe5d3936d0346b98d68146eea6dd3801386069db26fbac84f8760405180826000191660001916815260200191505060405180910390a15095945050505050565b6000809054906101000a900473ffffffffffffffffffffffffffffffffffffffff1673ffffffffffffffffffffffffffffffffffffffff163373ffffffffffffffffffffffffffffffffffffffff1614151561171157600080fd5b806006816000191690555050565b6000809054906101000a900473ffffffffffffffffffffffffffffffffffffffff1673ffffffffffffffffffffffffffffffffffffffff163373ffffffffffffffffffffffffffffffffffffffff1614151561177a57600080fd5b8060056000846000191660001916815260200190815260200160002060006101000a81548173ffffffffffffffffffffffffffffffffffffffff021916908373ffffffffffffffffffffffffffffffffffffffff1602179055507f65146a769582c865299fe09a84142c84d0f1d4df1dbaaaf2301857e665beb2d782826040518083600019166000191681526020018273ffffffffffffffffffffffffffffffffffffffff1673ffffffffffffffffffffffffffffffffffffffff1681526020019250505060405180910390a15050565b60036020528160005260406000208181548110151561186657fe5b90600052602060002001600091509150505481565b6000611888826000612c66565b9050919050565b600060207f01000000000000000000000000000000000000000000000000000000000000000260207f010000000000000000000000000000000000000000000000000000000000000002846118e385612eff565b8151811015156118ef57fe5b9060200101517f010000000000000000000000000000000000000000000000000000000000000090047f010000000000000000000000000000000000000000000000000000000000000002167effffffffffffffffffffffffffffffffffffffffffffffffffffffffffffff19161415156119d2576040517f08c379a00000000000000000000000000000000000000000000000000000000081526004018080602001828103825260168152602001807f4e6f74206120636f6e737472756374656420747970650000000000000000000081525060200191505060405180910390fd5b6119e4836119df84612f15565b612c66565b905092915050565b6000611a038360016119fd85612f33565b01612c66565b905092915050565b6060611a3f611a1983612eff565b611a2284612eff565b6001611a2d86612f33565b010385612f519092919063ffffffff16565b905092915050565b6000611a7b611a5583612eff565b611a5e84612eff565b6001611a6986612f33565b010385612fc59092919063ffffffff16565b905092915050565b600060027f01000000000000000000000000000000000000000000000000000000000000000283611ab384612eff565b815181101515611abf57fe5b9060200101517f010000000000000000000000000000000000000000000000000000000000000090047f0100000000000000000000000000000000000000000000000000000000000000027effffffffffffffffffffffffffffffffffffffffffffffffffffffffffffff1916141515611ba1576040517f08c379a00000000000000000000000000000000000000000000000000000000081526004018080602001828103825260108152602001807f4e6f74207479706520494e54454745520000000000000000000000000000000081525060200191505060405180910390fd5b60007f01000000000000000000000000000000000000000000000000000000000000000260807f01000000000000000000000000000000000000000000000000000000000000000284611bf385612f15565b815181101515611bff57fe5b9060200101517f010000000000000000000000000000000000000000000000000000000000000090047f010000000000000000000000000000000000000000000000000000000000000002167effffffffffffffffffffffffffffffffffffffffffffffffffffffffffffff1916141515611ce2576040517f08c379a000000000000000000000000000000000000000000000000000000000815260040180806020018281038252600c8152602001807f4e6f7420706f736974697665000000000000000000000000000000000000000081525060200191505060405180910390fd5b611cf4611cef8484611d38565b612fea565b905092915050565b6000611d30611d0a83612f15565b611d1384612f15565b6001611d1e86612f33565b0103856130a79092919063ffffffff16565b905092915050565b6060611d6c611d4683612f15565b611d4f84612f15565b6001611d5a86612f33565b010385612f519092919063ffffffff16565b905092915050565b600080600080600080600080600d89511415611e2f57600560308a6000815181101515611d9d57fe5b9060200101517f010000000000000000000000000000000000000000000000000000000000000090047f0100000000000000000000000000000000000000000000000000000000000000027f010000000000000000000000000000000000000000000000000000000000000090040361ffff161015611e22576107d087019650611e2a565b61076c870196505b611f40565b606460308a6001815181101515611e4257fe5b9060200101517f010000000000000000000000000000000000000000000000000000000000000090047f0100000000000000000000000000000000000000000000000000000000000000027f0100000000000000000000000000000000000000000000000000000000000000900403026103e860308b6000815181101515611ec657fe5b9060200101517f010000000000000000000000000000000000000000000000000000000000000090047f0100000000000000000000000000000000000000000000000000000000000000027f0100000000000000000000000000000000000000000000000000000000000000900403020187019650600290505b6030896001830160ff16815181101515611f5657fe5b9060200101517f010000000000000000000000000000000000000000000000000000000000000090047f0100000000000000000000000000000000000000000000000000000000000000027f01000000000000000000000000000000000000000000000000000000000000009004600a60308c6000860160ff16815181101515611fdc57fe5b9060200101517f010000000000000000000000000000000000000000000000000000000000000090047f0100000000000000000000000000000000000000000000000000000000000000027f010000000000000000000000000000000000000000000000000000000000000090040302010360ff16870196506030896003830160ff1681518110151561206b57fe5b9060200101517f010000000000000000000000000000000000000000000000000000000000000090047f0100000000000000000000000000000000000000000000000000000000000000027f01000000000000000000000000000000000000000000000000000000000000009004600a60308c6002860160ff168151811015156120f157fe5b9060200101517f010000000000000000000000000000000000000000000000000000000000000090047f0100000000000000000000000000000000000000000000000000000000000000027f010000000000000000000000000000000000000000000000000000000000000090040302010395506030896005830160ff1681518110151561217b57fe5b9060200101517f010000000000000000000000000000000000000000000000000000000000000090047f0100000000000000000000000000000000000000000000000000000000000000027f01000000000000000000000000000000000000000000000000000000000000009004600a60308c6004860160ff1681518110151561220157fe5b9060200101517f010000000000000000000000000000000000000000000000000000000000000090047f0100000000000000000000000000000000000000000000000000000000000000027f0100000000000000000000000000000000000000000000000000000000000000900403020103850194506030896007830160ff1681518110151561228d57fe5b9060200101517f010000000000000000000000000000000000000000000000000000000000000090047f0100000000000000000000000000000000000000000000000000000000000000027f01000000000000000000000000000000000000000000000000000000000000009004600a60308c6006860160ff1681518110151561231357fe5b9060200101517f010000000000000000000000000000000000000000000000000000000000000090047f0100000000000000000000000000000000000000000000000000000000000000027f0100000000000000000000000000000000000000000000000000000000000000900403020103840193506030896009830160ff1681518110151561239f57fe5b9060200101517f010000000000000000000000000000000000000000000000000000000000000090047f0100000000000000000000000000000000000000000000000000000000000000027f01000000000000000000000000000000000000000000000000000000000000009004600a60308c6008860160ff1681518110151561242557fe5b9060200101517f010000000000000000000000000000000000000000000000000000000000000090047f0100000000000000000000000000000000000000000000000000000000000000027f010000000000000000000000000000000000000000000000000000000000000090040302010383019250603089600b830160ff168151811015156124b157fe5b9060200101517f010000000000000000000000000000000000000000000000000000000000000090047f0100000000000000000000000000000000000000000000000000000000000000027f01000000000000000000000000000000000000000000000000000000000000009004600a60308c600a860160ff1681518110151561253757fe5b9060200101517f010000000000000000000000000000000000000000000000000000000000000090047f0100000000000000000000000000000000000000000000000000000000000000027f010000000000000000000000000000000000000000000000000000000000000090040302010382019150600160009054906101000a900473ffffffffffffffffffffffffffffffffffffffff1673ffffffffffffffffffffffffffffffffffffffff16639054bdec8888888888886040518763ffffffff167c0100000000000000000000000000000000000000000000000000000000028152600401808761ffff1661ffff1681526020018660ff1660ff1681526020018560ff1660ff1681526020018460ff1660ff1681526020018360ff1660ff1681526020018260ff1660ff1681526020019650505050505050602060405180830381600087803b15801561268c57600080fd5b505af11580156126a0573d6000803e3d6000fd5b505050506040513d60208110156126b657600080fd5b8101908080519060200190929190505050975050505050505050919050565b60006126e082612eff565b6126e984612f15565b1115801561270757506126fb83612f33565b61270483612f33565b11155b8061273e575061271683612eff565b61271f83612f15565b1115801561273d575061273182612f33565b61273a84612f33565b11155b5b905092915050565b600061277a61275483612f15565b61275d84612f15565b600161276886612f33565b010385612fc59092919063ffffffff16565b905092915050565b600060777f0100000000000000000000000000000000000000000000000000000000000000028260008151811015156127b757fe5b9060200101517f010000000000000000000000000000000000000000000000000000000000000090047f0100000000000000000000000000000000000000000000000000000000000000027effffffffffffffffffffffffffffffffffffffffffffffffffffffffffffff19161480156128ce575060777f01000000000000000000000000000000000000000000000000000000000000000282600181518110151561285f57fe5b9060200101517f010000000000000000000000000000000000000000000000000000000000000090047f0100000000000000000000000000000000000000000000000000000000000000027effffffffffffffffffffffffffffffffffffffffffffffffffffffffffffff1916145b8015612977575060777f01000000000000000000000000000000000000000000000000000000000000000282600281518110151561290857fe5b9060200101517f010000000000000000000000000000000000000000000000000000000000000090047f0100000000000000000000000000000000000000000000000000000000000000027effffffffffffffffffffffffffffffffffffffffffffffffffffffffffffff1916145b8015612a205750602e7f0100000000000000000000000000000000000000000000000000000000000000028260038151811015156129b157fe5b9060200101517f010000000000000000000000000000000000000000000000000000000000000090047f0100000000000000000000000000000000000000000000000000000000000000027effffffffffffffffffffffffffffffffffffffffffffffffffffffffffffff1916145b15612b5157612a3e60048084510384612f519092919063ffffffff16565b73__NameHash______________________________630987996290916040518263ffffffff167c01000000000000000000000000000000000000000000000000000000000281526004018080602001828103825283818151815260200191508051906020019080838360005b83811015612ac5578082015181840152602081019050612aaa565b50505050905090810190601f168015612af25780820380516001836020036101000a031916815260200191505b509250505060206040518083038186803b158015612b0f57600080fd5b505af4158015612b23573d6000803e3d6000fd5b505050506040513d6020811015612b3957600080fd5b81019080805190602001909291905050509050612c61565b8173__NameHash______________________________630987996290916040518263ffffffff167c01000000000000000000000000000000000000000000000000000000000281526004018080602001828103825283818151815260200191508051906020019080838360005b83811015612bd9578082015181840152602081019050612bbe565b50505050905090810190601f168015612c065780820380516001836020036101000a031916815260200191505b509250505060206040518083038186803b158015612c2357600080fd5b505af4158015612c37573d6000803e3d6000fd5b505050506040513d6020811015612c4d57600080fd5b810190808051906020019092919050505090505b919050565b600080600080600080606060008960018a01815181101515612c8457fe5b9060200101517f010000000000000000000000000000000000000000000000000000000000000090047f0100000000000000000000000000000000000000000000000000000000000000027f01000000000000000000000000000000000000000000000000000000000000009004965060007f01000000000000000000000000000000000000000000000000000000000000000260807f0100000000000000000000000000000000000000000000000000000000000000028b60018c01815181101515612d4d57fe5b9060200101517f010000000000000000000000000000000000000000000000000000000000000090047f010000000000000000000000000000000000000000000000000000000000000002167effffffffffffffffffffffffffffffffffffffffffffffffffffffffffffff19161415612dd7578695506002890194506001868601039350612ee5565b607f87169250826040519080825280601f01601f191660200182016040528015612e105781602001602082028038833980820191505090505b509150600090505b82811015612ec957898160028b0101815181101515612e3357fe5b9060200101517f010000000000000000000000000000000000000000000000000000000000000090047f0100000000000000000000000000000000000000000000000000000000000000028282815181101515612e8c57fe5b9060200101907effffffffffffffffffffffffffffffffffffffffffffffffffffffffffffff1916908160001a9053508080600101915050612e18565b612ed282612fea565b95508260028a0101945060018686010393505b612ef08986866130ea565b97505050505050505092915050565b60008169ffffffffffffffffffff169050919050565b60006050829060020a900469ffffffffffffffffffff169050919050565b600060a0829060020a900469ffffffffffffffffffff169050919050565b606080600080865185870111151515612f6957600080fd5b846040519080825280601f01601f191660200182016040528015612f9c5781602001602082028038833980820191505090505b5092506020830191508560208801019050612fb882828761310e565b8293505050509392505050565b6000835182840111151515612fd957600080fd5b818360208601012090509392505050565b6000806000809150600090505b83518160ff16101561309d576008829060020a029150838160ff1681518110151561301e57fe5b9060200101517f010000000000000000000000000000000000000000000000000000000000000090047f0100000000000000000000000000000000000000000000000000000000000000027f01000000000000000000000000000000000000000000000000000000000000009004821791508080600101915050612ff7565b8192505050919050565b6000602082111515156130b957600080fd5b8351828401111515156130cb57600080fd5b6001826020036101000a03198084602087010151169150509392505050565b60006050839060020a028417935060a0829060020a02841793508390509392505050565b60005b6020821015156131365782518452602084019350602083019250602082039150613111565b6001826020036101000a0390508019835116818551168181178652505050505050565b828054600181600116156101000203166002900490600052602060002090601f016020900481019282601f1061319a57805160ff19168380011785556131c8565b828001600101855582156131c8579182015b828111156131c75782518255916020019190600101906131ac565b5b5090506131d591906131d9565b5090565b6131fb91905b808211156131f75760008160009055506001016131df565b5090565b905600a165627a7a72305820e470e23f41caf8826663601994bb5bfb43be6497e382ced548d3f5c980f248600029",
  "source": "pragma solidity  ^0.4.25;\r\n\r\nimport \"asn1-decode/contracts/Asn1Decode.sol\";\r\nimport \"./Ownable.sol\";\r\nimport \"@ensdomains/dnssec-oracle/contracts/BytesUtils.sol\";\r\nimport \"sig-verify-algs/contracts/Algorithm.sol\";\r\nimport \"ens-solidity-namehash/contracts/NameHash.sol\";\r\nimport \"ethereum-datetime/contracts/DateTime.sol\";\r\n\r\n/*\r\n * @dev Stores validated X.509 certificate chains in parent pointer trees.\r\n * @dev The root of each tree is a CA root certificate\r\n */\r\ncontract X509InTreeForestOfTrust is Ownable {\r\n  using Asn1Decode for bytes;\r\n  using BytesUtils for bytes;\r\n  using NameHash for string;\r\n\r\n  constructor(address sha256WithRSAEncryption, address _dateTime) public {\r\n    bytes32 a = 0x2a864886f70d01010b0000000000000000000000000000000000000000000000;\r\n    algs[a] = Algorithm(sha256WithRSAEncryption);\r\n    dateTime = DateTime(_dateTime);\r\n    cshxOidHash = 0x551d130000000000000000000000000000000000000000000000000000000000; // change to actual oid of canSignHttpExchanges\r\n  }\r\n\r\n  DateTime dateTime;\r\n\r\n  struct Certificate {\r\n    address owner;\r\n    bytes32 parentId;\r\n    bytes pubKey;\r\n    uint serialNumber;\r\n    uint validNotAfter;\r\n    bool canSignHttpExchanges;\r\n  }\r\n  // certId => cert ; certId == keccak256(cert.pubKey)\r\n  mapping (bytes32 => Certificate) public certs;\r\n  // keccak256(commonName) => certId\r\n  mapping (bytes32 => bytes32[]) public certIdsFromCN;\r\n  // sha256Fingerprint => certId or ensNamehash(commonName) => keccak256(commonName)\r\n  mapping (bytes32 => bytes32) public refs;\r\n  // Signature verification contracts\r\n  mapping(bytes32 => Algorithm) private algs;\r\n  // OID of canSignHttpExchanges since spec may change\r\n  bytes32 private cshxOidHash;\r\n\r\n  event CertAdded(bytes32);\r\n  event CertClaimed(bytes32);\r\n  event AlgSet(bytes32, address);\r\n\r\n  /*\r\n   * @dev Add a self-signed X.509 certificate to the root of a new tree\r\n   * @param cert A DER-encoded self-signed X.509 certificate\r\n   * @param canSignHttpExchanges Look for CSHX extension\r\n   */\r\n  function addRootCert(bytes memory cert, bool canSignHttpExchanges)\r\n  public\r\n  {\r\n    uint node;\r\n    // Get pub key\r\n    node = cert.root();\r\n    node = cert.firstChildOf(node);\r\n    node = cert.firstChildOf(node);\r\n    node = cert.nextSiblingOf(node);\r\n    node = cert.nextSiblingOf(node);\r\n    node = cert.nextSiblingOf(node);\r\n    node = cert.nextSiblingOf(node);\r\n    node = cert.nextSiblingOf(node);\r\n    node = cert.nextSiblingOf(node);\r\n    // Set parent/self pub key\r\n    certs[cert.keccakOfAllBytesAt(node)].pubKey = cert.allBytesAt(node);\r\n    addCert(cert, cert.keccakOfAllBytesAt(node), canSignHttpExchanges);\r\n  }\r\n\r\n  /*\r\n   * @dev Add a X.509 certificate to an existing tree/chain\r\n   * @param cert A DER-encoded X.509 certificate\r\n   * @param parentId The keccak256 hash of parent cert's public key\r\n   * @param canSignHttpExchanges Look for CSHX extension\r\n   */\r\n  function addCert(bytes memory cert, bytes32 parentId, bool canSignHttpExchanges)\r\n  public\r\n  {\r\n    bytes32 certId;\r\n    uint serialNumber;\r\n    uint validNotAfter;\r\n    uint node1;\r\n    uint node2;\r\n    uint node3;\r\n\r\n    node1 = cert.root();\r\n    node1 = cert.firstChildOf(node1);\r\n    node2 = cert.firstChildOf(node1);\r\n    node2 = cert.nextSiblingOf(node2);\r\n    // Extract serial number\r\n    serialNumber = cert.uintAt(node2);\r\n\r\n    node2 = cert.nextSiblingOf(node2);\r\n    node2 = cert.firstChildOf(node2);\r\n    node3 = cert.nextSiblingOf(node1);\r\n    node3 = cert.nextSiblingOf(node3);\r\n    // Verify signature\r\n    require( algs[cert.bytes32At(node2)].verify(certs[parentId].pubKey, cert.allBytesAt(node1), cert.bytesAt(node3)), \"Signature doesnt match\");\r\n\r\n    node1 = cert.firstChildOf(node1);\r\n    node1 = cert.nextSiblingOf(node1);\r\n    node1 = cert.nextSiblingOf(node1);\r\n    node1 = cert.nextSiblingOf(node1);\r\n    node1 = cert.nextSiblingOf(node1);\r\n\r\n    // Get timestamps\r\n    node2 = cert.firstChildOf(node1);\r\n    require(toTimestamp(cert.bytesAt(node2)) <= now, \"Invalid cert\");\r\n    node2 = cert.nextSiblingOf(node2);\r\n    validNotAfter = toTimestamp(cert.bytesAt(node2));\r\n    require(now <= validNotAfter, \"Invalid cert\");\r\n\r\n    node1 = cert.nextSiblingOf(node1);\r\n    node2 = cert.nextSiblingOf(node1);\r\n    // Get public key and calculate certId from it\r\n    certId = cert.keccakOfAllBytesAt(node2);\r\n    if (certId != parentId)\r\n      certs[certId].pubKey = cert.allBytesAt(node2);\r\n\r\n    // Get commonName and add references from it\r\n    node2 = cert.firstChildOf(node1);\r\n    while (Asn1Decode.isChildOf(node2, node1)) {\r\n      node3 = cert.firstChildOf(node2);\r\n      node3 = cert.firstChildOf(node3);\r\n      if ( cert.bytes32At(node3) == 0x5504030000000000000000000000000000000000000000000000000000000000 ) {\r\n        node3 = cert.nextSiblingOf(node3);\r\n        certIdsFromCN[cert.keccakOfBytesAt(node3)].push(certId);\r\n        refs[toEnsNamehash(cert.bytesAt(node3))] = cert.keccakOfBytesAt(node3);\r\n        break;\r\n      }\r\n      node2 = cert.nextSiblingOf(node2);\r\n    }\r\n\r\n    certs[certId].parentId = parentId;\r\n    certs[certId].serialNumber = serialNumber;\r\n    certs[certId].validNotAfter = validNotAfter;\r\n\r\n    // Add reference from sha256 fingerprint\r\n    refs[sha256(cert)] = certId;\r\n\r\n    if (canSignHttpExchanges) {\r\n      node1 = cert.nextSiblingOf(node1);\r\n      node1 = cert.nextSiblingOf(node1);\r\n      node1 = cert.firstChildOf(node1);\r\n      node2 = cert.firstChildOf(node1);\r\n      while (Asn1Decode.isChildOf(node2, node1)) {\r\n        node3 = cert.firstChildOf(node2);\r\n        if ( cert.bytes32At(node3) == cshxOidHash ) {\r\n          certs[certId].canSignHttpExchanges = true;\r\n          break;\r\n        }\r\n        node2 = cert.nextSiblingOf(node2);\r\n      }\r\n    }\r\n\r\n    // Fire event\r\n    emit CertAdded(certId);\r\n  }\r\n\r\n  /**\r\n   * @dev The return values of this function are used to proveOwnership() of a\r\n   * @dev certificate that exists in the certs mapping.\r\n   * @return A unique keccak256 hash to be signed\r\n   * @return The block number used in the hash\r\n   */\r\n  function signThis()\r\n  external view returns (bytes32, uint)\r\n  {\r\n    return ( keccak256(abi.encodePacked(msg.sender, blockhash(block.number - 1))), block.number -1 );\r\n  }\r\n\r\n  /**\r\n   * @dev An account calls this method to prove ownership of a certificate.\r\n   * @dev If successful, certs[certId].owner will be set to caller's address.\r\n   * @param certId The keccak256 hash of target certificate's public key\r\n   * @param signature signThis()[0] signed with certificate's private key\r\n   * @param blockNumber The value of signThis()[1] (must be >= block.number - 5760)\r\n   * @param sigAlg The OID of the algorithm used to sign `signature`\r\n   */\r\n  function proveOwnership(bytes32 certId, bytes signature, uint blockNumber, bytes32 sigAlg)\r\n  external returns (bool)\r\n  {\r\n    bytes memory message;\r\n    // Only accept proof if it's less than about one day old (at 15sec/block)\r\n    require( block.number - blockNumber <= 5760 );\r\n    // Verify signature, which proves ownership\r\n    message = abi.encodePacked(keccak256(abi.encodePacked(msg.sender, blockhash(blockNumber))));\r\n    require( algs[sigAlg].verify(certs[certId].pubKey, message, signature) );\r\n\r\n    certs[certId].owner = msg.sender;\r\n\r\n    emit CertClaimed(certId);\r\n  }\r\n\r\n  function toTimestamp(bytes memory x509Time)\r\n  private view returns (uint)\r\n  {\r\n    uint16 yrs;  uint8 mnths;\r\n    uint8  dys;  uint8 hrs;\r\n    uint8  mins; uint8 secs;\r\n    uint8  offset;\r\n\r\n    if (x509Time.length == 13) {\r\n      if (uint16(x509Time[0])-48 < 5) yrs += 2000;\r\n      else yrs += 1900;\r\n    }\r\n    else {\r\n      yrs += (uint16(x509Time[0])-48) * 1000 + (uint16(x509Time[1])-48) * 100;\r\n      offset = 2;\r\n    }\r\n    yrs +=  (uint8(x509Time[offset+0])-48)*10 + uint8(x509Time[offset+1])-48;\r\n    mnths = (uint8(x509Time[offset+2])-48)*10 + uint8(x509Time[offset+3])-48;\r\n    dys +=  (uint8(x509Time[offset+4])-48)*10 + uint8(x509Time[offset+5])-48;\r\n    hrs +=  (uint8(x509Time[offset+6])-48)*10 + uint8(x509Time[offset+7])-48;\r\n    mins += (uint8(x509Time[offset+8])-48)*10 + uint8(x509Time[offset+9])-48;\r\n    secs += (uint8(x509Time[offset+10])-48)*10 + uint8(x509Time[offset+11])-48;\r\n\r\n    return dateTime.toTimestamp(yrs, mnths, dys, hrs, mins, secs);\r\n  }\r\n\r\n  function toEnsNamehash(bytes memory dn)\r\n  private view returns (bytes32)\r\n  {\r\n    // if common name starts with 'www.'\r\n    if (dn[0] == 0x77 && dn[1] == 0x77 && dn[2] == 0x77 && dn[3] == 0x2e)\r\n      // omit 'www.'\r\n      return string(dn.substring(4, dn.length-4)).namehash();\r\n\r\n    return string(dn).namehash();\r\n  }\r\n\r\n  function setAlg(bytes32 oid, address alg)\r\n  public onlyOwner\r\n  {\r\n    algs[oid] = Algorithm(alg);\r\n    emit AlgSet(oid, alg);\r\n  }\r\n\r\n  function setCshxOidHash(bytes32 _cshxOidHash)\r\n  public onlyOwner\r\n  {\r\n    cshxOidHash = _cshxOidHash;\r\n  }\r\n}\r\n",
  "sourcePath": "/home/jonah/x509-forest-of-trust/contracts/X509InTreeForestOfTrust.sol",
  "compiler": {
    "name": "solc",
    "version": "0.4.25+commit.59dbf8f1.Emscripten.clang"
  },
  "schemaVersion": "3.0.0-beta.1",
  "updatedAt": "2018-11-27T20:43:07.906Z"
}