{
  "contractName": "X509ForestOfTrust",
  "abi": [
    {
      "constant": true,
      "inputs": [
        {
          "name": "",
          "type": "bytes32"
        }
      ],
      "name": "refs",
      "outputs": [
        {
          "name": "",
          "type": "bytes32"
        }
      ],
      "payable": false,
      "stateMutability": "view",
      "type": "function"
    },
    {
      "constant": true,
      "inputs": [
        {
          "name": "",
          "type": "bytes32"
        }
      ],
      "name": "certs",
      "outputs": [
        {
          "name": "owner",
          "type": "address"
        },
        {
          "name": "parentId",
          "type": "bytes32"
        },
        {
          "name": "pubKey",
          "type": "bytes"
        },
        {
          "name": "serialNumber",
          "type": "uint256"
        },
        {
          "name": "validNotAfter",
          "type": "uint256"
        },
        {
          "name": "cshx",
          "type": "bool"
        }
      ],
      "payable": false,
      "stateMutability": "view",
      "type": "function"
    },
    {
      "constant": false,
      "inputs": [
        {
          "name": "newOwner",
          "type": "address"
        }
      ],
      "name": "transferOwnership",
      "outputs": [],
      "payable": false,
      "stateMutability": "nonpayable",
      "type": "function"
    },
    {
      "constant": true,
      "inputs": [
        {
          "name": "",
          "type": "bytes32"
        },
        {
          "name": "",
          "type": "uint256"
        }
      ],
      "name": "certIdsFromCN",
      "outputs": [
        {
          "name": "",
          "type": "bytes32"
        }
      ],
      "payable": false,
      "stateMutability": "view",
      "type": "function"
    },
    {
      "inputs": [
        {
          "name": "sha256WithRSAEncryption",
          "type": "address"
        },
        {
          "name": "_dateTime",
          "type": "address"
        }
      ],
      "payable": false,
      "stateMutability": "nonpayable",
      "type": "constructor"
    },
    {
      "anonymous": false,
      "inputs": [
        {
          "indexed": false,
          "name": "",
          "type": "bytes32"
        }
      ],
      "name": "CertAdded",
      "type": "event"
    },
    {
      "anonymous": false,
      "inputs": [
        {
          "indexed": false,
          "name": "",
          "type": "bytes32"
        }
      ],
      "name": "CertClaimed",
      "type": "event"
    },
    {
      "anonymous": false,
      "inputs": [
        {
          "indexed": false,
          "name": "",
          "type": "bytes32"
        },
        {
          "indexed": false,
          "name": "",
          "type": "address"
        }
      ],
      "name": "AlgSet",
      "type": "event"
    },
    {
      "anonymous": false,
      "inputs": [
        {
          "indexed": false,
          "name": "",
          "type": "address"
        },
        {
          "indexed": false,
          "name": "",
          "type": "address"
        }
      ],
      "name": "ownershipTransferred",
      "type": "event"
    },
    {
      "constant": false,
      "inputs": [
        {
          "name": "cert",
          "type": "bytes"
        },
        {
          "name": "cshx",
          "type": "bool"
        }
      ],
      "name": "addRootCert",
      "outputs": [],
      "payable": false,
      "stateMutability": "nonpayable",
      "type": "function"
    },
    {
      "constant": false,
      "inputs": [
        {
          "name": "cert",
          "type": "bytes"
        },
        {
          "name": "parentId",
          "type": "bytes32"
        },
        {
          "name": "cshx",
          "type": "bool"
        }
      ],
      "name": "addCert",
      "outputs": [],
      "payable": false,
      "stateMutability": "nonpayable",
      "type": "function"
    },
    {
      "constant": true,
      "inputs": [],
      "name": "signThis",
      "outputs": [
        {
          "name": "",
          "type": "bytes32"
        },
        {
          "name": "",
          "type": "uint256"
        }
      ],
      "payable": false,
      "stateMutability": "view",
      "type": "function"
    },
    {
      "constant": false,
      "inputs": [
        {
          "name": "certId",
          "type": "bytes32"
        },
        {
          "name": "signature",
          "type": "bytes"
        },
        {
          "name": "blockNumber",
          "type": "uint256"
        },
        {
          "name": "sigAlg",
          "type": "bytes32"
        }
      ],
      "name": "proveOwnership",
      "outputs": [
        {
          "name": "",
          "type": "bool"
        }
      ],
      "payable": false,
      "stateMutability": "nonpayable",
      "type": "function"
    },
    {
      "constant": true,
      "inputs": [
        {
          "name": "certId",
          "type": "bytes32"
        }
      ],
      "name": "rootOf",
      "outputs": [
        {
          "name": "",
          "type": "bytes32"
        }
      ],
      "payable": false,
      "stateMutability": "view",
      "type": "function"
    },
    {
      "constant": true,
      "inputs": [
        {
          "name": "commonNameHash",
          "type": "bytes32"
        }
      ],
      "name": "certIdsFromCNLength",
      "outputs": [
        {
          "name": "",
          "type": "uint256"
        }
      ],
      "payable": false,
      "stateMutability": "view",
      "type": "function"
    },
    {
      "constant": true,
      "inputs": [
        {
          "name": "certId",
          "type": "bytes32"
        }
      ],
      "name": "owners",
      "outputs": [
        {
          "name": "",
          "type": "address"
        }
      ],
      "payable": false,
      "stateMutability": "view",
      "type": "function"
    },
    {
      "constant": false,
      "inputs": [
        {
          "name": "oid",
          "type": "bytes32"
        },
        {
          "name": "alg",
          "type": "address"
        }
      ],
      "name": "setAlg",
      "outputs": [],
      "payable": false,
      "stateMutability": "nonpayable",
      "type": "function"
    },
    {
      "constant": false,
      "inputs": [
        {
          "name": "_cshxOid",
          "type": "bytes32"
        }
      ],
      "name": "setCshxOid",
      "outputs": [],
      "payable": false,
      "stateMutability": "nonpayable",
      "type": "function"
    }
  ],
  "bytecode": "0x608060405234801561001057600080fd5b506040516040806135bb8339810180604052604081101561003057600080fd5b810190808051906020019092919080519060200190929190505050336000806101000a81548173ffffffffffffffffffffffffffffffffffffffff021916908373ffffffffffffffffffffffffffffffffffffffff16021790555060007f2a864886f70d01010b00000000000000000000000000000000000000000000006001029050826005600083815260200190815260200160002060006101000a81548173ffffffffffffffffffffffffffffffffffffffff021916908373ffffffffffffffffffffffffffffffffffffffff16021790555081600160006101000a81548173ffffffffffffffffffffffffffffffffffffffff021916908373ffffffffffffffffffffffffffffffffffffffff1602179055507f551d130000000000000000000000000000000000000000000000000000000000600102600681905550505050613439806101826000396000f3fe6080604052600436106100be576000357c01000000000000000000000000000000000000000000000000000000009004806249c3f6146100c35780630f0e595e146101975780632761694a146101d257806337356fe2146102215780634063d812146102ff5780636d6f398e146104065780637c0656fd14610455578063b226b8bd14610487578063c55dc2cc146104d6578063dd9d240314610592578063f2fde38b146105ed578063fb8ad6ff1461063e578063fe11602d146106b9575b600080fd5b3480156100cf57600080fd5b50610195600480360360408110156100e657600080fd5b810190808035906020019064010000000081111561010357600080fd5b82018360208201111561011557600080fd5b8035906020019184600183028401116401000000008311171561013757600080fd5b91908080601f016020809104026020016040519081016040528093929190818152602001838380828437600081840152601f19601f820116905080830192505050505050509192919290803515159060200190929190505050610712565b005b3480156101a357600080fd5b506101d0600480360360208110156101ba57600080fd5b8101908080359060200190929190505050610838565b005b3480156101de57600080fd5b5061020b600480360360208110156101f557600080fd5b810190808035906020019092919050505061089d565b6040518082815260200191505060405180910390f35b34801561022d57600080fd5b506102fd6004803603606081101561024457600080fd5b810190808035906020019064010000000081111561026157600080fd5b82018360208201111561027357600080fd5b8035906020019184600183028401116401000000008311171561029557600080fd5b91908080601f016020809104026020016040519081016040528093929190818152602001838380828437600081840152601f19601f820116905080830192505050505050509192919290803590602001909291908035151590602001909291905050506108b5565b005b34801561030b57600080fd5b506103386004803603602081101561032257600080fd5b810190808035906020019092919050505061122e565b604051808773ffffffffffffffffffffffffffffffffffffffff1673ffffffffffffffffffffffffffffffffffffffff1681526020018681526020018060200185815260200184815260200183151515158152602001828103825286818151815260200191508051906020019080838360005b838110156103c65780820151818401526020810190506103ab565b50505050905090810190601f1680156103f35780820380516001836020036101000a031916815260200191505b5097505050505050505060405180910390f35b34801561041257600080fd5b5061043f6004803603602081101561042957600080fd5b810190808035906020019092919050505061132f565b6040518082815260200191505060405180910390f35b34801561046157600080fd5b5061046a611377565b604051808381526020018281526020019250505060405180910390f35b34801561049357600080fd5b506104c0600480360360208110156104aa57600080fd5b81019080803590602001909291905050506113f4565b6040518082815260200191505060405180910390f35b3480156104e257600080fd5b50610578600480360360808110156104f957600080fd5b81019080803590602001909291908035906020019064010000000081111561052057600080fd5b82018360208201111561053257600080fd5b8035906020019184600183028401116401000000008311171561055457600080fd5b90919293919293908035906020019092919080359060200190929190505050611414565b604051808215151515815260200191505060405180910390f35b34801561059e57600080fd5b506105eb600480360360408110156105b557600080fd5b8101908080359060200190929190803573ffffffffffffffffffffffffffffffffffffffff16906020019092919050505061176b565b005b3480156105f957600080fd5b5061063c6004803603602081101561061057600080fd5b81019080803573ffffffffffffffffffffffffffffffffffffffff169060200190929190505050611887565b005b34801561064a57600080fd5b506106776004803603602081101561066157600080fd5b81019080803590602001909291905050506119dd565b604051808273ffffffffffffffffffffffffffffffffffffffff1673ffffffffffffffffffffffffffffffffffffffff16815260200191505060405180910390f35b3480156106c557600080fd5b506106fc600480360360408110156106dc57600080fd5b810190808035906020019092919080359060200190929190505050611a1d565b6040518082815260200191505060405180910390f35b600061071d83611a4d565b90506107328184611a6190919063ffffffff16565b90506107478184611a6190919063ffffffff16565b905061075c8184611bbe90919063ffffffff16565b90506107718184611bbe90919063ffffffff16565b90506107868184611bbe90919063ffffffff16565b905061079b8184611bbe90919063ffffffff16565b90506107b08184611bbe90919063ffffffff16565b90506107c58184611bbe90919063ffffffff16565b90506107da8184611bdd90919063ffffffff16565b600260006107f18487611c1990919063ffffffff16565b81526020019081526020016000206002019080519060200190610815929190613368565b506108338361082d8386611c1990919063ffffffff16565b846108b5565b505050565b6000809054906101000a900473ffffffffffffffffffffffffffffffffffffffff1673ffffffffffffffffffffffffffffffffffffffff163373ffffffffffffffffffffffffffffffffffffffff1614151561089357600080fd5b8060068190555050565b60046020528060005260406000206000915090505481565b6000806000806000806108c789611a4d565b92506108dc838a611a6190919063ffffffff16565b92506108f1838a611a6190919063ffffffff16565b9150610906828a611bbe90919063ffffffff16565b915061091b828a611c5590919063ffffffff16565b9450610930828a611bbe90919063ffffffff16565b9150610945828a611a6190919063ffffffff16565b915061095a838a611bbe90919063ffffffff16565b905061096f818a611bbe90919063ffffffff16565b905060056000610988848c611f0990919063ffffffff16565b815260200190815260200160002060009054906101000a900473ffffffffffffffffffffffffffffffffffffffff1673ffffffffffffffffffffffffffffffffffffffff1663de8f50a1600260008b81526020019081526020016000206002016109fb868d611bdd90919063ffffffff16565b610a0e858e611f4590919063ffffffff16565b6040518463ffffffff167c010000000000000000000000000000000000000000000000000000000002815260040180806020018060200180602001848103845287818154600181600116156101000203166002900481526020019150805460018160011615610100020316600290048015610aca5780601f10610a9f57610100808354040283529160200191610aca565b820191906000526020600020905b815481529060010190602001808311610aad57829003601f168201915b5050848103835286818151815260200191508051906020019080838360005b83811015610b04578082015181840152602081019050610ae9565b50505050905090810190601f168015610b315780820380516001836020036101000a031916815260200191505b50848103825285818151815260200191508051906020019080838360005b83811015610b6a578082015181840152602081019050610b4f565b50505050905090810190601f168015610b975780820380516001836020036101000a031916815260200191505b50965050505050505060206040518083038186803b158015610bb857600080fd5b505afa158015610bcc573d6000803e3d6000fd5b505050506040513d6020811015610be257600080fd5b81019080805190602001909291905050501515610c67576040517f08c379a00000000000000000000000000000000000000000000000000000000081526004018080602001828103825260168152602001807f5369676e617475726520646f65736e74206d617463680000000000000000000081525060200191505060405180910390fd5b610c7a838a611a6190919063ffffffff16565b9250610c8f838a611bbe90919063ffffffff16565b9250610ca4838a611bbe90919063ffffffff16565b9250610cb9838a611bbe90919063ffffffff16565b9250610cce838a611bbe90919063ffffffff16565b9250610ce3838a611a6190919063ffffffff16565b915042610d01610cfc848c611f4590919063ffffffff16565b611f81565b11151515610d77576040517f08c379a000000000000000000000000000000000000000000000000000000000815260040180806020018281038252600c8152602001807f496e76616c69642063657274000000000000000000000000000000000000000081525060200191505060405180910390fd5b610d8a828a611bbe90919063ffffffff16565b9150610da7610da2838b611f4590919063ffffffff16565b611f81565b9350834211151515610e21576040517f08c379a000000000000000000000000000000000000000000000000000000000815260040180806020018281038252600c8152602001807f496e76616c69642063657274000000000000000000000000000000000000000081525060200191505060405180910390fd5b610e34838a611bbe90919063ffffffff16565b9250610e49838a611bbe90919063ffffffff16565b9150610e5e828a611c1990919063ffffffff16565b95508786141515610ea757610e7c828a611bdd90919063ffffffff16565b600260008881526020019081526020016000206002019080519060200190610ea5929190613368565b505b610eba838a611a6190919063ffffffff16565b91505b610ec782846128e5565b15610ffa57610edf828a611a6190919063ffffffff16565b9050610ef4818a611a6190919063ffffffff16565b90507f5504030000000000000000000000000000000000000000000000000000000000600102610f2d828b611f0990919063ffffffff16565b1415610fe057610f46818a611bbe90919063ffffffff16565b905060036000610f5f838c61295690919063ffffffff16565b8152602001908152602001600020869080600181540180825580915050906001820390600052602060002001600090919290919091505550610faa818a61295690919063ffffffff16565b60046000610fc9610fc4858e611f4590919063ffffffff16565b612992565b815260200190815260200160002081905550610ffa565b610ff3828a611bbe90919063ffffffff16565b9150610ebd565b876002600088815260200190815260200160002060010181905550846002600088815260200190815260200160002060030181905550836002600088815260200190815260200160002060040181905550856004600060028c6040518082805190602001908083835b6020831015156110885780518252602082019150602081019050602083039250611063565b6001836020036101000a038019825116818451168082178552505050505050905001915050602060405180830381855afa1580156110ca573d6000803e3d6000fd5b5050506040513d60208110156110df57600080fd5b810190808051906020019092919050505081526020019081526020016000208190555086156111ec5761111b838a611bbe90919063ffffffff16565b9250611130838a611bbe90919063ffffffff16565b9250611145838a611a6190919063ffffffff16565b925061115a838a611a6190919063ffffffff16565b91505b61116782846128e5565b156111eb5761117f828a611a6190919063ffffffff16565b9050600654611197828b611f0990919063ffffffff16565b14156111d15760016002600088815260200190815260200160002060050160006101000a81548160ff0219169083151502179055506111eb565b6111e4828a611bbe90919063ffffffff16565b915061115d565b5b7fa8bcd2c977618c00f7fed703adeb0977d9b57eb1f309214e668e87ca390c5137866040518082815260200191505060405180910390a1505050505050505050565b60026020528060005260406000206000915090508060000160009054906101000a900473ffffffffffffffffffffffffffffffffffffffff1690806001015490806002018054600181600116156101000203166002900480601f0160208091040260200160405190810160405280929190818152602001828054600181600116156101000203166002900480156113065780601f106112db57610100808354040283529160200191611306565b820191906000526020600020905b8154815290600101906020018083116112e957829003601f168201915b5050505050908060030154908060040154908060050160009054906101000a900460ff16905086565b60005b60026000838152602001908152602001600020600101548214151561136f5760026000838152602001908152602001600020600101549150611332565b819050919050565b600080336001430340604051602001808373ffffffffffffffffffffffffffffffffffffffff1673ffffffffffffffffffffffffffffffffffffffff166c01000000000000000000000000028152601401828152602001925050506040516020818303038152906040528051906020012060014303915091509091565b600060036000838152602001908152602001600020805490509050919050565b600060606116808443031115151561142b57600080fd5b338440604051602001808373ffffffffffffffffffffffffffffffffffffffff1673ffffffffffffffffffffffffffffffffffffffff166c0100000000000000000000000002815260140182815260200192505050604051602081830303815290604052805190602001206040516020018082815260200191505060405160208183030381529060405290506005600084815260200190815260200160002060009054906101000a900473ffffffffffffffffffffffffffffffffffffffff1673ffffffffffffffffffffffffffffffffffffffff1663de8f50a1600260008a81526020019081526020016000206002018389896040518563ffffffff167c0100000000000000000000000000000000000000000000000000000000028152600401808060200180602001806020018481038452888181546001816001161561010002031660029004815260200191508054600181600116156101000203166002900480156115db5780601f106115b0576101008083540402835291602001916115db565b820191906000526020600020905b8154815290600101906020018083116115be57829003601f168201915b5050848103835287818151815260200191508051906020019080838360005b838110156116155780820151818401526020810190506115fa565b50505050905090810190601f1680156116425780820380516001836020036101000a031916815260200191505b508481038252868682818152602001925080828437600081840152601f19601f82011690508083019250505097505050505050505060206040518083038186803b15801561168f57600080fd5b505afa1580156116a3573d6000803e3d6000fd5b505050506040513d60208110156116b957600080fd5b810190808051906020019092919050505015156116d557600080fd5b336002600089815260200190815260200160002060000160006101000a81548173ffffffffffffffffffffffffffffffffffffffff021916908373ffffffffffffffffffffffffffffffffffffffff1602179055507f5c088381a25fb06fe5d3936d0346b98d68146eea6dd3801386069db26fbac84f876040518082815260200191505060405180910390a15095945050505050565b6000809054906101000a900473ffffffffffffffffffffffffffffffffffffffff1673ffffffffffffffffffffffffffffffffffffffff163373ffffffffffffffffffffffffffffffffffffffff161415156117c657600080fd5b806005600084815260200190815260200160002060006101000a81548173ffffffffffffffffffffffffffffffffffffffff021916908373ffffffffffffffffffffffffffffffffffffffff1602179055507f65146a769582c865299fe09a84142c84d0f1d4df1dbaaaf2301857e665beb2d78282604051808381526020018273ffffffffffffffffffffffffffffffffffffffff1673ffffffffffffffffffffffffffffffffffffffff1681526020019250505060405180910390a15050565b6000809054906101000a900473ffffffffffffffffffffffffffffffffffffffff1673ffffffffffffffffffffffffffffffffffffffff163373ffffffffffffffffffffffffffffffffffffffff161415156118e257600080fd5b7f7699c77f2404f9b6bbd003861bb4af8ae70b205e19e73d7ec7fe4590db59a6b76000809054906101000a900473ffffffffffffffffffffffffffffffffffffffff1682604051808373ffffffffffffffffffffffffffffffffffffffff1673ffffffffffffffffffffffffffffffffffffffff1681526020018273ffffffffffffffffffffffffffffffffffffffff1673ffffffffffffffffffffffffffffffffffffffff1681526020019250505060405180910390a1806000806101000a81548173ffffffffffffffffffffffffffffffffffffffff021916908373ffffffffffffffffffffffffffffffffffffffff16021790555050565b60006002600083815260200190815260200160002060000160009054906101000a900473ffffffffffffffffffffffffffffffffffffffff169050919050565b600360205281600052604060002081815481101515611a3857fe5b90600052602060002001600091509150505481565b6000611a5a826000612e76565b9050919050565b600060207f01000000000000000000000000000000000000000000000000000000000000000260207f01000000000000000000000000000000000000000000000000000000000000000284611ab585613173565b815181101515611ac157fe5b9060200101517f010000000000000000000000000000000000000000000000000000000000000090047f010000000000000000000000000000000000000000000000000000000000000002167effffffffffffffffffffffffffffffffffffffffffffffffffffffffffffff1916141515611ba4576040517f08c379a00000000000000000000000000000000000000000000000000000000081526004018080602001828103825260168152602001807f4e6f74206120636f6e737472756374656420747970650000000000000000000081525060200191505060405180910390fd5b611bb683611bb184613189565b612e76565b905092915050565b6000611bd5836001611bcf856131ab565b01612e76565b905092915050565b6060611c11611beb83613173565b611bf484613173565b6001611bff866131ab565b0103856131cd9092919063ffffffff16565b905092915050565b6000611c4d611c2783613173565b611c3084613173565b6001611c3b866131ab565b0103856132429092919063ffffffff16565b905092915050565b600060027f01000000000000000000000000000000000000000000000000000000000000000283611c8584613173565b815181101515611c9157fe5b9060200101517f010000000000000000000000000000000000000000000000000000000000000090047f0100000000000000000000000000000000000000000000000000000000000000027effffffffffffffffffffffffffffffffffffffffffffffffffffffffffffff1916141515611d73576040517f08c379a00000000000000000000000000000000000000000000000000000000081526004018080602001828103825260108152602001807f4e6f74207479706520494e54454745520000000000000000000000000000000081525060200191505060405180910390fd5b60007f01000000000000000000000000000000000000000000000000000000000000000260807f01000000000000000000000000000000000000000000000000000000000000000284611dc585613189565b815181101515611dd157fe5b9060200101517f010000000000000000000000000000000000000000000000000000000000000090047f010000000000000000000000000000000000000000000000000000000000000002167effffffffffffffffffffffffffffffffffffffffffffffffffffffffffffff1916141515611eb4576040517f08c379a000000000000000000000000000000000000000000000000000000000815260040180806020018281038252600c8152602001807f4e6f7420706f736974697665000000000000000000000000000000000000000081525060200191505060405180910390fd5b6000611ebf83613189565b6001611eca856131ab565b0103905060088160200302611ef2611ee185613189565b83876132679092919063ffffffff16565b908060020a82049150506001900491505092915050565b6000611f3d611f1783613189565b611f2084613189565b6001611f2b866131ab565b0103856132679092919063ffffffff16565b905092915050565b6060611f79611f5383613189565b611f5c84613189565b6001611f67866131ab565b0103856131cd9092919063ffffffff16565b905092915050565b600080600080600080600080600d8951141561203b57600560308a6000815181101515611faa57fe5b9060200101517f010000000000000000000000000000000000000000000000000000000000000090047f0100000000000000000000000000000000000000000000000000000000000000027f010000000000000000000000000000000000000000000000000000000000000090040360ff16101561202e576107d087019650612036565b61076c870196505b612152565b606460308a600181518110151561204e57fe5b9060200101517f010000000000000000000000000000000000000000000000000000000000000090047f0100000000000000000000000000000000000000000000000000000000000000027f01000000000000000000000000000000000000000000000000000000000000009004030260ff166103e860308b60008151811015156120d557fe5b9060200101517f010000000000000000000000000000000000000000000000000000000000000090047f0100000000000000000000000000000000000000000000000000000000000000027f010000000000000000000000000000000000000000000000000000000000000090040360ff16020187019650600290505b6030896001830160ff1681518110151561216857fe5b9060200101517f010000000000000000000000000000000000000000000000000000000000000090047f0100000000000000000000000000000000000000000000000000000000000000027f01000000000000000000000000000000000000000000000000000000000000009004600a60308c6000860160ff168151811015156121ee57fe5b9060200101517f010000000000000000000000000000000000000000000000000000000000000090047f0100000000000000000000000000000000000000000000000000000000000000027f010000000000000000000000000000000000000000000000000000000000000090040302010360ff16870196506030896003830160ff1681518110151561227d57fe5b9060200101517f010000000000000000000000000000000000000000000000000000000000000090047f0100000000000000000000000000000000000000000000000000000000000000027f01000000000000000000000000000000000000000000000000000000000000009004600a60308c6002860160ff1681518110151561230357fe5b9060200101517f010000000000000000000000000000000000000000000000000000000000000090047f0100000000000000000000000000000000000000000000000000000000000000027f010000000000000000000000000000000000000000000000000000000000000090040302010395506030896005830160ff1681518110151561238d57fe5b9060200101517f010000000000000000000000000000000000000000000000000000000000000090047f0100000000000000000000000000000000000000000000000000000000000000027f01000000000000000000000000000000000000000000000000000000000000009004600a60308c6004860160ff1681518110151561241357fe5b9060200101517f010000000000000000000000000000000000000000000000000000000000000090047f0100000000000000000000000000000000000000000000000000000000000000027f0100000000000000000000000000000000000000000000000000000000000000900403020103850194506030896007830160ff1681518110151561249f57fe5b9060200101517f010000000000000000000000000000000000000000000000000000000000000090047f0100000000000000000000000000000000000000000000000000000000000000027f01000000000000000000000000000000000000000000000000000000000000009004600a60308c6006860160ff1681518110151561252557fe5b9060200101517f010000000000000000000000000000000000000000000000000000000000000090047f0100000000000000000000000000000000000000000000000000000000000000027f0100000000000000000000000000000000000000000000000000000000000000900403020103840193506030896009830160ff168151811015156125b157fe5b9060200101517f010000000000000000000000000000000000000000000000000000000000000090047f0100000000000000000000000000000000000000000000000000000000000000027f01000000000000000000000000000000000000000000000000000000000000009004600a60308c6008860160ff1681518110151561263757fe5b9060200101517f010000000000000000000000000000000000000000000000000000000000000090047f0100000000000000000000000000000000000000000000000000000000000000027f010000000000000000000000000000000000000000000000000000000000000090040302010383019250603089600b830160ff168151811015156126c357fe5b9060200101517f010000000000000000000000000000000000000000000000000000000000000090047f0100000000000000000000000000000000000000000000000000000000000000027f01000000000000000000000000000000000000000000000000000000000000009004600a60308c600a860160ff1681518110151561274957fe5b9060200101517f010000000000000000000000000000000000000000000000000000000000000090047f0100000000000000000000000000000000000000000000000000000000000000027f010000000000000000000000000000000000000000000000000000000000000090040302010382019150600160009054906101000a900473ffffffffffffffffffffffffffffffffffffffff1673ffffffffffffffffffffffffffffffffffffffff16639054bdec8888888888886040518763ffffffff167c0100000000000000000000000000000000000000000000000000000000028152600401808761ffff1661ffff1681526020018660ff1660ff1681526020018560ff1660ff1681526020018460ff1660ff1681526020018360ff1660ff1681526020018260ff1660ff168152602001965050505050505060206040518083038186803b15801561289c57600080fd5b505afa1580156128b0573d6000803e3d6000fd5b505050506040513d60208110156128c657600080fd5b8101908080519060200190929190505050975050505050505050919050565b60006128f082613173565b6128f984613189565b11158015612917575061290b836131ab565b612914836131ab565b11155b8061294e575061292683613173565b61292f83613189565b1115801561294d5750612941826131ab565b61294a846131ab565b11155b5b905092915050565b600061298a61296483613189565b61296d84613189565b6001612978866131ab565b0103856132429092919063ffffffff16565b905092915050565b600060777f0100000000000000000000000000000000000000000000000000000000000000028260008151811015156129c757fe5b9060200101517f010000000000000000000000000000000000000000000000000000000000000090047f0100000000000000000000000000000000000000000000000000000000000000027effffffffffffffffffffffffffffffffffffffffffffffffffffffffffffff1916148015612ade575060777f010000000000000000000000000000000000000000000000000000000000000002826001815181101515612a6f57fe5b9060200101517f010000000000000000000000000000000000000000000000000000000000000090047f0100000000000000000000000000000000000000000000000000000000000000027effffffffffffffffffffffffffffffffffffffffffffffffffffffffffffff1916145b8015612b87575060777f010000000000000000000000000000000000000000000000000000000000000002826002815181101515612b1857fe5b9060200101517f010000000000000000000000000000000000000000000000000000000000000090047f0100000000000000000000000000000000000000000000000000000000000000027effffffffffffffffffffffffffffffffffffffffffffffffffffffffffffff1916145b8015612c305750602e7f010000000000000000000000000000000000000000000000000000000000000002826003815181101515612bc157fe5b9060200101517f010000000000000000000000000000000000000000000000000000000000000090047f0100000000000000000000000000000000000000000000000000000000000000027effffffffffffffffffffffffffffffffffffffffffffffffffffffffffffff1916145b15612d6157612c4e600480845103846131cd9092919063ffffffff16565b73__ENSNamehash___________________________630e0fb92490916040518263ffffffff167c01000000000000000000000000000000000000000000000000000000000281526004018080602001828103825283818151815260200191508051906020019080838360005b83811015612cd5578082015181840152602081019050612cba565b50505050905090810190601f168015612d025780820380516001836020036101000a031916815260200191505b509250505060206040518083038186803b158015612d1f57600080fd5b505af4158015612d33573d6000803e3d6000fd5b505050506040513d6020811015612d4957600080fd5b81019080805190602001909291905050509050612e71565b8173__ENSNamehash___________________________630e0fb92490916040518263ffffffff167c01000000000000000000000000000000000000000000000000000000000281526004018080602001828103825283818151815260200191508051906020019080838360005b83811015612de9578082015181840152602081019050612dce565b50505050905090810190601f168015612e165780820380516001836020036101000a031916815260200191505b509250505060206040518083038186803b158015612e3357600080fd5b505af4158015612e47573d6000803e3d6000fd5b505050506040513d6020811015612e5d57600080fd5b810190808051906020019092919050505090505b919050565b60008060008060007f01000000000000000000000000000000000000000000000000000000000000000260807f0100000000000000000000000000000000000000000000000000000000000000028760018801815181101515612ed557fe5b9060200101517f010000000000000000000000000000000000000000000000000000000000000090047f010000000000000000000000000000000000000000000000000000000000000002167effffffffffffffffffffffffffffffffffffffffffffffffffffffffffffff19161415612fec578560018601815181101515612f5a57fe5b9060200101517f010000000000000000000000000000000000000000000000000000000000000090047f0100000000000000000000000000000000000000000000000000000000000000027f0100000000000000000000000000000000000000000000000000000000000000900460ff1692506002850191506001838369ffffffffffffffffffff1601039050613145565b6000607f7f010000000000000000000000000000000000000000000000000000000000000002876001880181518110151561302357fe5b9060200101517f010000000000000000000000000000000000000000000000000000000000000090047f010000000000000000000000000000000000000000000000000000000000000002167f01000000000000000000000000000000000000000000000000000000000000009004905060018160ff1614156130c0576130b660028701886132aa90919063ffffffff16565b60ff169350613124565b60028160ff1614156130ed576130e260028701886132d190919063ffffffff16565b61ffff169350613123565b6008816020030260ff16613112600288018360ff168a6132679092919063ffffffff16565b908060020a82049150506001900493505b5b8060ff16600287010192506001848469ffffffffffffffffffff1601039150505b613168858369ffffffffffffffffffff168369ffffffffffffffffffff166132f9565b935050505092915050565b60008169ffffffffffffffffffff169050919050565b6000605082908060020a820491505069ffffffffffffffffffff169050919050565b600060a082908060020a820491505069ffffffffffffffffffff169050919050565b60608351828401111515156131e157600080fd5b6060826040519080825280601f01601f1916602001820160405280156132165781602001600182028038833980820191505090505b509050600080602083019150856020880101905061323582828761331d565b8293505050509392505050565b600083518284011115151561325657600080fd5b818360208601012090509392505050565b60006020821115151561327957600080fd5b83518284011115151561328b57600080fd5b6001826020036101000a03198084602087010151169150509392505050565b6000825160018301111515156132bf57600080fd5b60ff8260018501015116905092915050565b6000825160028301111515156132e657600080fd5b61ffff8260028501015116905092915050565b60006050839060020a028417935060a0829060020a02841793508390509392505050565b5b602081101515613343578151835260208301925060208201915060208103905061331e565b60006001826020036101000a0390508019835116818551168181178652505050505050565b828054600181600116156101000203166002900490600052602060002090601f016020900481019282601f106133a957805160ff19168380011785556133d7565b828001600101855582156133d7579182015b828111156133d65782518255916020019190600101906133bb565b5b5090506133e491906133e8565b5090565b61340a91905b808211156134065760008160009055506001016133ee565b5090565b9056fea165627a7a723058201b75d7020af6a786b9633f27fb9a4dc9854b3b0d013f31495fd186bfcfc9ca0b0029",
  "source": "pragma solidity  ^0.5.1;\r\n\r\nimport \"./Ownable.sol\";\r\nimport \"asn1-decode/contracts/Asn1Decode.sol\";\r\n//import \"solidity-bytes-utils/contracts/BytesUtils.sol\";\r\nimport \"sig-verify-algs/contracts/Algorithm.sol\";\r\nimport \"ens-namehash/contracts/ENSNamehash.sol\";\r\nimport \"ethereum-datetime/contracts/DateTime.sol\";\r\n\r\n/*\r\n * @dev Stores validated X.509 certificate chains in parent pointer trees.\r\n * @dev The root of each tree is a CA root certificate\r\n */\r\ncontract X509ForestOfTrust is Ownable {\r\n  using Asn1Decode for bytes;\r\n  using BytesUtils for bytes;\r\n  using ENSNamehash for bytes;\r\n\r\n  constructor(address sha256WithRSAEncryption, address _dateTime) public {\r\n    bytes32 a = 0x2a864886f70d01010b0000000000000000000000000000000000000000000000;\r\n    algs[a] = Algorithm(sha256WithRSAEncryption);\r\n    dateTime = DateTime(_dateTime);\r\n    cshxOid = 0x551d130000000000000000000000000000000000000000000000000000000000; // change to actual oid of canSignHttpExchanges\r\n  }\r\n\r\n  DateTime dateTime;\r\n\r\n  struct Certificate {\r\n    address owner;\r\n    bytes32 parentId;\r\n    bytes pubKey;\r\n    uint serialNumber;\r\n    uint validNotAfter;\r\n    bool cshx; // canSignHttpExchanges\r\n  }\r\n  // certId => cert ; certId == keccak256(cert.pubKey)\r\n  mapping (bytes32 => Certificate) public certs;\r\n  // keccak256(commonName) => certId\r\n  mapping (bytes32 => bytes32[]) public certIdsFromCN;\r\n  // sha256Fingerprint => certId or ensNamehash(commonName) => keccak256(commonName)\r\n  mapping (bytes32 => bytes32) public refs;\r\n  // Signature verification contracts\r\n  mapping(bytes32 => Algorithm) private algs;\r\n  // OID of canSignHttpExchanges since spec may change\r\n  bytes32 private cshxOid;\r\n\r\n  event CertAdded(bytes32);\r\n  event CertClaimed(bytes32);\r\n  event AlgSet(bytes32, address);\r\n\r\n  /*\r\n   * @dev Add a self-signed X.509 certificate to the root of a new tree\r\n   * @param cert A DER-encoded self-signed X.509 certificate\r\n   * @param cshx Look for canSignHttpExchanges extension\r\n   */\r\n  function addRootCert(bytes memory cert, bool cshx)\r\n  public\r\n  {\r\n    uint node;\r\n    // Get pub key\r\n    node = cert.root();\r\n    node = cert.firstChildOf(node);\r\n    node = cert.firstChildOf(node);\r\n    node = cert.nextSiblingOf(node);\r\n    node = cert.nextSiblingOf(node);\r\n    node = cert.nextSiblingOf(node);\r\n    node = cert.nextSiblingOf(node);\r\n    node = cert.nextSiblingOf(node);\r\n    node = cert.nextSiblingOf(node);\r\n    // Set parent/self pub key\r\n    certs[cert.keccakOfAllBytesAt(node)].pubKey = cert.allBytesAt(node);\r\n    addCert(cert, cert.keccakOfAllBytesAt(node), cshx);\r\n  }\r\n\r\n  /*\r\n   * @dev Add a X.509 certificate to an existing tree/chain\r\n   * @param cert A DER-encoded X.509 certificate\r\n   * @param parentId The keccak256 hash of parent cert's public key\r\n   * @param cshx Look for canSignHttpExchanges extension\r\n   */\r\n  function addCert(bytes memory cert, bytes32 parentId, bool cshx)\r\n  public\r\n  {\r\n    bytes32 certId;\r\n    uint serialNumber;\r\n    uint validNotAfter;\r\n    uint node1;\r\n    uint node2;\r\n    uint node3;\r\n\r\n    node1 = cert.root();\r\n    node1 = cert.firstChildOf(node1);\r\n    node2 = cert.firstChildOf(node1);\r\n    node2 = cert.nextSiblingOf(node2);\r\n    // Extract serial number\r\n    serialNumber = cert.uintAt(node2);\r\n\r\n    node2 = cert.nextSiblingOf(node2);\r\n    node2 = cert.firstChildOf(node2);\r\n    node3 = cert.nextSiblingOf(node1);\r\n    node3 = cert.nextSiblingOf(node3);\r\n    // Verify signature\r\n    require( algs[cert.bytes32At(node2)].verify(certs[parentId].pubKey, cert.allBytesAt(node1), cert.bytesAt(node3)), \"Signature doesnt match\");\r\n\r\n    node1 = cert.firstChildOf(node1);\r\n    node1 = cert.nextSiblingOf(node1);\r\n    node1 = cert.nextSiblingOf(node1);\r\n    node1 = cert.nextSiblingOf(node1);\r\n    node1 = cert.nextSiblingOf(node1);\r\n\r\n    // Get timestamps\r\n    node2 = cert.firstChildOf(node1);\r\n    require(toTimestamp(cert.bytesAt(node2)) <= now, \"Invalid cert\");\r\n    node2 = cert.nextSiblingOf(node2);\r\n    validNotAfter = toTimestamp(cert.bytesAt(node2));\r\n    require(now <= validNotAfter, \"Invalid cert\");\r\n\r\n    node1 = cert.nextSiblingOf(node1);\r\n    node2 = cert.nextSiblingOf(node1);\r\n    // Get public key and calculate certId from it\r\n    certId = cert.keccakOfAllBytesAt(node2);\r\n    if (certId != parentId)\r\n      certs[certId].pubKey = cert.allBytesAt(node2);\r\n\r\n    // Get commonName and add references from it\r\n    node2 = cert.firstChildOf(node1);\r\n    while (Asn1Decode.isChildOf(node2, node1)) {\r\n      node3 = cert.firstChildOf(node2);\r\n      node3 = cert.firstChildOf(node3);\r\n      if ( cert.bytes32At(node3) == 0x5504030000000000000000000000000000000000000000000000000000000000 ) {\r\n        node3 = cert.nextSiblingOf(node3);\r\n        certIdsFromCN[cert.keccakOfBytesAt(node3)].push(certId);\r\n        refs[toEnsNamehash(cert.bytesAt(node3))] = cert.keccakOfBytesAt(node3);\r\n        break;\r\n      }\r\n      node2 = cert.nextSiblingOf(node2);\r\n    }\r\n\r\n    certs[certId].parentId = parentId;\r\n    certs[certId].serialNumber = serialNumber;\r\n    certs[certId].validNotAfter = validNotAfter;\r\n\r\n    // Add reference from sha256 fingerprint\r\n    refs[sha256(cert)] = certId;\r\n\r\n    if (cshx) {\r\n      node1 = cert.nextSiblingOf(node1);\r\n      node1 = cert.nextSiblingOf(node1);\r\n      node1 = cert.firstChildOf(node1);\r\n      node2 = cert.firstChildOf(node1);\r\n      while (Asn1Decode.isChildOf(node2, node1)) {\r\n        node3 = cert.firstChildOf(node2);\r\n        if ( cert.bytes32At(node3) == cshxOid ) {\r\n          certs[certId].cshx = true;\r\n          break;\r\n        }\r\n        node2 = cert.nextSiblingOf(node2);\r\n      }\r\n    }\r\n\r\n    // Fire event\r\n    emit CertAdded(certId);\r\n  }\r\n\r\n  /**\r\n   * @dev The return values of this function are used to proveOwnership() of a\r\n   *      certificate that exists in the certs mapping.\r\n   * @return A unique keccak256 hash to be signed\r\n   * @return The block number used in the hash\r\n   */\r\n  function signThis()\r\n  external view returns (bytes32, uint)\r\n  {\r\n    return ( keccak256(abi.encodePacked(msg.sender, blockhash(block.number - 1))), block.number -1 );\r\n  }\r\n\r\n  /**\r\n   * @dev An account calls this method to prove ownership of a certificate.\r\n   *      If successful, certs[certId].owner will be set to caller's address.\r\n   * @param certId The keccak256 hash of target certificate's public key\r\n   * @param signature signThis()[0] signed with certificate's private key\r\n   * @param blockNumber The value of signThis()[1] (must be >= block.number - 5760)\r\n   * @param sigAlg The OID of the algorithm used to sign `signature`\r\n   */\r\n  function proveOwnership(bytes32 certId, bytes calldata signature, uint blockNumber, bytes32 sigAlg)\r\n  external returns (bool)\r\n  {\r\n    bytes memory message;\r\n    // Only accept proof if it's less than about one day old (at 15sec/block)\r\n    require( block.number - blockNumber <= 5760 );\r\n    // Verify signature, which proves ownership\r\n    message = abi.encodePacked(keccak256(abi.encodePacked(msg.sender, blockhash(blockNumber))));\r\n    require( algs[sigAlg].verify(certs[certId].pubKey, message, signature) );\r\n\r\n    certs[certId].owner = msg.sender;\r\n\r\n    emit CertClaimed(certId);\r\n  }\r\n\r\n  function rootOf(bytes32 certId)\r\n  public view returns (bytes32)\r\n  {\r\n    while (certId != certs[certId].parentId) {\r\n      certId = certs[certId].parentId;\r\n    }\r\n    return certId;\r\n  }\r\n\r\n  function certIdsFromCNLength(bytes32 commonNameHash)\r\n  public view returns (uint)\r\n  {\r\n    return certIdsFromCN[commonNameHash].length;\r\n  }\r\n\r\n  function owners(bytes32 certId)\r\n  public view returns (address)\r\n  {\r\n    return certs[certId].owner;\r\n  }\r\n\r\n  function toTimestamp(bytes memory x509Time)\r\n  private view returns (uint)\r\n  {\r\n    uint16 yrs;  uint8 mnths;\r\n    uint8  dys;  uint8 hrs;\r\n    uint8  mins; uint8 secs;\r\n    uint8  offset;\r\n\r\n    if (x509Time.length == 13) {\r\n      if (uint8(x509Time[0])-48 < 5) yrs += 2000;\r\n      else yrs += 1900;\r\n    }\r\n    else {\r\n      yrs += (uint8(x509Time[0])-48) * 1000 + (uint8(x509Time[1])-48) * 100;\r\n      offset = 2;\r\n    }\r\n    yrs +=  (uint8(x509Time[offset+0])-48)*10 + uint8(x509Time[offset+1])-48;\r\n    mnths = (uint8(x509Time[offset+2])-48)*10 + uint8(x509Time[offset+3])-48;\r\n    dys +=  (uint8(x509Time[offset+4])-48)*10 + uint8(x509Time[offset+5])-48;\r\n    hrs +=  (uint8(x509Time[offset+6])-48)*10 + uint8(x509Time[offset+7])-48;\r\n    mins += (uint8(x509Time[offset+8])-48)*10 + uint8(x509Time[offset+9])-48;\r\n    secs += (uint8(x509Time[offset+10])-48)*10 + uint8(x509Time[offset+11])-48;\r\n\r\n    return dateTime.toTimestamp(yrs, mnths, dys, hrs, mins, secs);\r\n  }\r\n\r\n  function toEnsNamehash(bytes memory dn)\r\n  private pure returns (bytes32)\r\n  {\r\n    // if common name starts with 'www.'\r\n    if (dn[0] == 0x77 && dn[1] == 0x77 && dn[2] == 0x77 && dn[3] == 0x2e)\r\n      // omit 'www.'\r\n      return dn.substring(4, dn.length-4).namehash();\r\n\r\n    return dn.namehash();\r\n  }\r\n\r\n  function setAlg(bytes32 oid, address alg)\r\n  public onlyOwner\r\n  {\r\n    algs[oid] = Algorithm(alg);\r\n    emit AlgSet(oid, alg);\r\n  }\r\n\r\n  function setCshxOid(bytes32 _cshxOid)\r\n  public onlyOwner\r\n  {\r\n    cshxOid = _cshxOid;\r\n  }\r\n}\r\n",
  "sourcePath": "/home/jonah/x509-forest-of-trust/contracts/X509ForestOfTrust.sol",
  "compiler": {
    "name": "solc",
    "version": "0.5.1+commit.c8a2cb62.Emscripten.clang"
  },
  "schemaVersion": "3.0.0-beta.2",
  "updatedAt": "2018-12-11T00:29:48.653Z",
  "devdoc": {
    "methods": {
      "proveOwnership(bytes32,bytes,uint256,bytes32)": {
        "details": "An account calls this method to prove ownership of a certificate.\r     If successful, certs[certId].owner will be set to caller's address.\r",
        "params": {
          "blockNumber": "The value of signThis()[1] (must be >= block.number - 5760)\r",
          "certId": "The keccak256 hash of target certificate's public key\r",
          "sigAlg": "The OID of the algorithm used to sign `signature`\r",
          "signature": "signThis()[0] signed with certificate's private key\r"
        }
      },
      "signThis()": {
        "details": "The return values of this function are used to proveOwnership() of a\r     certificate that exists in the certs mapping.\r",
        "return": "A unique keccak256 hash to be signed\rThe block number used in the hash\r"
      }
    }
  },
  "userdoc": {
    "methods": {}
  }
}