{
  "contractName": "X509InTreeForestOfTrust",
  "abi": [
    {
      "constant": true,
      "inputs": [
        {
          "name": "",
          "type": "bytes32"
        }
      ],
      "name": "refs",
      "outputs": [
        {
          "name": "",
          "type": "bytes32"
        }
      ],
      "payable": false,
      "stateMutability": "view",
      "type": "function",
      "signature": "0x2761694a"
    },
    {
      "constant": true,
      "inputs": [
        {
          "name": "",
          "type": "bytes32"
        }
      ],
      "name": "certs",
      "outputs": [
        {
          "name": "owner",
          "type": "address"
        },
        {
          "name": "parentCert",
          "type": "bytes32"
        },
        {
          "name": "pubKey",
          "type": "bytes"
        },
        {
          "name": "serialNumber",
          "type": "uint256"
        },
        {
          "name": "validNotAfter",
          "type": "uint256"
        },
        {
          "name": "canSignHttpExchanges",
          "type": "bool"
        }
      ],
      "payable": false,
      "stateMutability": "view",
      "type": "function",
      "signature": "0x4063d812"
    },
    {
      "constant": true,
      "inputs": [
        {
          "name": "",
          "type": "bytes32"
        },
        {
          "name": "",
          "type": "uint256"
        }
      ],
      "name": "certIdsFromCN",
      "outputs": [
        {
          "name": "",
          "type": "bytes32"
        }
      ],
      "payable": false,
      "stateMutability": "view",
      "type": "function",
      "signature": "0xfe11602d"
    },
    {
      "inputs": [
        {
          "name": "sha256WithRSAEncryption",
          "type": "address"
        },
        {
          "name": "_dateTime",
          "type": "address"
        }
      ],
      "payable": false,
      "stateMutability": "nonpayable",
      "type": "constructor",
      "signature": "constructor"
    },
    {
      "anonymous": false,
      "inputs": [
        {
          "indexed": false,
          "name": "certId",
          "type": "bytes32"
        }
      ],
      "name": "CertAdded",
      "type": "event",
      "signature": "0xa8bcd2c977618c00f7fed703adeb0977d9b57eb1f309214e668e87ca390c5137"
    },
    {
      "anonymous": false,
      "inputs": [
        {
          "indexed": false,
          "name": "certId",
          "type": "bytes32"
        }
      ],
      "name": "CertClaimed",
      "type": "event",
      "signature": "0x5c088381a25fb06fe5d3936d0346b98d68146eea6dd3801386069db26fbac84f"
    },
    {
      "constant": false,
      "inputs": [
        {
          "name": "cert",
          "type": "bytes"
        },
        {
          "name": "signersPubKey",
          "type": "bytes"
        },
        {
          "name": "canSignHttpExchanges",
          "type": "bool"
        }
      ],
      "name": "addCert",
      "outputs": [
        {
          "name": "",
          "type": "bool"
        }
      ],
      "payable": false,
      "stateMutability": "nonpayable",
      "type": "function",
      "signature": "0x2a8ee06d"
    },
    {
      "constant": false,
      "inputs": [
        {
          "name": "cert",
          "type": "bytes"
        },
        {
          "name": "canSignHttpExchanges",
          "type": "bool"
        }
      ],
      "name": "addRootCert",
      "outputs": [
        {
          "name": "",
          "type": "bool"
        }
      ],
      "payable": false,
      "stateMutability": "nonpayable",
      "type": "function",
      "signature": "0x0049c3f6"
    },
    {
      "constant": true,
      "inputs": [],
      "name": "signThis",
      "outputs": [
        {
          "name": "",
          "type": "bytes32"
        },
        {
          "name": "",
          "type": "uint256"
        }
      ],
      "payable": false,
      "stateMutability": "view",
      "type": "function",
      "signature": "0x7c0656fd"
    },
    {
      "constant": false,
      "inputs": [
        {
          "name": "certId",
          "type": "bytes32"
        },
        {
          "name": "signature",
          "type": "bytes"
        },
        {
          "name": "blockNumber",
          "type": "uint256"
        },
        {
          "name": "sigAlgHash",
          "type": "bytes32"
        }
      ],
      "name": "proveOwnership",
      "outputs": [
        {
          "name": "",
          "type": "bool"
        }
      ],
      "payable": false,
      "stateMutability": "nonpayable",
      "type": "function",
      "signature": "0xc55dc2cc"
    }
  ],
  "bytecode": "0x608060405234801561001057600080fd5b506040516040806132898339810180604052810190808051906020019092919080519060200190929190505050816004600060405180807f2a864886f70d01010b0000000000000000000000000000000000000000000000815250600901905060405180910390206000191660001916815260200190815260200160002060006101000a81548173ffffffffffffffffffffffffffffffffffffffff021916908373ffffffffffffffffffffffffffffffffffffffff160217905550806000806101000a81548173ffffffffffffffffffffffffffffffffffffffff021916908373ffffffffffffffffffffffffffffffffffffffff16021790555060405180807f551d1300000000000000000000000000000000000000000000000000000000008152506003019050604051809103902060058160001916905550505061312c8061015d6000396000f300608060405260043610610082576000357c0100000000000000000000000000000000000000000000000000000000900463ffffffff16806249c3f6146100875780632761694a146101145780632a8ee06d146101615780634063d812146102345780637c0656fd14610339578063c55dc2cc14610373578063fe11602d146103ec575b600080fd5b34801561009357600080fd5b506100fa600480360381019080803590602001908201803590602001908080601f0160208091040260200160405190810160405280939291908181526020018383808284378201915050505050509192919290803515159060200190929190505050610443565b604051808215151515815260200191505060405180910390f35b34801561012057600080fd5b506101436004803603810190808035600019169060200190929190505050610534565b60405180826000191660001916815260200191505060405180910390f35b34801561016d57600080fd5b5061021a600480360381019080803590602001908201803590602001908080601f0160208091040260200160405190810160405280939291908181526020018383808284378201915050505050509192919290803590602001908201803590602001908080601f016020809104026020016040519081016040528093929190818152602001838380828437820191505050505050919291929080351515906020019092919050505061054c565b604051808215151515815260200191505060405180910390f35b34801561024057600080fd5b5061026360048036038101908080356000191690602001909291905050506111ec565b604051808773ffffffffffffffffffffffffffffffffffffffff1673ffffffffffffffffffffffffffffffffffffffff16815260200186600019166000191681526020018060200185815260200184815260200183151515158152602001828103825286818151815260200191508051906020019080838360005b838110156102f95780820151818401526020810190506102de565b50505050905090810190601f1680156103265780820380516001836020036101000a031916815260200191505b5097505050505050505060405180910390f35b34801561034557600080fd5b5061034e6112ed565b6040518083600019166000191681526020018281526020019250505060405180910390f35b34801561037f57600080fd5b506103d260048036038101908080356000191690602001909291908035906020019082018035906020019190919293919293908035906020019092919080356000191690602001909291905050506113cd565b604051808215151515815260200191505060405180910390f35b3480156103f857600080fd5b5061042560048036038101908080356000191690602001909291908035906020019092919050505061179f565b60405180826000191660001916815260200191505060405180910390f35b60008061044f846117cf565b905061046481856117e390919063ffffffff16565b905061047981856117e390919063ffffffff16565b905061048e81856117e390919063ffffffff16565b90506104a3818561194090919063ffffffff16565b90506104b8818561194090919063ffffffff16565b90506104cd818561194090919063ffffffff16565b90506104e2818561194090919063ffffffff16565b90506104f7818561194090919063ffffffff16565b905061050c818561194090919063ffffffff16565b905061052b84610525838761195f90919063ffffffff16565b8561054c565b91505092915050565b60036020528060005260406000206000915090505481565b60008060008060008060006105608a6117cf565b9250610575838b6117e390919063ffffffff16565b925061058a838b6117e390919063ffffffff16565b915061059f828b6117e390919063ffffffff16565b91506105b4828b61194090919063ffffffff16565b91506105c9828b6119a190919063ffffffff16565b94506105de828b61194090919063ffffffff16565b91506105f3828b6117e390919063ffffffff16565b9150610608838b61194090919063ffffffff16565b905061061d818b61194090919063ffffffff16565b905060046000610636848d611c1a90919063ffffffff16565b6040518082805190602001908083835b60208310151561066b5780518252602082019150602081019050602083039250610646565b6001836020036101000a03801982511681845116808217855250505050505090500191505060405180910390206000191660001916815260200190815260200160002060009054906101000a900473ffffffffffffffffffffffffffffffffffffffff1673ffffffffffffffffffffffffffffffffffffffff1663de8f50a18a6106fe868e61195f90919063ffffffff16565b610711858f611c1a90919063ffffffff16565b6040518463ffffffff167c010000000000000000000000000000000000000000000000000000000002815260040180806020018060200180602001848103845287818151815260200191508051906020019080838360005b83811015610784578082015181840152602081019050610769565b50505050905090810190601f1680156107b15780820380516001836020036101000a031916815260200191505b50848103835286818151815260200191508051906020019080838360005b838110156107ea5780820151818401526020810190506107cf565b50505050905090810190601f1680156108175780820380516001836020036101000a031916815260200191505b50848103825285818151815260200191508051906020019080838360005b83811015610850578082015181840152602081019050610835565b50505050905090810190601f16801561087d5780820380516001836020036101000a031916815260200191505b509650505050505050602060405180830381600087803b1580156108a057600080fd5b505af11580156108b4573d6000803e3d6000fd5b505050506040513d60208110156108ca57600080fd5b8101908080519060200190929190505050151561094f576040517f08c379a00000000000000000000000000000000000000000000000000000000081526004018080602001828103825260168152602001807f5369676e617475726520646f65736e74206d617463680000000000000000000081525060200191505060405180910390fd5b610962838b6117e390919063ffffffff16565b9250610977838b6117e390919063ffffffff16565b925061098c838b61194090919063ffffffff16565b92506109a1838b61194090919063ffffffff16565b92506109b6838b61194090919063ffffffff16565b92506109cb838b61194090919063ffffffff16565b92506109e0838b6117e390919063ffffffff16565b9150426109fe6109f9848d611c1a90919063ffffffff16565b611c5c565b11151515610a74576040517f08c379a000000000000000000000000000000000000000000000000000000000815260040180806020018281038252600c8152602001807f496e76616c69642063657274000000000000000000000000000000000000000081525060200191505060405180910390fd5b610a87828b61194090919063ffffffff16565b9150610aa4610a9f838c611c1a90919063ffffffff16565b611c5c565b9350834211151515610b1e576040517f08c379a000000000000000000000000000000000000000000000000000000000815260040180806020018281038252600c8152602001807f496e76616c69642063657274000000000000000000000000000000000000000081525060200191505060405180910390fd5b610b31838b61194090919063ffffffff16565b9250610b46838b61194090919063ffffffff16565b9150610b5b828b61195f90919063ffffffff16565b6040518082805190602001908083835b602083101515610b905780518252602082019150602081019050602083039250610b6b565b6001836020036101000a03801982511681845116808217855250505050505090500191505060405180910390209550610bd2838b6117e390919063ffffffff16565b91505b610bdf82846125bc565b15610e6c57610bf7828b6117e390919063ffffffff16565b9050610c0c818b6117e390919063ffffffff16565b905060405180807f55040300000000000000000000000000000000000000000000000000000000008152506003019050604051809103902060001916610c5b828c611c1a90919063ffffffff16565b6040518082805190602001908083835b602083101515610c905780518252602082019150602081019050602083039250610c6b565b6001836020036101000a0380198251168184511680821785525050505050509050019150506040518091039020600019161415610e5257610cda818b61194090919063ffffffff16565b905060026000610cf3838d611c1a90919063ffffffff16565b6040518082805190602001908083835b602083101515610d285780518252602082019150602081019050602083039250610d03565b6001836020036101000a038019825116818451168082178552505050505050905001915050604051809103902060001916600019168152602001908152602001600020869080600181540180825580915050906001820390600052602060002001600090919290919091509060001916905550610dae818b611c1a90919063ffffffff16565b6040518082805190602001908083835b602083101515610de35780518252602082019150602081019050602083039250610dbe565b6001836020036101000a038019825116818451168082178552505050505050905001915050604051809103902060036000610e2f610e2a858f611c1a90919063ffffffff16565b61262d565b600019166000191681526020019081526020016000208160001916905550610e6c565b610e65828b61194090919063ffffffff16565b9150610bd5565b610e7f838b61194090919063ffffffff16565b9250610e94838b61195f90919063ffffffff16565b6001600088600019166000191681526020019081526020016000206002019080519060200190610ec592919061305b565b50886040518082805190602001908083835b602083101515610efc5780518252602082019150602081019050602083039250610ed7565b6001836020036101000a0380198251168184511680821785525050505050509050019150506040518091039020600160008860001916600019168152602001908152602001600020600101816000191690555084600160008860001916600019168152602001908152602001600020600301819055508360016000886000191660001916815260200190815260200160002060040181905550856003600060028d6040518082805190602001908083835b602083101515610fd25780518252602082019150602081019050602083039250610fad565b6001836020036101000a0380198251168184511680821785525050505050509050019150506020604051808303816000865af1158015611016573d6000803e3d6000fd5b5050506040513d602081101561102b57600080fd5b810190808051906020019092919050505060001916600019168152602001908152602001600020816000191690555087156111a057611073838b61194090919063ffffffff16565b9250611088838b6117e390919063ffffffff16565b925061109d838b6117e390919063ffffffff16565b91505b6110aa82846125bc565b1561119f576110c2828b6117e390919063ffffffff16565b9050600554600019166110de828c611c1a90919063ffffffff16565b6040518082805190602001908083835b60208310151561111357805182526020820191506020810190506020830392506110ee565b6001836020036101000a0380198251168184511680821785525050505050509050019150506040518091039020600019161415611185576001806000886000191660001916815260200190815260200160002060050160006101000a81548160ff02191690831515021790555061119f565b611198828b61194090919063ffffffff16565b91506110a0565b5b7fa8bcd2c977618c00f7fed703adeb0977d9b57eb1f309214e668e87ca390c51378660405180826000191660001916815260200191505060405180910390a15050505050509392505050565b60016020528060005260406000206000915090508060000160009054906101000a900473ffffffffffffffffffffffffffffffffffffffff1690806001015490806002018054600181600116156101000203166002900480601f0160208091040260200160405190810160405280929190818152602001828054600181600116156101000203166002900480156112c45780601f10611299576101008083540402835291602001916112c4565b820191906000526020600020905b8154815290600101906020018083116112a757829003601f168201915b5050505050908060030154908060040154908060050160009054906101000a900460ff16905086565b600080336001430340604051602001808373ffffffffffffffffffffffffffffffffffffffff1673ffffffffffffffffffffffffffffffffffffffff166c010000000000000000000000000281526014018260001916600019168152602001925050506040516020818303038152906040526040518082805190602001908083835b602083101515611394578051825260208201915060208101905060208303925061136f565b6001836020036101000a038019825116818451168082178552505050505050905001915050604051809103902060014303915091509091565b60006060611680844303111515156113e457600080fd5b338440604051602001808373ffffffffffffffffffffffffffffffffffffffff1673ffffffffffffffffffffffffffffffffffffffff166c010000000000000000000000000281526014018260001916600019168152602001925050506040516020818303038152906040526040518082805190602001908083835b6020831015156114855780518252602082019150602081019050602083039250611460565b6001836020036101000a0380198251168184511680821785525050505050509050019150506040518091039020604051602001808260001916600019168152602001915050604051602081830303815290604052905060046000846000191660001916815260200190815260200160002060009054906101000a900473ffffffffffffffffffffffffffffffffffffffff1673ffffffffffffffffffffffffffffffffffffffff1663de8f50a1600160008a600019166000191681526020019081526020016000206002018389896040518563ffffffff167c01000000000000000000000000000000000000000000000000000000000281526004018080602001806020018060200184810384528881815460018160011615610100020316600290048152602001915080546001816001161561010002031660029004801561160f5780601f106115e45761010080835404028352916020019161160f565b820191906000526020600020905b8154815290600101906020018083116115f257829003601f168201915b5050848103835287818151815260200191508051906020019080838360005b8381101561164957808201518184015260208101905061162e565b50505050905090810190601f1680156116765780820380516001836020036101000a031916815260200191505b5084810382528686828181526020019250808284378201915050975050505050505050602060405180830381600087803b1580156116b357600080fd5b505af11580156116c7573d6000803e3d6000fd5b505050506040513d60208110156116dd57600080fd5b810190808051906020019092919050505015156116f957600080fd5b3360016000896000191660001916815260200190815260200160002060000160006101000a81548173ffffffffffffffffffffffffffffffffffffffff021916908373ffffffffffffffffffffffffffffffffffffffff1602179055507f5c088381a25fb06fe5d3936d0346b98d68146eea6dd3801386069db26fbac84f8760405180826000191660001916815260200191505060405180910390a15095945050505050565b6002602052816000526040600020818154811015156117ba57fe5b90600052602060002001600091509150505481565b60006117dc826000612b11565b9050919050565b600060207f01000000000000000000000000000000000000000000000000000000000000000260207f0100000000000000000000000000000000000000000000000000000000000000028461183785612daa565b81518110151561184357fe5b9060200101517f010000000000000000000000000000000000000000000000000000000000000090047f010000000000000000000000000000000000000000000000000000000000000002167effffffffffffffffffffffffffffffffffffffffffffffffffffffffffffff1916141515611926576040517f08c379a00000000000000000000000000000000000000000000000000000000081526004018080602001828103825260168152602001807f4e6f74206120636f6e737472756374656420747970650000000000000000000081525060200191505060405180910390fd5b6119388361193384612dc0565b612b11565b905092915050565b600061195783600161195185612dde565b01612b11565b905092915050565b6060600061196c83612daa565b600161197785612dde565b0103905061199861198784612daa565b8286612dfc9092919063ffffffff16565b91505092915050565b600060027f010000000000000000000000000000000000000000000000000000000000000002836119d184612daa565b8151811015156119dd57fe5b9060200101517f010000000000000000000000000000000000000000000000000000000000000090047f0100000000000000000000000000000000000000000000000000000000000000027effffffffffffffffffffffffffffffffffffffffffffffffffffffffffffff1916141515611abf576040517f08c379a00000000000000000000000000000000000000000000000000000000081526004018080602001828103825260108152602001807f4e6f74207479706520494e54454745520000000000000000000000000000000081525060200191505060405180910390fd5b60007f01000000000000000000000000000000000000000000000000000000000000000260807f01000000000000000000000000000000000000000000000000000000000000000284611b1185612dc0565b815181101515611b1d57fe5b9060200101517f010000000000000000000000000000000000000000000000000000000000000090047f010000000000000000000000000000000000000000000000000000000000000002167effffffffffffffffffffffffffffffffffffffffffffffffffffffffffffff1916141515611c00576040517f08c379a000000000000000000000000000000000000000000000000000000000815260040180806020018281038252600c8152602001807f4e6f7420706f736974697665000000000000000000000000000000000000000081525060200191505060405180910390fd5b611c12611c0d8484611c1a565b612e70565b905092915050565b60606000611c2783612dc0565b6001611c3285612dde565b01039050611c53611c4284612dc0565b8286612dfc9092919063ffffffff16565b91505092915050565b600080600080600080600080600d89511415611d1757600560308a6000815181101515611c8557fe5b9060200101517f010000000000000000000000000000000000000000000000000000000000000090047f0100000000000000000000000000000000000000000000000000000000000000027f010000000000000000000000000000000000000000000000000000000000000090040361ffff161015611d0a576107d087019650611d12565b61076c870196505b611e28565b606460308a6001815181101515611d2a57fe5b9060200101517f010000000000000000000000000000000000000000000000000000000000000090047f0100000000000000000000000000000000000000000000000000000000000000027f0100000000000000000000000000000000000000000000000000000000000000900403026103e860308b6000815181101515611dae57fe5b9060200101517f010000000000000000000000000000000000000000000000000000000000000090047f0100000000000000000000000000000000000000000000000000000000000000027f0100000000000000000000000000000000000000000000000000000000000000900403020187019650600290505b6030896001830160ff16815181101515611e3e57fe5b9060200101517f010000000000000000000000000000000000000000000000000000000000000090047f0100000000000000000000000000000000000000000000000000000000000000027f01000000000000000000000000000000000000000000000000000000000000009004600a60308c6000860160ff16815181101515611ec457fe5b9060200101517f010000000000000000000000000000000000000000000000000000000000000090047f0100000000000000000000000000000000000000000000000000000000000000027f010000000000000000000000000000000000000000000000000000000000000090040302010360ff16870196506030896003830160ff16815181101515611f5357fe5b9060200101517f010000000000000000000000000000000000000000000000000000000000000090047f0100000000000000000000000000000000000000000000000000000000000000027f01000000000000000000000000000000000000000000000000000000000000009004600a60308c6002860160ff16815181101515611fd957fe5b9060200101517f010000000000000000000000000000000000000000000000000000000000000090047f0100000000000000000000000000000000000000000000000000000000000000027f010000000000000000000000000000000000000000000000000000000000000090040302010395506030896005830160ff1681518110151561206357fe5b9060200101517f010000000000000000000000000000000000000000000000000000000000000090047f0100000000000000000000000000000000000000000000000000000000000000027f01000000000000000000000000000000000000000000000000000000000000009004600a60308c6004860160ff168151811015156120e957fe5b9060200101517f010000000000000000000000000000000000000000000000000000000000000090047f0100000000000000000000000000000000000000000000000000000000000000027f0100000000000000000000000000000000000000000000000000000000000000900403020103850194506030896007830160ff1681518110151561217557fe5b9060200101517f010000000000000000000000000000000000000000000000000000000000000090047f0100000000000000000000000000000000000000000000000000000000000000027f01000000000000000000000000000000000000000000000000000000000000009004600a60308c6006860160ff168151811015156121fb57fe5b9060200101517f010000000000000000000000000000000000000000000000000000000000000090047f0100000000000000000000000000000000000000000000000000000000000000027f0100000000000000000000000000000000000000000000000000000000000000900403020103840193506030896009830160ff1681518110151561228757fe5b9060200101517f010000000000000000000000000000000000000000000000000000000000000090047f0100000000000000000000000000000000000000000000000000000000000000027f01000000000000000000000000000000000000000000000000000000000000009004600a60308c6008860160ff1681518110151561230d57fe5b9060200101517f010000000000000000000000000000000000000000000000000000000000000090047f0100000000000000000000000000000000000000000000000000000000000000027f010000000000000000000000000000000000000000000000000000000000000090040302010383019250603089600b830160ff1681518110151561239957fe5b9060200101517f010000000000000000000000000000000000000000000000000000000000000090047f0100000000000000000000000000000000000000000000000000000000000000027f01000000000000000000000000000000000000000000000000000000000000009004600a60308c600a860160ff1681518110151561241f57fe5b9060200101517f010000000000000000000000000000000000000000000000000000000000000090047f0100000000000000000000000000000000000000000000000000000000000000027f0100000000000000000000000000000000000000000000000000000000000000900403020103820191506000809054906101000a900473ffffffffffffffffffffffffffffffffffffffff1673ffffffffffffffffffffffffffffffffffffffff16639054bdec8888888888886040518763ffffffff167c0100000000000000000000000000000000000000000000000000000000028152600401808761ffff1661ffff1681526020018660ff1660ff1681526020018560ff1660ff1681526020018460ff1660ff1681526020018360ff1660ff1681526020018260ff1660ff1681526020019650505050505050602060405180830381600087803b15801561257357600080fd5b505af1158015612587573d6000803e3d6000fd5b505050506040513d602081101561259d57600080fd5b8101908080519060200190929190505050975050505050505050919050565b60006125c782612daa565b6125d084612dc0565b111580156125ee57506125e283612dde565b6125eb83612dde565b11155b8061262557506125fd83612daa565b61260683612dc0565b11158015612624575061261882612dde565b61262184612dde565b11155b5b905092915050565b600060777f01000000000000000000000000000000000000000000000000000000000000000282600081518110151561266257fe5b9060200101517f010000000000000000000000000000000000000000000000000000000000000090047f0100000000000000000000000000000000000000000000000000000000000000027effffffffffffffffffffffffffffffffffffffffffffffffffffffffffffff1916148015612779575060777f01000000000000000000000000000000000000000000000000000000000000000282600181518110151561270a57fe5b9060200101517f010000000000000000000000000000000000000000000000000000000000000090047f0100000000000000000000000000000000000000000000000000000000000000027effffffffffffffffffffffffffffffffffffffffffffffffffffffffffffff1916145b8015612822575060777f0100000000000000000000000000000000000000000000000000000000000000028260028151811015156127b357fe5b9060200101517f010000000000000000000000000000000000000000000000000000000000000090047f0100000000000000000000000000000000000000000000000000000000000000027effffffffffffffffffffffffffffffffffffffffffffffffffffffffffffff1916145b80156128cb5750602e7f01000000000000000000000000000000000000000000000000000000000000000282600381518110151561285c57fe5b9060200101517f010000000000000000000000000000000000000000000000000000000000000090047f0100000000000000000000000000000000000000000000000000000000000000027effffffffffffffffffffffffffffffffffffffffffffffffffffffffffffff1916145b156129fc576128e960048084510384612f2d9092919063ffffffff16565b73__NameHash______________________________630987996290916040518263ffffffff167c01000000000000000000000000000000000000000000000000000000000281526004018080602001828103825283818151815260200191508051906020019080838360005b83811015612970578082015181840152602081019050612955565b50505050905090810190601f16801561299d5780820380516001836020036101000a031916815260200191505b509250505060206040518083038186803b1580156129ba57600080fd5b505af41580156129ce573d6000803e3d6000fd5b505050506040513d60208110156129e457600080fd5b81019080805190602001909291905050509050612b0c565b8173__NameHash______________________________630987996290916040518263ffffffff167c01000000000000000000000000000000000000000000000000000000000281526004018080602001828103825283818151815260200191508051906020019080838360005b83811015612a84578082015181840152602081019050612a69565b50505050905090810190601f168015612ab15780820380516001836020036101000a031916815260200191505b509250505060206040518083038186803b158015612ace57600080fd5b505af4158015612ae2573d6000803e3d6000fd5b505050506040513d6020811015612af857600080fd5b810190808051906020019092919050505090505b919050565b600080600080600080606060008960018a01815181101515612b2f57fe5b9060200101517f010000000000000000000000000000000000000000000000000000000000000090047f0100000000000000000000000000000000000000000000000000000000000000027f01000000000000000000000000000000000000000000000000000000000000009004965060007f01000000000000000000000000000000000000000000000000000000000000000260807f0100000000000000000000000000000000000000000000000000000000000000028b60018c01815181101515612bf857fe5b9060200101517f010000000000000000000000000000000000000000000000000000000000000090047f010000000000000000000000000000000000000000000000000000000000000002167effffffffffffffffffffffffffffffffffffffffffffffffffffffffffffff19161415612c82578695506002890194506001868601039350612d90565b607f87169250826040519080825280601f01601f191660200182016040528015612cbb5781602001602082028038833980820191505090505b509150600090505b82811015612d7457898160028b0101815181101515612cde57fe5b9060200101517f010000000000000000000000000000000000000000000000000000000000000090047f0100000000000000000000000000000000000000000000000000000000000000028282815181101515612d3757fe5b9060200101907effffffffffffffffffffffffffffffffffffffffffffffffffffffffffffff1916908160001a9053508080600101915050612cc3565b612d7d82612e70565b95508260028a0101945060018686010393505b612d9b898686612fa1565b97505050505050505092915050565b60008169ffffffffffffffffffff169050919050565b60006050829060020a900469ffffffffffffffffffff169050919050565b600060a0829060020a900469ffffffffffffffffffff169050919050565b606080600080865185870111151515612e1457600080fd5b846040519080825280601f01601f191660200182016040528015612e475781602001602082028038833980820191505090505b5092506020830191508560208801019050612e63828287612fc5565b8293505050509392505050565b6000806000809150600090505b83518160ff161015612f23576008829060020a029150838160ff16815181101515612ea457fe5b9060200101517f010000000000000000000000000000000000000000000000000000000000000090047f0100000000000000000000000000000000000000000000000000000000000000027f01000000000000000000000000000000000000000000000000000000000000009004821791508080600101915050612e7d565b8192505050919050565b606080600080865185870111151515612f4557600080fd5b846040519080825280601f01601f191660200182016040528015612f785781602001602082028038833980820191505090505b5092506020830191508560208801019050612f94828287613010565b8293505050509392505050565b60006050839060020a028417935060a0829060020a02841793508390509392505050565b60005b602082101515612fed5782518452602084019350602083019250602082039150612fc8565b6001826020036101000a0390508019835116818551168181178652505050505050565b60005b6020821015156130385782518452602084019350602083019250602082039150613013565b6001826020036101000a0390508019835116818551168181178652505050505050565b828054600181600116156101000203166002900490600052602060002090601f016020900481019282601f1061309c57805160ff19168380011785556130ca565b828001600101855582156130ca579182015b828111156130c95782518255916020019190600101906130ae565b5b5090506130d791906130db565b5090565b6130fd91905b808211156130f95760008160009055506001016130e1565b5090565b905600a165627a7a723058205837a432011478e638a047bec77e460c30e432662bccd1c652aac4f682fa6a9f0029",
  "source": "pragma solidity  ^0.4.25;\r\n\r\nimport \"asn1-decode/contracts/Asn1Decode.sol\";\r\nimport \"@ensdomains/dnssec-oracle/contracts/BytesUtils.sol\";\r\nimport \"sig-verify-algs/contracts/Algorithm.sol\";\r\nimport \"ens-solidity-namehash/contracts/NameHash.sol\";\r\nimport \"ethereum-datetime/contracts/DateTime.sol\";\r\n\r\ncontract X509InTreeForestOfTrust {\r\n  using Asn1Decode for bytes;\r\n  using BytesUtils for bytes;\r\n  using NameHash for string;\r\n\r\n  constructor(address sha256WithRSAEncryption, address _dateTime) public {\r\n    algs[keccak256('\\x2a\\x86\\x48\\x86\\xf7\\x0d\\x01\\x01\\x0b')] = Algorithm(sha256WithRSAEncryption);\r\n    dateTime = DateTime(_dateTime);\r\n    cshxOidHash = keccak256(\"\\x55\\x1d\\x13\"); // change to actual oid of canSignHttpExchanges\r\n  }\r\n\r\n  DateTime dateTime;\r\n\r\n  struct Certificate {\r\n    address owner;\r\n    bytes32 parentCert;\r\n    bytes pubKey;\r\n    uint serialNumber;\r\n    uint validNotAfter;\r\n    bool canSignHttpExchanges;\r\n  }\r\n  // certId => cert\r\n  mapping (bytes32 => Certificate) public certs;\r\n  // keccak256(commonName) => certId\r\n  mapping (bytes32 => bytes32[]) public certIdsFromCN;\r\n  // fingerprint => certId or ensNamehash(commonName) => keccak256(commonName)\r\n  mapping (bytes32 => bytes32) public refs;\r\n\r\n  mapping(bytes32 => Algorithm) private algs;\r\n  bytes32 private cshxOidHash;\r\n\r\n  event CertAdded(bytes32 certId);\r\n  event CertClaimed(bytes32 certId);\r\n\r\n\r\n  /* TODO add function to set certificate\r\n  function rovokeCertificate(bytes certificateRevocation, bytes signature, bytes32 authorityCertificateId)\r\n  /*\r\n   * NOTICE: This function is currently unfinished. Needs to extract\r\n   * validNotBefore and validNotAfter and initialize the certificate with those\r\n   * values too!! (shouldn't take much work).\r\n   *\r\n   * Adds a X509 certificate to the certs mapping, which is indexed on\r\n   * certId (the keccak256 hash of its public key). Anyone can call this\r\n   * method so long as they have the funds to cover the transaction. The\r\n   * certificate must be signed and valid (but not nessisarily by any existing\r\n   * certs in the mapping). Certificates may be self-signed. The idea is\r\n   * to pulicise a verified chain of trust on the blockchain that can be\r\n   * referenced by other contracts.\r\n   *\r\n   * @param tbsCert The entire tbsCertificate node of the der-encoded\r\n   *        X509 certificate.\r\n   * @param signature The signed sha256 hash of (DER-encoded) tbsCertificate (signed with\r\n   *        signersPubKey param). Should be found in same X509 cert as tbsCertificate\r\n   * @param signersPubKey The DER-encoded node of the public key used to sign\r\n   *        the signature param.\r\n   */\r\n  function addCert(bytes cert, bytes signersPubKey, bool canSignHttpExchanges)\r\n  public returns (bool)\r\n  {\r\n    bytes32 certId;\r\n    uint serialNumber;\r\n    uint validNotAfter;\r\n    uint node1;\r\n    uint node2;\r\n    uint node3;\r\n\r\n    node1 = cert.root();\r\n    node1 = cert.firstChildOf(node1);\r\n    node2 = cert.firstChildOf(node1);\r\n    node2 = cert.firstChildOf(node2);\r\n    node2 = cert.nextSiblingOf(node2);\r\n    // Extract serial number\r\n    serialNumber = cert.uintAt(node2);\r\n\r\n    node2 = cert.nextSiblingOf(node2);\r\n    node2 = cert.firstChildOf(node2);\r\n    node3 = cert.nextSiblingOf(node1);\r\n    node3 = cert.nextSiblingOf(node3);\r\n    // Verify signature\r\n    require( algs[keccak256(cert.bytesAt(node2))].verify(signersPubKey, cert.allBytesAt(node1), cert.bytesAt(node3)), \"Signature doesnt match\");\r\n\r\n    node1 = cert.firstChildOf(node1);\r\n    node1 = cert.firstChildOf(node1);\r\n    node1 = cert.nextSiblingOf(node1);\r\n    node1 = cert.nextSiblingOf(node1);\r\n    node1 = cert.nextSiblingOf(node1);\r\n    node1 = cert.nextSiblingOf(node1);\r\n\r\n    node2 = cert.firstChildOf(node1);\r\n    require(toTimestamp(cert.bytesAt(node2)) <= now, \"Invalid cert\");\r\n    node2 = cert.nextSiblingOf(node2);\r\n    validNotAfter = toTimestamp(cert.bytesAt(node2));\r\n    require(now <= validNotAfter, \"Invalid cert\");\r\n\r\n    node1 = cert.nextSiblingOf(node1);\r\n    node2 = cert.nextSiblingOf(node1);\r\n    // Extract public key and calculate certId from it\r\n    certId = keccak256(cert.allBytesAt(node2));\r\n\r\n    node2 = cert.firstChildOf(node1);\r\n    while (Asn1Decode.isChildOf(node2, node1)) {\r\n      node3 = cert.firstChildOf(node2);\r\n      node3 = cert.firstChildOf(node3);\r\n      if ( keccak256(cert.bytesAt(node3)) == keccak256(\"\\x55\\x04\\x03\") ) {\r\n        node3 = cert.nextSiblingOf(node3);\r\n        certIdsFromCN[keccak256(cert.bytesAt(node3))].push(certId);\r\n        refs[toEnsNamehash(cert.bytesAt(node3))] = keccak256(cert.bytesAt(node3));\r\n        break;\r\n      }\r\n      node2 = cert.nextSiblingOf(node2);\r\n    }\r\n\r\n    node1 = cert.nextSiblingOf(node1);\r\n\r\n    // Add certificate to certs mapping\r\n    certs[certId].pubKey = cert.allBytesAt(node1);\r\n    certs[certId].parentCert = keccak256(signersPubKey);\r\n    certs[certId].serialNumber = serialNumber;\r\n    certs[certId].validNotAfter = validNotAfter;\r\n\r\n    // Add reference from sha256 fingerprint\r\n    refs[sha256(cert)] = certId;\r\n\r\n    if (canSignHttpExchanges) {\r\n      node1 = cert.nextSiblingOf(node1);\r\n      node1 = cert.firstChildOf(node1);\r\n      node2 = cert.firstChildOf(node1);\r\n      while (Asn1Decode.isChildOf(node2, node1)) {\r\n        node3 = cert.firstChildOf(node2);\r\n        if ( keccak256(cert.bytesAt(node3)) == cshxOidHash ) {\r\n          certs[certId].canSignHttpExchanges = true;\r\n          break;\r\n        }\r\n        node2 = cert.nextSiblingOf(node2);\r\n      }\r\n    }\r\n\r\n    // Fire event\r\n    emit CertAdded(certId);\r\n  }\r\n\r\n  function addRootCert(bytes cert, bool canSignHttpExchanges)\r\n  public returns (bool)\r\n  {\r\n    uint node;\r\n    // get pub key\r\n    node = cert.root();\r\n    node = cert.firstChildOf(node);\r\n    node = cert.firstChildOf(node);\r\n    node = cert.firstChildOf(node);\r\n    node = cert.nextSiblingOf(node);\r\n    node = cert.nextSiblingOf(node);\r\n    node = cert.nextSiblingOf(node);\r\n    node = cert.nextSiblingOf(node);\r\n    node = cert.nextSiblingOf(node);\r\n    node = cert.nextSiblingOf(node);\r\n\r\n    return addCert(cert, cert.allBytesAt(node), canSignHttpExchanges);\r\n  }\r\n\r\n  /*\r\n   * Adds a reference to certIds mapping. Reference must go to a\r\n   * certId of an existing certificate. The reference (the key) is from\r\n   * the keccak256 hash of the node at keyLocation of certs[certId]\r\n   * to certId.\r\n   *\r\n   * @param certifiacateId The certId to which we are adding a reference.\r\n   *        (must be the certId of a certificate in certs mapping)\r\n   * @param keyLocation The traversal instructions for the desired node from which\r\n   *        the reference key is derived. Same encoding as \"location\" param in\r\n   *        traverse() function.\r\n   */\r\n  /* function addReference(bytes32 certId, bytes keyLocation) public {\r\n    uint node;\r\n    bytes memory v;\r\n\r\n    node = Asn1Decode.traverse(certs[certId].tbsCertificate, keyLocation);\r\n    v = node.getValue(certs[certId].tbsCertificate);\r\n    certIds[keccak256(v)].push(certId);\r\n  } */\r\n\r\n  /**\r\n   * The return values of this function are used to proveOwnership() of a\r\n   * certificate that exists in the certs mapping.\r\n\r\n   * @return A unique keccak256 hash to be signed\r\n   * @return The block number used in the hash\r\n   */\r\n  function signThis()\r\n  external view returns (bytes32, uint)\r\n  {\r\n    return ( keccak256(abi.encodePacked(msg.sender, blockhash(block.number - 1))), block.number -1 );\r\n  }\r\n\r\n  /**\r\n   * An eth account calls this method to prove ownership of a certificate in\r\n   * certs mapping. If successful, certs[certId].owner will\r\n   * be set to the caller's address. To change owner of a cert, this method must\r\n   *  be called from the new desired owner address.\r\n   *\r\n   * @param certId The keccak256 hash of target certificate's public key\r\n   * @param signature The SHA256 RSA signature of signThis()[0]\r\n   * @param blockNumber The value of signThis()[1] (must be >= block.number - 5760)\r\n   */\r\n  function proveOwnership(bytes32 certId, bytes signature, uint blockNumber, bytes32 sigAlgHash)\r\n  external returns (bool)\r\n  {\r\n    bytes memory message;\r\n    // Only accept proof if it's less than about one day old (at 15sec/block)\r\n    require( block.number - blockNumber <= 5760 );\r\n    // Verify signature, which proves ownership\r\n    message = abi.encodePacked(keccak256(abi.encodePacked(msg.sender, blockhash(blockNumber))));\r\n    require( algs[sigAlgHash].verify(certs[certId].pubKey, message, signature) );\r\n\r\n    certs[certId].owner = msg.sender;\r\n\r\n    emit CertClaimed(certId);\r\n  }\r\n\r\n  function toTimestamp(bytes x509Time)\r\n  private view returns (uint)\r\n  {\r\n    uint16 yrs;  uint8 mnths;\r\n    uint8  dys;  uint8 hrs;\r\n    uint8  mins; uint8 secs;\r\n    uint8  offset;\r\n\r\n    if (x509Time.length == 13) {\r\n      if (uint16(x509Time[0])-48 < 5) yrs += 2000;\r\n      else yrs += 1900;\r\n    }\r\n    else {\r\n      yrs += (uint16(x509Time[0])-48) * 1000 + (uint16(x509Time[1])-48) * 100;\r\n      offset = 2;\r\n    }\r\n    yrs +=  (uint8(x509Time[offset+0])-48)*10 + uint8(x509Time[offset+1])-48;\r\n    mnths = (uint8(x509Time[offset+2])-48)*10 + uint8(x509Time[offset+3])-48;\r\n    dys +=  (uint8(x509Time[offset+4])-48)*10 + uint8(x509Time[offset+5])-48;\r\n    hrs +=  (uint8(x509Time[offset+6])-48)*10 + uint8(x509Time[offset+7])-48;\r\n    mins += (uint8(x509Time[offset+8])-48)*10 + uint8(x509Time[offset+9])-48;\r\n    secs += (uint8(x509Time[offset+10])-48)*10 + uint8(x509Time[offset+11])-48;\r\n\r\n    return dateTime.toTimestamp(yrs, mnths, dys, hrs, mins, secs);\r\n  }\r\n\r\n  function toEnsNamehash(bytes dn)\r\n  private view returns (bytes32)\r\n  {\r\n    // if common name starts with 'www.'\r\n    if (dn[0] == 0x77 && dn[1] == 0x77 && dn[2] == 0x77 && dn[3] == 0x2e)\r\n      // omit 'www.'\r\n      return string(dn.substring(4, dn.length-4)).namehash();\r\n\r\n    return string(dn).namehash();\r\n  }\r\n\r\n  /* function owner(bytes32 certId) public view returns (address) {\r\n    return certs[certId].owner;\r\n  }\r\n  function parentCert(bytes32 certId) public view returns (bytes32) {\r\n    return certs[certId].parentCert;\r\n  }\r\n  function pubKey(bytes32 certId) public view returns (bytes) {\r\n    return certs[certId].pubKey;\r\n  }\r\n  function serialNumber(bytes32 certId) public view returns (uint) {\r\n    return certs[certId].serialNumber;\r\n  }\r\n  function validNotAfter(bytes32 certId) public view returns (uint) {\r\n    return certs[certId].validNotAfter;\r\n  }\r\n  function canSignHttpExchanges(bytes32 certId) public view returns (bool) {\r\n    return certs[certId].canSignHttpExchanges;\r\n  } */\r\n}\r\n",
  "sourcePath": "/home/jonah/x509-forest-of-trust/contracts/X509InTreeForestOfTrust.sol",
  "compiler": {
    "name": "solc",
    "version": "0.4.25+commit.59dbf8f1.Emscripten.clang"
  },
  "schemaVersion": "3.0.0-beta.1",
  "updatedAt": "2018-11-27T02:11:56.140Z"
}