{
  "contractName": "X509InTreeForestOfTrust",
  "abi": [
    {
      "inputs": [
        {
          "name": "sha256WithRSAEncryption",
          "type": "address"
        },
        {
          "name": "_dateTime",
          "type": "address"
        }
      ],
      "payable": false,
      "stateMutability": "nonpayable",
      "type": "constructor",
      "signature": "constructor"
    },
    {
      "anonymous": false,
      "inputs": [
        {
          "indexed": false,
          "name": "",
          "type": "uint256"
        }
      ],
      "name": "Print",
      "type": "event",
      "signature": "0x24abdb5865df5079dcc5ac590ff6f01d5c16edbc5fab4e195d9febd1114503da"
    },
    {
      "anonymous": false,
      "inputs": [
        {
          "indexed": false,
          "name": "certId",
          "type": "bytes32"
        }
      ],
      "name": "CertificateAdded",
      "type": "event",
      "signature": "0x17bb7cfdc69e5f19d4aa0509b6efed06df2c55008e56a1aa33322eb96855cf9a"
    },
    {
      "anonymous": false,
      "inputs": [
        {
          "indexed": false,
          "name": "certId",
          "type": "bytes32"
        }
      ],
      "name": "CertificateClaimed",
      "type": "event",
      "signature": "0x496b4978082948af9da31de5b56f44a896deab3b3b475866adbcd240a7cd731d"
    },
    {
      "constant": false,
      "inputs": [
        {
          "name": "tbsCert",
          "type": "bytes"
        },
        {
          "name": "signature",
          "type": "bytes"
        },
        {
          "name": "signersPubKey",
          "type": "bytes"
        },
        {
          "name": "canSignHttpExchanges",
          "type": "bool"
        }
      ],
      "name": "addCertificate",
      "outputs": [
        {
          "name": "",
          "type": "bool"
        }
      ],
      "payable": false,
      "stateMutability": "nonpayable",
      "type": "function",
      "signature": "0xea3ade5d"
    },
    {
      "constant": true,
      "inputs": [],
      "name": "signThis",
      "outputs": [
        {
          "name": "",
          "type": "bytes32"
        },
        {
          "name": "",
          "type": "uint256"
        }
      ],
      "payable": false,
      "stateMutability": "view",
      "type": "function",
      "signature": "0x7c0656fd"
    },
    {
      "constant": false,
      "inputs": [
        {
          "name": "certId",
          "type": "bytes32"
        },
        {
          "name": "signature",
          "type": "bytes"
        },
        {
          "name": "blockNumber",
          "type": "uint256"
        },
        {
          "name": "sigAlgHash",
          "type": "bytes32"
        }
      ],
      "name": "proveOwnership",
      "outputs": [
        {
          "name": "",
          "type": "bool"
        }
      ],
      "payable": false,
      "stateMutability": "nonpayable",
      "type": "function",
      "signature": "0xc55dc2cc"
    },
    {
      "constant": true,
      "inputs": [
        {
          "name": "referenceHash",
          "type": "bytes32"
        }
      ],
      "name": "certId",
      "outputs": [
        {
          "name": "",
          "type": "bytes32[]"
        }
      ],
      "payable": false,
      "stateMutability": "view",
      "type": "function",
      "signature": "0x76575742"
    }
  ],
  "bytecode": "0x608060405234801561001057600080fd5b506040516040806124c88339810180604052810190808051906020019092919080519060200190929190505050816003600060405180807f2a864886f70d01010b0000000000000000000000000000000000000000000000815250600901905060405180910390206000191660001916815260200190815260200160002060006101000a81548173ffffffffffffffffffffffffffffffffffffffff021916908373ffffffffffffffffffffffffffffffffffffffff160217905550806000806101000a81548173ffffffffffffffffffffffffffffffffffffffff021916908373ffffffffffffffffffffffffffffffffffffffff16021790555060405180807f551d1300000000000000000000000000000000000000000000000000000000008152506003019050604051809103902060048160001916905550505061236b8061015d6000396000f300608060405260043610610062576000357c0100000000000000000000000000000000000000000000000000000000900463ffffffff16806376575742146100675780637c0656fd146100ed578063c55dc2cc14610127578063ea3ade5d146101a0575b600080fd5b34801561007357600080fd5b5061009660048036038101908080356000191690602001909291905050506102b9565b6040518080602001828103825283818151815260200191508051906020019060200280838360005b838110156100d95780820151818401526020810190506100be565b505050509050019250505060405180910390f35b3480156100f957600080fd5b50610102610330565b6040518083600019166000191681526020018281526020019250505060405180910390f35b34801561013357600080fd5b506101866004803603810190808035600019169060200190929190803590602001908201803590602001919091929391929390803590602001909291908035600019169060200190929190505050610410565b604051808215151515815260200191505060405180910390f35b3480156101ac57600080fd5b5061029f600480360381019080803590602001908201803590602001908080601f0160208091040260200160405190810160405280939291908181526020018383808284378201915050505050509192919290803590602001908201803590602001908080601f0160208091040260200160405190810160405280939291908181526020018383808284378201915050505050509192919290803590602001908201803590602001908080601f01602080910402602001604051908101604052809392919081815260200183838082843782019150505050505091929192908035151590602001909291905050506107e2565b604051808215151515815260200191505060405180910390f35b606060026000836000191660001916815260200190815260200160002080548060200260200160405190810160405280929190818152602001828054801561032457602002820191906000526020600020905b8154600019168152602001906001019080831161030c575b50505050509050919050565b600080336001430340604051602001808373ffffffffffffffffffffffffffffffffffffffff1673ffffffffffffffffffffffffffffffffffffffff166c010000000000000000000000000281526014018260001916600019168152602001925050506040516020818303038152906040526040518082805190602001908083835b6020831015156103d757805182526020820191506020810190506020830392506103b2565b6001836020036101000a038019825116818451168082178552505050505050905001915050604051809103902060014303915091509091565b600060606116808443031115151561042757600080fd5b338440604051602001808373ffffffffffffffffffffffffffffffffffffffff1673ffffffffffffffffffffffffffffffffffffffff166c010000000000000000000000000281526014018260001916600019168152602001925050506040516020818303038152906040526040518082805190602001908083835b6020831015156104c857805182526020820191506020810190506020830392506104a3565b6001836020036101000a0380198251168184511680821785525050505050509050019150506040518091039020604051602001808260001916600019168152602001915050604051602081830303815290604052905060036000846000191660001916815260200190815260200160002060009054906101000a900473ffffffffffffffffffffffffffffffffffffffff1673ffffffffffffffffffffffffffffffffffffffff1663de8f50a1600160008a600019166000191681526020019081526020016000206002018389896040518563ffffffff167c0100000000000000000000000000000000000000000000000000000000028152600401808060200180602001806020018481038452888181546001816001161561010002031660029004815260200191508054600181600116156101000203166002900480156106525780601f1061062757610100808354040283529160200191610652565b820191906000526020600020905b81548152906001019060200180831161063557829003601f168201915b5050848103835287818151815260200191508051906020019080838360005b8381101561068c578082015181840152602081019050610671565b50505050905090810190601f1680156106b95780820380516001836020036101000a031916815260200191505b5084810382528686828181526020019250808284378201915050975050505050505050602060405180830381600087803b1580156106f657600080fd5b505af115801561070a573d6000803e3d6000fd5b505050506040513d602081101561072057600080fd5b8101908080519060200190929190505050151561073c57600080fd5b3360016000896000191660001916815260200190815260200160002060000160006101000a81548173ffffffffffffffffffffffffffffffffffffffff021916908373ffffffffffffffffffffffffffffffffffffffff1602179055507f496b4978082948af9da31de5b56f44a896deab3b3b475866adbcd240a7cd731d8760405180826000191660001916815260200191505060405180910390a15095945050505050565b6000806000806000806000806107f78c610f6b565b925061080c838d610f7f90919063ffffffff16565b9250610821838d610f7f90919063ffffffff16565b9250610836838d6110dc90919063ffffffff16565b925061084b838d6110fb90919063ffffffff16565b9550610860838d6110dc90919063ffffffff16565b9250610875838d610f7f90919063ffffffff16565b91506003600061088e848f61137490919063ffffffff16565b6040518082805190602001908083835b6020831015156108c3578051825260208201915060208101905060208303925061089e565b6001836020036101000a03801982511681845116808217855250505050505090500191505060405180910390206000191660001916815260200190815260200160002060009054906101000a900473ffffffffffffffffffffffffffffffffffffffff1673ffffffffffffffffffffffffffffffffffffffff1663de8f50a18b8e8e6040518463ffffffff167c010000000000000000000000000000000000000000000000000000000002815260040180806020018060200180602001848103845287818151815260200191508051906020019080838360005b838110156109b857808201518184015260208101905061099d565b50505050905090810190601f1680156109e55780820380516001836020036101000a031916815260200191505b50848103835286818151815260200191508051906020019080838360005b83811015610a1e578082015181840152602081019050610a03565b50505050905090810190601f168015610a4b5780820380516001836020036101000a031916815260200191505b50848103825285818151815260200191508051906020019080838360005b83811015610a84578082015181840152602081019050610a69565b50505050905090810190601f168015610ab15780820380516001836020036101000a031916815260200191505b509650505050505050602060405180830381600087803b158015610ad457600080fd5b505af1158015610ae8573d6000803e3d6000fd5b505050506040513d6020811015610afe57600080fd5b81019080805190602001909291905050501515610b83576040517f08c379a00000000000000000000000000000000000000000000000000000000081526004018080602001828103825260168152602001807f5369676e617475726520646f65736e74206d617463680000000000000000000081525060200191505060405180910390fd5b610b96838d6110dc90919063ffffffff16565b9250610bab838d6110dc90919063ffffffff16565b9250610bc0838d610f7f90919063ffffffff16565b9150610bd5828d6110dc90919063ffffffff16565b9150610bf2610bed838e61137490919063ffffffff16565b6113b6565b9350610c07838d6110dc90919063ffffffff16565b9250610c1c838d6110dc90919063ffffffff16565b9150610c31828d611d5c90919063ffffffff16565b6040518082805190602001908083835b602083101515610c665780518252602082019150602081019050602083039250610c41565b6001836020036101000a03801982511681845116808217855250505050505090500191505060405180910390209650610ca8838d610f7f90919063ffffffff16565b91505b610cb58284611d9e565b15610dd157610ccd828d610f7f90919063ffffffff16565b9050610ce2818d610f7f90919063ffffffff16565b905060405180807f55040300000000000000000000000000000000000000000000000000000000008152506003019050604051809103902060001916610d31828e61137490919063ffffffff16565b6040518082805190602001908083835b602083101515610d665780518252602082019150602081019050602083039250610d41565b6001836020036101000a0380198251168184511680821785525050505050509050019150506040518091039020600019161415610db757610db0818d6110dc90919063ffffffff16565b9050610dd1565b610dca828d6110dc90919063ffffffff16565b9150610cab565b610de4838d6110dc90919063ffffffff16565b9250610df9838d611d5c90919063ffffffff16565b6001600089600019166000191681526020019081526020016000206002019080519060200190610e2a92919061229a565b50896040518082805190602001908083835b602083101515610e615780518252602082019150602081019050602083039250610e3c565b6001836020036101000a038019825116818451168082178552505050505050905001915050604051809103902060016000896000191660001916815260200190815260200160002060010181600019169055508560016000896000191660001916815260200190815260200160002060030181905550846001600089600019166000191681526020019081526020016000206004018190555083600160008960001916600019168152602001908152602001600020600501819055507f17bb7cfdc69e5f19d4aa0509b6efed06df2c55008e56a1aa33322eb96855cf9a8760405180826000191660001916815260200191505060405180910390a150505050505050949350505050565b6000610f78826000611e0f565b9050919050565b600060207f01000000000000000000000000000000000000000000000000000000000000000260207f01000000000000000000000000000000000000000000000000000000000000000284610fd3856120a8565b815181101515610fdf57fe5b9060200101517f010000000000000000000000000000000000000000000000000000000000000090047f010000000000000000000000000000000000000000000000000000000000000002167effffffffffffffffffffffffffffffffffffffffffffffffffffffffffffff19161415156110c2576040517f08c379a00000000000000000000000000000000000000000000000000000000081526004018080602001828103825260168152602001807f4e6f74206120636f6e737472756374656420747970650000000000000000000081525060200191505060405180910390fd5b6110d4836110cf846120be565b611e0f565b905092915050565b60006110f38360016110ed856120dc565b01611e0f565b905092915050565b600060027f0100000000000000000000000000000000000000000000000000000000000000028361112b846120a8565b81518110151561113757fe5b9060200101517f010000000000000000000000000000000000000000000000000000000000000090047f0100000000000000000000000000000000000000000000000000000000000000027effffffffffffffffffffffffffffffffffffffffffffffffffffffffffffff1916141515611219576040517f08c379a00000000000000000000000000000000000000000000000000000000081526004018080602001828103825260108152602001807f4e6f74207479706520494e54454745520000000000000000000000000000000081525060200191505060405180910390fd5b60007f01000000000000000000000000000000000000000000000000000000000000000260807f0100000000000000000000000000000000000000000000000000000000000000028461126b856120be565b81518110151561127757fe5b9060200101517f010000000000000000000000000000000000000000000000000000000000000090047f010000000000000000000000000000000000000000000000000000000000000002167effffffffffffffffffffffffffffffffffffffffffffffffffffffffffffff191614151561135a576040517f08c379a000000000000000000000000000000000000000000000000000000000815260040180806020018281038252600c8152602001807f4e6f7420706f736974697665000000000000000000000000000000000000000081525060200191505060405180910390fd5b61136c6113678484611374565b6120fa565b905092915050565b60606000611381836120be565b600161138c856120dc565b010390506113ad61139c846120be565b82866121b79092919063ffffffff16565b91505092915050565b600080600080600080600080600d89511415611471576005601e8a60008151811015156113df57fe5b9060200101517f010000000000000000000000000000000000000000000000000000000000000090047f0100000000000000000000000000000000000000000000000000000000000000027f010000000000000000000000000000000000000000000000000000000000000090040361ffff161015611464576107d08701965061146c565b61076c870196505b611582565b6064601e8a600181518110151561148457fe5b9060200101517f010000000000000000000000000000000000000000000000000000000000000090047f0100000000000000000000000000000000000000000000000000000000000000027f0100000000000000000000000000000000000000000000000000000000000000900403026103e8601e8b600081518110151561150857fe5b9060200101517f010000000000000000000000000000000000000000000000000000000000000090047f0100000000000000000000000000000000000000000000000000000000000000027f0100000000000000000000000000000000000000000000000000000000000000900403020187019650600290505b601e896001830160ff1681518110151561159857fe5b9060200101517f010000000000000000000000000000000000000000000000000000000000000090047f0100000000000000000000000000000000000000000000000000000000000000027f01000000000000000000000000000000000000000000000000000000000000009004600a601e8c6000860160ff1681518110151561161e57fe5b9060200101517f010000000000000000000000000000000000000000000000000000000000000090047f0100000000000000000000000000000000000000000000000000000000000000027f010000000000000000000000000000000000000000000000000000000000000090040302010360ff1687019650601e896003830160ff168151811015156116ad57fe5b9060200101517f010000000000000000000000000000000000000000000000000000000000000090047f0100000000000000000000000000000000000000000000000000000000000000027f01000000000000000000000000000000000000000000000000000000000000009004600a601e8c6002860160ff1681518110151561173357fe5b9060200101517f010000000000000000000000000000000000000000000000000000000000000090047f0100000000000000000000000000000000000000000000000000000000000000027f01000000000000000000000000000000000000000000000000000000000000009004030201039550601e896005830160ff168151811015156117bd57fe5b9060200101517f010000000000000000000000000000000000000000000000000000000000000090047f0100000000000000000000000000000000000000000000000000000000000000027f01000000000000000000000000000000000000000000000000000000000000009004600a601e8c6004860160ff1681518110151561184357fe5b9060200101517f010000000000000000000000000000000000000000000000000000000000000090047f0100000000000000000000000000000000000000000000000000000000000000027f010000000000000000000000000000000000000000000000000000000000000090040302010385019450601e896007830160ff168151811015156118cf57fe5b9060200101517f010000000000000000000000000000000000000000000000000000000000000090047f0100000000000000000000000000000000000000000000000000000000000000027f01000000000000000000000000000000000000000000000000000000000000009004600a601e8c6006860160ff1681518110151561195557fe5b9060200101517f010000000000000000000000000000000000000000000000000000000000000090047f0100000000000000000000000000000000000000000000000000000000000000027f010000000000000000000000000000000000000000000000000000000000000090040302010384019350601e896009830160ff168151811015156119e157fe5b9060200101517f010000000000000000000000000000000000000000000000000000000000000090047f0100000000000000000000000000000000000000000000000000000000000000027f01000000000000000000000000000000000000000000000000000000000000009004600a601e8c6008860160ff16815181101515611a6757fe5b9060200101517f010000000000000000000000000000000000000000000000000000000000000090047f0100000000000000000000000000000000000000000000000000000000000000027f010000000000000000000000000000000000000000000000000000000000000090040302010383019250601e89600b830160ff16815181101515611af357fe5b9060200101517f010000000000000000000000000000000000000000000000000000000000000090047f0100000000000000000000000000000000000000000000000000000000000000027f01000000000000000000000000000000000000000000000000000000000000009004600a601e8c600a860160ff16815181101515611b7957fe5b9060200101517f010000000000000000000000000000000000000000000000000000000000000090047f0100000000000000000000000000000000000000000000000000000000000000027f0100000000000000000000000000000000000000000000000000000000000000900403020103820191507f24abdb5865df5079dcc5ac590ff6f01d5c16edbc5fab4e195d9febd1114503da87604051808261ffff16815260200191505060405180910390a17f24abdb5865df5079dcc5ac590ff6f01d5c16edbc5fab4e195d9febd1114503da86604051808260ff16815260200191505060405180910390a17f24abdb5865df5079dcc5ac590ff6f01d5c16edbc5fab4e195d9febd1114503da85604051808260ff16815260200191505060405180910390a17f24abdb5865df5079dcc5ac590ff6f01d5c16edbc5fab4e195d9febd1114503da84604051808260ff16815260200191505060405180910390a17f24abdb5865df5079dcc5ac590ff6f01d5c16edbc5fab4e195d9febd1114503da83604051808260ff16815260200191505060405180910390a17f24abdb5865df5079dcc5ac590ff6f01d5c16edbc5fab4e195d9febd1114503da82604051808260ff16815260200191505060405180910390a16000975050505050505050919050565b60606000611d69836120a8565b6001611d74856120dc565b01039050611d95611d84846120a8565b82866121b79092919063ffffffff16565b91505092915050565b6000611da9826120a8565b611db2846120be565b11158015611dd05750611dc4836120dc565b611dcd836120dc565b11155b80611e075750611ddf836120a8565b611de8836120be565b11158015611e065750611dfa826120dc565b611e03846120dc565b11155b5b905092915050565b600080600080600080606060008960018a01815181101515611e2d57fe5b9060200101517f010000000000000000000000000000000000000000000000000000000000000090047f0100000000000000000000000000000000000000000000000000000000000000027f01000000000000000000000000000000000000000000000000000000000000009004965060007f01000000000000000000000000000000000000000000000000000000000000000260807f0100000000000000000000000000000000000000000000000000000000000000028b60018c01815181101515611ef657fe5b9060200101517f010000000000000000000000000000000000000000000000000000000000000090047f010000000000000000000000000000000000000000000000000000000000000002167effffffffffffffffffffffffffffffffffffffffffffffffffffffffffffff19161415611f8057869550600289019450600186860103935061208e565b607f87169250826040519080825280601f01601f191660200182016040528015611fb95781602001602082028038833980820191505090505b509150600090505b8281101561207257898160028b0101815181101515611fdc57fe5b9060200101517f010000000000000000000000000000000000000000000000000000000000000090047f010000000000000000000000000000000000000000000000000000000000000002828281518110151561203557fe5b9060200101907effffffffffffffffffffffffffffffffffffffffffffffffffffffffffffff1916908160001a9053508080600101915050611fc1565b61207b826120fa565b95508260028a0101945060018686010393505b61209989868661222b565b97505050505050505092915050565b60008169ffffffffffffffffffff169050919050565b60006050829060020a900469ffffffffffffffffffff169050919050565b600060a0829060020a900469ffffffffffffffffffff169050919050565b6000806000809150600090505b83518160ff1610156121ad576008829060020a029150838160ff1681518110151561212e57fe5b9060200101517f010000000000000000000000000000000000000000000000000000000000000090047f0100000000000000000000000000000000000000000000000000000000000000027f01000000000000000000000000000000000000000000000000000000000000009004821791508080600101915050612107565b8192505050919050565b6060806000808651858701111515156121cf57600080fd5b846040519080825280601f01601f1916602001820160405280156122025781602001602082028038833980820191505090505b509250602083019150856020880101905061221e82828761224f565b8293505050509392505050565b60006050839060020a028417935060a0829060020a02841793508390509392505050565b60005b6020821015156122775782518452602084019350602083019250602082039150612252565b6001826020036101000a0390508019835116818551168181178652505050505050565b828054600181600116156101000203166002900490600052602060002090601f016020900481019282601f106122db57805160ff1916838001178555612309565b82800160010185558215612309579182015b828111156123085782518255916020019190600101906122ed565b5b509050612316919061231a565b5090565b61233c91905b80821115612338576000816000905550600101612320565b5090565b905600a165627a7a723058206e1364ca3eb4b5132c5be85cd513ac7e78c325d521355b6910ceb07337406a7b0029",
  "source": "pragma solidity  ^0.4.25;\r\n\r\nimport \"asn1-decode/contracts/Asn1Decode.sol\";\r\nimport \"sig-verify-algs/contracts/Algorithm.sol\";\r\nimport \"ens-solidity-namehash/contracts/NameHash.sol\";\r\nimport \"ethereum-datetime/contracts/DateTime.sol\";\r\n\r\ncontract X509InTreeForestOfTrust {\r\n  using Asn1Decode for bytes;\r\n  using NameHash for string;\r\n\r\n  constructor(address sha256WithRSAEncryption, address _dateTime) public {\r\n    algs[keccak256('\\x2a\\x86\\x48\\x86\\xf7\\x0d\\x01\\x01\\x0b')] = Algorithm(sha256WithRSAEncryption);\r\n    dateTime = DateTime(_dateTime);\r\n    cshxOidHash = keccak256(\"\\x55\\x1d\\x13\"); // change to actual oid of canSignHttpExchanges\r\n  }\r\n\r\n  DateTime dateTime;\r\n\r\n  struct Certificate {\r\n    address owner;\r\n    bytes32 parentCert;\r\n    bytes pubKey;\r\n    uint serialNumber;\r\n    uint validNotBefore;\r\n    uint validNotAfter;\r\n    bool canSignHttpExchanges;\r\n  }\r\n  mapping (bytes32 => Certificate) private certs;\r\n  mapping (bytes32 => bytes32[]) private certIds;\r\n  mapping(bytes32 => Algorithm) algs;\r\n  bytes32 cshxOidHash;\r\n\r\n  event Print(uint);\r\n  event CertificateAdded(bytes32 certId);\r\n  event CertificateClaimed(bytes32 certId);\r\n\r\n\r\n  /* TODO add function to set certificate\r\n  function rovokeCertificate(bytes certificateRevocation, bytes signature, bytes32 authorityCertificateId)\r\n  /*\r\n   * NOTICE: This function is currently unfinished. Needs to extract\r\n   * validNotBefore and validNotAfter and initialize the certificate with those\r\n   * values too!! (shouldn't take much work).\r\n   *\r\n   * Adds a X509 certificate to the certs mapping, which is indexed on\r\n   * certId (the keccak256 hash of its public key). Anyone can call this\r\n   * method so long as they have the funds to cover the transaction. The\r\n   * certificate must be signed and valid (but not nessisarily by any existing\r\n   * certs in the mapping). Certificates may be self-signed. The idea is\r\n   * to pulicise a verified chain of trust on the blockchain that can be\r\n   * referenced by other contracts.\r\n   *\r\n   * @param tbsCert The entire tbsCertificate node of the der-encoded\r\n   *        X509 certificate.\r\n   * @param signature The signed sha256 hash of (DER-encoded) tbsCertificate (signed with\r\n   *        signersPubKey param). Should be found in same X509 cert as tbsCertificate\r\n   * @param signersPubKey The DER-encoded node of the public key used to sign\r\n   *        the signature param.\r\n   */\r\n  function addCertificate(bytes tbsCert, bytes signature, bytes signersPubKey, bool canSignHttpExchanges)\r\n  public returns (bool)\r\n  {\r\n    bytes32 certId;\r\n    uint serialNumber;\r\n    uint validNotBefore;\r\n    uint validNotAfter;\r\n    uint node1;\r\n    uint node2;\r\n    uint node3;\r\n\r\n    node1 = tbsCert.root();\r\n    node1 = tbsCert.firstChildOf(node1);\r\n    node1 = tbsCert.firstChildOf(node1);\r\n    node1 = tbsCert.nextSiblingOf(node1);\r\n    // Extract serial number\r\n    serialNumber = tbsCert.uintAt(node1);\r\n\r\n    node1 = tbsCert.nextSiblingOf(node1);\r\n    node2 = tbsCert.firstChildOf(node1);\r\n    // Verify signature\r\n    require( algs[keccak256(tbsCert.bytesAt(node2))].verify(signersPubKey, tbsCert, signature), \"Signature doesnt match\");\r\n\r\n    node1 = tbsCert.nextSiblingOf(node1);\r\n    node1 = tbsCert.nextSiblingOf(node1);\r\n\r\n    node2 = tbsCert.firstChildOf(node1);\r\n    /* validNotBefore = toTimestamp(tbsCert.bytesAt(node2)); */\r\n    node2 = tbsCert.nextSiblingOf(node2);\r\n    validNotAfter = toTimestamp(tbsCert.bytesAt(node2));\r\n\r\n    /* require(validNotBefore <= now && now >= validNotAfter, \"Invalid cert\"); */\r\n\r\n    node1 = tbsCert.nextSiblingOf(node1);\r\n    node2 = tbsCert.nextSiblingOf(node1);\r\n    // Extract public key and calculate certId from it\r\n    certId = keccak256(tbsCert.allBytesAt(node2));\r\n\r\n    node2 = tbsCert.firstChildOf(node1);\r\n    while (Asn1Decode.isChildOf(node2, node1)) {\r\n      node3 = tbsCert.firstChildOf(node2);\r\n      node3 = tbsCert.firstChildOf(node3);\r\n      if ( keccak256(tbsCert.bytesAt(node3)) == keccak256(\"\\x55\\x04\\x03\") ) {\r\n        node3 = tbsCert.nextSiblingOf(node3);\r\n        /* certIds[string(tbsCert.bytesAt(node3)).namehash()].push(certId); */\r\n        break;\r\n      }\r\n      node2 = tbsCert.nextSiblingOf(node2);\r\n    }\r\n\r\n    node1 = tbsCert.nextSiblingOf(node1);\r\n\r\n    // Add certificate to certs mapping\r\n    certs[certId].pubKey = tbsCert.allBytesAt(node1);\r\n    certs[certId].parentCert = keccak256(signersPubKey);\r\n    certs[certId].serialNumber = serialNumber;\r\n    certs[certId].validNotBefore = validNotBefore;\r\n    certs[certId].validNotAfter = validNotAfter;\r\n\r\n    /* if (canSignHttpExchanges) {\r\n      node1 = tbsCert.nextSiblingOf(node1);\r\n      node1 = tbsCert.nextSiblingOf(node1);\r\n      node2 = tbsCert.firstChildOf(node1);\r\n      node3 = tbsCert.firstChildOf(node2);\r\n      while (Asn1Decode.isChildOf(node3, node2)) {\r\n        if ( keccak256(tbsCert.bytesAt(node3)) == cshxOidHash ) {\r\n          certs[certId].canSignHttpExchanges = true;\r\n          break;\r\n        } else {\r\n          node2 = tbsCert.nextSiblingOf(node2);\r\n          node3 = tbsCert.firstChildOf(node2);\r\n        }\r\n      }\r\n    } */\r\n\r\n    // Fire event\r\n    emit CertificateAdded(certId);\r\n  }\r\n\r\n  /*\r\n   * Adds a reference to certIds mapping. Reference must go to a\r\n   * certId of an existing certificate. The reference (the key) is from\r\n   * the keccak256 hash of the node at keyLocation of certs[certId]\r\n   * to certId.\r\n   *\r\n   * @param certifiacateId The certId to which we are adding a reference.\r\n   *        (must be the certId of a certificate in certs mapping)\r\n   * @param keyLocation The traversal instructions for the desired node from which\r\n   *        the reference key is derived. Same encoding as \"location\" param in\r\n   *        traverse() function.\r\n   */\r\n  /* function addReference(bytes32 certId, bytes keyLocation) public {\r\n    uint node;\r\n    bytes memory v;\r\n\r\n    node = Asn1Decode.traverse(certs[certId].tbsCertificate, keyLocation);\r\n    v = node.getValue(certs[certId].tbsCertificate);\r\n    certIds[keccak256(v)].push(certId);\r\n  } */\r\n\r\n  /**\r\n   * The return values of this function are used to proveOwnership() of a\r\n   * certificate that exists in the certs mapping.\r\n\r\n   * @return A unique keccak256 hash to be signed\r\n   * @return The block number used in the hash\r\n   */\r\n  function signThis() external view returns (bytes32, uint) {\r\n    return ( keccak256(abi.encodePacked(msg.sender, blockhash(block.number - 1))), block.number -1 );\r\n  }\r\n\r\n  /**\r\n   * An eth account calls this method to prove ownership of a certificate in\r\n   * certs mapping. If successful, certs[certId].owner will\r\n   * be set to the caller's address. To change owner of a cert, this method must\r\n   *  be called from the new desired owner address.\r\n   *\r\n   * @param certId The keccak256 hash of target certificate's public key\r\n   * @param signature The SHA256 RSA signature of signThis()[0]\r\n   * @param blockNumber The value of signThis()[1] (must be >= block.number - 5760)\r\n   */\r\n  function proveOwnership(bytes32 certId, bytes signature, uint blockNumber, bytes32 sigAlgHash)\r\n  external returns (bool)\r\n  {\r\n    bytes memory message;\r\n    // Only accept proof if it's less than about one day old (at 15sec/block)\r\n    require( block.number - blockNumber <= 5760 );\r\n    // Verify signature, which proves ownership\r\n    message = abi.encodePacked(keccak256(abi.encodePacked(msg.sender, blockhash(blockNumber))));\r\n    require( algs[sigAlgHash].verify(certs[certId].pubKey, message, signature) );\r\n\r\n    certs[certId].owner = msg.sender;\r\n\r\n    emit CertificateClaimed(certId);\r\n  }\r\n\r\n  function toTimestamp(bytes x509Time) private view returns (uint) {\r\n    uint16 yrs;  uint8 mnths;\r\n    uint8  dys;  uint8 hrs;\r\n    uint8  mins; uint8 secs;\r\n    uint8  offset;\r\n\r\n    if (x509Time.length == 13) {\r\n      if (uint16(x509Time[0])-30 < 5) yrs += 2000;\r\n      else yrs += 1900;\r\n    }\r\n    else {\r\n      yrs += (uint16(x509Time[0])-30) * 1000 + (uint16(x509Time[1])-30) * 100;\r\n      offset = 2;\r\n    }\r\n    yrs +=  (uint8(x509Time[offset+0])-30)*10 + uint8(x509Time[offset+1])-30;\r\n    mnths = (uint8(x509Time[offset+2])-30)*10 + uint8(x509Time[offset+3])-30;\r\n    dys +=  (uint8(x509Time[offset+4])-30)*10 + uint8(x509Time[offset+5])-30;\r\n    hrs +=  (uint8(x509Time[offset+6])-30)*10 + uint8(x509Time[offset+7])-30;\r\n    mins += (uint8(x509Time[offset+8])-30)*10 + uint8(x509Time[offset+9])-30;\r\n    secs += (uint8(x509Time[offset+10])-30)*10 + uint8(x509Time[offset+11])-30;\r\n    Print(yrs);\r\n    Print(mnths);\r\n    Print(dys);\r\n    Print(hrs);\r\n    Print(mins);\r\n    Print(secs);\r\n    return 0;//dateTime.toTimestamp(yrs, mnths, dys, hrs, mins, secs);\r\n  }\r\n\r\n  /* function certificate(bytes32 certId) public view returns (Certificate) {\r\n    return certs[certId];\r\n  } */\r\n\r\n  function certId(bytes32 referenceHash) public view returns (bytes32[]) {\r\n    return certIds[referenceHash];\r\n  }\r\n}\r\n",
  "sourcePath": "/home/jonah/x509-forest-of-trust/contracts/X509InTreeForestOfTrust.sol",
  "compiler": {
    "name": "solc",
    "version": "0.4.25+commit.59dbf8f1.Emscripten.clang"
  },
  "schemaVersion": "3.0.0-beta.1",
  "updatedAt": "2018-11-25T22:46:53.682Z"
}