{
  "contractName": "X509ForestOfTrust",
  "abi": [
    {
      "constant": true,
      "inputs": [
        {
          "name": "",
          "type": "bytes32"
        },
        {
          "name": "",
          "type": "uint256"
        }
      ],
      "name": "toCertIds",
      "outputs": [
        {
          "name": "",
          "type": "bytes32"
        }
      ],
      "payable": false,
      "stateMutability": "view",
      "type": "function"
    },
    {
      "constant": true,
      "inputs": [
        {
          "name": "",
          "type": "bytes32"
        }
      ],
      "name": "toCertId",
      "outputs": [
        {
          "name": "",
          "type": "bytes32"
        }
      ],
      "payable": false,
      "stateMutability": "view",
      "type": "function"
    },
    {
      "constant": false,
      "inputs": [
        {
          "name": "newOwner",
          "type": "address"
        }
      ],
      "name": "transferOwnership",
      "outputs": [],
      "payable": false,
      "stateMutability": "nonpayable",
      "type": "function"
    },
    {
      "inputs": [
        {
          "name": "sha256WithRSAEncryption",
          "type": "address"
        },
        {
          "name": "_dateTime",
          "type": "address"
        }
      ],
      "payable": false,
      "stateMutability": "nonpayable",
      "type": "constructor"
    },
    {
      "anonymous": false,
      "inputs": [
        {
          "indexed": false,
          "name": "",
          "type": "bytes32"
        }
      ],
      "name": "CertAdded",
      "type": "event"
    },
    {
      "anonymous": false,
      "inputs": [
        {
          "indexed": false,
          "name": "",
          "type": "bytes32"
        }
      ],
      "name": "CertClaimed",
      "type": "event"
    },
    {
      "anonymous": false,
      "inputs": [
        {
          "indexed": false,
          "name": "",
          "type": "bytes32"
        },
        {
          "indexed": false,
          "name": "",
          "type": "address"
        }
      ],
      "name": "AlgSet",
      "type": "event"
    },
    {
      "anonymous": false,
      "inputs": [
        {
          "indexed": false,
          "name": "",
          "type": "address"
        },
        {
          "indexed": false,
          "name": "",
          "type": "address"
        }
      ],
      "name": "ownershipTransferred",
      "type": "event"
    },
    {
      "constant": false,
      "inputs": [
        {
          "name": "cert",
          "type": "bytes"
        },
        {
          "name": "parentPubKey",
          "type": "bytes"
        }
      ],
      "name": "addCert",
      "outputs": [],
      "payable": false,
      "stateMutability": "nonpayable",
      "type": "function"
    },
    {
      "constant": true,
      "inputs": [],
      "name": "signThis",
      "outputs": [
        {
          "name": "",
          "type": "bytes"
        },
        {
          "name": "",
          "type": "uint256"
        }
      ],
      "payable": false,
      "stateMutability": "view",
      "type": "function"
    },
    {
      "constant": false,
      "inputs": [
        {
          "name": "pubKey",
          "type": "bytes"
        },
        {
          "name": "signature",
          "type": "bytes"
        },
        {
          "name": "blockNumber",
          "type": "uint256"
        },
        {
          "name": "sigAlg",
          "type": "bytes32"
        }
      ],
      "name": "proveOwnership",
      "outputs": [],
      "payable": false,
      "stateMutability": "nonpayable",
      "type": "function"
    },
    {
      "constant": true,
      "inputs": [
        {
          "name": "certId",
          "type": "bytes32"
        }
      ],
      "name": "rootOf",
      "outputs": [
        {
          "name": "",
          "type": "bytes32"
        }
      ],
      "payable": false,
      "stateMutability": "view",
      "type": "function"
    },
    {
      "constant": true,
      "inputs": [
        {
          "name": "certId",
          "type": "bytes32"
        }
      ],
      "name": "owner",
      "outputs": [
        {
          "name": "",
          "type": "address"
        }
      ],
      "payable": false,
      "stateMutability": "view",
      "type": "function"
    },
    {
      "constant": true,
      "inputs": [
        {
          "name": "certId",
          "type": "bytes32"
        }
      ],
      "name": "parentId",
      "outputs": [
        {
          "name": "",
          "type": "bytes32"
        }
      ],
      "payable": false,
      "stateMutability": "view",
      "type": "function"
    },
    {
      "constant": true,
      "inputs": [
        {
          "name": "certId",
          "type": "bytes32"
        }
      ],
      "name": "timestamp",
      "outputs": [
        {
          "name": "",
          "type": "uint40"
        }
      ],
      "payable": false,
      "stateMutability": "view",
      "type": "function"
    },
    {
      "constant": true,
      "inputs": [
        {
          "name": "certId",
          "type": "bytes32"
        }
      ],
      "name": "serialNumber",
      "outputs": [
        {
          "name": "",
          "type": "uint160"
        }
      ],
      "payable": false,
      "stateMutability": "view",
      "type": "function"
    },
    {
      "constant": true,
      "inputs": [
        {
          "name": "certId",
          "type": "bytes32"
        }
      ],
      "name": "validNotBefore",
      "outputs": [
        {
          "name": "",
          "type": "uint40"
        }
      ],
      "payable": false,
      "stateMutability": "view",
      "type": "function"
    },
    {
      "constant": true,
      "inputs": [
        {
          "name": "certId",
          "type": "bytes32"
        }
      ],
      "name": "validNotAfter",
      "outputs": [
        {
          "name": "",
          "type": "uint40"
        }
      ],
      "payable": false,
      "stateMutability": "view",
      "type": "function"
    },
    {
      "constant": true,
      "inputs": [
        {
          "name": "certId",
          "type": "bytes32"
        }
      ],
      "name": "sxg",
      "outputs": [
        {
          "name": "",
          "type": "bool"
        }
      ],
      "payable": false,
      "stateMutability": "view",
      "type": "function"
    },
    {
      "constant": true,
      "inputs": [
        {
          "name": "certId",
          "type": "bytes32"
        }
      ],
      "name": "basicConstraints",
      "outputs": [
        {
          "name": "",
          "type": "bool"
        },
        {
          "name": "",
          "type": "uint8"
        }
      ],
      "payable": false,
      "stateMutability": "view",
      "type": "function"
    },
    {
      "constant": true,
      "inputs": [
        {
          "name": "certId",
          "type": "bytes32"
        }
      ],
      "name": "keyUsage",
      "outputs": [
        {
          "name": "",
          "type": "bool"
        },
        {
          "name": "",
          "type": "bool[9]"
        }
      ],
      "payable": false,
      "stateMutability": "view",
      "type": "function"
    },
    {
      "constant": true,
      "inputs": [
        {
          "name": "certId",
          "type": "bytes32"
        }
      ],
      "name": "keyUsageCritical",
      "outputs": [
        {
          "name": "",
          "type": "bool"
        }
      ],
      "payable": false,
      "stateMutability": "view",
      "type": "function"
    },
    {
      "constant": true,
      "inputs": [
        {
          "name": "certId",
          "type": "bytes32"
        }
      ],
      "name": "extKeyUsage",
      "outputs": [
        {
          "name": "",
          "type": "bool"
        },
        {
          "name": "",
          "type": "bytes32[]"
        }
      ],
      "payable": false,
      "stateMutability": "view",
      "type": "function"
    },
    {
      "constant": true,
      "inputs": [
        {
          "name": "certId",
          "type": "bytes32"
        }
      ],
      "name": "extKeyUsageCritical",
      "outputs": [
        {
          "name": "",
          "type": "bool"
        }
      ],
      "payable": false,
      "stateMutability": "view",
      "type": "function"
    },
    {
      "constant": true,
      "inputs": [
        {
          "name": "certId",
          "type": "bytes32"
        }
      ],
      "name": "unparsedCriticalExtensionPresent",
      "outputs": [
        {
          "name": "",
          "type": "bool"
        }
      ],
      "payable": false,
      "stateMutability": "view",
      "type": "function"
    },
    {
      "constant": true,
      "inputs": [
        {
          "name": "certId",
          "type": "bytes32"
        }
      ],
      "name": "extId",
      "outputs": [
        {
          "name": "",
          "type": "bytes32"
        }
      ],
      "payable": false,
      "stateMutability": "view",
      "type": "function"
    },
    {
      "constant": true,
      "inputs": [
        {
          "name": "_hash",
          "type": "bytes32"
        }
      ],
      "name": "toCertIdsLength",
      "outputs": [
        {
          "name": "",
          "type": "uint256"
        }
      ],
      "payable": false,
      "stateMutability": "view",
      "type": "function"
    },
    {
      "constant": false,
      "inputs": [
        {
          "name": "oid",
          "type": "bytes32"
        },
        {
          "name": "alg",
          "type": "address"
        }
      ],
      "name": "setAlg",
      "outputs": [],
      "payable": false,
      "stateMutability": "nonpayable",
      "type": "function"
    },
    {
      "constant": false,
      "inputs": [
        {
          "name": "sxgOid",
          "type": "bytes32"
        }
      ],
      "name": "setSxgOid",
      "outputs": [],
      "payable": false,
      "stateMutability": "nonpayable",
      "type": "function"
    }
  ],
  "bytecode": "0x60806040526000805460a060020a60f060020a0319167d2b06010401d679020116000000000000000000000000000000000000000017905534801561004357600080fd5b506040516040806130138339810180604052604081101561006357600080fd5b50805160209182015160008054600160a060020a0319908116331782557f2a864886f70d01010b000000000000000000000000000000000000000000000090915260029093527f94ce0386011b8baded3f9e1d439ff262855015cc43ed56e2b10d8d3cfc28cab48054600160a060020a03938416908516179055600580549290911691909216179055612f18806100fb6000396000f3fe608060405234801561001057600080fd5b5060043610610175576000357c010000000000000000000000000000000000000000000000000000000090048063885ffae1116100e0578063c385568211610099578063c38556821461057f578063d6be188c146105fb578063dd9d240314610618578063dde301a214610644578063f2fde38b1461070c578063f6cc68151461073257610175565b8063885ffae1146104b45780638d5711c9146104d1578063b161fa77146104ee578063b7a3870d1461050b578063b841f2b214610545578063bd29dec01461056257610175565b80634d003070116101325780634d00307014610276578063525d21db146102935780636d6f398e146103c25780636eaba09e146103df5780636fe2875c146104105780637c0656fd1461042d57610175565b80630196d78d1461017a57806302571be3146101af57806303ea6ef7146101e857806317932046146102055780631c9168f31461023c5780631fbfd9fe14610259575b600080fd5b61019d6004803603604081101561019057600080fd5b5080359060200135610791565b60408051918252519081900360200190f35b6101cc600480360360208110156101c557600080fd5b50356107c1565b60408051600160a060020a039092168252519081900360200190f35b61019d600480360360208110156101fe57600080fd5b50356107dc565b6102226004803603602081101561021b57600080fd5b50356107f2565b6040805164ffffffffff9092168252519081900360200190f35b61019d6004803603602081101561025257600080fd5b503561082b565b6101cc6004803603602081101561026f57600080fd5b503561083d565b6102226004803603602081101561028c57600080fd5b5035610864565b6103c0600480360360408110156102a957600080fd5b8101906020810181356401000000008111156102c457600080fd5b8201836020820111156102d657600080fd5b803590602001918460018302840111640100000000831117156102f857600080fd5b91908080601f016020809104026020016040519081016040528093929190818152602001838380828437600092019190915250929594936020810193503591505064010000000081111561034b57600080fd5b82018360208201111561035d57600080fd5b8035906020019184600183028401116401000000008311171561037f57600080fd5b91908080601f016020809104026020016040519081016040528093929190818152602001838380828437600092019190915250929550610880945050505050565b005b61019d600480360360208110156103d857600080fd5b5035611a8e565b6103fc600480360360208110156103f557600080fd5b5035611ac9565b604080519115158252519081900360200190f35b6103c06004803603602081101561042657600080fd5b5035611ae1565b610435611b5a565b6040518080602001838152602001828103825284818151815260200191508051906020019080838360005b83811015610478578181015183820152602001610460565b50505050905090810190601f1680156104a55780820380516001836020036101000a031916815260200191505b50935050505060405180910390f35b6103fc600480360360208110156104ca57600080fd5b5035611b98565b6103fc600480360360208110156104e757600080fd5b5035611bb0565b61019d6004803603602081101561050457600080fd5b5035611bc8565b6105286004803603602081101561052157600080fd5b5035611bdd565b60408051921515835260ff90911660208301528051918290030190f35b6102226004803603602081101561055b57600080fd5b5035611c0d565b61019d6004803603602081101561057857600080fd5b5035611c29565b61059c6004803603602081101561059557600080fd5b5035611c3b565b604051808315151515815260200180602001828103825283818151815260200191508051906020019060200280838360005b838110156105e65781810151838201526020016105ce565b50505050905001935050505060405180910390f35b6103fc6004803603602081101561061157600080fd5b5035611ce9565b6103c06004803603604081101561062e57600080fd5b5080359060200135600160a060020a0316611d00565b6103c06004803603608081101561065a57600080fd5b81019060208101813564010000000081111561067557600080fd5b82018360208201111561068757600080fd5b803590602001918460018302840111640100000000831117156106a957600080fd5b9193909290916020810190356401000000008111156106c757600080fd5b8201836020820111156106d957600080fd5b803590602001918460018302840111640100000000831117156106fb57600080fd5b919350915080359060200135611d8c565b6103c06004803603602081101561072257600080fd5b5035600160a060020a031661205d565b61074f6004803603602081101561074857600080fd5b50356120eb565b6040518215158152602081018261012080838360005b8381101561077d578181015183820152602001610765565b505050509050019250505060405180910390f35b6003602052816000526040600020818154811015156107ac57fe5b90600052602060002001600091509150505481565b600090815260016020526040902054600160a060020a031690565b6000908152600160208190526040909120015490565b600090815260016020526040902060020154790100000000000000000000000000000000000000000000000000900464ffffffffff1690565b60046020526000908152604090205481565b600090815260016020526040902060020154650100000000009004600160a060020a031690565b60009081526001602052604090206002015464ffffffffff1690565b610888612d54565b81516020808401919091209082015264ffffffffff421660408201526000808080806108b3886121ba565b93506108c5888563ffffffff6121c716565b93506108d7888563ffffffff6121c716565b9250876108e38461227f565b815181106108ed57fe5b90602001015160f860020a900460f860020a02600160f860020a03191660a060f860020a02141561092b57610928888463ffffffff61228e16565b92505b61093b888463ffffffff6122a516565b600160a060020a03166060870152610959888463ffffffff61228e16565b925061096b888463ffffffff6121c716565b925061097d888563ffffffff61228e16565b915061098f888363ffffffff61228e16565b9150600260006109a58a8663ffffffff61241d16565b8152602081019190915260400160002054600160a060020a031663de8f50a1886109d58b8863ffffffff61245016565b6109e58c8763ffffffff61248316565b6040518463ffffffff167c010000000000000000000000000000000000000000000000000000000002815260040180806020018060200180602001848103845287818151815260200191508051906020019080838360005b83811015610a55578181015183820152602001610a3d565b50505050905090810190601f168015610a825780820380516001836020036101000a031916815260200191505b50848103835286518152865160209182019188019080838360005b83811015610ab5578181015183820152602001610a9d565b50505050905090810190601f168015610ae25780820380516001836020036101000a031916815260200191505b50848103825285518152855160209182019187019080838360005b83811015610b15578181015183820152602001610afd565b50505050905090810190601f168015610b425780820380516001836020036101000a031916815260200191505b50965050505050505060206040518083038186803b158015610b6357600080fd5b505afa158015610b77573d6000803e3d6000fd5b505050506040513d6020811015610b8d57600080fd5b50511515610be5576040805160e560020a62461bcd02815260206004820152601660248201527f5369676e617475726520646f65736e74206d6174636800000000000000000000604482015290519081900360640190fd5b610bf5888563ffffffff6121c716565b9350610c07888563ffffffff61228e16565b9350610c19888563ffffffff61228e16565b9350610c2b888563ffffffff61228e16565b9350610c3d888563ffffffff61228e16565b9350610c4f888563ffffffff6121c716565b9250610c69610c64898563ffffffff61248316565b61249a565b64ffffffffff1660808701819052421015610cce576040805160e560020a62461bcd02815260206004820152601c60248201527f4e6f77206973206265666f72652076616c69644e6f744265666f726500000000604482015290519081900360640190fd5b610cde888463ffffffff61228e16565b9250610cf3610c64898563ffffffff61248316565b64ffffffffff1660a08701819052421115610d58576040805160e560020a62461bcd02815260206004820152601a60248201527f4e6f772069732061667465722076616c69644e6f744166746572000000000000604482015290519081900360640190fd5b610d68888563ffffffff61228e16565b9350610d7a888563ffffffff61228e16565b9350610d8c888563ffffffff6128b916565b60008181526001602052604090206003015490955064ffffffffff1615610db257600080fd5b6040805186815290517fa8bcd2c977618c00f7fed703adeb0977d9b57eb1f309214e668e87ca390c51379181900360200190a1846004600060028b6040518082805190602001908083835b60208310610e1c5780518252601f199092019160209182019101610dfd565b51815160209384036101000a60001901801990921691161790526040519190930194509192505080830381855afa158015610e5b573d6000803e3d6000fd5b5050506040513d6020811015610e7057600080fd5b50518152602081019190915260400160002055610e93888563ffffffff61228e16565b935087610e9f8561227f565b81518110610ea957fe5b90602001015160f860020a900460f860020a02600160f860020a03191660a160f860020a021415610ee757610ee4888563ffffffff61228e16565b93505b87610ef18561227f565b81518110610efb57fe5b90602001015160f860020a900460f860020a02600160f860020a03191660a260f860020a021415610f3957610f36888563ffffffff61228e16565b93505b87610f438561227f565b81518110610f4d57fe5b90602001015160f860020a900460f860020a02600160f860020a03191660a360f860020a0214156116ad57610f88888563ffffffff6121c716565b9350610f9a888563ffffffff6121c716565b92506000805b610faa85876128ec565b156116aa57610fbf8a8663ffffffff6121c716565b9350610fd18a8563ffffffff61241d16565b9150610fe38a8563ffffffff61228e16565b935089610fef8561227f565b81518110610ff957fe5b01602001517fff0000000000000000000000000000000000000000000000000000000000000060f860020a918290048202161415611093578961103b8561295a565b8151811061104557fe5b60209101015160f860020a90819004027fff000000000000000000000000000000000000000000000000000000000000001615611080575060015b6110908a8563ffffffff61228e16565b93505b600160b060020a031982167f551d11000000000000000000000000000000000000000000000000000000000014156112c2576110d58a8563ffffffff61297716565b93506110e78a8563ffffffff6121c716565b92505b6110f483856128ec565b156112bd57896111038461227f565b8151811061110d57fe5b90602001015160f860020a900460f860020a02600160f860020a031916608260f860020a02141561126c576003600061114c8c8663ffffffff61248316565b6040517f0e0fb92400000000000000000000000000000000000000000000000000000000815260206004820181815283516024840152835173__ENSNamehash___________________________94630e0fb92494909383926044909201919085019080838360005b838110156111cc5781810151838201526020016111b4565b50505050905090810190601f1680156111f95780820380516001836020036101000a031916815260200191505b509250505060206040518083038186803b15801561121657600080fd5b505af415801561122a573d6000803e3d6000fd5b505050506040513d602081101561124057600080fd5b5051815260208181019290925260400160009081208054600181018255908252919020018790556112a6565b600360006112808c8663ffffffff612a0916565b815260208082019290925260400160009081208054600181018255908252919020018790555b6112b68a8463ffffffff61228e16565b92506110ea565b611693565b600160b060020a031982167f551d1300000000000000000000000000000000000000000000000000000000001480156112f85750805b156113cc5761130d8a8563ffffffff61297716565b935061131f8a8563ffffffff6121c716565b925061132b83856128ec565b156112bd578961133a8461295a565b8151811061134457fe5b60209101015160f860020a90819004027fff0000000000000000000000000000000000000000000000000000000000000016156112bd57600160c08901526113928a8463ffffffff61228e16565b925061139e83856128ec565b156113c0576113b38a8463ffffffff6122a516565b60ff1660e08901526112bd565b60ff60e0890152611693565b600160b060020a031982167f551d0f0000000000000000000000000000000000000000000000000000000000141561147e576101008801805160016020909101525181151590526114238a8563ffffffff61297716565b935060006114378b8663ffffffff61241d16565b6101008a810151608061ffff60f860020a600286901a810281900460ff90811660019790971a82029190910416909302939093018216929092041660409091015250611693565b600160b060020a031982167f551d25000000000000000000000000000000000000000000000000000000000014156115b4576101208801805160016020909101525181151590526114d58a8563ffffffff61297716565b93506114e78a8563ffffffff6121c716565b925060005b6114f684866128ec565b156115155760010161150e8b8563ffffffff61228e16565b93506114ec565b606081604051908082528060200260200182016040528015611541578160200160208202803883390190505b5090506115548c8763ffffffff6121c716565b945060005b828110156115a3576115718d8763ffffffff61241d16565b828281518110151561157f57fe5b602090810290910101526115998d8763ffffffff61228e16565b9550600101611559565b506101208a01516040015250611693565b60005474010000000000000000000000000000000000000000900476010000000000000000000000000000000000000000000002600160b060020a0319908116908316141561160a576001610140890152611693565b600160b060020a031982167f551d1e000000000000000000000000000000000000000000000000000000000014156116765760405160e560020a62461bcd028152600401808060200182810382526028815260200180612ec56028913960400191505060405180910390fd5b80156116935761168c8a8763ffffffff6128b916565b6101608901525b6116a38a8663ffffffff61228e16565b9450610fa0565b50505b856001600087815260200190815260200160002060008201518160000160006101000a815481600160a060020a030219169083600160a060020a031602179055506020820151816001015560408201518160020160006101000a81548164ffffffffff021916908364ffffffffff16021790555060608201518160020160056101000a815481600160a060020a030219169083600160a060020a0316021790555060808201518160020160196101000a81548164ffffffffff021916908364ffffffffff16021790555060a08201518160030160006101000a81548164ffffffffff021916908364ffffffffff16021790555060c08201518160030160056101000a81548160ff02191690831515021790555060e08201518160030160066101000a81548160ff021916908360ff1602179055506101008201518160040160008201518160000160006101000a81548160ff02191690831515021790555060208201518160000160016101000a81548160ff02191690831515021790555060408201518160000160026101000a81548161ffff021916908361ffff16021790555050506101208201518160050160008201518160000160006101000a81548160ff02191690831515021790555060208201518160000160016101000a81548160ff02191690831515021790555060408201518160010190805190602001906118b6929190612dc3565b50505061014082015160078201805460ff19169115159190911790556101609091015160089091015560208681015160009081526001909152604090206003015460ff6501000000000090910416151561195a576040805160e560020a62461bcd02815260206004820152601360248201527f496e76616c696420706172656e74206365727400000000000000000000000000604482015290519081900360640190fd5b8560c00151801561196f575085602001518514155b15611a2a576020808701516000908152600190915260409020600301546601000000000000900460ff90811614806119d4575060e086015160208088015160009081526001909152604090206003015460ff9182166601000000000000909104909116115b1515611a2a576040805160e560020a62461bcd02815260206004820152601360248201527f496e76616c696420706172656e74206365727400000000000000000000000000604482015290519081900360640190fd5b8560c001511515611a84576101008601516040015160089081161415611a845760405160e560020a62461bcd02815260040180806020018281038252603a815260200180612e8b603a913960400191505060405180910390fd5b5050505050505050565b6000815b600081815260016020819052604090912001548114611ac35760009081526001602081905260409091200154611a92565b92915050565b60009081526001602052604090206007015460ff1690565b600054600160a060020a03163314611af857600080fd5b6000805476010000000000000000000000000000000000000000000090920474010000000000000000000000000000000000000000027fffff00000000000000000000ffffffffffffffffffffffffffffffffffffffff909216919091179055565b604080516c01000000000000000000000000330260208201526000194301804060348084019190915283518084039091018152605490920190925291565b60009081526001602052604090206005015460ff1690565b60009081526001602052604090206004015460ff1690565b60009081526001602052604090206008015490565b60008181526001602052604090206003015460ff6501000000000082048116916601000000000000900416915091565b60009081526001602052604090206003015464ffffffffff1690565b60009081526003602052604090205490565b60006060611c47612e0e565b600084815260016020908152604091829020825160608101845260058201805460ff80821615158452610100909104161515828501526006909201805485518186028101860187528181529295939493860193830182828015611cc957602002820191906000526020600020905b815481526020019060010190808311611cb5575b505050919092525050506020810151604090910151909350915050915091565b600090815260016020526040902060080154151590565b600054600160a060020a03163314611d1757600080fd5b600082815260026020908152604091829020805473ffffffffffffffffffffffffffffffffffffffff1916600160a060020a03851690811790915582518581529182015281517f65146a769582c865299fe09a84142c84d0f1d4df1dbaaaf2301857e665beb2d7929181900390910190a15050565b6000868660405180838380828437604080519390910183900383206c01000000000000000000000000330260208501528940603480860191909152825180860390910181526054850180845282905291519097509095507f5c088381a25fb06fe5d3936d0346b98d68146eea6dd3801386069db26fbac84f945091829003607401925050a16101004385900310611e6d576040805160e560020a62461bcd02815260206004820152601160248201527f5369676e617475726520746f6f206f6c64000000000000000000000000000000604482015290519081900360640190fd5b600083815260026020526040908190205490517fde8f50a1000000000000000000000000000000000000000000000000000000008152606060048201908152606482018a9052600160a060020a039092169163de8f50a1918b918b9186918c918c91908190602481019060448101906084018989808284376000838201819052601f909101601f19169092018681038552895181528951602091820193918b019250908190849084905b83811015611f2f578181015183820152602001611f17565b50505050905090810190601f168015611f5c5780820380516001836020036101000a031916815260200191505b508481038252858152602001868680828437600081840152601f19601f8201169050808301925050509850505050505050505060206040518083038186803b158015611fa757600080fd5b505afa158015611fbb573d6000803e3d6000fd5b505050506040513d6020811015611fd157600080fd5b50511515612029576040805160e560020a62461bcd02815260206004820152601660248201527f5369676e617475726520646f65736e74206d6174636800000000000000000000604482015290519081900360640190fd5b506000908152600160205260409020805473ffffffffffffffffffffffffffffffffffffffff191633179055505050505050565b600054600160a060020a0316331461207457600080fd5b60005460408051600160a060020a039283168152918316602083015280517f7699c77f2404f9b6bbd003861bb4af8ae70b205e19e73d7ec7fe4590db59a6b79281900390910190a16000805473ffffffffffffffffffffffffffffffffffffffff1916600160a060020a0392909216919091179055565b60006120f5612e2d565b6120fd612e4d565b50600083815260016020908152604091829020825160608101845260049091015460ff8082161515835261010080830490911615159383019390935262010000900461ffff1692810192909252612152612e2d565b8260200151156121a95760005b60098110156121a7578261ffff168385604001511661ffff1614828260098110151561218757fe5b9115156020929092020152600261ffff909316929092049160010161215f565b505b602090920151935090915050915091565b6000611ac3826000612a20565b6000826121d38361227f565b815181106121dd57fe5b01602001517f200000000000000000000000000000000000000000000000000000000000000060f860020a91829004909102811614612266576040805160e560020a62461bcd02815260206004820152601660248201527f4e6f74206120636f6e7374727563746564207479706500000000000000000000604482015290519081900360640190fd5b612278836122738461295a565b612a20565b9392505050565b69ffffffffffffffffffff1690565b60006122788361229d84612bc5565b600101612a20565b6000826122b18361227f565b815181106122bb57fe5b90602001015160f860020a900460f860020a02600160f860020a031916600260f860020a02141515612337576040805160e560020a62461bcd02815260206004820152601060248201527f4e6f74207479706520494e544547455200000000000000000000000000000000604482015290519081900360640190fd5b826123418361295a565b8151811061234b57fe5b60209101015160f860020a90819004027f800000000000000000000000000000000000000000000000000000000000000016156123d2576040805160e560020a62461bcd02815260206004820152600c60248201527f4e6f7420706f7369746976650000000000000000000000000000000000000000604482015290519081900360640190fd5b60006123dd8361295a565b6123e684612bc5565b6001010390508060200360080261240d6123ff8561295a565b86908463ffffffff612bec16565b60029190910a9004949350505050565b600061227861242b8361295a565b6124348461295a565b61243d85612bc5565b869291900360010163ffffffff612bec16565b606061227861245e8361227f565b6124678461227f565b61247085612bc5565b869291900360010163ffffffff612c2616565b60606122786124918361295a565b6124678461295a565b6000806000806000806000808851600d141561250057600560308a60008151811015156124c357fe5b90602001015160f860020a900460f860020a0260f860020a90040360ff1610156124f3576107d0870196506124fb565b61076c870196505b61256f565b603089600181518110151561251157fe5b90602001015160f860020a900460f860020a0260f860020a90040360640260ff1660308a600081518110151561254357fe5b90602001015160f860020a900460f860020a0260f860020a90040360ff166103e8020187019650600290505b6030898260010160ff1681518110151561258557fe5b90602001015160f860020a900460f860020a0260f860020a900460308b8460000160ff168151811015156125b557fe5b90602001015160f860020a900460f860020a0260f860020a900403600a02010360ff16870196506030898260030160ff168151811015156125f257fe5b90602001015160f860020a900460f860020a0260f860020a900460308b8460020160ff1681518110151561262257fe5b90602001015160f860020a900460f860020a0260f860020a900403600a02010395506030898260050160ff1681518110151561265a57fe5b90602001015160f860020a900460f860020a0260f860020a900460308b8460040160ff1681518110151561268a57fe5b90602001015160f860020a900460f860020a0260f860020a900403600a020103850194506030898260070160ff168151811015156126c457fe5b90602001015160f860020a900460f860020a0260f860020a900460308b8460060160ff168151811015156126f457fe5b90602001015160f860020a900460f860020a0260f860020a900403600a020103840193506030898260090160ff1681518110151561272e57fe5b90602001015160f860020a900460f860020a0260f860020a900460308b8460080160ff1681518110151561275e57fe5b90602001015160f860020a900460f860020a0260f860020a900403600a0201038301925060308982600b0160ff1681518110151561279857fe5b90602001015160f860020a900460f860020a0260f860020a900460308b84600a0160ff168151811015156127c857fe5b60209101810151600554604080517f9054bdec00000000000000000000000000000000000000000000000000000000815261ffff8f16600482015260ff8e811660248301528d811660448301528c811660648301528b8116608483015260f860020a9485900485029490940495909503600a0295909501959095039690960195861660a48301529151600160a060020a0390931692639054bdec9260c480840193919291829003018186803b15801561288057600080fd5b505afa158015612894573d6000803e3d6000fd5b505050506040513d60208110156128aa57600080fd5b50519998505050505050505050565b60006122786128c78361227f565b6128d08461227f565b6128d985612bc5565b869291900360010163ffffffff612c8916565b60006128f78261227f565b6129008461295a565b1115801561291e575061291283612bc5565b61291b83612bc5565b11155b80612278575061292d8361227f565b6129368361295a565b11158015612278575061294882612bc5565b61295184612bc5565b11159392505050565b6a0100000000000000000000900469ffffffffffffffffffff1690565b6000826129838361227f565b8151811061298d57fe5b90602001015160f860020a900460f860020a02600160f860020a031916600460f860020a02141515612266576040805160e560020a62461bcd02815260206004820152601560248201527f4e6f742074797065204f4354455420535452494e470000000000000000000000604482015290519081900360640190fd5b6000612278612a178361295a565b6128d08461295a565b6000806000808585600101815181101515612a3757fe5b60209101015160f860020a90819004027f8000000000000000000000000000000000000000000000000000000000000000161515612abe578585600101815181101515612a8057fe5b90602001015160f860020a900460f860020a0260f860020a900460ff1692508460020191506001838369ffffffffffffffffffff1601039050612b98565b60008686600101815181101515612ad157fe5b90602001015160f860020a900460f860020a02607f60f860020a021660f860020a900490508060ff1660011415612b1f57612b15876002880163ffffffff612ca616565b60ff169350612b79565b8060ff1660021415612b4957612b3e876002880163ffffffff612cc616565b61ffff169350612b79565b8060200360080260ff16612b6e876002018360ff168a612bec9092919063ffffffff16565b60029190910a900493505b60ff16850160020191505060001969ffffffffffffffffffff82168301015b612bbb858369ffffffffffffffffffff168369ffffffffffffffffffff16612ce7565b9695505050505050565b74010000000000000000000000000000000000000000900469ffffffffffffffffffff1690565b60006020821115612bfc57600080fd5b83518383011115612c0c57600080fd5b506020919092018101519190036101000a60001901191690565b82516060908383011115612c3957600080fd5b6060826040519080825280601f01601f191660200182016040528015612c66576020820181803883390190505b50905060208082019086860101612c7e828287612d16565b509095945050505050565b82516000908383011115612c9c57600080fd5b5091016020012090565b8151600090600183011115612cba57600080fd5b50016001015160ff1690565b8151600090600283011115612cda57600080fd5b50016002015161ffff1690565b74010000000000000000000000000000000000000000026a010000000000000000000091909102919091171790565b5b60208110612d36578151835260209283019290910190601f1901612d17565b905182516020929092036101000a6000190180199091169116179052565b6040805161020081018252600080825260208201819052918101829052606081018290526080810182905260a0810182905260c0810182905260e08101919091526101008101612da2612e4d565b8152602001612daf612e0e565b815260006020820181905260409091015290565b828054828255906000526020600020908101928215612dfe579160200282015b82811115612dfe578251825591602001919060010190612de3565b50612e0a929150612e6d565b5090565b6040805160608181018352600080835260208301529181019190915290565b610120604051908101604052806009906020820280388339509192915050565b604080516060810182526000808252602082018190529181019190915290565b612e8791905b80821115612e0a5760008155600101612e73565b9056fe634120626f6f6c65616e206973206e6f7420617373657274656420616e64206b6579436572745369676e206269742069732061737365727465644e616d6520636f6e73747261696e747320657874656e73696f6e206e6f7420737570706f72746564a165627a7a72305820a162b43ba8770e70fd09f85cb3f1215185fe39d9e366af3a62419c50d1de6a690029",
  "source": "pragma solidity  ^0.5.2;\r\n\r\nimport \"./Ownable.sol\";\r\nimport \"asn1-decode/contracts/Asn1Decode.sol\";\r\n//import \"solidity-bytes-utils/contracts/BytesUtils.sol\";\r\nimport \"sig-verify-algs/contracts/Algorithm.sol\";\r\nimport \"ens-namehash/contracts/ENSNamehash.sol\";\r\nimport \"ethereum-datetime/contracts/DateTime.sol\";\r\n\r\n/*\r\n * @dev Stores validated X.509 certificate chains in parent pointer trees.\r\n * @dev The root of each tree is a CA root certificate\r\n */\r\ncontract X509ForestOfTrust is Ownable {\r\n  using Asn1Decode for bytes;\r\n  using ENSNamehash for bytes;\r\n\r\n  bytes10 constant private OID_SUBJECT_ALT_NAME   = 0x551d1100000000000000;\r\n  bytes10 constant private OID_BASIC_CONSTRAINTS  = 0x551d1300000000000000;\r\n  bytes10 constant private OID_NAME_CONSTRAINTS   = 0x551d1e00000000000000;\r\n  bytes10 constant private OID_KEY_USAGE          = 0x551d0f00000000000000;\r\n  bytes10 constant private OID_EXTENDED_KEY_USAGE = 0x551d2500000000000000;\r\n  bytes10 private OID_CAN_SIGN_HTTP_EXCHANGES     = 0x2b06010401d679020116; // Not constant because spec may change\r\n\r\n  constructor(address sha256WithRSAEncryption, address _dateTime) public {\r\n    bytes32 algOid = 0x2a864886f70d01010b0000000000000000000000000000000000000000000000;\r\n    algs[algOid] = Algorithm(sha256WithRSAEncryption);\r\n    dateTime = DateTime(_dateTime);\r\n  }\r\n\r\n  struct KeyUsage {\r\n    bool critical;\r\n    bool present;\r\n    uint16 bits;              // Value of KeyUsage bits. (E.g. 5 is 000000101)\r\n  }\r\n  struct ExtKeyUsage {\r\n    bool critical;\r\n    bool present;\r\n    bytes32[] oids;\r\n  }\r\n  struct Certificate {\r\n    address owner;\r\n    bytes32 parentId;\r\n    uint40 timestamp;\r\n    uint160 serialNumber;\r\n    uint40 validNotBefore;\r\n    uint40 validNotAfter;\r\n    bool cA;                  // Whether the certified public key may be used to verify certificate signatures.\r\n    uint8 pathLenConstraint;  // Maximum number of non-self-issued intermediate certs that may follow this\r\n                              // cert in a valid certification path.\r\n    KeyUsage keyUsage;\r\n    ExtKeyUsage extKeyUsage;\r\n    bool sxg;                 // canSignHttpExchanges extension is present.\r\n    bytes32 extId;            // keccak256 of extensions field for further validation.\r\n                              // Equal to 0x0 unless a critical extension was found but not parsed.\r\n                              // This should always be checked on leaf certificates\r\n  }\r\n\r\n  mapping (bytes32 => Certificate) private certs;     // certId => cert  (certId is keccak256(pubKey))\r\n  mapping (bytes32 => Algorithm)   private algs;      // algorithm oid bytes => signature verification contract\r\n  mapping (bytes32 => bytes32[])   public  toCertIds; // ensNamehash(subjectAltName) => certId\r\n  mapping (bytes32 => bytes32)     public  toCertId;  // sha256 fingerprint => certId\r\n  DateTime dateTime;                                  // For dateTime conversion\r\n\r\n  event CertAdded(bytes32);\r\n  event CertClaimed(bytes32);\r\n  event AlgSet(bytes32, address);\r\n\r\n  /**\r\n   * @dev Add a X.509 certificate to an existing tree/chain\r\n   * @param cert A DER-encoded X.509 certificate\r\n   * @param parentPubKey The parent certificate's DER-encoded public key\r\n   */\r\n  function addCert(bytes memory cert, bytes memory parentPubKey)\r\n  public\r\n  {\r\n    Certificate memory certificate;\r\n    bytes32 certId;\r\n    uint node1;\r\n    uint node2;\r\n    uint node3;\r\n    uint node4;\r\n\r\n    certificate.parentId = keccak256(parentPubKey);\r\n    certificate.timestamp = uint40(block.timestamp);\r\n\r\n    node1 = cert.root();\r\n    node1 = cert.firstChildOf(node1);\r\n    node2 = cert.firstChildOf(node1);\r\n    if (cert[NodePtr.ixs(node2)] == 0xa0) {\r\n      node2 = cert.nextSiblingOf(node2);\r\n    }\r\n    // Extract serial number\r\n    certificate.serialNumber = uint160(cert.uintAt(node2));\r\n\r\n    node2 = cert.nextSiblingOf(node2);\r\n    node2 = cert.firstChildOf(node2);\r\n    node3 = cert.nextSiblingOf(node1);\r\n    node3 = cert.nextSiblingOf(node3);\r\n    // Verify signature\r\n    require(algs[cert.bytes32At(node2)].verify(parentPubKey, cert.allBytesAt(node1), cert.bytesAt(node3)), \"Signature doesnt match\");\r\n\r\n    node1 = cert.firstChildOf(node1);\r\n    node1 = cert.nextSiblingOf(node1);\r\n    node1 = cert.nextSiblingOf(node1);\r\n    node1 = cert.nextSiblingOf(node1);\r\n    node1 = cert.nextSiblingOf(node1);\r\n\r\n    node2 = cert.firstChildOf(node1);\r\n    // Check validNotBefore\r\n    certificate.validNotBefore = uint40(toTimestamp(cert.bytesAt(node2)));\r\n    require(certificate.validNotBefore <= now, \"Now is before validNotBefore\");\r\n    node2 = cert.nextSiblingOf(node2);\r\n    // Check validNotAfter\r\n    certificate.validNotAfter = uint40(toTimestamp(cert.bytesAt(node2)));\r\n    require(now <= certificate.validNotAfter, \"Now is after validNotAfter\");\r\n\r\n    node1 = cert.nextSiblingOf(node1);\r\n    node1 = cert.nextSiblingOf(node1);\r\n    // Get public key and calculate certId from it\r\n    certId = cert.keccakOfAllBytesAt(node1);\r\n    // Cert must not already exist\r\n    // Prevents duplicate references and owner from being overridden\r\n    require(certs[certId].validNotAfter == 0);\r\n    // Fire event\r\n    emit CertAdded(certId);\r\n\r\n    // Add reference from sha256 fingerprint\r\n    toCertId[sha256(cert)] = certId;\r\n\r\n    node1 = cert.nextSiblingOf(node1);\r\n\r\n    // Skip over v2 fields\r\n    if (cert[NodePtr.ixs(node1)] == 0xa1)\r\n      node1 = cert.nextSiblingOf(node1);\r\n    if (cert[NodePtr.ixs(node1)] == 0xa2)\r\n      node1 = cert.nextSiblingOf(node1);\r\n\r\n    // Parse extensions\r\n    if (cert[NodePtr.ixs(node1)] == 0xa3) {\r\n      node1 = cert.firstChildOf(node1);\r\n      node2 = cert.firstChildOf(node1);\r\n      bytes10 oid;\r\n      bool isCritical;\r\n      while (Asn1Decode.isChildOf(node2, node1)) {\r\n        node3 = cert.firstChildOf(node2);\r\n        oid = bytes10(cert.bytes32At(node3)); // Extension oid\r\n        node3 = cert.nextSiblingOf(node3);\r\n        // Check if extension is critical\r\n        if (cert[NodePtr.ixs(node3)] == 0x01) { // If type is bool\r\n          if (cert[NodePtr.ixf(node3)] != 0x00) // If not false\r\n            isCritical = true;\r\n          node3 = cert.nextSiblingOf(node3);\r\n        }\r\n        if (oid == OID_SUBJECT_ALT_NAME) {\r\n          // Add references from names\r\n          node3 = cert.rootOfOctetStringAt(node3);\r\n          node4 = cert.firstChildOf(node3);\r\n          while (Asn1Decode.isChildOf(node4, node3)) {\r\n            if(cert[NodePtr.ixs(node4)] == 0x82)\r\n              toCertIds[cert.bytesAt(node4).namehash()].push(certId);\r\n            else\r\n              toCertIds[cert.keccakOfBytesAt(node4)].push(certId);\r\n            node4 = cert.nextSiblingOf(node4);\r\n          }\r\n        }\r\n        else if (oid == OID_BASIC_CONSTRAINTS && isCritical) {\r\n          // Check if cert can sign other certs\r\n          node3 = cert.rootOfOctetStringAt(node3);\r\n          node4 = cert.firstChildOf(node3);\r\n          // If sequence (node3) is not empty\r\n          if (Asn1Decode.isChildOf(node4, node3)) {\r\n            // If value == true\r\n            if (cert[NodePtr.ixf(node4)] != 0x00) {\r\n              certificate.cA = true;\r\n              node4 = cert.nextSiblingOf(node4);\r\n              if (Asn1Decode.isChildOf(node4, node3)) {\r\n                certificate.pathLenConstraint = uint8(cert.uintAt(node4));\r\n              }\r\n              else {\r\n                certificate.pathLenConstraint = uint8(-1);\r\n              }\r\n            }\r\n          }\r\n        }\r\n        else if (oid == OID_KEY_USAGE) {\r\n          certificate.keyUsage.present = true;\r\n          certificate.keyUsage.critical = isCritical;\r\n          node3 = cert.rootOfOctetStringAt(node3);\r\n          bytes3 v = bytes3(cert.bytes32At(node3)); // The encoded bitstring value\r\n          certificate.keyUsage.bits = ((uint16(uint8(v[1])) << 8) + uint16(uint8(v[2]))) >> 7;\r\n        }\r\n        else if (oid == OID_EXTENDED_KEY_USAGE) {\r\n          certificate.extKeyUsage.present = true;\r\n          certificate.extKeyUsage.critical = isCritical;\r\n          node3 = cert.rootOfOctetStringAt(node3);\r\n          node4 = cert.firstChildOf(node3);\r\n          uint len;\r\n          while (Asn1Decode.isChildOf(node4, node3)) {\r\n            len++;\r\n            node4 = cert.nextSiblingOf(node4);\r\n          }\r\n          bytes32[] memory oids = new bytes32[](len);\r\n          node4 = cert.firstChildOf(node3);\r\n          for (uint i; i<len; i++) {\r\n            oids[i] = cert.bytes32At(node4);\r\n            node4 = cert.nextSiblingOf(node4);\r\n          }\r\n          certificate.extKeyUsage.oids = oids;\r\n        }\r\n        else if (oid == OID_CAN_SIGN_HTTP_EXCHANGES) {\r\n          certificate.sxg = true;\r\n        }\r\n        else if (oid == OID_NAME_CONSTRAINTS) {\r\n          // Name constraints not allowed.\r\n          require(false, \"Name constraints extension not supported\");\r\n        }\r\n        else if (isCritical) {\r\n          // Note: unrecognized critical extensions are allowed.\r\n          // Further validation of certificate is needed if extId != bytes32(0).\r\n          // Save hash of extensions\r\n          certificate.extId = cert.keccakOfAllBytesAt(node1);\r\n        }\r\n        node2 = cert.nextSiblingOf(node2);\r\n      }\r\n    }\r\n\r\n    certs[certId] = certificate;\r\n\r\n    require(certs[certificate.parentId].cA, \"Invalid parent cert\");\r\n\r\n    // If intermediate cert, verify authority's pathLenConstraint\r\n    if (certificate.cA && certId != certificate.parentId)\r\n      require(certs[certificate.parentId].pathLenConstraint == uint8(-1) || certs[certificate.parentId].pathLenConstraint > certificate.pathLenConstraint, \"Invalid parent cert\");\r\n    // RFC 5280: If the cA boolean is not asserted, then the keyCertSign\r\n    // bit in the key usage extension MUST NOT be asserted.\r\n    if (!certificate.cA)\r\n      require(certificate.keyUsage.bits & 8 != 8, \"cA boolean is not asserted and keyCertSign bit is asserted\");\r\n  }\r\n\r\n  /**\r\n   * @dev The return values of this function are used to proveOwnership() of a\r\n   *      certificate that exists in the certs mapping.\r\n   * @return Some unique bytes to be signed\r\n   * @return The block number used to create the first return value\r\n   */\r\n  function signThis()\r\n  external view returns (bytes memory, uint)\r\n  {\r\n    return ( abi.encodePacked(msg.sender, blockhash(block.number - 1)), block.number -1 );\r\n  }\r\n\r\n  /**\r\n   * @dev An account calls this method to prove ownership of a certificate.\r\n   *      If successful, certs[certId].owner will be set to caller's address.\r\n   * @param pubKey The target certificate's public key\r\n   * @param signature signThis()[0] signed with certificate's private key\r\n   * @param blockNumber The value of signThis()[1] (must be > block.number - 256)\r\n   * @param sigAlg The OID of the algorithm used to sign `signature`\r\n   */\r\n  function proveOwnership(bytes calldata pubKey, bytes calldata signature, uint blockNumber, bytes32 sigAlg)\r\n  external\r\n  {\r\n    bytes32 certId = keccak256(pubKey);\r\n    bytes memory message = abi.encodePacked(msg.sender, blockhash(blockNumber));\r\n\r\n    emit CertClaimed(certId);\r\n\r\n    // Only accept proof if it's less than 256 blocks old\r\n    // This is the most time I can give since blockhash() can only return the 256 most recent\r\n    require(block.number - blockNumber < 256, \"Signature too old\");\r\n    // Verify signature, which proves ownership\r\n    require(algs[sigAlg].verify(pubKey, message, signature), \"Signature doesnt match\");\r\n\r\n    certs[certId].owner = msg.sender;\r\n  }\r\n\r\n  function rootOf(bytes32 certId) external view returns (bytes32) {\r\n    bytes32 id = certId;\r\n    while (id != certs[id].parentId) {\r\n      id = certs[id].parentId;\r\n    }\r\n    return id;\r\n  }\r\n\r\n  function owner(bytes32 certId) external view returns (address) {\r\n    return certs[certId].owner;\r\n  }\r\n\r\n  function parentId(bytes32 certId) external view returns (bytes32) {\r\n    return certs[certId].parentId;\r\n  }\r\n\r\n  function timestamp(bytes32 certId) external view returns (uint40) {\r\n    return certs[certId].timestamp;\r\n  }\r\n\r\n  function serialNumber(bytes32 certId) external view returns (uint160) {\r\n    return certs[certId].serialNumber;\r\n  }\r\n\r\n  function validNotBefore(bytes32 certId) external view returns (uint40) {\r\n    return certs[certId].validNotBefore;\r\n  }\r\n\r\n  function validNotAfter(bytes32 certId) external view returns (uint40) {\r\n    return certs[certId].validNotAfter;\r\n  }\r\n\r\n  function sxg(bytes32 certId) external view returns (bool) {\r\n    return certs[certId].sxg;\r\n  }\r\n\r\n  function basicConstraints(bytes32 certId) external view returns (bool, uint8) {\r\n    return (certs[certId].cA, certs[certId].pathLenConstraint);\r\n  }\r\n\r\n  function keyUsage(bytes32 certId) external view returns (bool, bool[9] memory) {\r\n    KeyUsage memory _keyUsage = certs[certId].keyUsage;\r\n    uint16 mask = 256;\r\n    bool[9] memory flags;\r\n    if (_keyUsage.present) {\r\n      for (uint i; i<9; i++) {\r\n        flags[i] = (_keyUsage.bits & mask == mask);\r\n        mask = mask >> 1;\r\n      }\r\n    }\r\n    return (_keyUsage.present, flags);\r\n  }\r\n\r\n  function keyUsageCritical(bytes32 certId) external view returns (bool) {\r\n    return certs[certId].keyUsage.critical;\r\n  }\r\n\r\n  function extKeyUsage(bytes32 certId) external view returns (bool, bytes32[] memory) {\r\n    ExtKeyUsage memory _extKeyUsage = certs[certId].extKeyUsage;\r\n    return (_extKeyUsage.present, _extKeyUsage.oids);\r\n  }\r\n\r\n  function extKeyUsageCritical(bytes32 certId) external view returns (bool) {\r\n    return certs[certId].extKeyUsage.critical;\r\n  }\r\n\r\n  function unparsedCriticalExtensionPresent(bytes32 certId) external view returns (bool) {\r\n    return (certs[certId].extId != bytes32(0));\r\n  }\r\n\r\n  function extId(bytes32 certId) external view returns (bytes32) {\r\n    return certs[certId].extId;\r\n  }\r\n\r\n  function toCertIdsLength(bytes32 _hash) external view returns (uint) {\r\n    return toCertIds[_hash].length;\r\n  }\r\n\r\n  function toTimestamp(bytes memory x509Time) private view returns (uint) {\r\n    uint16 yrs;  uint8 mnths;\r\n    uint8  dys;  uint8 hrs;\r\n    uint8  mins; uint8 secs;\r\n    uint8  offset;\r\n\r\n    if (x509Time.length == 13) {\r\n      if (uint8(x509Time[0])-48 < 5) yrs += 2000;\r\n      else yrs += 1900;\r\n    }\r\n    else {\r\n      yrs += (uint8(x509Time[0])-48) * 1000 + (uint8(x509Time[1])-48) * 100;\r\n      offset = 2;\r\n    }\r\n    yrs +=  (uint8(x509Time[offset+0])-48)*10 + uint8(x509Time[offset+1])-48;\r\n    mnths = (uint8(x509Time[offset+2])-48)*10 + uint8(x509Time[offset+3])-48;\r\n    dys +=  (uint8(x509Time[offset+4])-48)*10 + uint8(x509Time[offset+5])-48;\r\n    hrs +=  (uint8(x509Time[offset+6])-48)*10 + uint8(x509Time[offset+7])-48;\r\n    mins += (uint8(x509Time[offset+8])-48)*10 + uint8(x509Time[offset+9])-48;\r\n    secs += (uint8(x509Time[offset+10])-48)*10 + uint8(x509Time[offset+11])-48;\r\n\r\n    return dateTime.toTimestamp(yrs, mnths, dys, hrs, mins, secs);\r\n  }\r\n\r\n  function setAlg(bytes32 oid, address alg) external onlyOwner {\r\n    algs[oid] = Algorithm(alg);\r\n    emit AlgSet(oid, alg);\r\n  }\r\n\r\n  function setSxgOid(bytes32 sxgOid) external onlyOwner {\r\n    OID_CAN_SIGN_HTTP_EXCHANGES = bytes10(sxgOid);\r\n  }\r\n}\r\n",
  "sourcePath": "/home/jonah/x509-forest-of-trust/contracts/X509ForestOfTrust.sol",
  "compiler": {
    "name": "solc",
    "version": "0.5.2+commit.1df8f40c.Emscripten.clang"
  },
  "schemaVersion": "3.0.9",
  "updatedAt": "2019-06-17T03:04:40.768Z",
  "devdoc": {
    "methods": {
      "addCert(bytes,bytes)": {
        "details": "Add a X.509 certificate to an existing tree/chain\r",
        "params": {
          "cert": "A DER-encoded X.509 certificate\r",
          "parentPubKey": "The parent certificate's DER-encoded public key\r"
        }
      },
      "proveOwnership(bytes,bytes,uint256,bytes32)": {
        "details": "An account calls this method to prove ownership of a certificate.\r     If successful, certs[certId].owner will be set to caller's address.\r",
        "params": {
          "blockNumber": "The value of signThis()[1] (must be > block.number - 256)\r",
          "pubKey": "The target certificate's public key\r",
          "sigAlg": "The OID of the algorithm used to sign `signature`\r",
          "signature": "signThis()[0] signed with certificate's private key\r"
        }
      },
      "signThis()": {
        "details": "The return values of this function are used to proveOwnership() of a\r     certificate that exists in the certs mapping.\r",
        "return": "Some unique bytes to be signed\rThe block number used to create the first return value\r"
      }
    }
  },
  "userdoc": {
    "methods": {}
  }
}